{
  "contractName": "Custodian",
  "abi": [
    {
      "constant": true,
      "inputs": [],
      "name": "lastPrice",
      "outputs": [
        {
          "name": "priceInWei",
          "type": "uint256"
        },
        {
          "name": "timeInSecond",
          "type": "uint256"
        }
      ],
      "payable": false,
      "stateMutability": "view",
      "type": "function"
    },
    {
      "constant": true,
      "inputs": [],
      "name": "memberThresholdInWei",
      "outputs": [
        {
          "name": "",
          "type": "uint256"
        }
      ],
      "payable": false,
      "stateMutability": "view",
      "type": "function"
    },
    {
      "constant": true,
      "inputs": [
        {
          "name": "",
          "type": "address"
        }
      ],
      "name": "balancesA",
      "outputs": [
        {
          "name": "",
          "type": "uint256"
        }
      ],
      "payable": false,
      "stateMutability": "view",
      "type": "function"
    },
    {
      "constant": true,
      "inputs": [
        {
          "name": "",
          "type": "address"
        },
        {
          "name": "",
          "type": "address"
        }
      ],
      "name": "allowanceB",
      "outputs": [
        {
          "name": "",
          "type": "uint256"
        }
      ],
      "payable": false,
      "stateMutability": "view",
      "type": "function"
    },
    {
      "constant": true,
      "inputs": [
        {
          "name": "",
          "type": "uint256"
        }
      ],
      "name": "users",
      "outputs": [
        {
          "name": "",
          "type": "address"
        }
      ],
      "payable": false,
      "stateMutability": "view",
      "type": "function"
    },
    {
      "constant": true,
      "inputs": [
        {
          "name": "",
          "type": "address"
        }
      ],
      "name": "balancesB",
      "outputs": [
        {
          "name": "",
          "type": "uint256"
        }
      ],
      "payable": false,
      "stateMutability": "view",
      "type": "function"
    },
    {
      "constant": true,
      "inputs": [],
      "name": "alphaInBP",
      "outputs": [
        {
          "name": "",
          "type": "uint256"
        }
      ],
      "payable": false,
      "stateMutability": "view",
      "type": "function"
    },
    {
      "constant": true,
      "inputs": [
        {
          "name": "",
          "type": "address"
        }
      ],
      "name": "ethPendingWithdrawal",
      "outputs": [
        {
          "name": "",
          "type": "uint256"
        }
      ],
      "payable": false,
      "stateMutability": "view",
      "type": "function"
    },
    {
      "constant": true,
      "inputs": [],
      "name": "limitUpperInWei",
      "outputs": [
        {
          "name": "",
          "type": "uint256"
        }
      ],
      "payable": false,
      "stateMutability": "view",
      "type": "function"
    },
    {
      "constant": true,
      "inputs": [],
      "name": "nextResetAddrIndex",
      "outputs": [
        {
          "name": "",
          "type": "uint256"
        }
      ],
      "payable": false,
      "stateMutability": "view",
      "type": "function"
    },
    {
      "constant": true,
      "inputs": [],
      "name": "feeAccumulatedInWei",
      "outputs": [
        {
          "name": "",
          "type": "uint256"
        }
      ],
      "payable": false,
      "stateMutability": "view",
      "type": "function"
    },
    {
      "constant": true,
      "inputs": [
        {
          "name": "",
          "type": "address"
        }
      ],
      "name": "existingUsers",
      "outputs": [
        {
          "name": "",
          "type": "bool"
        }
      ],
      "payable": false,
      "stateMutability": "view",
      "type": "function"
    },
    {
      "constant": true,
      "inputs": [],
      "name": "resetPrice",
      "outputs": [
        {
          "name": "priceInWei",
          "type": "uint256"
        },
        {
          "name": "timeInSecond",
          "type": "uint256"
        }
      ],
      "payable": false,
      "stateMutability": "view",
      "type": "function"
    },
    {
      "constant": true,
      "inputs": [
        {
          "name": "",
          "type": "address"
        },
        {
          "name": "",
          "type": "address"
        }
      ],
      "name": "allowanceA",
      "outputs": [
        {
          "name": "",
          "type": "uint256"
        }
      ],
      "payable": false,
      "stateMutability": "view",
      "type": "function"
    },
    {
      "constant": true,
      "inputs": [],
      "name": "navBInWei",
      "outputs": [
        {
          "name": "",
          "type": "uint256"
        }
      ],
      "payable": false,
      "stateMutability": "view",
      "type": "function"
    },
    {
      "constant": true,
      "inputs": [],
      "name": "state",
      "outputs": [
        {
          "name": "",
          "type": "uint8"
        }
      ],
      "payable": false,
      "stateMutability": "view",
      "type": "function"
    },
    {
      "constant": true,
      "inputs": [],
      "name": "commissionRateInBP",
      "outputs": [
        {
          "name": "",
          "type": "uint256"
        }
      ],
      "payable": false,
      "stateMutability": "view",
      "type": "function"
    },
    {
      "constant": true,
      "inputs": [],
      "name": "iterationGasThreshold",
      "outputs": [
        {
          "name": "",
          "type": "uint256"
        }
      ],
      "payable": false,
      "stateMutability": "view",
      "type": "function"
    },
    {
      "constant": true,
      "inputs": [],
      "name": "periodCouponInWei",
      "outputs": [
        {
          "name": "",
          "type": "uint256"
        }
      ],
      "payable": false,
      "stateMutability": "view",
      "type": "function"
    },
    {
      "constant": true,
      "inputs": [],
      "name": "duoTokenAddress",
      "outputs": [
        {
          "name": "",
          "type": "address"
        }
      ],
      "payable": false,
      "stateMutability": "view",
      "type": "function"
    },
    {
      "constant": true,
      "inputs": [],
      "name": "betaInWei",
      "outputs": [
        {
          "name": "",
          "type": "uint256"
        }
      ],
      "payable": false,
      "stateMutability": "view",
      "type": "function"
    },
    {
      "constant": true,
      "inputs": [],
      "name": "period",
      "outputs": [
        {
          "name": "",
          "type": "uint256"
        }
      ],
      "payable": false,
      "stateMutability": "view",
      "type": "function"
    },
    {
      "constant": true,
      "inputs": [],
      "name": "limitPeriodicInWei",
      "outputs": [
        {
          "name": "",
          "type": "uint256"
        }
      ],
      "payable": false,
      "stateMutability": "view",
      "type": "function"
    },
    {
      "constant": true,
      "inputs": [],
      "name": "limitLowerInWei",
      "outputs": [
        {
          "name": "",
          "type": "uint256"
        }
      ],
      "payable": false,
      "stateMutability": "view",
      "type": "function"
    },
    {
      "constant": true,
      "inputs": [],
      "name": "navAInWei",
      "outputs": [
        {
          "name": "",
          "type": "uint256"
        }
      ],
      "payable": false,
      "stateMutability": "view",
      "type": "function"
    },
    {
      "inputs": [
        {
          "name": "ethPriceInWei",
          "type": "uint256"
        },
        {
          "name": "feeAddress",
          "type": "address"
        },
        {
          "name": "duoAddress",
          "type": "address"
        },
        {
          "name": "pf1",
          "type": "address"
        },
        {
          "name": "pf2",
          "type": "address"
        },
        {
          "name": "pf3",
          "type": "address"
        },
        {
          "name": "alpha",
          "type": "uint256"
        },
        {
          "name": "r",
          "type": "uint256"
        },
        {
          "name": "hp",
          "type": "uint256"
        },
        {
          "name": "hu",
          "type": "uint256"
        },
        {
          "name": "hd",
          "type": "uint256"
        },
        {
          "name": "c",
          "type": "uint256"
        },
        {
          "name": "p",
          "type": "uint256"
        },
        {
          "name": "memberThreshold",
          "type": "uint256"
        },
        {
          "name": "gasThreshold",
          "type": "uint256"
        }
      ],
      "payable": false,
      "stateMutability": "nonpayable",
      "type": "constructor"
    },
    {
      "anonymous": false,
      "inputs": [],
      "name": "StartTrading",
      "type": "event"
    },
    {
      "anonymous": false,
      "inputs": [],
      "name": "StartPreReset",
      "type": "event"
    },
    {
      "anonymous": false,
      "inputs": [],
      "name": "StartReset",
      "type": "event"
    },
    {
      "anonymous": false,
      "inputs": [],
      "name": "StartPostReset",
      "type": "event"
    },
    {
      "anonymous": false,
      "inputs": [
        {
          "indexed": true,
          "name": "from",
          "type": "address"
        },
        {
          "indexed": true,
          "name": "to",
          "type": "address"
        },
        {
          "indexed": false,
          "name": "value",
          "type": "uint256"
        }
      ],
      "name": "TransferA",
      "type": "event"
    },
    {
      "anonymous": false,
      "inputs": [
        {
          "indexed": true,
          "name": "from",
          "type": "address"
        },
        {
          "indexed": true,
          "name": "to",
          "type": "address"
        },
        {
          "indexed": false,
          "name": "value",
          "type": "uint256"
        }
      ],
      "name": "TransferB",
      "type": "event"
    },
    {
      "anonymous": false,
      "inputs": [
        {
          "indexed": true,
          "name": "priceInWei",
          "type": "uint256"
        },
        {
          "indexed": true,
          "name": "timeInSecond",
          "type": "uint256"
        }
      ],
      "name": "AcceptPrice",
      "type": "event"
    },
    {
      "constant": true,
      "inputs": [
        {
          "name": "priceInWei",
          "type": "uint256"
        },
        {
          "name": "timeInSecond",
          "type": "uint256"
        },
        {
          "name": "resetPriceInWei",
          "type": "uint256"
        },
        {
          "name": "resetTimeInSecond",
          "type": "uint256"
        },
        {
          "name": "bInWei",
          "type": "uint256"
        }
      ],
      "name": "calculateNav",
      "outputs": [
        {
          "name": "",
          "type": "uint256"
        },
        {
          "name": "",
          "type": "uint256"
        }
      ],
      "payable": false,
      "stateMutability": "view",
      "type": "function"
    },
    {
      "constant": false,
      "inputs": [],
      "name": "startPreReset",
      "outputs": [
        {
          "name": "success",
          "type": "bool"
        }
      ],
      "payable": false,
      "stateMutability": "nonpayable",
      "type": "function"
    },
    {
      "constant": false,
      "inputs": [],
      "name": "startPostReset",
      "outputs": [
        {
          "name": "success",
          "type": "bool"
        }
      ],
      "payable": false,
      "stateMutability": "nonpayable",
      "type": "function"
    },
    {
      "constant": false,
      "inputs": [],
      "name": "startReset",
      "outputs": [
        {
          "name": "success",
          "type": "bool"
        }
      ],
      "payable": false,
      "stateMutability": "nonpayable",
      "type": "function"
    },
    {
      "constant": true,
      "inputs": [
        {
          "name": "a",
          "type": "uint256"
        },
        {
          "name": "b",
          "type": "uint256"
        },
        {
          "name": "c",
          "type": "uint256"
        }
      ],
      "name": "getMedian",
      "outputs": [
        {
          "name": "",
          "type": "uint256"
        }
      ],
      "payable": false,
      "stateMutability": "pure",
      "type": "function"
    },
    {
      "constant": false,
      "inputs": [
        {
          "name": "priceInWei",
          "type": "uint256"
        },
        {
          "name": "timeInSecond",
          "type": "uint256"
        }
      ],
      "name": "commitPrice",
      "outputs": [
        {
          "name": "success",
          "type": "bool"
        }
      ],
      "payable": false,
      "stateMutability": "nonpayable",
      "type": "function"
    },
    {
      "constant": false,
      "inputs": [
        {
          "name": "amtInWeiA",
          "type": "uint256"
        },
        {
          "name": "amtInWeiB",
          "type": "uint256"
        }
      ],
      "name": "redeem",
      "outputs": [
        {
          "name": "success",
          "type": "bool"
        }
      ],
      "payable": false,
      "stateMutability": "nonpayable",
      "type": "function"
    },
    {
      "constant": false,
      "inputs": [
        {
          "name": "amtEthInWei",
          "type": "uint256"
        }
      ],
      "name": "withdraw",
      "outputs": [
        {
          "name": "success",
          "type": "bool"
        }
      ],
      "payable": false,
      "stateMutability": "nonpayable",
      "type": "function"
    },
    {
      "constant": false,
      "inputs": [
        {
          "name": "amountInWei",
          "type": "uint256"
        }
      ],
      "name": "collectFee",
      "outputs": [
        {
          "name": "success",
          "type": "bool"
        }
      ],
      "payable": false,
      "stateMutability": "nonpayable",
      "type": "function"
    },
    {
      "constant": false,
      "inputs": [],
      "name": "create",
      "outputs": [
        {
          "name": "success",
          "type": "bool"
        }
      ],
      "payable": true,
      "stateMutability": "payable",
      "type": "function"
    },
    {
      "constant": true,
      "inputs": [
        {
          "name": "add",
          "type": "address"
        }
      ],
      "name": "checkBalanceA",
      "outputs": [
        {
          "name": "",
          "type": "uint256"
        }
      ],
      "payable": false,
      "stateMutability": "view",
      "type": "function"
    },
    {
      "constant": true,
      "inputs": [
        {
          "name": "add",
          "type": "address"
        }
      ],
      "name": "checkBalanceB",
      "outputs": [
        {
          "name": "",
          "type": "uint256"
        }
      ],
      "payable": false,
      "stateMutability": "view",
      "type": "function"
    },
    {
      "constant": true,
      "inputs": [
        {
          "name": "_user",
          "type": "address"
        },
        {
          "name": "_spender",
          "type": "address"
        }
      ],
      "name": "checkAllowanceA",
      "outputs": [
        {
          "name": "",
          "type": "uint256"
        }
      ],
      "payable": false,
      "stateMutability": "view",
      "type": "function"
    },
    {
      "constant": true,
      "inputs": [
        {
          "name": "_user",
          "type": "address"
        },
        {
          "name": "_spender",
          "type": "address"
        }
      ],
      "name": "checkAllowanceB",
      "outputs": [
        {
          "name": "",
          "type": "uint256"
        }
      ],
      "payable": false,
      "stateMutability": "view",
      "type": "function"
    },
    {
      "constant": false,
      "inputs": [
        {
          "name": "_from",
          "type": "address"
        },
        {
          "name": "_to",
          "type": "address"
        },
        {
          "name": "_tokens",
          "type": "uint256"
        }
      ],
      "name": "transferA",
      "outputs": [
        {
          "name": "success",
          "type": "bool"
        }
      ],
      "payable": false,
      "stateMutability": "nonpayable",
      "type": "function"
    },
    {
      "constant": false,
      "inputs": [
        {
          "name": "_from",
          "type": "address"
        },
        {
          "name": "_to",
          "type": "address"
        },
        {
          "name": "_tokens",
          "type": "uint256"
        }
      ],
      "name": "transferB",
      "outputs": [
        {
          "name": "success",
          "type": "bool"
        }
      ],
      "payable": false,
      "stateMutability": "nonpayable",
      "type": "function"
    },
    {
      "constant": false,
      "inputs": [
        {
          "name": "_sender",
          "type": "address"
        },
        {
          "name": "_spender",
          "type": "address"
        },
        {
          "name": "_tokens",
          "type": "uint256"
        }
      ],
      "name": "approveA",
      "outputs": [
        {
          "name": "success",
          "type": "bool"
        }
      ],
      "payable": false,
      "stateMutability": "nonpayable",
      "type": "function"
    },
    {
      "constant": false,
      "inputs": [
        {
          "name": "_sender",
          "type": "address"
        },
        {
          "name": "_spender",
          "type": "address"
        },
        {
          "name": "_tokens",
          "type": "uint256"
        }
      ],
      "name": "approveB",
      "outputs": [
        {
          "name": "success",
          "type": "bool"
        }
      ],
      "payable": false,
      "stateMutability": "nonpayable",
      "type": "function"
    },
    {
      "constant": false,
      "inputs": [
        {
          "name": "_spender",
          "type": "address"
        },
        {
          "name": "_from",
          "type": "address"
        },
        {
          "name": "_to",
          "type": "address"
        },
        {
          "name": "_tokens",
          "type": "uint256"
        }
      ],
      "name": "transferAFrom",
      "outputs": [
        {
          "name": "success",
          "type": "bool"
        }
      ],
      "payable": false,
      "stateMutability": "nonpayable",
      "type": "function"
    },
    {
      "constant": false,
      "inputs": [
        {
          "name": "_spender",
          "type": "address"
        },
        {
          "name": "_from",
          "type": "address"
        },
        {
          "name": "_to",
          "type": "address"
        },
        {
          "name": "_tokens",
          "type": "uint256"
        }
      ],
      "name": "transferBFrom",
      "outputs": [
        {
          "name": "success",
          "type": "bool"
        }
      ],
      "payable": false,
      "stateMutability": "nonpayable",
      "type": "function"
    },
    {
      "constant": false,
      "inputs": [
        {
          "name": "newAddress",
          "type": "address"
        }
      ],
      "name": "setFeeAddress",
      "outputs": [
        {
          "name": "success",
          "type": "bool"
        }
      ],
      "payable": false,
      "stateMutability": "nonpayable",
      "type": "function"
    },
    {
      "constant": false,
      "inputs": [
        {
          "name": "newComm",
          "type": "uint256"
        }
      ],
      "name": "setCommission",
      "outputs": [
        {
          "name": "success",
          "type": "bool"
        }
      ],
      "payable": false,
      "stateMutability": "nonpayable",
      "type": "function"
    },
    {
      "constant": false,
      "inputs": [
        {
          "name": "newValue",
          "type": "uint256"
        }
      ],
      "name": "setMemberThresholdInWei",
      "outputs": [
        {
          "name": "success",
          "type": "bool"
        }
      ],
      "payable": false,
      "stateMutability": "nonpayable",
      "type": "function"
    },
    {
      "constant": false,
      "inputs": [
        {
          "name": "newValue",
          "type": "uint256"
        }
      ],
      "name": "setIterationGasThreshold",
      "outputs": [
        {
          "name": "success",
          "type": "bool"
        }
      ],
      "payable": false,
      "stateMutability": "nonpayable",
      "type": "function"
    },
    {
      "constant": false,
      "inputs": [
        {
          "name": "newValue",
          "type": "uint256"
        }
      ],
      "name": "setPreResetWaitingBlocks",
      "outputs": [
        {
          "name": "success",
          "type": "bool"
        }
      ],
      "payable": false,
      "stateMutability": "nonpayable",
      "type": "function"
    },
    {
      "constant": false,
      "inputs": [
        {
          "name": "newValue",
          "type": "uint256"
        }
      ],
      "name": "setPostResetWaitingBlocks",
      "outputs": [
        {
          "name": "success",
          "type": "bool"
        }
      ],
      "payable": false,
      "stateMutability": "nonpayable",
      "type": "function"
    },
    {
      "constant": false,
      "inputs": [
        {
          "name": "newValue",
          "type": "uint256"
        }
      ],
      "name": "setPriceTolInBP",
      "outputs": [
        {
          "name": "success",
          "type": "bool"
        }
      ],
      "payable": false,
      "stateMutability": "nonpayable",
      "type": "function"
    },
    {
      "constant": false,
      "inputs": [
        {
          "name": "newValue",
          "type": "uint256"
        }
      ],
      "name": "setPriceFeedTolInBP",
      "outputs": [
        {
          "name": "success",
          "type": "bool"
        }
      ],
      "payable": false,
      "stateMutability": "nonpayable",
      "type": "function"
    },
    {
      "constant": false,
      "inputs": [
        {
          "name": "newValue",
          "type": "uint256"
        }
      ],
      "name": "setPriceFeedTimeTol",
      "outputs": [
        {
          "name": "success",
          "type": "bool"
        }
      ],
      "payable": false,
      "stateMutability": "nonpayable",
      "type": "function"
    },
    {
      "constant": false,
      "inputs": [
        {
          "name": "newValue",
          "type": "uint256"
        }
      ],
      "name": "setPriceUpdateCoolDown",
      "outputs": [
        {
          "name": "success",
          "type": "bool"
        }
      ],
      "payable": false,
      "stateMutability": "nonpayable",
      "type": "function"
    },
    {
      "constant": true,
      "inputs": [],
      "name": "getNumOfUsers",
      "outputs": [
        {
          "name": "",
          "type": "uint256"
        }
      ],
      "payable": false,
      "stateMutability": "view",
      "type": "function"
    }
  ],
  "bytecode": "0x6060604052670de0b6b3a7640000601a55600a601f55600a6020556101f46021556064602255603c602355600060255560006026556000602755600060285534156200004a57600080fd5b6040516101e080620050458339810160405280805190602001909190805190602001909190805190602001909190805190602001909190805190602001909190805190602001909190805190602001909190805190602001909190805190602001909190805190602001909190805190602001909190805190602001909190805190602001909190805190602001909190805190602001909190505060008060006101000a81548160ff021916908360058111156200010557fe5b021790555033600e60006101000a81548173ffffffffffffffffffffffffffffffffffffffff021916908373ffffffffffffffffffffffffffffffffffffffff160217905550601260058190555060646018819055508d600060016101000a81548173ffffffffffffffffffffffffffffffffffffffff021916908373ffffffffffffffffffffffffffffffffffffffff1602179055508e600f60000181905550620001c462000371640100000000026200463d176401000000009004565b600f600101819055508e601160000181905550620001f562000371640100000000026200463d176401000000009004565b6011600101819055508b600160006101000a81548173ffffffffffffffffffffffffffffffffffffffff021916908373ffffffffffffffffffffffffffffffffffffffff1602179055508a600260006101000a81548173ffffffffffffffffffffffffffffffffffffffff021916908373ffffffffffffffffffffffffffffffffffffffff16021790555089600360006101000a81548173ffffffffffffffffffffffffffffffffffffffff021916908373ffffffffffffffffffffffffffffffffffffffff1602179055508c600460006101000a81548173ffffffffffffffffffffffffffffffffffffffff021916908373ffffffffffffffffffffffffffffffffffffffff1602179055508860138190555087601481905550866015819055508560168190555084601781905550836018819055508260198190555081601d8190555080601e819055506001601b819055506001601c81905550610258830360248190555050505050505050505050505050505062000379565b600042905090565b614cbc80620003896000396000f30060606040526004361061029e576000357c0100000000000000000000000000000000000000000000000000000000900463ffffffff16806303ee06f4146102a3578063053f14da146102e7578063060babfa146103175780630e25597114610340578063116a97f41461038d578063134e92a8146103da5780631b7468da146104075780632071033a1461044257806324ca0be2146104bb5780632bfe169f146105275780632e1a7d4d146105a057806332a3bc0c146105db578063355e6b4314610608578063365b98b21461064357806355631469146106a657806356f0e55b146106f35780635f30e6531461075f5780636797dd2d1461079a578063744b6bb514610813578063751103bb1461083c57806376ee0852146108a857806378e80fc7146109405780637cbc23731461098d57806381a6a1ee146109d15780638705fcd4146109fa578063880e97a014610a4b5780638d03174f14610a74578063923fdcfe14610aaf57806393b72fce14610adc5780639bbcc88814610b3e5780639d6919ce14610b675780639e3b9e4c14610ba2578063a817f33414610bcb578063a969ff0a14610c63578063afffcf1014610c9e578063b337f8cc14610d17578063b401b09814610d68578063bafb733614610da3578063bb208c8114610dd3578063bf1f6d4514610e3f578063c19d93fb14610e68578063c45fa23314610e9f578063ce90db8814610eec578063d68533aa14610f15578063d96539a014610f3e578063dd9df07d14610f87578063ddfcb19a14610fc2578063e6dde2f214610feb578063e763b91414611040578063ec2b0bfd1461107b578063edc30170146110a4578063ef78d4fd146110df578063efc81a8c14611108578063f01265e81461112a578063f3d1ccc914611153578063f70781791461117c575b600080fd5b34156102ae57600080fd5b6102cd60048080359060200190919080359060200190919050506111a5565b604051808215151515815260200191505060405180910390f35b34156102f257600080fd5b6102fa6118af565b604051808381526020018281526020019250505060405180910390f35b341561032257600080fd5b61032a6118c1565b6040518082815260200191505060405180910390f35b341561034b57600080fd5b610377600480803573ffffffffffffffffffffffffffffffffffffffff169060200190919050506118c7565b6040518082815260200191505060405180910390f35b341561039857600080fd5b6103c4600480803573ffffffffffffffffffffffffffffffffffffffff169060200190919050506118df565b6040518082815260200191505060405180910390f35b34156103e557600080fd5b6103ed611928565b604051808215151515815260200191505060405180910390f35b341561041257600080fd5b6104286004808035906020019091905050611b86565b604051808215151515815260200191505060405180910390f35b341561044d57600080fd5b6104a1600480803573ffffffffffffffffffffffffffffffffffffffff1690602001909190803573ffffffffffffffffffffffffffffffffffffffff16906020019091908035906020019091905050611c2b565b604051808215151515815260200191505060405180910390f35b34156104c657600080fd5b610511600480803573ffffffffffffffffffffffffffffffffffffffff1690602001909190803573ffffffffffffffffffffffffffffffffffffffff16906020019091905050612047565b6040518082815260200191505060405180910390f35b341561053257600080fd5b610586600480803573ffffffffffffffffffffffffffffffffffffffff1690602001909190803573ffffffffffffffffffffffffffffffffffffffff1690602001909190803590602001909190505061206c565b604051808215151515815260200191505060405180910390f35b34156105ab57600080fd5b6105c16004808035906020019091905050612488565b604051808215151515815260200191505060405180910390f35b34156105e657600080fd5b6105ee612618565b604051808215151515815260200191505060405180910390f35b341561061357600080fd5b6106296004808035906020019091905050612bdc565b604051808215151515815260200191505060405180910390f35b341561064e57600080fd5b6106646004808035906020019091905050612ca0565b604051808273ffffffffffffffffffffffffffffffffffffffff1673ffffffffffffffffffffffffffffffffffffffff16815260200191505060405180910390f35b34156106b157600080fd5b6106dd600480803573ffffffffffffffffffffffffffffffffffffffff16906020019091905050612cdf565b6040518082815260200191505060405180910390f35b34156106fe57600080fd5b610749600480803573ffffffffffffffffffffffffffffffffffffffff1690602001909190803573ffffffffffffffffffffffffffffffffffffffff16906020019091905050612cf7565b6040518082815260200191505060405180910390f35b341561076a57600080fd5b6107806004808035906020019091905050612d7e565b604051808215151515815260200191505060405180910390f35b34156107a557600080fd5b6107f9600480803573ffffffffffffffffffffffffffffffffffffffff1690602001909190803573ffffffffffffffffffffffffffffffffffffffff16906020019091908035906020019091905050612e23565b604051808215151515815260200191505060405180910390f35b341561081e57600080fd5b610826612eb1565b6040518082815260200191505060405180910390f35b341561084757600080fd5b610892600480803573ffffffffffffffffffffffffffffffffffffffff1690602001909190803573ffffffffffffffffffffffffffffffffffffffff16906020019091905050612eb7565b6040518082815260200191505060405180910390f35b34156108b357600080fd5b610926600480803573ffffffffffffffffffffffffffffffffffffffff1690602001909190803573ffffffffffffffffffffffffffffffffffffffff1690602001909190803573ffffffffffffffffffffffffffffffffffffffff16906020019091908035906020019091905050612f3e565b604051808215151515815260200191505060405180910390f35b341561094b57600080fd5b610977600480803573ffffffffffffffffffffffffffffffffffffffff16906020019091905050613126565b6040518082815260200191505060405180910390f35b341561099857600080fd5b6109b7600480803590602001909190803590602001909190505061313e565b604051808215151515815260200191505060405180910390f35b34156109dc57600080fd5b6109e46135fa565b6040518082815260200191505060405180910390f35b3415610a0557600080fd5b610a31600480803573ffffffffffffffffffffffffffffffffffffffff16906020019091905050613600565b604051808215151515815260200191505060405180910390f35b3415610a5657600080fd5b610a5e6136df565b6040518082815260200191505060405180910390f35b3415610a7f57600080fd5b610a9560048080359060200190919050506136ec565b604051808215151515815260200191505060405180910390f35b3415610aba57600080fd5b610ac2613791565b604051808215151515815260200191505060405180910390f35b3415610ae757600080fd5b610b21600480803590602001909190803590602001909190803590602001909190803590602001909190803590602001909190505061385f565b604051808381526020018281526020019250505060405180910390f35b3415610b4957600080fd5b610b516139ee565b6040518082815260200191505060405180910390f35b3415610b7257600080fd5b610b8860048080359060200190919050506139f4565b604051808215151515815260200191505060405180910390f35b3415610bad57600080fd5b610bb5613a99565b6040518082815260200191505060405180910390f35b3415610bd657600080fd5b610c49600480803573ffffffffffffffffffffffffffffffffffffffff1690602001909190803573ffffffffffffffffffffffffffffffffffffffff1690602001909190803573ffffffffffffffffffffffffffffffffffffffff16906020019091908035906020019091905050613a9f565b604051808215151515815260200191505060405180910390f35b3415610c6e57600080fd5b610c846004808035906020019091905050613c87565b604051808215151515815260200191505060405180910390f35b3415610ca957600080fd5b610cfd600480803573ffffffffffffffffffffffffffffffffffffffff1690602001909190803573ffffffffffffffffffffffffffffffffffffffff16906020019091908035906020019091905050613da6565b604051808215151515815260200191505060405180910390f35b3415610d2257600080fd5b610d4e600480803573ffffffffffffffffffffffffffffffffffffffff16906020019091905050613e34565b604051808215151515815260200191505060405180910390f35b3415610d7357600080fd5b610d896004808035906020019091905050613e54565b604051808215151515815260200191505060405180910390f35b3415610dae57600080fd5b610db6613ef9565b604051808381526020018281526020019250505060405180910390f35b3415610dde57600080fd5b610e29600480803573ffffffffffffffffffffffffffffffffffffffff1690602001909190803573ffffffffffffffffffffffffffffffffffffffff16906020019091905050613f0b565b6040518082815260200191505060405180910390f35b3415610e4a57600080fd5b610e52613f30565b6040518082815260200191505060405180910390f35b3415610e7357600080fd5b610e7b613f36565b60405180826005811115610e8b57fe5b60ff16815260200191505060405180910390f35b3415610eaa57600080fd5b610ed6600480803573ffffffffffffffffffffffffffffffffffffffff16906020019091905050613f48565b6040518082815260200191505060405180910390f35b3415610ef757600080fd5b610eff613f91565b6040518082815260200191505060405180910390f35b3415610f2057600080fd5b610f28613f97565b6040518082815260200191505060405180910390f35b3415610f4957600080fd5b610f716004808035906020019091908035906020019091908035906020019091905050613f9d565b6040518082815260200191505060405180910390f35b3415610f9257600080fd5b610fa8600480803590602001909190505061409f565b604051808215151515815260200191505060405180910390f35b3415610fcd57600080fd5b610fd5614144565b6040518082815260200191505060405180910390f35b3415610ff657600080fd5b610ffe61414a565b604051808273ffffffffffffffffffffffffffffffffffffffff1673ffffffffffffffffffffffffffffffffffffffff16815260200191505060405180910390f35b341561104b57600080fd5b6110616004808035906020019091905050614170565b604051808215151515815260200191505060405180910390f35b341561108657600080fd5b61108e614215565b6040518082815260200191505060405180910390f35b34156110af57600080fd5b6110c5600480803590602001909190505061421b565b604051808215151515815260200191505060405180910390f35b34156110ea57600080fd5b6110f26142c0565b6040518082815260200191505060405180910390f35b6111106142c6565b604051808215151515815260200191505060405180910390f35b341561113557600080fd5b61113d61462b565b6040518082815260200191505060405180910390f35b341561115e57600080fd5b611166614631565b6040518082815260200191505060405180910390f35b341561118757600080fd5b61118f614637565b6040518082815260200191505060405180910390f35b6000806000808060058111156111b757fe5b6000809054906101000a900460ff1660058111156111d157fe5b1415156111dd57600080fd5b600160009054906101000a900473ffffffffffffffffffffffffffffffffffffffff16600260009054906101000a900473ffffffffffffffffffffffffffffffffffffffff16600360009054906101000a900473ffffffffffffffffffffffffffffffffffffffff168273ffffffffffffffffffffffffffffffffffffffff163373ffffffffffffffffffffffffffffffffffffffff1614806112ab57508173ffffffffffffffffffffffffffffffffffffffff163373ffffffffffffffffffffffffffffffffffffffff16145b806112e157508073ffffffffffffffffffffffffffffffffffffffff163373ffffffffffffffffffffffffffffffffffffffff16145b15156112ec57600080fd5b6112f461463d565b881115151561130257600080fd5b61131c60245460116001015461464590919063ffffffff16565b8811151561132957600080fd5b600060255414156114115761134389601160000154614663565b95506021546113746011600001546113666127108a6146a090919063ffffffff16565b6146d390919063ffffffff16565b11151561138a5761138589896146ee565b61140c565b60408051908101604052808a815260200189815250602b600082015181600001556020820151816001015590505033602960006101000a81548173ffffffffffffffffffffffffffffffffffffffff021916908373ffffffffffffffffffffffffffffffffffffffff1602179055506025600081548092919060010191905055505b61189e565b6001602554141561165a57611436602454602b6001015461464590919063ffffffff16565b8811156114b7573373ffffffffffffffffffffffffffffffffffffffff16602960009054906101000a900473ffffffffffffffffffffffffffffffffffffffff1673ffffffffffffffffffffffffffffffffffffffff1614156114a25761149d89896146ee565b6114b2565b6114b1602b60000154896146ee565b5b611655565b3373ffffffffffffffffffffffffffffffffffffffff16602960009054906101000a900473ffffffffffffffffffffffffffffffffffffffff1673ffffffffffffffffffffffffffffffffffffffff161415151561151457600080fd5b8761152f602354602b6001015461464590919063ffffffff16565b1080611553575087611551602354602b600101546147f590919063ffffffff16565b115b156115715761156c602b60000154602b600101546146ee565b611654565b61158089602b60000154614663565b95506021546115b1602b600001546115a36127108a6146a090919063ffffffff16565b6146d390919063ffffffff16565b1115156115d1576115cc602b60000154602b600101546146ee565b611653565b60408051908101604052808a815260200189815250602d600082015181600001556020820151816001015590505033602a60006101000a81548173ffffffffffffffffffffffffffffffffffffffff021916908373ffffffffffffffffffffffffffffffffffffffff1602179055506025600081548092919060010191905055505b5b5b61189d565b6002602554141561189357602454602b6001015401881115611748573373ffffffffffffffffffffffffffffffffffffffff16602960009054906101000a900473ffffffffffffffffffffffffffffffffffffffff1673ffffffffffffffffffffffffffffffffffffffff16148061171f57503373ffffffffffffffffffffffffffffffffffffffff16602a60009054906101000a900473ffffffffffffffffffffffffffffffffffffffff1673ffffffffffffffffffffffffffffffffffffffff16145b156117335761172e89896146ee565b611743565b611742602d60000154896146ee565b5b61188e565b3373ffffffffffffffffffffffffffffffffffffffff16602960009054906101000a900473ffffffffffffffffffffffffffffffffffffffff1673ffffffffffffffffffffffffffffffffffffffff16141580156117f457503373ffffffffffffffffffffffffffffffffffffffff16602a60009054906101000a900473ffffffffffffffffffffffffffffffffffffffff1673ffffffffffffffffffffffffffffffffffffffff1614155b15156117ff57600080fd5b8761181a602354602b6001015461464590919063ffffffff16565b108061183e57508761183c602354602b600101546147f590919063ffffffff16565b115b1561185057602b60000154945061187e565b88602d6000015414156118655788945061187d565b61187a602b60000154602d600001548b613f9d565b94505b5b61188d85602b600101546146ee565b5b61189c565b600096506118a3565b5b5b600196505b50505050505092915050565b60118060000154908060010154905082565b601d5481565b60066020528060005260406000206000915090505481565b6000600760008373ffffffffffffffffffffffffffffffffffffffff1673ffffffffffffffffffffffffffffffffffffffff168152602001908152602001600020549050919050565b6000806000600180600581111561193b57fe5b6000809054906101000a900460ff16600581111561195557fe5b14151561196157600080fd5b601f546026544303101515611b4f57601654601c541015156119b45760026000806101000a81548160ff0219169083600581111561199b57fe5b0217905550670de0b6b3a7640000601a81905550611b1e565b601754601c541115156119f85760036000806101000a81548160ff021916908360058111156119df57fe5b0217905550670de0b6b3a7640000601a81905550611b1d565b60046000806101000a81548160ff02191690836005811115611a1657fe5b0217905550611a49601160000154611a3b61271060135461464590919063ffffffff16565b6146a090919063ffffffff16565b9250611aed611ade670de0b6b3a7640000611ad0670de0b6b3a7640000611ac2611a86670de0b6b3a7640000601b546147f590919063ffffffff16565b611ab4601a54611aa6601354600f600001546146a090919063ffffffff16565b6146a090919063ffffffff16565b6146a090919063ffffffff16565b6146d390919063ffffffff16565b6146d390919063ffffffff16565b846147f590919063ffffffff16565b9150611b1682611b0885601a546146a090919063ffffffff16565b6146d390919063ffffffff16565b601a819055505b5b7f91c286863163aa15991e5aabc5934ed57007ed7f0b1bddcde66ca789ab227ea360405160405180910390a1611b7c565b7fa1f85a3680dfb51f7db8069e794f07f371ef5a545a9c915ac6315b0768a08b3f60405160405180910390a15b6001935050505090565b6000600e60009054906101000a900473ffffffffffffffffffffffffffffffffffffffff168073ffffffffffffffffffffffffffffffffffffffff163373ffffffffffffffffffffffffffffffffffffffff16141515611be557600080fd5b6000806005811115611bf357fe5b6000809054906101000a900460ff166005811115611c0d57fe5b141515611c1957600080fd5b83602181905550600192505050919050565b6000806000806005811115611c3c57fe5b6000809054906101000a900460ff166005811115611c5657fe5b141515611c6257600080fd5b60008573ffffffffffffffffffffffffffffffffffffffff1614151515611c8857600080fd5b83600760008873ffffffffffffffffffffffffffffffffffffffff1673ffffffffffffffffffffffffffffffffffffffff1681526020019081526020016000205410151515611cd657600080fd5b600760008673ffffffffffffffffffffffffffffffffffffffff1673ffffffffffffffffffffffffffffffffffffffff16815260200190815260200160002054611d6885600760008973ffffffffffffffffffffffffffffffffffffffff1673ffffffffffffffffffffffffffffffffffffffff1681526020019081526020016000205461464590919063ffffffff16565b111515611d7457600080fd5b611e05600760008773ffffffffffffffffffffffffffffffffffffffff1673ffffffffffffffffffffffffffffffffffffffff16815260200190815260200160002054600760008973ffffffffffffffffffffffffffffffffffffffff1673ffffffffffffffffffffffffffffffffffffffff1681526020019081526020016000205461464590919063ffffffff16565b9150611e108561480e565b611e6284600760008973ffffffffffffffffffffffffffffffffffffffff1673ffffffffffffffffffffffffffffffffffffffff168152602001908152602001600020546147f590919063ffffffff16565b600760008873ffffffffffffffffffffffffffffffffffffffff1673ffffffffffffffffffffffffffffffffffffffff16815260200190815260200160002081905550611ef784600760008873ffffffffffffffffffffffffffffffffffffffff1673ffffffffffffffffffffffffffffffffffffffff1681526020019081526020016000205461464590919063ffffffff16565b600760008773ffffffffffffffffffffffffffffffffffffffff1673ffffffffffffffffffffffffffffffffffffffff168152602001908152602001600020819055508473ffffffffffffffffffffffffffffffffffffffff168673ffffffffffffffffffffffffffffffffffffffff167f86bd780ecb1a8b8e520e2bfb1082b6b3487c4c270837661503df2cb50424b842866040518082815260200191505060405180910390a381612031600760008873ffffffffffffffffffffffffffffffffffffffff1673ffffffffffffffffffffffffffffffffffffffff16815260200190815260200160002054600760008a73ffffffffffffffffffffffffffffffffffffffff1673ffffffffffffffffffffffffffffffffffffffff1681526020019081526020016000205461464590919063ffffffff16565b14151561203a57fe5b6001925050509392505050565b6009602052816000526040600020602052806000526040600020600091509150505481565b600080600080600581111561207d57fe5b6000809054906101000a900460ff16600581111561209757fe5b1415156120a357600080fd5b60008573ffffffffffffffffffffffffffffffffffffffff16141515156120c957600080fd5b83600660008873ffffffffffffffffffffffffffffffffffffffff1673ffffffffffffffffffffffffffffffffffffffff168152602001908152602001600020541015151561211757600080fd5b600660008673ffffffffffffffffffffffffffffffffffffffff1673ffffffffffffffffffffffffffffffffffffffff168152602001908152602001600020546121a985600660008973ffffffffffffffffffffffffffffffffffffffff1673ffffffffffffffffffffffffffffffffffffffff1681526020019081526020016000205461464590919063ffffffff16565b1115156121b557600080fd5b612246600660008773ffffffffffffffffffffffffffffffffffffffff1673ffffffffffffffffffffffffffffffffffffffff16815260200190815260200160002054600660008973ffffffffffffffffffffffffffffffffffffffff1673ffffffffffffffffffffffffffffffffffffffff1681526020019081526020016000205461464590919063ffffffff16565b91506122518561480e565b6122a384600660008973ffffffffffffffffffffffffffffffffffffffff1673ffffffffffffffffffffffffffffffffffffffff168152602001908152602001600020546147f590919063ffffffff16565b600660008873ffffffffffffffffffffffffffffffffffffffff1673ffffffffffffffffffffffffffffffffffffffff1681526020019081526020016000208190555061233884600660008873ffffffffffffffffffffffffffffffffffffffff1673ffffffffffffffffffffffffffffffffffffffff1681526020019081526020016000205461464590919063ffffffff16565b600660008773ffffffffffffffffffffffffffffffffffffffff1673ffffffffffffffffffffffffffffffffffffffff168152602001908152602001600020819055508473ffffffffffffffffffffffffffffffffffffffff168673ffffffffffffffffffffffffffffffffffffffff167fef0684aa87ada311bea2dad2b653ce28cd604aa1c10a123df8fb2f789c3178f0866040518082815260200191505060405180910390a381612472600660008873ffffffffffffffffffffffffffffffffffffffff1673ffffffffffffffffffffffffffffffffffffffff16815260200190815260200160002054600660008a73ffffffffffffffffffffffffffffffffffffffff1673ffffffffffffffffffffffffffffffffffffffff1681526020019081526020016000205461464590919063ffffffff16565b14151561247b57fe5b6001925050509392505050565b60008080600581111561249757fe5b6000809054906101000a900460ff1660058111156124b157fe5b1415156124bd57600080fd5b60008311801561250c5750600c60003373ffffffffffffffffffffffffffffffffffffffff1673ffffffffffffffffffffffffffffffffffffffff168152602001908152602001600020548311155b801561252e57503073ffffffffffffffffffffffffffffffffffffffff163183105b151561253957600080fd5b61258b83600c60003373ffffffffffffffffffffffffffffffffffffffff1673ffffffffffffffffffffffffffffffffffffffff168152602001908152602001600020546147f590919063ffffffff16565b600c60003373ffffffffffffffffffffffffffffffffffffffff1673ffffffffffffffffffffffffffffffffffffffff168152602001908152602001600020819055503373ffffffffffffffffffffffffffffffffffffffff166108fc849081150290604051600060405180830381858888f19350505050151561260e57600080fd5b6001915050919050565b6000806000806000806000806002600581111561263157fe5b6000809054906101000a900460ff16600581111561264b57fe5b148061267b57506003600581111561265f57fe5b6000809054906101000a900460ff16600581111561267957fe5b145b806126aa57506004600581111561268e57fe5b6000809054906101000a900460ff1660058111156126a857fe5b145b15156126b557600080fd5b6126fa6127106126ec670de0b6b3a76400006126de61271060135461464590919063ffffffff16565b6146a090919063ffffffff16565b6146d390919063ffffffff16565b96506003600581111561270957fe5b6000809054906101000a900460ff16600581111561272357fe5b141561276d5761276687612758601a5461274a601c54601b546147f590919063ffffffff16565b6146a090919063ffffffff16565b6146d390919063ffffffff16565b955061282c565b6127b0876127a2601a54612794670de0b6b3a7640000601b546147f590919063ffffffff16565b6146a090919063ffffffff16565b6146d390919063ffffffff16565b9550600260058111156127bf57fe5b6000809054906101000a900460ff1660058111156127d957fe5b146127e5576000612829565b6128288761281a601a5461280c670de0b6b3a7640000601c546147f590919063ffffffff16565b6146a090919063ffffffff16565b6146d390919063ffffffff16565b5b94505b5b600a805490506028541080156128445750601e545a115b15612abf5760066000600a60285481548110151561285e57fe5b906000526020600020900160009054906101000a900473ffffffffffffffffffffffffffffffffffffffff1673ffffffffffffffffffffffffffffffffffffffff1673ffffffffffffffffffffffffffffffffffffffff16815260200190815260200160002054935060076000600a6028548154811015156128dc57fe5b906000526020600020900160009054906101000a900473ffffffffffffffffffffffffffffffffffffffff1673ffffffffffffffffffffffffffffffffffffffff1673ffffffffffffffffffffffffffffffffffffffff1681526020019081526020016000205492506003600581111561295257fe5b6000809054906101000a900460ff16600581111561296c57fe5b141561299057612983848488601354601c546149aa565b80925081935050506129a8565b61299f84848888601354614a96565b80925081935050505b8160066000600a6028548154811015156129be57fe5b906000526020600020900160009054906101000a900473ffffffffffffffffffffffffffffffffffffffff1673ffffffffffffffffffffffffffffffffffffffff1673ffffffffffffffffffffffffffffffffffffffff168152602001908152602001600020819055508060076000600a602854815481101515612a3e57fe5b906000526020600020900160009054906101000a900473ffffffffffffffffffffffffffffffffffffffff1673ffffffffffffffffffffffffffffffffffffffff1673ffffffffffffffffffffffffffffffffffffffff1681526020019081526020016000208190555060286000815480929190600101919050555061282d565b600a80549050602854101515612ba15760046005811115612adc57fe5b6000809054906101000a900460ff166005811115612af657fe5b141515612b2b57601160000154600f60000181905550601160010154600f60010181905550670de0b6b3a7640000601c819055505b670de0b6b3a7640000601b81905550600060288190555060056000806101000a81548160ff02191690836005811115612b6057fe5b0217905550436027819055507f43411e1623dd3250086051181fcf64cd3749ecfbd8da0784ce02eb6264451d6260405160405180910390a160019750612bd2565b7f91c286863163aa15991e5aabc5934ed57007ed7f0b1bddcde66ca789ab227ea360405160405180910390a1600097505b5050505050505090565b6000600e60009054906101000a900473ffffffffffffffffffffffffffffffffffffffff168073ffffffffffffffffffffffffffffffffffffffff163373ffffffffffffffffffffffffffffffffffffffff16141515612c3b57600080fd5b6000806005811115612c4957fe5b6000809054906101000a900460ff166005811115612c6357fe5b141515612c6f57600080fd5b600084111515612c7e57600080fd5b61271084101515612c8e57600080fd5b83601881905550600192505050919050565b600a81815481101515612caf57fe5b90600052602060002090016000915054906101000a900473ffffffffffffffffffffffffffffffffffffffff1681565b60076020528060005260406000206000915090505481565b6000600960008473ffffffffffffffffffffffffffffffffffffffff1673ffffffffffffffffffffffffffffffffffffffff16815260200190815260200160002060008373ffffffffffffffffffffffffffffffffffffffff1673ffffffffffffffffffffffffffffffffffffffff16815260200190815260200160002054905092915050565b6000600e60009054906101000a900473ffffffffffffffffffffffffffffffffffffffff168073ffffffffffffffffffffffffffffffffffffffff163373ffffffffffffffffffffffffffffffffffffffff16141515612ddd57600080fd5b6000806005811115612deb57fe5b6000809054906101000a900460ff166005811115612e0557fe5b141515612e1157600080fd5b83601f81905550600192505050919050565b600081600960008673ffffffffffffffffffffffffffffffffffffffff1673ffffffffffffffffffffffffffffffffffffffff16815260200190815260200160002060008573ffffffffffffffffffffffffffffffffffffffff1673ffffffffffffffffffffffffffffffffffffffff16815260200190815260200160002081905550600190509392505050565b60135481565b6000600860008473ffffffffffffffffffffffffffffffffffffffff1673ffffffffffffffffffffffffffffffffffffffff16815260200190815260200160002060008373ffffffffffffffffffffffffffffffffffffffff1673ffffffffffffffffffffffffffffffffffffffff16815260200190815260200160002054905092915050565b600080806005811115612f4d57fe5b6000809054906101000a900460ff166005811115612f6757fe5b141515612f7357600080fd5b600960008673ffffffffffffffffffffffffffffffffffffffff1673ffffffffffffffffffffffffffffffffffffffff16815260200190815260200160002060008773ffffffffffffffffffffffffffffffffffffffff1673ffffffffffffffffffffffffffffffffffffffff168152602001908152602001600020548311151515612ffe57600080fd5b61308d83600960008873ffffffffffffffffffffffffffffffffffffffff1673ffffffffffffffffffffffffffffffffffffffff16815260200190815260200160002060008973ffffffffffffffffffffffffffffffffffffffff1673ffffffffffffffffffffffffffffffffffffffff168152602001908152602001600020546147f590919063ffffffff16565b600960008773ffffffffffffffffffffffffffffffffffffffff1673ffffffffffffffffffffffffffffffffffffffff16815260200190815260200160002060008873ffffffffffffffffffffffffffffffffffffffff1673ffffffffffffffffffffffffffffffffffffffff16815260200190815260200160002081905550613118858585611c2b565b506001915050949350505050565b600c6020528060005260406000206000915090505481565b600080600080600080600080600581111561315557fe5b6000809054906101000a900460ff16600581111561316f57fe5b14151561317b57600080fd5b6000600460009054906101000a900473ffffffffffffffffffffffffffffffffffffffff169050601d548173ffffffffffffffffffffffffffffffffffffffff166370a08231336040518263ffffffff167c0100000000000000000000000000000000000000000000000000000000028152600401808273ffffffffffffffffffffffffffffffffffffffff1673ffffffffffffffffffffffffffffffffffffffff168152602001915050602060405180830381600087803b151561323f57600080fd5b5af1151561324c57600080fd5b505050604051805190501015151561326357600080fd5b60008a1180156132735750600089115b151561327e57600080fd5b6132a76013546132996127108d6146a090919063ffffffff16565b6146d390919063ffffffff16565b96508887106132b657886132b8565b865b95506132e36127106132d5601354896146a090919063ffffffff16565b6146d390919063ffffffff16565b945084600660003373ffffffffffffffffffffffffffffffffffffffff1673ffffffffffffffffffffffffffffffffffffffff1681526020019081526020016000205410158015613373575085600760003373ffffffffffffffffffffffffffffffffffffffff1673ffffffffffffffffffffffffffffffffffffffff1681526020019081526020016000205410155b151561337e57600080fd5b6133f0601a546133e2600f600001546133d4670de0b6b3a76400006133c6670de0b6b3a76400006133b88e8e61464590919063ffffffff16565b6146a090919063ffffffff16565b6146a090919063ffffffff16565b6146d390919063ffffffff16565b6146d390919063ffffffff16565b93506133fb84614bab565b925061344f85600660003373ffffffffffffffffffffffffffffffffffffffff1673ffffffffffffffffffffffffffffffffffffffff168152602001908152602001600020546147f590919063ffffffff16565b600660003373ffffffffffffffffffffffffffffffffffffffff1673ffffffffffffffffffffffffffffffffffffffff168152602001908152602001600020819055506134e486600760003373ffffffffffffffffffffffffffffffffffffffff1673ffffffffffffffffffffffffffffffffffffffff168152602001908152602001600020546147f590919063ffffffff16565b600760003373ffffffffffffffffffffffffffffffffffffffff1673ffffffffffffffffffffffffffffffffffffffff1681526020019081526020016000208190555061353c83600d5461464590919063ffffffff16565b600d819055506135a661355884866147f590919063ffffffff16565b600c60003373ffffffffffffffffffffffffffffffffffffffff1673ffffffffffffffffffffffffffffffffffffffff1681526020019081526020016000205461464590919063ffffffff16565b600c60003373ffffffffffffffffffffffffffffffffffffffff1673ffffffffffffffffffffffffffffffffffffffff16815260200190815260200160002081905550600197505050505050505092915050565b60165481565b6000600e60009054906101000a900473ffffffffffffffffffffffffffffffffffffffff168073ffffffffffffffffffffffffffffffffffffffff163373ffffffffffffffffffffffffffffffffffffffff1614151561365f57600080fd5b600080600581111561366d57fe5b6000809054906101000a900460ff16600581111561368757fe5b14151561369357600080fd5b83600060016101000a81548173ffffffffffffffffffffffffffffffffffffffff021916908373ffffffffffffffffffffffffffffffffffffffff160217905550600192505050919050565b6000600a80549050905090565b6000600e60009054906101000a900473ffffffffffffffffffffffffffffffffffffffff168073ffffffffffffffffffffffffffffffffffffffff163373ffffffffffffffffffffffffffffffffffffffff1614151561374b57600080fd5b600080600581111561375957fe5b6000809054906101000a900460ff16600581111561377357fe5b14151561377f57600080fd5b83601e81905550600192505050919050565b600060058060058111156137a157fe5b6000809054906101000a900460ff1660058111156137bb57fe5b1415156137c757600080fd5b602054602754430310151561382a5760008060006101000a81548160ff021916908360058111156137f457fe5b02179055507fbf6a1c0d2669c1534a4b018edab32445ffb4f4e914517f62fb885949552d7e3460405160405180910390a1613857565b7f43411e1623dd3250086051181fcf64cd3749ecfbd8da0784ce02eb6264451d6260405160405180910390a15b600191505090565b60008060008060008061388f6019546138818a8d6147f590919063ffffffff16565b6146d390919063ffffffff16565b93506138be896138b0670de0b6b3a76400008e6146a090919063ffffffff16565b6146d390919063ffffffff16565b92506139298761391b61271061390d6138e461271060135461464590919063ffffffff16565b6138ff670de0b6b3a76400008a6146a090919063ffffffff16565b6146a090919063ffffffff16565b6146d390919063ffffffff16565b6146d390919063ffffffff16565b925061395a670de0b6b3a764000061394c866014546146a090919063ffffffff16565b61464590919063ffffffff16565b9150613985612710613977601354856146a090919063ffffffff16565b6146d390919063ffffffff16565b905080831115156139c7576139b96013546139ab612710866146a090919063ffffffff16565b6146d390919063ffffffff16565b6000809050955095506139e0565b816139db82856147f590919063ffffffff16565b955095505b505050509550959350505050565b60285481565b6000600e60009054906101000a900473ffffffffffffffffffffffffffffffffffffffff168073ffffffffffffffffffffffffffffffffffffffff163373ffffffffffffffffffffffffffffffffffffffff16141515613a5357600080fd5b6000806005811115613a6157fe5b6000809054906101000a900460ff166005811115613a7b57fe5b141515613a8757600080fd5b83602381905550600192505050919050565b600d5481565b600080806005811115613aae57fe5b6000809054906101000a900460ff166005811115613ac857fe5b141515613ad457600080fd5b600860008673ffffffffffffffffffffffffffffffffffffffff1673ffffffffffffffffffffffffffffffffffffffff16815260200190815260200160002060008773ffffffffffffffffffffffffffffffffffffffff1673ffffffffffffffffffffffffffffffffffffffff168152602001908152602001600020548311151515613b5f57600080fd5b613bee83600860008873ffffffffffffffffffffffffffffffffffffffff1673ffffffffffffffffffffffffffffffffffffffff16815260200190815260200160002060008973ffffffffffffffffffffffffffffffffffffffff1673ffffffffffffffffffffffffffffffffffffffff168152602001908152602001600020546147f590919063ffffffff16565b600860008773ffffffffffffffffffffffffffffffffffffffff1673ffffffffffffffffffffffffffffffffffffffff16815260200190815260200160002060008873ffffffffffffffffffffffffffffffffffffffff1673ffffffffffffffffffffffffffffffffffffffff16815260200190815260200160002081905550613c7985858561206c565b506001915050949350505050565b60008060019054906101000a900473ffffffffffffffffffffffffffffffffffffffff168073ffffffffffffffffffffffffffffffffffffffff163373ffffffffffffffffffffffffffffffffffffffff16141515613ce557600080fd5b6000806005811115613cf357fe5b6000809054906101000a900460ff166005811115613d0d57fe5b141515613d1957600080fd5b600084111515613d2857600080fd5b600d548411151515613d3957600080fd5b600060019054906101000a900473ffffffffffffffffffffffffffffffffffffffff1673ffffffffffffffffffffffffffffffffffffffff166108fc859081150290604051600060405180830381858888f193505050501515613d9b57600080fd5b600192505050919050565b600081600860008673ffffffffffffffffffffffffffffffffffffffff1673ffffffffffffffffffffffffffffffffffffffff16815260200190815260200160002060008573ffffffffffffffffffffffffffffffffffffffff1673ffffffffffffffffffffffffffffffffffffffff16815260200190815260200160002081905550600190509392505050565b600b6020528060005260406000206000915054906101000a900460ff1681565b6000600e60009054906101000a900473ffffffffffffffffffffffffffffffffffffffff168073ffffffffffffffffffffffffffffffffffffffff163373ffffffffffffffffffffffffffffffffffffffff16141515613eb357600080fd5b6000806005811115613ec157fe5b6000809054906101000a900460ff166005811115613edb57fe5b141515613ee757600080fd5b83602081905550600192505050919050565b600f8060000154908060010154905082565b6008602052816000526040600020602052806000526040600020600091509150505481565b601c5481565b6000809054906101000a900460ff1681565b6000600660008373ffffffffffffffffffffffffffffffffffffffff1673ffffffffffffffffffffffffffffffffffffffff168152602001908152602001600020549050919050565b60185481565b601e5481565b6000807f010000000000000000000000000000000000000000000000000000000000000002613fd58584614bdd90919063ffffffff16565b613fe88587614bdd90919063ffffffff16565b187effffffffffffffffffffffffffffffffffffffffffffffffffffffffffffff1916141561401957839050614098565b60007f0100000000000000000000000000000000000000000000000000000000000000026140508484614bdd90919063ffffffff16565b6140638686614bdd90919063ffffffff16565b187effffffffffffffffffffffffffffffffffffffffffffffffffffffffffffff1916141561409457829050614098565b8190505b9392505050565b6000600e60009054906101000a900473ffffffffffffffffffffffffffffffffffffffff168073ffffffffffffffffffffffffffffffffffffffff163373ffffffffffffffffffffffffffffffffffffffff161415156140fe57600080fd5b600080600581111561410c57fe5b6000809054906101000a900460ff16600581111561412657fe5b14151561413257600080fd5b83602281905550600192505050919050565b60145481565b600460009054906101000a900473ffffffffffffffffffffffffffffffffffffffff1681565b6000600e60009054906101000a900473ffffffffffffffffffffffffffffffffffffffff168073ffffffffffffffffffffffffffffffffffffffff163373ffffffffffffffffffffffffffffffffffffffff161415156141cf57600080fd5b60008060058111156141dd57fe5b6000809054906101000a900460ff1660058111156141f757fe5b14151561420357600080fd5b83602481905550600192505050919050565b601a5481565b6000600e60009054906101000a900473ffffffffffffffffffffffffffffffffffffffff168073ffffffffffffffffffffffffffffffffffffffff163373ffffffffffffffffffffffffffffffffffffffff1614151561427a57600080fd5b600080600581111561428857fe5b6000809054906101000a900460ff1660058111156142a257fe5b1415156142ae57600080fd5b83601d81905550600192505050919050565b60195481565b60008060008060008060008060058111156142dd57fe5b6000809054906101000a900460ff1660058111156142f757fe5b14151561430357600080fd5b6000600460009054906101000a900473ffffffffffffffffffffffffffffffffffffffff169050601d548173ffffffffffffffffffffffffffffffffffffffff166370a08231336040518263ffffffff167c0100000000000000000000000000000000000000000000000000000000028152600401808273ffffffffffffffffffffffffffffffffffffffff1673ffffffffffffffffffffffffffffffffffffffff168152602001915050602060405180830381600087803b15156143c757600080fd5b5af115156143d457600080fd5b50505060405180519050101515156143eb57600080fd5b6143f434614bab565b965061440b87600d5461464590919063ffffffff16565b600d81905550614463612710614455601a54614447600f600001546144398d346147f590919063ffffffff16565b6146a090919063ffffffff16565b6146a090919063ffffffff16565b6146a090919063ffffffff16565b95506144a861447f61271060135461464590919063ffffffff16565b61449a670de0b6b3a7640000806146a090919063ffffffff16565b6146a090919063ffffffff16565b94506144bd85876146d390919063ffffffff16565b93506144e86127106144da601354876146a090919063ffffffff16565b6146d390919063ffffffff16565b92506144f33361480e565b61454583600660003373ffffffffffffffffffffffffffffffffffffffff1673ffffffffffffffffffffffffffffffffffffffff1681526020019081526020016000205461464590919063ffffffff16565b600660003373ffffffffffffffffffffffffffffffffffffffff1673ffffffffffffffffffffffffffffffffffffffff168152602001908152602001600020819055506145da84600760003373ffffffffffffffffffffffffffffffffffffffff1673ffffffffffffffffffffffffffffffffffffffff1681526020019081526020016000205461464590919063ffffffff16565b600760003373ffffffffffffffffffffffffffffffffffffffff1673ffffffffffffffffffffffffffffffffffffffff16815260200190815260200160002081905550600197505050505050505090565b60155481565b60175481565b601b5481565b600042905090565b600080828401905083811015151561465957fe5b8091505092915050565b60008183116146845761467f83836147f590919063ffffffff16565b614698565b61469782846147f590919063ffffffff16565b5b905092915050565b600080828402905060008414806146c157508284828115156146be57fe5b04145b15156146c957fe5b8091505092915050565b60008082848115156146e157fe5b0490508091505092915050565b8160116000018190555080601160010181905550600060258190555061472d601160000154601160010154600f60000154600f60010154601a5461385f565b601b6000601c6000849190505583919050555050601654601c541015806147585750601754601c5411155b806147675750601554601b5410155b156147c35760016000806101000a81548160ff0219169083600581111561478a57fe5b0217905550436026819055507fa1f85a3680dfb51f7db8069e794f07f371ef5a545a9c915ac6315b0768a08b3f60405160405180910390a15b80827f8eb94c6a87f56bd59f4a2a7d571f32a264458ff5b910a34862b9051e5953442d60405160405180910390a35050565b600082821115151561480357fe5b818303905092915050565b600b60008273ffffffffffffffffffffffffffffffffffffffff1673ffffffffffffffffffffffffffffffffffffffff16815260200190815260200160002060009054906101000a900460ff1615156149a757600a80548060010182816148759190614c3f565b9160005260206000209001600083909190916101000a81548173ffffffffffffffffffffffffffffffffffffffff021916908373ffffffffffffffffffffffffffffffffffffffff160217905550506001600b60008373ffffffffffffffffffffffffffffffffffffffff1673ffffffffffffffffffffffffffffffffffffffff16815260200190815260200160002060006101000a81548160ff0219169083151502179055506000600660008373ffffffffffffffffffffffffffffffffffffffff1673ffffffffffffffffffffffffffffffffffffffff168152602001908152602001600020819055506000600760008373ffffffffffffffffffffffffffffffffffffffff1673ffffffffffffffffffffffffffffffffffffffff168152602001908152602001600020819055505b50565b6000806000806149dd670de0b6b3a76400006149cf898c6146a090919063ffffffff16565b6146d390919063ffffffff16565b9150614a066127106149f888856146a090919063ffffffff16565b6146d390919063ffffffff16565b9050614a4781614a39670de0b6b3a7640000614a2b898e6146a090919063ffffffff16565b6146d390919063ffffffff16565b61464590919063ffffffff16565b9350614a8882614a7a670de0b6b3a7640000614a6c898d6146a090919063ffffffff16565b6146d390919063ffffffff16565b61464590919063ffffffff16565b925050509550959350505050565b600080600080600080614acc670de0b6b3a7640000614abe8b8e6146a090919063ffffffff16565b6146d390919063ffffffff16565b9350614af5612710614ae789876146a090919063ffffffff16565b6146d390919063ffffffff16565b9250614b24670de0b6b3a7640000614b168a8d6146a090919063ffffffff16565b6146d390919063ffffffff16565b9150614b4d612710614b3f89856146a090919063ffffffff16565b6146d390919063ffffffff16565b9050614b7481614b66858e61464590919063ffffffff16565b61464590919063ffffffff16565b9550614b9b82614b8d868d61464590919063ffffffff16565b61464590919063ffffffff16565b9450505050509550959350505050565b6000614bd6612710614bc8601854856146a090919063ffffffff16565b6146d390919063ffffffff16565b9050919050565b60008060007f010000000000000000000000000000000000000000000000000000000000000002905082841115614c355760017f01000000000000000000000000000000000000000000000000000000000000000290505b8091505092915050565b815481835581811511614c6657818360005260206000209182019101614c659190614c6b565b5b505050565b614c8d91905b80821115614c89576000816000905550600101614c71565b5090565b905600a165627a7a72305820b7f37d2d9331d33cd2b73ae3feb567ec70743cb161a05c887ac247c4f0a48aa00029",
  "source": "pragma solidity ^0.4.21;\r\nimport { DUO } from \"./DUO.sol\";\r\n\r\nlibrary SafeMath {\r\n\tfunction mul(uint256 a, uint256 b) internal pure returns (uint256) {\r\n\t\tuint256 c = a * b;\r\n\t\tassert(a == 0 || c / a == b);\r\n\t\treturn c;\r\n\t}\r\n\r\n\tfunction div(uint256 a, uint256 b) internal pure returns (uint256) {\r\n\t\t// assert(b > 0); // Solidity automatically throws when dividing by 0\r\n\t\tuint256 c = a / b;\r\n\t\t// assert(a == b * c + a % b); // There is no case in which this doesn't hold\r\n\t\treturn c;\r\n\t}\r\n\r\n\tfunction sub(uint256 a, uint256 b) internal pure returns (uint256) {\r\n\t\tassert(b <= a);\r\n\t\treturn a - b;\r\n\t}\r\n\r\n\tfunction add(uint256 a, uint256 b) internal pure returns (uint256) {\r\n\t\tuint256 c = a + b;\r\n\t\tassert(c >= a);\r\n\t\treturn c;\r\n\t}\r\n\r\n\tfunction gt(uint x, uint y) internal pure returns(bytes1) {\r\n\t\tbytes1 b;\r\n\t\tb = 0x0;\r\n\t\tif (x > y) {\r\n\t\t\tb = 0x1;\r\n\t\t}\r\n\t\treturn b;\r\n\t}\r\n}\r\n\r\ncontract Custodian {\r\n\tusing SafeMath for uint;\r\n\tenum State {\r\n\t\tTrading,\r\n\t\tPreReset,\r\n\t\tUpwardReset,\r\n\t\tDownwardReset,\r\n\t\tPeriodicReset,\r\n\t\tPostReset\r\n\t}\r\n\r\n\tstruct Price {\r\n\t\tuint priceInWei;\r\n\t\tuint timeInSecond;\r\n\t}\r\n\r\n\tState public state;\r\n\taddress feeCollector;\r\n\taddress priceFeed1; \r\n\taddress priceFeed2; \r\n\taddress priceFeed3;\r\n\taddress public duoTokenAddress;\r\n\r\n\tuint decimals;\r\n\tmapping(address => uint256) public balancesA;\r\n\tmapping(address => uint256) public balancesB;\r\n\tmapping (address => mapping (address => uint256)) public allowanceA;\r\n\tmapping (address => mapping (address => uint256)) public allowanceB;\r\n\taddress[] public users;\r\n\tmapping (address => bool) public existingUsers;\r\n\tmapping(address => uint256) public ethPendingWithdrawal;\r\n\tuint public feeAccumulatedInWei;\r\n\r\n\tuint constant WEI_DENOMINATOR = 1000000000000000000;\r\n\tuint constant BP_DENOMINATOR = 10000;\r\n\r\n\taddress admin;\r\n\t// public parameters, do not change after deployment\r\n\tPrice public resetPrice; \r\n\tPrice public lastPrice; \r\n\tuint public alphaInBP;\r\n\tuint public periodCouponInWei; \r\n\tuint public limitPeriodicInWei; \r\n\tuint public limitUpperInWei; \r\n\tuint public limitLowerInWei;\r\n\tuint public commissionRateInBP;\r\n\tuint public period;\r\n\t// public info\r\n\tuint public betaInWei = WEI_DENOMINATOR;\r\n\tuint public navAInWei;\r\n\tuint public navBInWei; \r\n\t\r\n\t// public parameters, can change after deployment\r\n\tuint public memberThresholdInWei;\r\n\tuint public iterationGasThreshold;\r\n\r\n\t// private parameters, can change after deployment\r\n\tuint preResetWaitingBlocks = 10;\r\n\tuint postResetWaitingBlocks = 10;\r\n\tuint priceTolInBP = 500; \r\n\tuint priceFeedTolInBP = 100;\r\n\tuint priceFeedTimeTol = 1 minutes;\r\n\tuint priceUpdateCoolDown;\r\n\r\n\t// cycle state variables\r\n\tuint numOfPrices = 0;\r\n\tuint lastPreResetBlockNo = 0;\r\n\tuint lastPostResetBlockNo = 0;\r\n\tuint public nextResetAddrIndex = 0;\r\n\taddress firstAddr;\r\n\taddress secondAddr;\r\n\tPrice firstPrice;\r\n\tPrice secondPrice;\r\n\r\n\tmodifier inState(State _state) {\r\n\t\trequire(state == _state);\r\n\t\t_;\r\n\t}\r\n\r\n\tmodifier only(address addr) {\r\n\t\trequire(msg.sender == addr);\r\n\t\t_;\r\n\t}\r\n\r\n\tmodifier among(address addr1, address addr2, address addr3) {\r\n\t\trequire(msg.sender == addr1 || msg.sender == addr2 || msg.sender == addr3);\r\n\t\t_;\r\n\t}\r\n\r\n\tmodifier isDuoMember() {\r\n\t\tDUO duoToken = DUO(duoTokenAddress);\r\n\t\trequire(duoToken.balanceOf(msg.sender) >= memberThresholdInWei);\r\n\t\t_;\r\n\t}\r\n\r\n\tevent StartTrading();\r\n\tevent StartPreReset();\r\n\tevent StartReset();\r\n\tevent StartPostReset();\r\n\r\n\tevent TransferA(address indexed from, address indexed to, uint256 value);\r\n\tevent TransferB(address indexed from, address indexed to, uint256 value);\r\n\tevent AcceptPrice(uint indexed priceInWei, uint indexed timeInSecond);\r\n\t\r\n\tfunction Custodian (\r\n\t\tuint ethPriceInWei, \r\n\t\taddress feeAddress, \r\n\t\taddress duoAddress,\r\n\t\taddress pf1,\r\n\t\taddress pf2,\r\n\t\taddress pf3,\r\n\t\tuint alpha,\r\n\t\tuint r,\r\n\t\tuint hp,\r\n\t\tuint hu,\r\n\t\tuint hd,\r\n\t\tuint c,\r\n\t\tuint p,\r\n\t\tuint memberThreshold,\r\n\t\tuint gasThreshold) \r\n\t\tpublic \r\n\t{\r\n\t\tstate = State.Trading;\r\n\t\tadmin = msg.sender;\r\n\t\tdecimals = 18;\r\n\t\tcommissionRateInBP = 100;\r\n\t\tfeeCollector = feeAddress;\r\n\t\tresetPrice.priceInWei = ethPriceInWei;\r\n\t\tresetPrice.timeInSecond = getNowTimestamp();\r\n\t\tlastPrice.priceInWei = ethPriceInWei;\r\n\t\tlastPrice.timeInSecond = getNowTimestamp();\r\n\t\tpriceFeed1 = pf1;\r\n\t\tpriceFeed2 = pf2;\r\n\t\tpriceFeed3 = pf3;\r\n\t\tduoTokenAddress = duoAddress;\r\n\t\talphaInBP = alpha;\r\n\t\tperiodCouponInWei = r; \r\n\t\tlimitPeriodicInWei = hp; \r\n\t\tlimitUpperInWei = hu; \r\n\t\tlimitLowerInWei = hd;\r\n\t\tcommissionRateInBP = c;\r\n\t\tperiod = p;\r\n\t\tmemberThresholdInWei = memberThreshold;\r\n\t\titerationGasThreshold = gasThreshold;\r\n\t\tnavAInWei = 1;\r\n\t\tnavBInWei = 1;\r\n\t\tpriceUpdateCoolDown = p - 10 minutes;\r\n\t}\r\n\t\r\n\tfunction getNowTimestamp() internal view returns (uint) {\r\n\t\treturn now;\r\n\t}\r\n\t\r\n\tfunction checkNewUser(address user) internal {\r\n\t\tif (!existingUsers[user]) {\r\n\t\t\tusers.push(user);\r\n\t\t\texistingUsers[user] = true;\r\n\t\t\tbalancesA[user] = 0;\r\n\t\t\tbalancesB[user] = 0;\r\n\t\t}\r\n\t}\r\n\r\n\tfunction calculateNav(\r\n\t\tuint priceInWei, \r\n\t\tuint timeInSecond, \r\n\t\tuint resetPriceInWei, \r\n\t\tuint resetTimeInSecond,\r\n\t\tuint bInWei) \r\n\tpublic view returns (uint, uint) {\r\n\t\tuint numOfPeriods = timeInSecond.sub(resetTimeInSecond).div(period);\r\n\t\tuint navParent = priceInWei.mul(WEI_DENOMINATOR).div(resetPriceInWei);\r\n\t\tnavParent = navParent\r\n\t\t\t.mul(WEI_DENOMINATOR)\r\n\t\t\t.mul(alphaInBP.add(BP_DENOMINATOR))\r\n\t\t\t.div(BP_DENOMINATOR)\r\n\t\t\t.div(bInWei\r\n\t\t);\r\n\t\tuint navA = periodCouponInWei.mul(numOfPeriods).add(WEI_DENOMINATOR);\r\n\t\tuint navAAdj = navA.mul(alphaInBP).div(BP_DENOMINATOR);\r\n\t\tif (navParent <= navAAdj)\r\n\t\t\treturn (navParent.mul(BP_DENOMINATOR).div(alphaInBP), 0);\r\n\t\telse\r\n\t\t\treturn (navA, navParent.sub(navAAdj));\r\n\t}\r\n\r\n\tfunction startPreReset() public inState(State.PreReset) returns (bool success) {\r\n\t\tif (block.number - lastPreResetBlockNo >= preResetWaitingBlocks) {\r\n\t\t\tif (navBInWei >= limitUpperInWei) {\r\n\t\t\t\tstate = State.UpwardReset;\r\n\t\t\t\tbetaInWei = WEI_DENOMINATOR;\r\n\t\t\t} else if(navBInWei <= limitLowerInWei) {\r\n\t\t\t\tstate = State.DownwardReset;\r\n\t\t\t\tbetaInWei = WEI_DENOMINATOR;\r\n\t\t\t} else { // navAInWei >= limitPeriodicInWei\r\n\t\t\t\tstate = State.PeriodicReset;\r\n\t\t\t\tuint num = alphaInBP\r\n\t\t\t\t\t.add(BP_DENOMINATOR)\r\n\t\t\t\t\t.mul(lastPrice.priceInWei);\r\n\t\t\t\tuint den = num\r\n\t\t\t\t\t.sub(\r\n\t\t\t\t\t\tresetPrice.priceInWei\r\n\t\t\t\t\t\t\t.mul(alphaInBP)\r\n\t\t\t\t\t\t\t.mul(betaInWei)\r\n\t\t\t\t\t\t\t.mul(navAInWei\r\n\t\t\t\t\t\t\t\t.sub(WEI_DENOMINATOR))\r\n\t\t\t\t\t\t\t.div(WEI_DENOMINATOR)\r\n\t\t\t\t\t\t\t.div(WEI_DENOMINATOR)\r\n\t\t\t\t);\r\n\t\t\t\tbetaInWei = betaInWei.mul(num).div(den);\r\n\t\t\t}\r\n\t\t\temit StartReset();\r\n\t\t} else {\r\n\t\t\temit StartPreReset();\r\n\t\t}\r\n\r\n\t\treturn true;\r\n\t}\r\n\r\n\tfunction startPostReset() public inState(State.PostReset) returns (bool success) {\r\n\t\tif (block.number - lastPostResetBlockNo >= postResetWaitingBlocks) {\r\n\t\t\tstate = State.Trading;\r\n\t\t\temit StartTrading();\r\n\t\t} else {\r\n\t\t\temit StartPostReset();\r\n\t\t}\r\n\r\n\t\treturn true;\r\n\t}\r\n\r\n\tfunction startReset() public returns (bool success) {\r\n\t\trequire(state == State.UpwardReset || state == State.DownwardReset || state == State.PeriodicReset);\r\n\t\tuint bAdj = alphaInBP.add(BP_DENOMINATOR).mul(WEI_DENOMINATOR).div(BP_DENOMINATOR);\r\n\t\tuint newBFromAPerA;\r\n\t\tuint newBFromBPerB;\r\n\t\tif (state == State.DownwardReset){\r\n\t\t\tnewBFromAPerA = navAInWei.sub(navBInWei).mul(betaInWei).div(bAdj);\r\n\t\t} else {\r\n\t\t\tnewBFromAPerA = navAInWei.sub(WEI_DENOMINATOR).mul(betaInWei).div(bAdj);\r\n\t\t\tnewBFromBPerB = state == State.UpwardReset ? navBInWei.sub(WEI_DENOMINATOR).mul(betaInWei).div(bAdj) : 0;\r\n\t\t}\r\n\r\n\t\twhile (nextResetAddrIndex < users.length && gasleft() > iterationGasThreshold) {\r\n\t\t\tuint currentBalanceA = balancesA[users[nextResetAddrIndex]];\r\n\t\t\tuint currentBalanceB = balancesB[users[nextResetAddrIndex]];\r\n\t\t\tuint newBalanceA;\r\n\t\t\tuint newBalanceB;\r\n\t\t\tif (state == State.DownwardReset)\r\n\t\t\t\t(newBalanceA, newBalanceB) = downwardResetForAddress(\r\n\t\t\t\t\tcurrentBalanceA,\r\n\t\t\t\t\tcurrentBalanceB, \r\n\t\t\t\t\tnewBFromAPerA,\r\n\t\t\t\t\talphaInBP,\r\n\t\t\t\t\tnavBInWei);\r\n\t\t\telse // periodic and upward has similar logic in issuing new A and B\r\n\t\t\t\t(newBalanceA, newBalanceB) = upwardResetForAddress(\r\n\t\t\t\t\tcurrentBalanceA, \r\n\t\t\t\t\tcurrentBalanceB,\r\n\t\t\t\t\tnewBFromAPerA, \r\n\t\t\t\t\tnewBFromBPerB,\r\n\t\t\t\t\talphaInBP); \r\n\t\t\tbalancesA[users[nextResetAddrIndex]] = newBalanceA;\r\n\t\t\tbalancesB[users[nextResetAddrIndex]] = newBalanceB;\r\n\t\t\tnextResetAddrIndex++;\r\n\t\t}\r\n\r\n\t\tif (nextResetAddrIndex >= users.length) {\r\n\t\t\tif (state != State.PeriodicReset) {\r\n\t\t\t\tresetPrice.priceInWei = lastPrice.priceInWei;\r\n\t\t\t\tresetPrice.timeInSecond = lastPrice.timeInSecond;\r\n\t\t\t\tnavBInWei = WEI_DENOMINATOR;\r\n\t\t\t}\r\n\t\t\t\r\n\t\t\tnavAInWei = WEI_DENOMINATOR;\r\n\t\t\tnextResetAddrIndex = 0;\r\n\r\n\t\t\tstate = State.PostReset;\r\n\t\t\tlastPostResetBlockNo = block.number;\r\n\t\t\temit StartPostReset();\r\n\t\t\treturn true;\r\n\t\t} else{\r\n\t\t\temit StartReset();\r\n\t\t\treturn false;\r\n\t\t}\r\n\t}\r\n\r\n\tfunction upwardResetForAddress(\r\n\t\tuint balanceA,\r\n\t\tuint balanceB, \r\n\t\tuint newBFromAPerA, \r\n\t\tuint newBFromBPerB,\r\n\t\tuint alpha) \r\n\t\tpure\r\n\t\tinternal \r\n\t\treturns(uint newBalanceA, uint newBalanceB)\r\n\t{\r\n\t\tuint newBFromA = balanceA.mul(newBFromAPerA).div(WEI_DENOMINATOR);\r\n\t\tuint newAFromA = newBFromA.mul(alpha).div(BP_DENOMINATOR);\r\n\t\tuint newBFromB = balanceB.mul(newBFromBPerB).div(WEI_DENOMINATOR);\r\n\t\tuint newAFromB = newBFromB.mul(alpha).div(BP_DENOMINATOR);\r\n\t\tnewBalanceA = balanceA.add(newAFromA).add(newAFromB);\r\n\t\tnewBalanceB = balanceB.add(newBFromA).add(newBFromB);\r\n\t}\r\n\r\n\tfunction downwardResetForAddress(\r\n\t\tuint balanceA, \r\n\t\tuint balanceB,\r\n\t\tuint newBFromAPerA,\r\n\t\tuint alpha,\r\n\t\tuint navB) \r\n\t\tpure\r\n\t\tinternal \r\n\t\treturns(uint newBalanceA, uint newBalanceB)\r\n\t{\r\n\t\tuint newBFromA = balanceA.mul(newBFromAPerA).div(WEI_DENOMINATOR);\r\n\t\tuint newAFromA = newBFromA.mul(alpha).div(BP_DENOMINATOR);\r\n\t\tnewBalanceA = balanceA.mul(navB).div(WEI_DENOMINATOR).add(newAFromA);\r\n\t\tnewBalanceB = balanceB.mul(navB).div(WEI_DENOMINATOR).add(newBFromA);\r\n\t}\r\n\r\n\tfunction acceptPrice(uint priceInWei, uint timeInSecond) internal {\r\n\t\tlastPrice.priceInWei = priceInWei;\r\n\t\tlastPrice.timeInSecond = timeInSecond;\r\n\t\tnumOfPrices = 0;\r\n\t\t(navAInWei, navBInWei) = calculateNav(\r\n\t\t\tlastPrice.priceInWei, \r\n\t\t\tlastPrice.timeInSecond, \r\n\t\t\tresetPrice.priceInWei, \r\n\t\t\tresetPrice.timeInSecond, \r\n\t\t\tbetaInWei);\r\n\t\tif (navBInWei >= limitUpperInWei || navBInWei <= limitLowerInWei || navAInWei >= limitPeriodicInWei) {\r\n\t\t\tstate = State.PreReset;\r\n\t\t\tlastPreResetBlockNo = block.number;\r\n\t\t\temit StartPreReset();\r\n\t\t} \r\n\t\temit AcceptPrice(priceInWei, timeInSecond);\r\n\t}\r\n\r\n\tfunction getMedian(uint a, uint b, uint c) public pure returns (uint){\r\n\t\tif (a.gt(b) ^ c.gt(a) == 0x0) {\r\n\t\t\treturn a;\r\n\t\t} else if(b.gt(a) ^ c.gt(b) == 0x0) {\r\n\t\t\treturn b;\r\n\t\t} else {\r\n\t\t\treturn c;\r\n\t\t}\r\n\t}\r\n\r\n\t//PriceFeed\r\n\tfunction commitPrice(uint priceInWei, uint timeInSecond) \r\n\t\tpublic \r\n\t\tinState(State.Trading) \r\n\t\tamong(priceFeed1, priceFeed2, priceFeed3) \r\n\t\treturns (bool success)\r\n\t{\t\r\n\t\trequire(timeInSecond <= getNowTimestamp());\r\n\t\trequire(timeInSecond > lastPrice.timeInSecond.add(priceUpdateCoolDown));\r\n\t\tuint priceDiff;\r\n\t\tif (numOfPrices == 0) {\r\n\t\t\tpriceDiff = getPriceDiff(priceInWei, lastPrice.priceInWei);\r\n\t\t\tif (priceDiff.mul(BP_DENOMINATOR).div(lastPrice.priceInWei) <= priceTolInBP) {\r\n\t\t\t\tacceptPrice(priceInWei, timeInSecond);\r\n\t\t\t} else {\r\n\t\t\t\t// wait for the second price\r\n\t\t\t\tfirstPrice = Price(priceInWei, timeInSecond);\r\n\t\t\t\tfirstAddr = msg.sender;\r\n\t\t\t\tnumOfPrices++;\r\n\t\t\t}\r\n\t\t} else if (numOfPrices == 1) {\r\n\t\t\tif (timeInSecond > firstPrice.timeInSecond.add(priceUpdateCoolDown)) {\r\n\t\t\t\tif (firstAddr == msg.sender)\r\n\t\t\t\t\tacceptPrice(priceInWei, timeInSecond);\r\n\t\t\t\telse\r\n\t\t\t\t\tacceptPrice(firstPrice.priceInWei, timeInSecond);\r\n\t\t\t} else {\r\n\t\t\t\trequire(firstAddr != msg.sender);\r\n\t\t\t\t// if second price times out, use first one\r\n\t\t\t\tif (firstPrice.timeInSecond.add(priceFeedTimeTol) < timeInSecond || \r\n\t\t\t\t\tfirstPrice.timeInSecond.sub(priceFeedTimeTol) > timeInSecond) {\r\n\t\t\t\t\tacceptPrice(firstPrice.priceInWei, firstPrice.timeInSecond);\r\n\t\t\t\t} else {\r\n\t\t\t\t\tpriceDiff = getPriceDiff(priceInWei, firstPrice.priceInWei);\r\n\t\t\t\t\tif (priceDiff.mul(BP_DENOMINATOR).div(firstPrice.priceInWei) <= priceTolInBP) {\r\n\t\t\t\t\t\tacceptPrice(firstPrice.priceInWei, firstPrice.timeInSecond);\r\n\t\t\t\t\t} else {\r\n\t\t\t\t\t\t// wait for the third price\r\n\t\t\t\t\t\tsecondPrice = Price(priceInWei, timeInSecond);\r\n\t\t\t\t\t\tsecondAddr = msg.sender;\r\n\t\t\t\t\t\tnumOfPrices++;\r\n\t\t\t\t\t} \r\n\t\t\t\t}\r\n\t\t\t}\r\n\t\t} else if (numOfPrices == 2) {\r\n\t\t\tif (timeInSecond > firstPrice.timeInSecond + priceUpdateCoolDown) {\r\n\t\t\t\tif ((firstAddr == msg.sender || secondAddr == msg.sender))\r\n\t\t\t\t\tacceptPrice(priceInWei, timeInSecond);\r\n\t\t\t\telse\r\n\t\t\t\t\tacceptPrice(secondPrice.priceInWei, timeInSecond);\r\n\t\t\t} else {\r\n\t\t\t\trequire(firstAddr != msg.sender && secondAddr != msg.sender);\r\n\t\t\t\tuint acceptedPriceInWei;\r\n\t\t\t\t// if third price times out, use first one\r\n\t\t\t\tif (firstPrice.timeInSecond.add(priceFeedTimeTol) < timeInSecond || \r\n\t\t\t\t\tfirstPrice.timeInSecond.sub(priceFeedTimeTol) > timeInSecond) {\r\n\t\t\t\t\tacceptedPriceInWei = firstPrice.priceInWei;\r\n\t\t\t\t} else {\r\n\t\t\t\t\t// take median and proceed\r\n\t\t\t\t\t// first and second price will never be equal in this part\r\n\t\t\t\t\t// if second and third price are the same, they are median\r\n\t\t\t\t\tif (secondPrice.priceInWei == priceInWei) {\r\n\t\t\t\t\t\tacceptedPriceInWei = priceInWei;\r\n\t\t\t\t\t} else {\r\n\t\t\t\t\t\tacceptedPriceInWei = getMedian(firstPrice.priceInWei, secondPrice.priceInWei, priceInWei);\r\n\t\t\t\t\t}\r\n\t\t\t\t}\r\n\t\t\t\tacceptPrice(acceptedPriceInWei, firstPrice.timeInSecond);\r\n\t\t\t}\r\n\t\t} else {\r\n\t\t\treturn false;\r\n\t\t}\r\n\r\n\t\treturn true;\r\n\t}\r\n\r\n\tfunction getPriceDiff(uint price1InWei, uint price2InWei) \r\n\t\tinternal \r\n\t\tpure \r\n\t\treturns(uint) \r\n\t{\r\n\t\treturn price1InWei > price2InWei \r\n\t\t\t? price1InWei.sub(price2InWei) \r\n\t\t\t: price2InWei.sub(price1InWei);\r\n\t}\r\n\r\n\tfunction getFee(uint ethInWei) internal constant returns(uint) {\r\n\t\treturn ethInWei.mul(commissionRateInBP).div(BP_DENOMINATOR);\r\n\t}\r\n\r\n\tfunction redeem(uint amtInWeiA, uint amtInWeiB) \r\n\t\tpublic \r\n\t\tinState(State.Trading) \r\n\t\tisDuoMember() \r\n\t\treturns (bool success) \r\n\t{\r\n\t\trequire(amtInWeiA > 0 && amtInWeiB > 0);\r\n\t\tuint adjAmtInWeiA = amtInWeiA.mul(BP_DENOMINATOR).div(alphaInBP);\r\n\t\tuint deductAmtInWeiB = adjAmtInWeiA < amtInWeiB ? adjAmtInWeiA : amtInWeiB;\r\n\t\tuint deductAmtInWeiA = deductAmtInWeiB.mul(alphaInBP).div(BP_DENOMINATOR);\r\n\t\trequire(balancesA[msg.sender] >= deductAmtInWeiA && balancesB[msg.sender] >= deductAmtInWeiB);\r\n\t\tuint amtEthInWei = deductAmtInWeiA\r\n\t\t\t.add(deductAmtInWeiB)\r\n\t\t\t.mul(WEI_DENOMINATOR)\r\n\t\t\t.mul(WEI_DENOMINATOR)\r\n\t\t\t.div(resetPrice.priceInWei)\r\n\t\t\t.div(betaInWei);\r\n\t\tuint feeInWei = getFee(amtEthInWei);\r\n\t\tbalancesA[msg.sender] = balancesA[msg.sender].sub(deductAmtInWeiA);\r\n\t\tbalancesB[msg.sender] = balancesB[msg.sender].sub(deductAmtInWeiB);\r\n\t\tfeeAccumulatedInWei = feeAccumulatedInWei.add(feeInWei);\r\n\t\tethPendingWithdrawal[msg.sender] = ethPendingWithdrawal[msg.sender].add(amtEthInWei.sub(feeInWei));\r\n\t\treturn true;\r\n\t}\r\n\r\n\tfunction withdraw(uint amtEthInWei) public inState(State.Trading) returns (bool success) {\r\n\t\trequire(amtEthInWei > 0 && amtEthInWei <= ethPendingWithdrawal[msg.sender] && amtEthInWei < address(this).balance);\r\n\t\tethPendingWithdrawal[msg.sender] = ethPendingWithdrawal[msg.sender].sub(amtEthInWei);\r\n\t\tmsg.sender.transfer(amtEthInWei);\r\n\t\treturn true;\r\n\t}\r\n\r\n\tfunction collectFee(uint amountInWei) public only(feeCollector) inState(State.Trading) returns (bool success) {\r\n\t\trequire(amountInWei > 0);\r\n\t\trequire(amountInWei <= feeAccumulatedInWei);\r\n\t\tfeeCollector.transfer(amountInWei);\r\n\t\treturn true;\r\n\t}\r\n\r\n\tfunction create() \r\n\t\tpublic \r\n\t\tpayable \r\n\t\tinState(State.Trading) \r\n\t\tisDuoMember() \r\n\t\treturns (bool success) \r\n\t{\r\n\t\tuint feeInWei = getFee(msg.value);\r\n\t\tfeeAccumulatedInWei = feeAccumulatedInWei.add(feeInWei);\r\n\t\tuint numeritor = msg.value\r\n\t\t\t\t\t\t.sub(feeInWei)\r\n\t\t\t\t\t\t.mul(resetPrice.priceInWei)\r\n\t\t\t\t\t\t.mul(betaInWei)\r\n\t\t\t\t\t\t.mul(BP_DENOMINATOR\r\n\t\t);\r\n\t\tuint denominator = WEI_DENOMINATOR\r\n\t\t\t\t\t\t.mul(WEI_DENOMINATOR)\r\n\t\t\t\t\t\t.mul(alphaInBP\r\n\t\t\t\t\t\t\t.add(BP_DENOMINATOR)\r\n\t\t);\r\n\t\tuint tokenValueB = numeritor.div(denominator);\r\n\t\tuint tokenValueA = tokenValueB.mul(alphaInBP).div(BP_DENOMINATOR);\r\n\t\tcheckNewUser(msg.sender);\r\n\t\tbalancesA[msg.sender] = balancesA[msg.sender].add(tokenValueA);\r\n\t\tbalancesB[msg.sender] = balancesB[msg.sender].add(tokenValueB);\r\n\t\treturn true;\r\n\t}\r\n\r\n\tfunction checkBalanceA(address add) public constant returns(uint) {\r\n\t\treturn balancesA[add];\r\n\t}\r\n\t\r\n\tfunction checkBalanceB(address add) public constant returns(uint) {\r\n\t\treturn balancesB[add];\r\n\t}\r\n\r\n\tfunction checkAllowanceA(address _user, address _spender) public constant returns(uint) {\r\n\t\treturn allowanceA[_user][_spender];\r\n\t}\r\n\r\n\tfunction checkAllowanceB(address _user, address _spender) public constant returns(uint) {\r\n\t\treturn allowanceB[_user][_spender];\r\n\t}\r\n\t\r\n\tfunction transferA(address _from, address _to, uint _tokens) \r\n\t\tpublic \r\n\t\tinState(State.Trading)\r\n\t\treturns (bool success) \r\n\t{\r\n\t\t// Prevent transfer to 0x0 address. Use burn() instead\r\n\t\trequire(_to != 0x0);\r\n\t\t// Check if the sender has enough\r\n\t\trequire(balancesA[_from] >= _tokens);\r\n\t\t// Check for overflows\r\n\t\trequire(balancesA[_to].add(_tokens) > balancesA[_to]);\r\n\r\n\t\t// Save this for an assertion in the future\r\n\t\tuint previousBalances = balancesA[_from].add(balancesA[_to]);\r\n\t\t//check whether _to is new. if new then add\r\n\t\tcheckNewUser(_to);\r\n\t\t// Subtract from the sender\r\n\t\tbalancesA[_from] = balancesA[_from].sub(_tokens);\r\n\t\t// Add the same to the recipient\r\n\t\tbalancesA[_to] = balancesA[_to].add(_tokens);\r\n\t\t\r\n\t\temit TransferA(_from, _to, _tokens);\r\n\t\t// Asserts are used to use static analysis to find bugs in your code. They should never fail\r\n\t\tassert(balancesA[_from].add(balancesA[_to]) == previousBalances);\r\n\t\treturn true;\r\n\t}\r\n\r\n\tfunction transferB(address _from, address _to, uint _tokens) \r\n\t\tpublic \r\n\t\tinState(State.Trading)\r\n\t\treturns (bool success) \r\n\t{\r\n\t\t// Prevent transfer to 0x0 address. Use burn() instead\r\n\t\trequire(_to != 0x0);\r\n\t\t// Check if the sender has enough\r\n\t\trequire(balancesB[_from] >= _tokens);\r\n\t\t// Check for overflows\r\n\t\trequire(balancesB[_to].add(_tokens) > balancesB[_to]);\r\n\r\n\t\t// Save this for an assertion in the future\r\n\t\tuint previousBalances = balancesB[_from].add(balancesB[_to]);\r\n\t\t//check whether _to is new. if new then add\r\n\t\tcheckNewUser(_to);\r\n\t\t// Subtract from the sender\r\n\t\tbalancesB[_from] = balancesB[_from].sub(_tokens);\r\n\t\t// Add the same to the recipient\r\n\t\tbalancesB[_to] = balancesB[_to].add(_tokens);\r\n\t\temit TransferB(_from, _to, _tokens);\r\n\t\t// Asserts are used to use static analysis to find bugs in your code. They should never fail\r\n\t\tassert(balancesB[_from].add(balancesB[_to]) == previousBalances);\r\n\t\treturn true;\r\n\t}\r\n\r\n\tfunction approveA(address _sender, address _spender, uint _tokens) \r\n\t\tpublic \r\n\t\treturns (bool success) \r\n\t{\r\n\t\tallowanceA[_sender][_spender] = _tokens;\r\n\t\treturn true;\r\n\t}\r\n\t\r\n\tfunction approveB(address _sender, address _spender, uint _tokens) \r\n\t\tpublic \r\n\t\treturns (bool success) \r\n\t{\r\n\t\tallowanceB[_sender][_spender] = _tokens;\r\n\t\treturn true;\r\n\t}\r\n\r\n\tfunction transferAFrom(address _spender, address _from, address _to, uint _tokens) \r\n\t\tpublic \r\n\t\tinState(State.Trading)\r\n\t\treturns (bool success) \r\n\t{\r\n\t\trequire(_tokens <= allowanceA[_from][_spender]);\t // Check allowance\r\n\t\tallowanceA[_from][_spender] = allowanceA[_from][_spender].sub(_tokens);\r\n\t\ttransferA(_from, _to, _tokens);\r\n\t\treturn true;\r\n\t}\r\n\t\r\n\tfunction transferBFrom(address _spender, address _from, address _to, uint _tokens) \r\n\t\tpublic \r\n\t\tinState(State.Trading)\r\n\t\treturns (bool success) \r\n\t{\r\n\t\trequire(_tokens <= allowanceB[_from][_spender]);\t // Check allowance\r\n\t\tallowanceB[_from][_spender] = allowanceB[_from][_spender].sub(_tokens);\r\n\t\ttransferB(_from, _to, _tokens);\r\n\t\treturn true;\r\n\t}\r\n\r\n\t//admin function\r\n\tfunction setFeeAddress(address newAddress) public only(admin) inState(State.Trading) returns (bool success) {\r\n\t\tfeeCollector = newAddress;\r\n\t\treturn true;\r\n\t}\r\n\r\n\tfunction setCommission(uint newComm) public only(admin) inState(State.Trading) returns (bool success) {\r\n\t\trequire(newComm > 0);\r\n\t\trequire(newComm < BP_DENOMINATOR);\r\n\t\tcommissionRateInBP = newComm;\r\n\t\treturn true;\r\n\t}\r\n\r\n\tfunction setMemberThresholdInWei(uint newValue) public only(admin) inState(State.Trading) returns (bool success) {\r\n\t\tmemberThresholdInWei = newValue;\r\n\t\treturn true;\r\n\t}\r\n\r\n\tfunction setIterationGasThreshold(uint newValue) public only(admin) inState(State.Trading) returns (bool success) {\r\n\t\titerationGasThreshold = newValue;\r\n\t\treturn true;\r\n\t}\r\n\r\n\tfunction setPreResetWaitingBlocks(uint newValue) public only(admin) inState(State.Trading) returns (bool success) {\r\n\t\tpreResetWaitingBlocks = newValue;\r\n\t\treturn true;\r\n\t}\r\n\r\n\tfunction setPostResetWaitingBlocks(uint newValue) public only(admin) inState(State.Trading) returns (bool success) {\r\n\t\tpostResetWaitingBlocks = newValue;\r\n\t\treturn true;\r\n\t}\r\n\r\n\tfunction setPriceTolInBP(uint newValue) public only(admin) inState(State.Trading) returns (bool success) {\r\n\t\tpriceTolInBP = newValue;\r\n\t\treturn true;\r\n\t}\r\n\r\n\tfunction setPriceFeedTolInBP(uint newValue) public only(admin) inState(State.Trading) returns (bool success) {\r\n\t\tpriceFeedTolInBP = newValue;\r\n\t\treturn true;\r\n\t}\r\n\r\n\tfunction setPriceFeedTimeTol(uint newValue) public only(admin) inState(State.Trading) returns (bool success) {\r\n\t\tpriceFeedTimeTol = newValue;\r\n\t\treturn true;\r\n\t}\r\n\r\n\tfunction setPriceUpdateCoolDown(uint newValue) public only(admin) inState(State.Trading) returns (bool success) {\r\n\t\tpriceUpdateCoolDown = newValue;\r\n\t\treturn true;\r\n\t}\r\n\r\n\tfunction getNumOfUsers() public view returns (uint256) {\r\n\t\treturn users.length;\r\n\t}\r\n}\r\n\r\n\r\n\r\n\t",
  "sourcePath": "C:\\dev\\coinFront\\israfel\\contracts\\Custodian.sol",
  "compiler": {
    "name": "solc",
    "version": "0.4.21+commit.dfe3193c.Emscripten.clang"
  },
  "schemaVersion": "2.0.0",
  "updatedAt": "2018-04-17T03:27:55.283Z"
}