{
  "contractName": "Custodian",
  "abi": [
    {
      "constant": true,
      "inputs": [],
      "name": "lastPrice",
      "outputs": [
        {
          "name": "priceInWei",
          "type": "uint256"
        },
        {
          "name": "timeInSecond",
          "type": "uint256"
        }
      ],
      "payable": false,
      "stateMutability": "view",
      "type": "function"
    },
    {
      "constant": true,
      "inputs": [],
      "name": "memberThresholdInWei",
      "outputs": [
        {
          "name": "",
          "type": "uint256"
        }
      ],
      "payable": false,
      "stateMutability": "view",
      "type": "function"
    },
    {
      "constant": true,
      "inputs": [
        {
          "name": "",
          "type": "address"
        }
      ],
      "name": "balancesA",
      "outputs": [
        {
          "name": "",
          "type": "uint256"
        }
      ],
      "payable": false,
      "stateMutability": "view",
      "type": "function"
    },
    {
      "constant": true,
      "inputs": [
        {
          "name": "",
          "type": "address"
        },
        {
          "name": "",
          "type": "address"
        }
      ],
      "name": "allowanceB",
      "outputs": [
        {
          "name": "",
          "type": "uint256"
        }
      ],
      "payable": false,
      "stateMutability": "view",
      "type": "function"
    },
    {
      "constant": true,
      "inputs": [
        {
          "name": "",
          "type": "uint256"
        }
      ],
      "name": "users",
      "outputs": [
        {
          "name": "",
          "type": "address"
        }
      ],
      "payable": false,
      "stateMutability": "view",
      "type": "function"
    },
    {
      "constant": true,
      "inputs": [
        {
          "name": "",
          "type": "address"
        }
      ],
      "name": "balancesB",
      "outputs": [
        {
          "name": "",
          "type": "uint256"
        }
      ],
      "payable": false,
      "stateMutability": "view",
      "type": "function"
    },
    {
      "constant": true,
      "inputs": [],
      "name": "alphaInBP",
      "outputs": [
        {
          "name": "",
          "type": "uint256"
        }
      ],
      "payable": false,
      "stateMutability": "view",
      "type": "function"
    },
    {
      "constant": true,
      "inputs": [
        {
          "name": "",
          "type": "address"
        }
      ],
      "name": "ethPendingWithdrawal",
      "outputs": [
        {
          "name": "",
          "type": "uint256"
        }
      ],
      "payable": false,
      "stateMutability": "view",
      "type": "function"
    },
    {
      "constant": true,
      "inputs": [],
      "name": "limitUpperInWei",
      "outputs": [
        {
          "name": "",
          "type": "uint256"
        }
      ],
      "payable": false,
      "stateMutability": "view",
      "type": "function"
    },
    {
      "constant": true,
      "inputs": [],
      "name": "nextResetAddrIndex",
      "outputs": [
        {
          "name": "",
          "type": "uint256"
        }
      ],
      "payable": false,
      "stateMutability": "view",
      "type": "function"
    },
    {
      "constant": true,
      "inputs": [],
      "name": "feeAccumulatedInWei",
      "outputs": [
        {
          "name": "",
          "type": "uint256"
        }
      ],
      "payable": false,
      "stateMutability": "view",
      "type": "function"
    },
    {
      "constant": true,
      "inputs": [
        {
          "name": "",
          "type": "address"
        }
      ],
      "name": "existingUsers",
      "outputs": [
        {
          "name": "",
          "type": "bool"
        }
      ],
      "payable": false,
      "stateMutability": "view",
      "type": "function"
    },
    {
      "constant": true,
      "inputs": [],
      "name": "resetPrice",
      "outputs": [
        {
          "name": "priceInWei",
          "type": "uint256"
        },
        {
          "name": "timeInSecond",
          "type": "uint256"
        }
      ],
      "payable": false,
      "stateMutability": "view",
      "type": "function"
    },
    {
      "constant": true,
      "inputs": [
        {
          "name": "",
          "type": "address"
        },
        {
          "name": "",
          "type": "address"
        }
      ],
      "name": "allowanceA",
      "outputs": [
        {
          "name": "",
          "type": "uint256"
        }
      ],
      "payable": false,
      "stateMutability": "view",
      "type": "function"
    },
    {
      "constant": true,
      "inputs": [],
      "name": "navBInWei",
      "outputs": [
        {
          "name": "",
          "type": "uint256"
        }
      ],
      "payable": false,
      "stateMutability": "view",
      "type": "function"
    },
    {
      "constant": true,
      "inputs": [],
      "name": "state",
      "outputs": [
        {
          "name": "",
          "type": "uint8"
        }
      ],
      "payable": false,
      "stateMutability": "view",
      "type": "function"
    },
    {
      "constant": true,
      "inputs": [],
      "name": "commissionRateInBP",
      "outputs": [
        {
          "name": "",
          "type": "uint256"
        }
      ],
      "payable": false,
      "stateMutability": "view",
      "type": "function"
    },
    {
      "constant": true,
      "inputs": [],
      "name": "iterationGasThreshold",
      "outputs": [
        {
          "name": "",
          "type": "uint256"
        }
      ],
      "payable": false,
      "stateMutability": "view",
      "type": "function"
    },
    {
      "constant": true,
      "inputs": [],
      "name": "periodCouponInWei",
      "outputs": [
        {
          "name": "",
          "type": "uint256"
        }
      ],
      "payable": false,
      "stateMutability": "view",
      "type": "function"
    },
    {
      "constant": true,
      "inputs": [],
      "name": "duoTokenAddress",
      "outputs": [
        {
          "name": "",
          "type": "address"
        }
      ],
      "payable": false,
      "stateMutability": "view",
      "type": "function"
    },
    {
      "constant": true,
      "inputs": [],
      "name": "betaInWei",
      "outputs": [
        {
          "name": "",
          "type": "uint256"
        }
      ],
      "payable": false,
      "stateMutability": "view",
      "type": "function"
    },
    {
      "constant": true,
      "inputs": [],
      "name": "period",
      "outputs": [
        {
          "name": "",
          "type": "uint256"
        }
      ],
      "payable": false,
      "stateMutability": "view",
      "type": "function"
    },
    {
      "constant": true,
      "inputs": [],
      "name": "limitPeriodicInWei",
      "outputs": [
        {
          "name": "",
          "type": "uint256"
        }
      ],
      "payable": false,
      "stateMutability": "view",
      "type": "function"
    },
    {
      "constant": true,
      "inputs": [],
      "name": "limitLowerInWei",
      "outputs": [
        {
          "name": "",
          "type": "uint256"
        }
      ],
      "payable": false,
      "stateMutability": "view",
      "type": "function"
    },
    {
      "constant": true,
      "inputs": [],
      "name": "navAInWei",
      "outputs": [
        {
          "name": "",
          "type": "uint256"
        }
      ],
      "payable": false,
      "stateMutability": "view",
      "type": "function"
    },
    {
      "inputs": [
        {
          "name": "feeAddress",
          "type": "address"
        },
        {
          "name": "duoAddress",
          "type": "address"
        },
        {
          "name": "pf1",
          "type": "address"
        },
        {
          "name": "pf2",
          "type": "address"
        },
        {
          "name": "pf3",
          "type": "address"
        },
        {
          "name": "alpha",
          "type": "uint256"
        },
        {
          "name": "r",
          "type": "uint256"
        },
        {
          "name": "hp",
          "type": "uint256"
        },
        {
          "name": "hu",
          "type": "uint256"
        },
        {
          "name": "hd",
          "type": "uint256"
        },
        {
          "name": "c",
          "type": "uint256"
        },
        {
          "name": "p",
          "type": "uint256"
        },
        {
          "name": "memberThreshold",
          "type": "uint256"
        },
        {
          "name": "gasThreshold",
          "type": "uint256"
        },
        {
          "name": "coolDown",
          "type": "uint256"
        }
      ],
      "payable": false,
      "stateMutability": "nonpayable",
      "type": "constructor"
    },
    {
      "anonymous": false,
      "inputs": [],
      "name": "StartTrading",
      "type": "event"
    },
    {
      "anonymous": false,
      "inputs": [],
      "name": "StartPreReset",
      "type": "event"
    },
    {
      "anonymous": false,
      "inputs": [],
      "name": "StartReset",
      "type": "event"
    },
    {
      "anonymous": false,
      "inputs": [],
      "name": "StartPostReset",
      "type": "event"
    },
    {
      "anonymous": false,
      "inputs": [
        {
          "indexed": true,
          "name": "from",
          "type": "address"
        },
        {
          "indexed": true,
          "name": "to",
          "type": "address"
        },
        {
          "indexed": false,
          "name": "value",
          "type": "uint256"
        }
      ],
      "name": "TransferA",
      "type": "event"
    },
    {
      "anonymous": false,
      "inputs": [
        {
          "indexed": true,
          "name": "from",
          "type": "address"
        },
        {
          "indexed": true,
          "name": "to",
          "type": "address"
        },
        {
          "indexed": false,
          "name": "value",
          "type": "uint256"
        }
      ],
      "name": "TransferB",
      "type": "event"
    },
    {
      "anonymous": false,
      "inputs": [
        {
          "indexed": true,
          "name": "priceInWei",
          "type": "uint256"
        },
        {
          "indexed": true,
          "name": "timeInSecond",
          "type": "uint256"
        }
      ],
      "name": "AcceptPrice",
      "type": "event"
    },
    {
      "constant": false,
      "inputs": [
        {
          "name": "priceInWei",
          "type": "uint256"
        },
        {
          "name": "timeInSecond",
          "type": "uint256"
        }
      ],
      "name": "startContract",
      "outputs": [
        {
          "name": "success",
          "type": "bool"
        }
      ],
      "payable": false,
      "stateMutability": "nonpayable",
      "type": "function"
    },
    {
      "constant": true,
      "inputs": [
        {
          "name": "priceInWei",
          "type": "uint256"
        },
        {
          "name": "timeInSecond",
          "type": "uint256"
        },
        {
          "name": "resetPriceInWei",
          "type": "uint256"
        },
        {
          "name": "resetTimeInSecond",
          "type": "uint256"
        },
        {
          "name": "bInWei",
          "type": "uint256"
        }
      ],
      "name": "calculateNav",
      "outputs": [
        {
          "name": "",
          "type": "uint256"
        },
        {
          "name": "",
          "type": "uint256"
        }
      ],
      "payable": false,
      "stateMutability": "view",
      "type": "function"
    },
    {
      "constant": false,
      "inputs": [],
      "name": "startPreReset",
      "outputs": [
        {
          "name": "success",
          "type": "bool"
        }
      ],
      "payable": false,
      "stateMutability": "nonpayable",
      "type": "function"
    },
    {
      "constant": false,
      "inputs": [],
      "name": "startPostReset",
      "outputs": [
        {
          "name": "success",
          "type": "bool"
        }
      ],
      "payable": false,
      "stateMutability": "nonpayable",
      "type": "function"
    },
    {
      "constant": false,
      "inputs": [],
      "name": "startReset",
      "outputs": [
        {
          "name": "success",
          "type": "bool"
        }
      ],
      "payable": false,
      "stateMutability": "nonpayable",
      "type": "function"
    },
    {
      "constant": true,
      "inputs": [
        {
          "name": "a",
          "type": "uint256"
        },
        {
          "name": "b",
          "type": "uint256"
        },
        {
          "name": "c",
          "type": "uint256"
        }
      ],
      "name": "getMedian",
      "outputs": [
        {
          "name": "",
          "type": "uint256"
        }
      ],
      "payable": false,
      "stateMutability": "pure",
      "type": "function"
    },
    {
      "constant": false,
      "inputs": [
        {
          "name": "priceInWei",
          "type": "uint256"
        },
        {
          "name": "timeInSecond",
          "type": "uint256"
        }
      ],
      "name": "commitPrice",
      "outputs": [
        {
          "name": "success",
          "type": "bool"
        }
      ],
      "payable": false,
      "stateMutability": "nonpayable",
      "type": "function"
    },
    {
      "constant": false,
      "inputs": [
        {
          "name": "amtInWeiA",
          "type": "uint256"
        },
        {
          "name": "amtInWeiB",
          "type": "uint256"
        }
      ],
      "name": "redeem",
      "outputs": [
        {
          "name": "success",
          "type": "bool"
        }
      ],
      "payable": false,
      "stateMutability": "nonpayable",
      "type": "function"
    },
    {
      "constant": false,
      "inputs": [
        {
          "name": "amtEthInWei",
          "type": "uint256"
        }
      ],
      "name": "withdraw",
      "outputs": [
        {
          "name": "success",
          "type": "bool"
        }
      ],
      "payable": false,
      "stateMutability": "nonpayable",
      "type": "function"
    },
    {
      "constant": false,
      "inputs": [
        {
          "name": "amountInWei",
          "type": "uint256"
        }
      ],
      "name": "collectFee",
      "outputs": [
        {
          "name": "success",
          "type": "bool"
        }
      ],
      "payable": false,
      "stateMutability": "nonpayable",
      "type": "function"
    },
    {
      "constant": false,
      "inputs": [],
      "name": "create",
      "outputs": [
        {
          "name": "success",
          "type": "bool"
        }
      ],
      "payable": true,
      "stateMutability": "payable",
      "type": "function"
    },
    {
      "constant": true,
      "inputs": [
        {
          "name": "add",
          "type": "address"
        }
      ],
      "name": "checkBalanceA",
      "outputs": [
        {
          "name": "",
          "type": "uint256"
        }
      ],
      "payable": false,
      "stateMutability": "view",
      "type": "function"
    },
    {
      "constant": true,
      "inputs": [
        {
          "name": "add",
          "type": "address"
        }
      ],
      "name": "checkBalanceB",
      "outputs": [
        {
          "name": "",
          "type": "uint256"
        }
      ],
      "payable": false,
      "stateMutability": "view",
      "type": "function"
    },
    {
      "constant": true,
      "inputs": [
        {
          "name": "_user",
          "type": "address"
        },
        {
          "name": "_spender",
          "type": "address"
        }
      ],
      "name": "checkAllowanceA",
      "outputs": [
        {
          "name": "",
          "type": "uint256"
        }
      ],
      "payable": false,
      "stateMutability": "view",
      "type": "function"
    },
    {
      "constant": true,
      "inputs": [
        {
          "name": "_user",
          "type": "address"
        },
        {
          "name": "_spender",
          "type": "address"
        }
      ],
      "name": "checkAllowanceB",
      "outputs": [
        {
          "name": "",
          "type": "uint256"
        }
      ],
      "payable": false,
      "stateMutability": "view",
      "type": "function"
    },
    {
      "constant": false,
      "inputs": [
        {
          "name": "_from",
          "type": "address"
        },
        {
          "name": "_to",
          "type": "address"
        },
        {
          "name": "_tokens",
          "type": "uint256"
        }
      ],
      "name": "transferA",
      "outputs": [
        {
          "name": "success",
          "type": "bool"
        }
      ],
      "payable": false,
      "stateMutability": "nonpayable",
      "type": "function"
    },
    {
      "constant": false,
      "inputs": [
        {
          "name": "_from",
          "type": "address"
        },
        {
          "name": "_to",
          "type": "address"
        },
        {
          "name": "_tokens",
          "type": "uint256"
        }
      ],
      "name": "transferB",
      "outputs": [
        {
          "name": "success",
          "type": "bool"
        }
      ],
      "payable": false,
      "stateMutability": "nonpayable",
      "type": "function"
    },
    {
      "constant": false,
      "inputs": [
        {
          "name": "_sender",
          "type": "address"
        },
        {
          "name": "_spender",
          "type": "address"
        },
        {
          "name": "_tokens",
          "type": "uint256"
        }
      ],
      "name": "approveA",
      "outputs": [
        {
          "name": "success",
          "type": "bool"
        }
      ],
      "payable": false,
      "stateMutability": "nonpayable",
      "type": "function"
    },
    {
      "constant": false,
      "inputs": [
        {
          "name": "_sender",
          "type": "address"
        },
        {
          "name": "_spender",
          "type": "address"
        },
        {
          "name": "_tokens",
          "type": "uint256"
        }
      ],
      "name": "approveB",
      "outputs": [
        {
          "name": "success",
          "type": "bool"
        }
      ],
      "payable": false,
      "stateMutability": "nonpayable",
      "type": "function"
    },
    {
      "constant": false,
      "inputs": [
        {
          "name": "_spender",
          "type": "address"
        },
        {
          "name": "_from",
          "type": "address"
        },
        {
          "name": "_to",
          "type": "address"
        },
        {
          "name": "_tokens",
          "type": "uint256"
        }
      ],
      "name": "transferAFrom",
      "outputs": [
        {
          "name": "success",
          "type": "bool"
        }
      ],
      "payable": false,
      "stateMutability": "nonpayable",
      "type": "function"
    },
    {
      "constant": false,
      "inputs": [
        {
          "name": "_spender",
          "type": "address"
        },
        {
          "name": "_from",
          "type": "address"
        },
        {
          "name": "_to",
          "type": "address"
        },
        {
          "name": "_tokens",
          "type": "uint256"
        }
      ],
      "name": "transferBFrom",
      "outputs": [
        {
          "name": "success",
          "type": "bool"
        }
      ],
      "payable": false,
      "stateMutability": "nonpayable",
      "type": "function"
    },
    {
      "constant": false,
      "inputs": [
        {
          "name": "newAddress",
          "type": "address"
        }
      ],
      "name": "setFeeAddress",
      "outputs": [
        {
          "name": "success",
          "type": "bool"
        }
      ],
      "payable": false,
      "stateMutability": "nonpayable",
      "type": "function"
    },
    {
      "constant": false,
      "inputs": [
        {
          "name": "newComm",
          "type": "uint256"
        }
      ],
      "name": "setCommission",
      "outputs": [
        {
          "name": "success",
          "type": "bool"
        }
      ],
      "payable": false,
      "stateMutability": "nonpayable",
      "type": "function"
    },
    {
      "constant": false,
      "inputs": [
        {
          "name": "newValue",
          "type": "uint256"
        }
      ],
      "name": "setMemberThresholdInWei",
      "outputs": [
        {
          "name": "success",
          "type": "bool"
        }
      ],
      "payable": false,
      "stateMutability": "nonpayable",
      "type": "function"
    },
    {
      "constant": false,
      "inputs": [
        {
          "name": "newValue",
          "type": "uint256"
        }
      ],
      "name": "setIterationGasThreshold",
      "outputs": [
        {
          "name": "success",
          "type": "bool"
        }
      ],
      "payable": false,
      "stateMutability": "nonpayable",
      "type": "function"
    },
    {
      "constant": false,
      "inputs": [
        {
          "name": "newValue",
          "type": "uint256"
        }
      ],
      "name": "setPreResetWaitingBlocks",
      "outputs": [
        {
          "name": "success",
          "type": "bool"
        }
      ],
      "payable": false,
      "stateMutability": "nonpayable",
      "type": "function"
    },
    {
      "constant": false,
      "inputs": [
        {
          "name": "newValue",
          "type": "uint256"
        }
      ],
      "name": "setPostResetWaitingBlocks",
      "outputs": [
        {
          "name": "success",
          "type": "bool"
        }
      ],
      "payable": false,
      "stateMutability": "nonpayable",
      "type": "function"
    },
    {
      "constant": false,
      "inputs": [
        {
          "name": "newValue",
          "type": "uint256"
        }
      ],
      "name": "setPriceTolInBP",
      "outputs": [
        {
          "name": "success",
          "type": "bool"
        }
      ],
      "payable": false,
      "stateMutability": "nonpayable",
      "type": "function"
    },
    {
      "constant": false,
      "inputs": [
        {
          "name": "newValue",
          "type": "uint256"
        }
      ],
      "name": "setPriceFeedTolInBP",
      "outputs": [
        {
          "name": "success",
          "type": "bool"
        }
      ],
      "payable": false,
      "stateMutability": "nonpayable",
      "type": "function"
    },
    {
      "constant": false,
      "inputs": [
        {
          "name": "newValue",
          "type": "uint256"
        }
      ],
      "name": "setPriceFeedTimeTol",
      "outputs": [
        {
          "name": "success",
          "type": "bool"
        }
      ],
      "payable": false,
      "stateMutability": "nonpayable",
      "type": "function"
    },
    {
      "constant": false,
      "inputs": [
        {
          "name": "newValue",
          "type": "uint256"
        }
      ],
      "name": "setPriceUpdateCoolDown",
      "outputs": [
        {
          "name": "success",
          "type": "bool"
        }
      ],
      "payable": false,
      "stateMutability": "nonpayable",
      "type": "function"
    },
    {
      "constant": true,
      "inputs": [],
      "name": "getNumOfUsers",
      "outputs": [
        {
          "name": "",
          "type": "uint256"
        }
      ],
      "payable": false,
      "stateMutability": "view",
      "type": "function"
    }
  ],
  "bytecode": "0x6060604052670de0b6b3a7640000601a55600a601f55600a6020556101f46021556064602255603c6023556000602555600060265560006027556000602855341561004957600080fd5b6040516101e080620051d58339810160405280805190602001909190805190602001909190805190602001909190805190602001909190805190602001909190805190602001909190805190602001909190805190602001909190805190602001909190805190602001909190805190602001909190805190602001909190805190602001909190805190602001909190805190602001909190505060008060006101000a81548160ff0219169083600681111561010357fe5b021790555033600e60006101000a81548173ffffffffffffffffffffffffffffffffffffffff021916908373ffffffffffffffffffffffffffffffffffffffff160217905550601260058190555060646018819055508e600060016101000a81548173ffffffffffffffffffffffffffffffffffffffff021916908373ffffffffffffffffffffffffffffffffffffffff1602179055508c600160006101000a81548173ffffffffffffffffffffffffffffffffffffffff021916908373ffffffffffffffffffffffffffffffffffffffff1602179055508b600260006101000a81548173ffffffffffffffffffffffffffffffffffffffff021916908373ffffffffffffffffffffffffffffffffffffffff1602179055508a600360006101000a81548173ffffffffffffffffffffffffffffffffffffffff021916908373ffffffffffffffffffffffffffffffffffffffff1602179055508d600460006101000a81548173ffffffffffffffffffffffffffffffffffffffff021916908373ffffffffffffffffffffffffffffffffffffffff1602179055508960138190555088601481905550876015819055508660168190555085601781905550846018819055508360198190555082601d8190555081601e819055506001601b819055506001601c8190555080602481905550505050505050505050505050505050614ec280620003136000396000f3006060604052600436106102a9576000357c0100000000000000000000000000000000000000000000000000000000900463ffffffff16806303ee06f4146102ae578063053f14da146102f2578063060babfa146103225780630e2559711461034b578063116a97f414610398578063134e92a8146103e55780631b7468da146104125780632071033a1461044d57806324ca0be2146104c65780632bfe169f146105325780632e1a7d4d146105ab57806332a3bc0c146105e6578063355e6b4314610613578063365b98b21461064e57806355631469146106b157806356f0e55b146106fe5780635f30e6531461076a5780636797dd2d146107a5578063744b6bb51461081e578063751103bb1461084757806376ee0852146108b357806378e80fc71461094b5780637cbc23731461099857806381a6a1ee146109dc5780638705fcd414610a05578063880e97a014610a565780638d03174f14610a7f578063923fdcfe14610aba57806393b72fce14610ae75780639bbcc88814610b495780639d6919ce14610b725780639e3b9e4c14610bad578063a817f33414610bd6578063a969ff0a14610c6e578063afffcf1014610ca9578063b337f8cc14610d22578063b401b09814610d73578063bafb733614610dae578063bb208c8114610dde578063bf1f6d4514610e4a578063c19d93fb14610e73578063c45fa23314610eaa578063ce90db8814610ef7578063d68533aa14610f20578063d96539a014610f49578063d968392e14610f92578063dd9df07d14610fd6578063ddfcb19a14611011578063e6dde2f21461103a578063e763b9141461108f578063ec2b0bfd146110ca578063edc30170146110f3578063ef78d4fd1461112e578063efc81a8c14611157578063f01265e814611179578063f3d1ccc9146111a2578063f7078179146111cb575b600080fd5b34156102b957600080fd5b6102d860048080359060200190919080359060200190919050506111f4565b604051808215151515815260200191505060405180910390f35b34156102fd57600080fd5b6103056118ff565b604051808381526020018281526020019250505060405180910390f35b341561032d57600080fd5b610335611911565b6040518082815260200191505060405180910390f35b341561035657600080fd5b610382600480803573ffffffffffffffffffffffffffffffffffffffff16906020019091905050611917565b6040518082815260200191505060405180910390f35b34156103a357600080fd5b6103cf600480803573ffffffffffffffffffffffffffffffffffffffff1690602001909190505061192f565b6040518082815260200191505060405180910390f35b34156103f057600080fd5b6103f8611978565b604051808215151515815260200191505060405180910390f35b341561041d57600080fd5b6104336004808035906020019091905050611bd6565b604051808215151515815260200191505060405180910390f35b341561045857600080fd5b6104ac600480803573ffffffffffffffffffffffffffffffffffffffff1690602001909190803573ffffffffffffffffffffffffffffffffffffffff16906020019091908035906020019091905050611c7b565b604051808215151515815260200191505060405180910390f35b34156104d157600080fd5b61051c600480803573ffffffffffffffffffffffffffffffffffffffff1690602001909190803573ffffffffffffffffffffffffffffffffffffffff16906020019091905050612097565b6040518082815260200191505060405180910390f35b341561053d57600080fd5b610591600480803573ffffffffffffffffffffffffffffffffffffffff1690602001909190803573ffffffffffffffffffffffffffffffffffffffff169060200190919080359060200190919050506120bc565b604051808215151515815260200191505060405180910390f35b34156105b657600080fd5b6105cc60048080359060200190919050506124d8565b604051808215151515815260200191505060405180910390f35b34156105f157600080fd5b6105f9612669565b604051808215151515815260200191505060405180910390f35b341561061e57600080fd5b6106346004808035906020019091905050612c2d565b604051808215151515815260200191505060405180910390f35b341561065957600080fd5b61066f6004808035906020019091905050612cf1565b604051808273ffffffffffffffffffffffffffffffffffffffff1673ffffffffffffffffffffffffffffffffffffffff16815260200191505060405180910390f35b34156106bc57600080fd5b6106e8600480803573ffffffffffffffffffffffffffffffffffffffff16906020019091905050612d30565b6040518082815260200191505060405180910390f35b341561070957600080fd5b610754600480803573ffffffffffffffffffffffffffffffffffffffff1690602001909190803573ffffffffffffffffffffffffffffffffffffffff16906020019091905050612d48565b6040518082815260200191505060405180910390f35b341561077557600080fd5b61078b6004808035906020019091905050612dcf565b604051808215151515815260200191505060405180910390f35b34156107b057600080fd5b610804600480803573ffffffffffffffffffffffffffffffffffffffff1690602001909190803573ffffffffffffffffffffffffffffffffffffffff16906020019091908035906020019091905050612e74565b604051808215151515815260200191505060405180910390f35b341561082957600080fd5b610831612f02565b6040518082815260200191505060405180910390f35b341561085257600080fd5b61089d600480803573ffffffffffffffffffffffffffffffffffffffff1690602001909190803573ffffffffffffffffffffffffffffffffffffffff16906020019091905050612f08565b6040518082815260200191505060405180910390f35b34156108be57600080fd5b610931600480803573ffffffffffffffffffffffffffffffffffffffff1690602001909190803573ffffffffffffffffffffffffffffffffffffffff1690602001909190803573ffffffffffffffffffffffffffffffffffffffff16906020019091908035906020019091905050612f8f565b604051808215151515815260200191505060405180910390f35b341561095657600080fd5b610982600480803573ffffffffffffffffffffffffffffffffffffffff16906020019091905050613178565b6040518082815260200191505060405180910390f35b34156109a357600080fd5b6109c26004808035906020019091908035906020019091905050613190565b604051808215151515815260200191505060405180910390f35b34156109e757600080fd5b6109ef61364c565b6040518082815260200191505060405180910390f35b3415610a1057600080fd5b610a3c600480803573ffffffffffffffffffffffffffffffffffffffff16906020019091905050613652565b604051808215151515815260200191505060405180910390f35b3415610a6157600080fd5b610a69613731565b6040518082815260200191505060405180910390f35b3415610a8a57600080fd5b610aa0600480803590602001909190505061373e565b604051808215151515815260200191505060405180910390f35b3415610ac557600080fd5b610acd6137e3565b604051808215151515815260200191505060405180910390f35b3415610af257600080fd5b610b2c60048080359060200190919080359060200190919080359060200190919080359060200190919080359060200190919050506138b1565b604051808381526020018281526020019250505060405180910390f35b3415610b5457600080fd5b610b5c613a40565b6040518082815260200191505060405180910390f35b3415610b7d57600080fd5b610b936004808035906020019091905050613a46565b604051808215151515815260200191505060405180910390f35b3415610bb857600080fd5b610bc0613aeb565b6040518082815260200191505060405180910390f35b3415610be157600080fd5b610c54600480803573ffffffffffffffffffffffffffffffffffffffff1690602001909190803573ffffffffffffffffffffffffffffffffffffffff1690602001909190803573ffffffffffffffffffffffffffffffffffffffff16906020019091908035906020019091905050613af1565b604051808215151515815260200191505060405180910390f35b3415610c7957600080fd5b610c8f6004808035906020019091905050613cda565b604051808215151515815260200191505060405180910390f35b3415610cb457600080fd5b610d08600480803573ffffffffffffffffffffffffffffffffffffffff1690602001909190803573ffffffffffffffffffffffffffffffffffffffff16906020019091908035906020019091905050613df9565b604051808215151515815260200191505060405180910390f35b3415610d2d57600080fd5b610d59600480803573ffffffffffffffffffffffffffffffffffffffff16906020019091905050613e87565b604051808215151515815260200191505060405180910390f35b3415610d7e57600080fd5b610d946004808035906020019091905050613ea7565b604051808215151515815260200191505060405180910390f35b3415610db957600080fd5b610dc1613f4c565b604051808381526020018281526020019250505060405180910390f35b3415610de957600080fd5b610e34600480803573ffffffffffffffffffffffffffffffffffffffff1690602001909190803573ffffffffffffffffffffffffffffffffffffffff16906020019091905050613f5e565b6040518082815260200191505060405180910390f35b3415610e5557600080fd5b610e5d613f83565b6040518082815260200191505060405180910390f35b3415610e7e57600080fd5b610e86613f89565b60405180826006811115610e9657fe5b60ff16815260200191505060405180910390f35b3415610eb557600080fd5b610ee1600480803573ffffffffffffffffffffffffffffffffffffffff16906020019091905050613f9b565b6040518082815260200191505060405180910390f35b3415610f0257600080fd5b610f0a613fe4565b6040518082815260200191505060405180910390f35b3415610f2b57600080fd5b610f33613fea565b6040518082815260200191505060405180910390f35b3415610f5457600080fd5b610f7c6004808035906020019091908035906020019091908035906020019091905050613ff0565b6040518082815260200191505060405180910390f35b3415610f9d57600080fd5b610fbc60048080359060200190919080359060200190919050506140f2565b604051808215151515815260200191505060405180910390f35b3415610fe157600080fd5b610ff760048080359060200190919050506142a5565b604051808215151515815260200191505060405180910390f35b341561101c57600080fd5b61102461434a565b6040518082815260200191505060405180910390f35b341561104557600080fd5b61104d614350565b604051808273ffffffffffffffffffffffffffffffffffffffff1673ffffffffffffffffffffffffffffffffffffffff16815260200191505060405180910390f35b341561109a57600080fd5b6110b06004808035906020019091905050614376565b604051808215151515815260200191505060405180910390f35b34156110d557600080fd5b6110dd61441b565b6040518082815260200191505060405180910390f35b34156110fe57600080fd5b6111146004808035906020019091905050614421565b604051808215151515815260200191505060405180910390f35b341561113957600080fd5b6111416144c6565b6040518082815260200191505060405180910390f35b61115f6144cc565b604051808215151515815260200191505060405180910390f35b341561118457600080fd5b61118c614831565b6040518082815260200191505060405180910390f35b34156111ad57600080fd5b6111b5614837565b6040518082815260200191505060405180910390f35b34156111d657600080fd5b6111de61483d565b6040518082815260200191505060405180910390f35b6000806000600180600681111561120757fe5b6000809054906101000a900460ff16600681111561122157fe5b14151561122d57600080fd5b600160009054906101000a900473ffffffffffffffffffffffffffffffffffffffff16600260009054906101000a900473ffffffffffffffffffffffffffffffffffffffff16600360009054906101000a900473ffffffffffffffffffffffffffffffffffffffff168273ffffffffffffffffffffffffffffffffffffffff163373ffffffffffffffffffffffffffffffffffffffff1614806112fb57508173ffffffffffffffffffffffffffffffffffffffff163373ffffffffffffffffffffffffffffffffffffffff16145b8061133157508073ffffffffffffffffffffffffffffffffffffffff163373ffffffffffffffffffffffffffffffffffffffff16145b151561133c57600080fd5b611344614843565b881115151561135257600080fd5b61136c60245460116001015461484b90919063ffffffff16565b8811151561137957600080fd5b600060255414156114615761139389601160000154614869565b95506021546113c46011600001546113b66127108a6148a690919063ffffffff16565b6148d990919063ffffffff16565b1115156113da576113d589896148f4565b61145c565b60408051908101604052808a815260200189815250602b600082015181600001556020820151816001015590505033602960006101000a81548173ffffffffffffffffffffffffffffffffffffffff021916908373ffffffffffffffffffffffffffffffffffffffff1602179055506025600081548092919060010191905055505b6118ee565b600160255414156116aa57611486602454602b6001015461484b90919063ffffffff16565b881115611507573373ffffffffffffffffffffffffffffffffffffffff16602960009054906101000a900473ffffffffffffffffffffffffffffffffffffffff1673ffffffffffffffffffffffffffffffffffffffff1614156114f2576114ed89896148f4565b611502565b611501602b60000154896148f4565b5b6116a5565b3373ffffffffffffffffffffffffffffffffffffffff16602960009054906101000a900473ffffffffffffffffffffffffffffffffffffffff1673ffffffffffffffffffffffffffffffffffffffff161415151561156457600080fd5b8761157f602354602b6001015461484b90919063ffffffff16565b10806115a35750876115a1602354602b600101546149fb90919063ffffffff16565b115b156115c1576115bc602b60000154602b600101546148f4565b6116a4565b6115d089602b60000154614869565b9550602154611601602b600001546115f36127108a6148a690919063ffffffff16565b6148d990919063ffffffff16565b1115156116215761161c602b60000154602b600101546148f4565b6116a3565b60408051908101604052808a815260200189815250602d600082015181600001556020820151816001015590505033602a60006101000a81548173ffffffffffffffffffffffffffffffffffffffff021916908373ffffffffffffffffffffffffffffffffffffffff1602179055506025600081548092919060010191905055505b5b5b6118ed565b600260255414156118e357602454602b6001015401881115611798573373ffffffffffffffffffffffffffffffffffffffff16602960009054906101000a900473ffffffffffffffffffffffffffffffffffffffff1673ffffffffffffffffffffffffffffffffffffffff16148061176f57503373ffffffffffffffffffffffffffffffffffffffff16602a60009054906101000a900473ffffffffffffffffffffffffffffffffffffffff1673ffffffffffffffffffffffffffffffffffffffff16145b156117835761177e89896148f4565b611793565b611792602d60000154896148f4565b5b6118de565b3373ffffffffffffffffffffffffffffffffffffffff16602960009054906101000a900473ffffffffffffffffffffffffffffffffffffffff1673ffffffffffffffffffffffffffffffffffffffff161415801561184457503373ffffffffffffffffffffffffffffffffffffffff16602a60009054906101000a900473ffffffffffffffffffffffffffffffffffffffff1673ffffffffffffffffffffffffffffffffffffffff1614155b151561184f57600080fd5b8761186a602354602b6001015461484b90919063ffffffff16565b108061188e57508761188c602354602b600101546149fb90919063ffffffff16565b115b156118a057602b6000015494506118ce565b88602d6000015414156118b5578894506118cd565b6118ca602b60000154602d600001548b613ff0565b94505b5b6118dd85602b600101546148f4565b5b6118ec565b600096506118f3565b5b5b600196505b50505050505092915050565b60118060000154908060010154905082565b601d5481565b60066020528060005260406000206000915090505481565b6000600760008373ffffffffffffffffffffffffffffffffffffffff1673ffffffffffffffffffffffffffffffffffffffff168152602001908152602001600020549050919050565b6000806000600280600681111561198b57fe5b6000809054906101000a900460ff1660068111156119a557fe5b1415156119b157600080fd5b601f546026544303101515611b9f57601654601c54101515611a045760036000806101000a81548160ff021916908360068111156119eb57fe5b0217905550670de0b6b3a7640000601a81905550611b6e565b601754601c54111515611a485760046000806101000a81548160ff02191690836006811115611a2f57fe5b0217905550670de0b6b3a7640000601a81905550611b6d565b60056000806101000a81548160ff02191690836006811115611a6657fe5b0217905550611a99601160000154611a8b61271060135461484b90919063ffffffff16565b6148a690919063ffffffff16565b9250611b3d611b2e670de0b6b3a7640000611b20670de0b6b3a7640000611b12611ad6670de0b6b3a7640000601b546149fb90919063ffffffff16565b611b04601a54611af6601354600f600001546148a690919063ffffffff16565b6148a690919063ffffffff16565b6148a690919063ffffffff16565b6148d990919063ffffffff16565b6148d990919063ffffffff16565b846149fb90919063ffffffff16565b9150611b6682611b5885601a546148a690919063ffffffff16565b6148d990919063ffffffff16565b601a819055505b5b7f91c286863163aa15991e5aabc5934ed57007ed7f0b1bddcde66ca789ab227ea360405160405180910390a1611bcc565b7fa1f85a3680dfb51f7db8069e794f07f371ef5a545a9c915ac6315b0768a08b3f60405160405180910390a15b6001935050505090565b6000600e60009054906101000a900473ffffffffffffffffffffffffffffffffffffffff168073ffffffffffffffffffffffffffffffffffffffff163373ffffffffffffffffffffffffffffffffffffffff16141515611c3557600080fd5b6001806006811115611c4357fe5b6000809054906101000a900460ff166006811115611c5d57fe5b141515611c6957600080fd5b83602181905550600192505050919050565b6000806001806006811115611c8c57fe5b6000809054906101000a900460ff166006811115611ca657fe5b141515611cb257600080fd5b60008573ffffffffffffffffffffffffffffffffffffffff1614151515611cd857600080fd5b83600760008873ffffffffffffffffffffffffffffffffffffffff1673ffffffffffffffffffffffffffffffffffffffff1681526020019081526020016000205410151515611d2657600080fd5b600760008673ffffffffffffffffffffffffffffffffffffffff1673ffffffffffffffffffffffffffffffffffffffff16815260200190815260200160002054611db885600760008973ffffffffffffffffffffffffffffffffffffffff1673ffffffffffffffffffffffffffffffffffffffff1681526020019081526020016000205461484b90919063ffffffff16565b111515611dc457600080fd5b611e55600760008773ffffffffffffffffffffffffffffffffffffffff1673ffffffffffffffffffffffffffffffffffffffff16815260200190815260200160002054600760008973ffffffffffffffffffffffffffffffffffffffff1673ffffffffffffffffffffffffffffffffffffffff1681526020019081526020016000205461484b90919063ffffffff16565b9150611e6085614a14565b611eb284600760008973ffffffffffffffffffffffffffffffffffffffff1673ffffffffffffffffffffffffffffffffffffffff168152602001908152602001600020546149fb90919063ffffffff16565b600760008873ffffffffffffffffffffffffffffffffffffffff1673ffffffffffffffffffffffffffffffffffffffff16815260200190815260200160002081905550611f4784600760008873ffffffffffffffffffffffffffffffffffffffff1673ffffffffffffffffffffffffffffffffffffffff1681526020019081526020016000205461484b90919063ffffffff16565b600760008773ffffffffffffffffffffffffffffffffffffffff1673ffffffffffffffffffffffffffffffffffffffff168152602001908152602001600020819055508473ffffffffffffffffffffffffffffffffffffffff168673ffffffffffffffffffffffffffffffffffffffff167f86bd780ecb1a8b8e520e2bfb1082b6b3487c4c270837661503df2cb50424b842866040518082815260200191505060405180910390a381612081600760008873ffffffffffffffffffffffffffffffffffffffff1673ffffffffffffffffffffffffffffffffffffffff16815260200190815260200160002054600760008a73ffffffffffffffffffffffffffffffffffffffff1673ffffffffffffffffffffffffffffffffffffffff1681526020019081526020016000205461484b90919063ffffffff16565b14151561208a57fe5b6001925050509392505050565b6009602052816000526040600020602052806000526040600020600091509150505481565b60008060018060068111156120cd57fe5b6000809054906101000a900460ff1660068111156120e757fe5b1415156120f357600080fd5b60008573ffffffffffffffffffffffffffffffffffffffff161415151561211957600080fd5b83600660008873ffffffffffffffffffffffffffffffffffffffff1673ffffffffffffffffffffffffffffffffffffffff168152602001908152602001600020541015151561216757600080fd5b600660008673ffffffffffffffffffffffffffffffffffffffff1673ffffffffffffffffffffffffffffffffffffffff168152602001908152602001600020546121f985600660008973ffffffffffffffffffffffffffffffffffffffff1673ffffffffffffffffffffffffffffffffffffffff1681526020019081526020016000205461484b90919063ffffffff16565b11151561220557600080fd5b612296600660008773ffffffffffffffffffffffffffffffffffffffff1673ffffffffffffffffffffffffffffffffffffffff16815260200190815260200160002054600660008973ffffffffffffffffffffffffffffffffffffffff1673ffffffffffffffffffffffffffffffffffffffff1681526020019081526020016000205461484b90919063ffffffff16565b91506122a185614a14565b6122f384600660008973ffffffffffffffffffffffffffffffffffffffff1673ffffffffffffffffffffffffffffffffffffffff168152602001908152602001600020546149fb90919063ffffffff16565b600660008873ffffffffffffffffffffffffffffffffffffffff1673ffffffffffffffffffffffffffffffffffffffff1681526020019081526020016000208190555061238884600660008873ffffffffffffffffffffffffffffffffffffffff1673ffffffffffffffffffffffffffffffffffffffff1681526020019081526020016000205461484b90919063ffffffff16565b600660008773ffffffffffffffffffffffffffffffffffffffff1673ffffffffffffffffffffffffffffffffffffffff168152602001908152602001600020819055508473ffffffffffffffffffffffffffffffffffffffff168673ffffffffffffffffffffffffffffffffffffffff167fef0684aa87ada311bea2dad2b653ce28cd604aa1c10a123df8fb2f789c3178f0866040518082815260200191505060405180910390a3816124c2600660008873ffffffffffffffffffffffffffffffffffffffff1673ffffffffffffffffffffffffffffffffffffffff16815260200190815260200160002054600660008a73ffffffffffffffffffffffffffffffffffffffff1673ffffffffffffffffffffffffffffffffffffffff1681526020019081526020016000205461484b90919063ffffffff16565b1415156124cb57fe5b6001925050509392505050565b600060018060068111156124e857fe5b6000809054906101000a900460ff16600681111561250257fe5b14151561250e57600080fd5b60008311801561255d5750600c60003373ffffffffffffffffffffffffffffffffffffffff1673ffffffffffffffffffffffffffffffffffffffff168152602001908152602001600020548311155b801561257f57503073ffffffffffffffffffffffffffffffffffffffff163183105b151561258a57600080fd5b6125dc83600c60003373ffffffffffffffffffffffffffffffffffffffff1673ffffffffffffffffffffffffffffffffffffffff168152602001908152602001600020546149fb90919063ffffffff16565b600c60003373ffffffffffffffffffffffffffffffffffffffff1673ffffffffffffffffffffffffffffffffffffffff168152602001908152602001600020819055503373ffffffffffffffffffffffffffffffffffffffff166108fc849081150290604051600060405180830381858888f19350505050151561265f57600080fd5b6001915050919050565b6000806000806000806000806003600681111561268257fe5b6000809054906101000a900460ff16600681111561269c57fe5b14806126cc5750600460068111156126b057fe5b6000809054906101000a900460ff1660068111156126ca57fe5b145b806126fb5750600560068111156126df57fe5b6000809054906101000a900460ff1660068111156126f957fe5b145b151561270657600080fd5b61274b61271061273d670de0b6b3a764000061272f61271060135461484b90919063ffffffff16565b6148a690919063ffffffff16565b6148d990919063ffffffff16565b96506004600681111561275a57fe5b6000809054906101000a900460ff16600681111561277457fe5b14156127be576127b7876127a9601a5461279b601c54601b546149fb90919063ffffffff16565b6148a690919063ffffffff16565b6148d990919063ffffffff16565b955061287d565b612801876127f3601a546127e5670de0b6b3a7640000601b546149fb90919063ffffffff16565b6148a690919063ffffffff16565b6148d990919063ffffffff16565b95506003600681111561281057fe5b6000809054906101000a900460ff16600681111561282a57fe5b1461283657600061287a565b6128798761286b601a5461285d670de0b6b3a7640000601c546149fb90919063ffffffff16565b6148a690919063ffffffff16565b6148d990919063ffffffff16565b5b94505b5b600a805490506028541080156128955750601e545a115b15612b105760066000600a6028548154811015156128af57fe5b906000526020600020900160009054906101000a900473ffffffffffffffffffffffffffffffffffffffff1673ffffffffffffffffffffffffffffffffffffffff1673ffffffffffffffffffffffffffffffffffffffff16815260200190815260200160002054935060076000600a60285481548110151561292d57fe5b906000526020600020900160009054906101000a900473ffffffffffffffffffffffffffffffffffffffff1673ffffffffffffffffffffffffffffffffffffffff1673ffffffffffffffffffffffffffffffffffffffff168152602001908152602001600020549250600460068111156129a357fe5b6000809054906101000a900460ff1660068111156129bd57fe5b14156129e1576129d4848488601354601c54614bb0565b80925081935050506129f9565b6129f084848888601354614c9c565b80925081935050505b8160066000600a602854815481101515612a0f57fe5b906000526020600020900160009054906101000a900473ffffffffffffffffffffffffffffffffffffffff1673ffffffffffffffffffffffffffffffffffffffff1673ffffffffffffffffffffffffffffffffffffffff168152602001908152602001600020819055508060076000600a602854815481101515612a8f57fe5b906000526020600020900160009054906101000a900473ffffffffffffffffffffffffffffffffffffffff1673ffffffffffffffffffffffffffffffffffffffff1673ffffffffffffffffffffffffffffffffffffffff1681526020019081526020016000208190555060286000815480929190600101919050555061287e565b600a80549050602854101515612bf25760056006811115612b2d57fe5b6000809054906101000a900460ff166006811115612b4757fe5b141515612b7c57601160000154600f60000181905550601160010154600f60010181905550670de0b6b3a7640000601c819055505b670de0b6b3a7640000601b81905550600060288190555060066000806101000a81548160ff02191690836006811115612bb157fe5b0217905550436027819055507f43411e1623dd3250086051181fcf64cd3749ecfbd8da0784ce02eb6264451d6260405160405180910390a160019750612c23565b7f91c286863163aa15991e5aabc5934ed57007ed7f0b1bddcde66ca789ab227ea360405160405180910390a1600097505b5050505050505090565b6000600e60009054906101000a900473ffffffffffffffffffffffffffffffffffffffff168073ffffffffffffffffffffffffffffffffffffffff163373ffffffffffffffffffffffffffffffffffffffff16141515612c8c57600080fd5b6001806006811115612c9a57fe5b6000809054906101000a900460ff166006811115612cb457fe5b141515612cc057600080fd5b600084111515612ccf57600080fd5b61271084101515612cdf57600080fd5b83601881905550600192505050919050565b600a81815481101515612d0057fe5b90600052602060002090016000915054906101000a900473ffffffffffffffffffffffffffffffffffffffff1681565b60076020528060005260406000206000915090505481565b6000600960008473ffffffffffffffffffffffffffffffffffffffff1673ffffffffffffffffffffffffffffffffffffffff16815260200190815260200160002060008373ffffffffffffffffffffffffffffffffffffffff1673ffffffffffffffffffffffffffffffffffffffff16815260200190815260200160002054905092915050565b6000600e60009054906101000a900473ffffffffffffffffffffffffffffffffffffffff168073ffffffffffffffffffffffffffffffffffffffff163373ffffffffffffffffffffffffffffffffffffffff16141515612e2e57600080fd5b6001806006811115612e3c57fe5b6000809054906101000a900460ff166006811115612e5657fe5b141515612e6257600080fd5b83601f81905550600192505050919050565b600081600960008673ffffffffffffffffffffffffffffffffffffffff1673ffffffffffffffffffffffffffffffffffffffff16815260200190815260200160002060008573ffffffffffffffffffffffffffffffffffffffff1673ffffffffffffffffffffffffffffffffffffffff16815260200190815260200160002081905550600190509392505050565b60135481565b6000600860008473ffffffffffffffffffffffffffffffffffffffff1673ffffffffffffffffffffffffffffffffffffffff16815260200190815260200160002060008373ffffffffffffffffffffffffffffffffffffffff1673ffffffffffffffffffffffffffffffffffffffff16815260200190815260200160002054905092915050565b60006001806006811115612f9f57fe5b6000809054906101000a900460ff166006811115612fb957fe5b141515612fc557600080fd5b600960008673ffffffffffffffffffffffffffffffffffffffff1673ffffffffffffffffffffffffffffffffffffffff16815260200190815260200160002060008773ffffffffffffffffffffffffffffffffffffffff1673ffffffffffffffffffffffffffffffffffffffff16815260200190815260200160002054831115151561305057600080fd5b6130df83600960008873ffffffffffffffffffffffffffffffffffffffff1673ffffffffffffffffffffffffffffffffffffffff16815260200190815260200160002060008973ffffffffffffffffffffffffffffffffffffffff1673ffffffffffffffffffffffffffffffffffffffff168152602001908152602001600020546149fb90919063ffffffff16565b600960008773ffffffffffffffffffffffffffffffffffffffff1673ffffffffffffffffffffffffffffffffffffffff16815260200190815260200160002060008873ffffffffffffffffffffffffffffffffffffffff1673ffffffffffffffffffffffffffffffffffffffff1681526020019081526020016000208190555061316a858585611c7b565b506001915050949350505050565b600c6020528060005260406000206000915090505481565b60008060008060008060018060068111156131a757fe5b6000809054906101000a900460ff1660068111156131c157fe5b1415156131cd57600080fd5b6000600460009054906101000a900473ffffffffffffffffffffffffffffffffffffffff169050601d548173ffffffffffffffffffffffffffffffffffffffff166370a08231336040518263ffffffff167c0100000000000000000000000000000000000000000000000000000000028152600401808273ffffffffffffffffffffffffffffffffffffffff1673ffffffffffffffffffffffffffffffffffffffff168152602001915050602060405180830381600087803b151561329157600080fd5b5af1151561329e57600080fd5b50505060405180519050101515156132b557600080fd5b60008a1180156132c55750600089115b15156132d057600080fd5b6132f96013546132eb6127108d6148a690919063ffffffff16565b6148d990919063ffffffff16565b9650888710613308578861330a565b865b9550613335612710613327601354896148a690919063ffffffff16565b6148d990919063ffffffff16565b945084600660003373ffffffffffffffffffffffffffffffffffffffff1673ffffffffffffffffffffffffffffffffffffffff16815260200190815260200160002054101580156133c5575085600760003373ffffffffffffffffffffffffffffffffffffffff1673ffffffffffffffffffffffffffffffffffffffff1681526020019081526020016000205410155b15156133d057600080fd5b613442601a54613434600f60000154613426670de0b6b3a7640000613418670de0b6b3a764000061340a8e8e61484b90919063ffffffff16565b6148a690919063ffffffff16565b6148a690919063ffffffff16565b6148d990919063ffffffff16565b6148d990919063ffffffff16565b935061344d84614db1565b92506134a185600660003373ffffffffffffffffffffffffffffffffffffffff1673ffffffffffffffffffffffffffffffffffffffff168152602001908152602001600020546149fb90919063ffffffff16565b600660003373ffffffffffffffffffffffffffffffffffffffff1673ffffffffffffffffffffffffffffffffffffffff1681526020019081526020016000208190555061353686600760003373ffffffffffffffffffffffffffffffffffffffff1673ffffffffffffffffffffffffffffffffffffffff168152602001908152602001600020546149fb90919063ffffffff16565b600760003373ffffffffffffffffffffffffffffffffffffffff1673ffffffffffffffffffffffffffffffffffffffff1681526020019081526020016000208190555061358e83600d5461484b90919063ffffffff16565b600d819055506135f86135aa84866149fb90919063ffffffff16565b600c60003373ffffffffffffffffffffffffffffffffffffffff1673ffffffffffffffffffffffffffffffffffffffff1681526020019081526020016000205461484b90919063ffffffff16565b600c60003373ffffffffffffffffffffffffffffffffffffffff1673ffffffffffffffffffffffffffffffffffffffff16815260200190815260200160002081905550600197505050505050505092915050565b60165481565b6000600e60009054906101000a900473ffffffffffffffffffffffffffffffffffffffff168073ffffffffffffffffffffffffffffffffffffffff163373ffffffffffffffffffffffffffffffffffffffff161415156136b157600080fd5b60018060068111156136bf57fe5b6000809054906101000a900460ff1660068111156136d957fe5b1415156136e557600080fd5b83600060016101000a81548173ffffffffffffffffffffffffffffffffffffffff021916908373ffffffffffffffffffffffffffffffffffffffff160217905550600192505050919050565b6000600a80549050905090565b6000600e60009054906101000a900473ffffffffffffffffffffffffffffffffffffffff168073ffffffffffffffffffffffffffffffffffffffff163373ffffffffffffffffffffffffffffffffffffffff1614151561379d57600080fd5b60018060068111156137ab57fe5b6000809054906101000a900460ff1660068111156137c557fe5b1415156137d157600080fd5b83601e81905550600192505050919050565b600060068060068111156137f357fe5b6000809054906101000a900460ff16600681111561380d57fe5b14151561381957600080fd5b602054602754430310151561387c5760016000806101000a81548160ff0219169083600681111561384657fe5b02179055507fbf6a1c0d2669c1534a4b018edab32445ffb4f4e914517f62fb885949552d7e3460405160405180910390a16138a9565b7f43411e1623dd3250086051181fcf64cd3749ecfbd8da0784ce02eb6264451d6260405160405180910390a15b600191505090565b6000806000806000806138e16019546138d38a8d6149fb90919063ffffffff16565b6148d990919063ffffffff16565b935061391089613902670de0b6b3a76400008e6148a690919063ffffffff16565b6148d990919063ffffffff16565b925061397b8761396d61271061395f61393661271060135461484b90919063ffffffff16565b613951670de0b6b3a76400008a6148a690919063ffffffff16565b6148a690919063ffffffff16565b6148d990919063ffffffff16565b6148d990919063ffffffff16565b92506139ac670de0b6b3a764000061399e866014546148a690919063ffffffff16565b61484b90919063ffffffff16565b91506139d76127106139c9601354856148a690919063ffffffff16565b6148d990919063ffffffff16565b90508083111515613a1957613a0b6013546139fd612710866148a690919063ffffffff16565b6148d990919063ffffffff16565b600080905095509550613a32565b81613a2d82856149fb90919063ffffffff16565b955095505b505050509550959350505050565b60285481565b6000600e60009054906101000a900473ffffffffffffffffffffffffffffffffffffffff168073ffffffffffffffffffffffffffffffffffffffff163373ffffffffffffffffffffffffffffffffffffffff16141515613aa557600080fd5b6001806006811115613ab357fe5b6000809054906101000a900460ff166006811115613acd57fe5b141515613ad957600080fd5b83602381905550600192505050919050565b600d5481565b60006001806006811115613b0157fe5b6000809054906101000a900460ff166006811115613b1b57fe5b141515613b2757600080fd5b600860008673ffffffffffffffffffffffffffffffffffffffff1673ffffffffffffffffffffffffffffffffffffffff16815260200190815260200160002060008773ffffffffffffffffffffffffffffffffffffffff1673ffffffffffffffffffffffffffffffffffffffff168152602001908152602001600020548311151515613bb257600080fd5b613c4183600860008873ffffffffffffffffffffffffffffffffffffffff1673ffffffffffffffffffffffffffffffffffffffff16815260200190815260200160002060008973ffffffffffffffffffffffffffffffffffffffff1673ffffffffffffffffffffffffffffffffffffffff168152602001908152602001600020546149fb90919063ffffffff16565b600860008773ffffffffffffffffffffffffffffffffffffffff1673ffffffffffffffffffffffffffffffffffffffff16815260200190815260200160002060008873ffffffffffffffffffffffffffffffffffffffff1673ffffffffffffffffffffffffffffffffffffffff16815260200190815260200160002081905550613ccc8585856120bc565b506001915050949350505050565b60008060019054906101000a900473ffffffffffffffffffffffffffffffffffffffff168073ffffffffffffffffffffffffffffffffffffffff163373ffffffffffffffffffffffffffffffffffffffff16141515613d3857600080fd5b6001806006811115613d4657fe5b6000809054906101000a900460ff166006811115613d6057fe5b141515613d6c57600080fd5b600084111515613d7b57600080fd5b600d548411151515613d8c57600080fd5b600060019054906101000a900473ffffffffffffffffffffffffffffffffffffffff1673ffffffffffffffffffffffffffffffffffffffff166108fc859081150290604051600060405180830381858888f193505050501515613dee57600080fd5b600192505050919050565b600081600860008673ffffffffffffffffffffffffffffffffffffffff1673ffffffffffffffffffffffffffffffffffffffff16815260200190815260200160002060008573ffffffffffffffffffffffffffffffffffffffff1673ffffffffffffffffffffffffffffffffffffffff16815260200190815260200160002081905550600190509392505050565b600b6020528060005260406000206000915054906101000a900460ff1681565b6000600e60009054906101000a900473ffffffffffffffffffffffffffffffffffffffff168073ffffffffffffffffffffffffffffffffffffffff163373ffffffffffffffffffffffffffffffffffffffff16141515613f0657600080fd5b6001806006811115613f1457fe5b6000809054906101000a900460ff166006811115613f2e57fe5b141515613f3a57600080fd5b83602081905550600192505050919050565b600f8060000154908060010154905082565b6008602052816000526040600020602052806000526040600020600091509150505481565b601c5481565b6000809054906101000a900460ff1681565b6000600660008373ffffffffffffffffffffffffffffffffffffffff1673ffffffffffffffffffffffffffffffffffffffff168152602001908152602001600020549050919050565b60185481565b601e5481565b6000807f0100000000000000000000000000000000000000000000000000000000000000026140288584614de390919063ffffffff16565b61403b8587614de390919063ffffffff16565b187effffffffffffffffffffffffffffffffffffffffffffffffffffffffffffff1916141561406c578390506140eb565b60007f0100000000000000000000000000000000000000000000000000000000000000026140a38484614de390919063ffffffff16565b6140b68686614de390919063ffffffff16565b187effffffffffffffffffffffffffffffffffffffffffffffffffffffffffffff191614156140e7578290506140eb565b8190505b9392505050565b60008080600681111561410157fe5b6000809054906101000a900460ff16600681111561411b57fe5b14151561412757600080fd5b600160009054906101000a900473ffffffffffffffffffffffffffffffffffffffff16600260009054906101000a900473ffffffffffffffffffffffffffffffffffffffff16600360009054906101000a900473ffffffffffffffffffffffffffffffffffffffff168273ffffffffffffffffffffffffffffffffffffffff163373ffffffffffffffffffffffffffffffffffffffff1614806141f557508173ffffffffffffffffffffffffffffffffffffffff163373ffffffffffffffffffffffffffffffffffffffff16145b8061422b57508073ffffffffffffffffffffffffffffffffffffffff163373ffffffffffffffffffffffffffffffffffffffff16145b151561423657600080fd5b61423e614843565b861115151561424c57600080fd5b856011600101819055508660116000018190555085600f6001018190555086600f6000018190555060016000806101000a81548160ff0219169083600681111561429257fe5b0217905550600194505050505092915050565b6000600e60009054906101000a900473ffffffffffffffffffffffffffffffffffffffff168073ffffffffffffffffffffffffffffffffffffffff163373ffffffffffffffffffffffffffffffffffffffff1614151561430457600080fd5b600180600681111561431257fe5b6000809054906101000a900460ff16600681111561432c57fe5b14151561433857600080fd5b83602281905550600192505050919050565b60145481565b600460009054906101000a900473ffffffffffffffffffffffffffffffffffffffff1681565b6000600e60009054906101000a900473ffffffffffffffffffffffffffffffffffffffff168073ffffffffffffffffffffffffffffffffffffffff163373ffffffffffffffffffffffffffffffffffffffff161415156143d557600080fd5b60018060068111156143e357fe5b6000809054906101000a900460ff1660068111156143fd57fe5b14151561440957600080fd5b83602481905550600192505050919050565b601a5481565b6000600e60009054906101000a900473ffffffffffffffffffffffffffffffffffffffff168073ffffffffffffffffffffffffffffffffffffffff163373ffffffffffffffffffffffffffffffffffffffff1614151561448057600080fd5b600180600681111561448e57fe5b6000809054906101000a900460ff1660068111156144a857fe5b1415156144b457600080fd5b83601d81905550600192505050919050565b60195481565b60008060008060008060018060068111156144e357fe5b6000809054906101000a900460ff1660068111156144fd57fe5b14151561450957600080fd5b6000600460009054906101000a900473ffffffffffffffffffffffffffffffffffffffff169050601d548173ffffffffffffffffffffffffffffffffffffffff166370a08231336040518263ffffffff167c0100000000000000000000000000000000000000000000000000000000028152600401808273ffffffffffffffffffffffffffffffffffffffff1673ffffffffffffffffffffffffffffffffffffffff168152602001915050602060405180830381600087803b15156145cd57600080fd5b5af115156145da57600080fd5b50505060405180519050101515156145f157600080fd5b6145fa34614db1565b965061461187600d5461484b90919063ffffffff16565b600d8190555061466961271061465b601a5461464d600f6000015461463f8d346149fb90919063ffffffff16565b6148a690919063ffffffff16565b6148a690919063ffffffff16565b6148a690919063ffffffff16565b95506146ae61468561271060135461484b90919063ffffffff16565b6146a0670de0b6b3a7640000806148a690919063ffffffff16565b6148a690919063ffffffff16565b94506146c385876148d990919063ffffffff16565b93506146ee6127106146e0601354876148a690919063ffffffff16565b6148d990919063ffffffff16565b92506146f933614a14565b61474b83600660003373ffffffffffffffffffffffffffffffffffffffff1673ffffffffffffffffffffffffffffffffffffffff1681526020019081526020016000205461484b90919063ffffffff16565b600660003373ffffffffffffffffffffffffffffffffffffffff1673ffffffffffffffffffffffffffffffffffffffff168152602001908152602001600020819055506147e084600760003373ffffffffffffffffffffffffffffffffffffffff1673ffffffffffffffffffffffffffffffffffffffff1681526020019081526020016000205461484b90919063ffffffff16565b600760003373ffffffffffffffffffffffffffffffffffffffff1673ffffffffffffffffffffffffffffffffffffffff16815260200190815260200160002081905550600197505050505050505090565b60155481565b60175481565b601b5481565b600042905090565b600080828401905083811015151561485f57fe5b8091505092915050565b600081831161488a5761488583836149fb90919063ffffffff16565b61489e565b61489d82846149fb90919063ffffffff16565b5b905092915050565b600080828402905060008414806148c757508284828115156148c457fe5b04145b15156148cf57fe5b8091505092915050565b60008082848115156148e757fe5b0490508091505092915050565b81601160000181905550806011600101819055506000602581905550614933601160000154601160010154600f60000154600f60010154601a546138b1565b601b6000601c6000849190505583919050555050601654601c5410158061495e5750601754601c5411155b8061496d5750601554601b5410155b156149c95760026000806101000a81548160ff0219169083600681111561499057fe5b0217905550436026819055507fa1f85a3680dfb51f7db8069e794f07f371ef5a545a9c915ac6315b0768a08b3f60405160405180910390a15b80827f8eb94c6a87f56bd59f4a2a7d571f32a264458ff5b910a34862b9051e5953442d60405160405180910390a35050565b6000828211151515614a0957fe5b818303905092915050565b600b60008273ffffffffffffffffffffffffffffffffffffffff1673ffffffffffffffffffffffffffffffffffffffff16815260200190815260200160002060009054906101000a900460ff161515614bad57600a8054806001018281614a7b9190614e45565b9160005260206000209001600083909190916101000a81548173ffffffffffffffffffffffffffffffffffffffff021916908373ffffffffffffffffffffffffffffffffffffffff160217905550506001600b60008373ffffffffffffffffffffffffffffffffffffffff1673ffffffffffffffffffffffffffffffffffffffff16815260200190815260200160002060006101000a81548160ff0219169083151502179055506000600660008373ffffffffffffffffffffffffffffffffffffffff1673ffffffffffffffffffffffffffffffffffffffff168152602001908152602001600020819055506000600760008373ffffffffffffffffffffffffffffffffffffffff1673ffffffffffffffffffffffffffffffffffffffff168152602001908152602001600020819055505b50565b600080600080614be3670de0b6b3a7640000614bd5898c6148a690919063ffffffff16565b6148d990919063ffffffff16565b9150614c0c612710614bfe88856148a690919063ffffffff16565b6148d990919063ffffffff16565b9050614c4d81614c3f670de0b6b3a7640000614c31898e6148a690919063ffffffff16565b6148d990919063ffffffff16565b61484b90919063ffffffff16565b9350614c8e82614c80670de0b6b3a7640000614c72898d6148a690919063ffffffff16565b6148d990919063ffffffff16565b61484b90919063ffffffff16565b925050509550959350505050565b600080600080600080614cd2670de0b6b3a7640000614cc48b8e6148a690919063ffffffff16565b6148d990919063ffffffff16565b9350614cfb612710614ced89876148a690919063ffffffff16565b6148d990919063ffffffff16565b9250614d2a670de0b6b3a7640000614d1c8a8d6148a690919063ffffffff16565b6148d990919063ffffffff16565b9150614d53612710614d4589856148a690919063ffffffff16565b6148d990919063ffffffff16565b9050614d7a81614d6c858e61484b90919063ffffffff16565b61484b90919063ffffffff16565b9550614da182614d93868d61484b90919063ffffffff16565b61484b90919063ffffffff16565b9450505050509550959350505050565b6000614ddc612710614dce601854856148a690919063ffffffff16565b6148d990919063ffffffff16565b9050919050565b60008060007f010000000000000000000000000000000000000000000000000000000000000002905082841115614e3b5760017f01000000000000000000000000000000000000000000000000000000000000000290505b8091505092915050565b815481835581811511614e6c57818360005260206000209182019101614e6b9190614e71565b5b505050565b614e9391905b80821115614e8f576000816000905550600101614e77565b5090565b905600a165627a7a72305820c7f7fae31c40e74005d80d604e427604714d318628095dc4d81e29ba5262f75a0029",
  "source": "pragma solidity ^0.4.21;\r\nimport { DUO } from \"./DUO.sol\";\r\n\r\nlibrary SafeMath {\r\n\tfunction mul(uint256 a, uint256 b) internal pure returns (uint256) {\r\n\t\tuint256 c = a * b;\r\n\t\tassert(a == 0 || c / a == b);\r\n\t\treturn c;\r\n\t}\r\n\r\n\tfunction div(uint256 a, uint256 b) internal pure returns (uint256) {\r\n\t\t// assert(b > 0); // Solidity automatically throws when dividing by 0\r\n\t\tuint256 c = a / b;\r\n\t\t// assert(a == b * c + a % b); // There is no case in which this doesn't hold\r\n\t\treturn c;\r\n\t}\r\n\r\n\tfunction sub(uint256 a, uint256 b) internal pure returns (uint256) {\r\n\t\tassert(b <= a);\r\n\t\treturn a - b;\r\n\t}\r\n\r\n\tfunction add(uint256 a, uint256 b) internal pure returns (uint256) {\r\n\t\tuint256 c = a + b;\r\n\t\tassert(c >= a);\r\n\t\treturn c;\r\n\t}\r\n\r\n\tfunction gt(uint x, uint y) internal pure returns(bytes1) {\r\n\t\tbytes1 b;\r\n\t\tb = 0x0;\r\n\t\tif (x > y) {\r\n\t\t\tb = 0x1;\r\n\t\t}\r\n\t\treturn b;\r\n\t}\r\n}\r\n\r\ncontract Custodian {\r\n\tusing SafeMath for uint;\r\n\tenum State {\r\n\t\tInception,\r\n\t\tTrading,\r\n\t\tPreReset,\r\n\t\tUpwardReset,\r\n\t\tDownwardReset,\r\n\t\tPeriodicReset,\r\n\t\tPostReset\r\n\t}\r\n\r\n\tstruct Price {\r\n\t\tuint priceInWei;\r\n\t\tuint timeInSecond;\r\n\t}\r\n\r\n\tState public state;\r\n\taddress feeCollector;\r\n\taddress priceFeed1; \r\n\taddress priceFeed2; \r\n\taddress priceFeed3;\r\n\taddress public duoTokenAddress;\r\n\r\n\tuint decimals;\r\n\tmapping(address => uint256) public balancesA;\r\n\tmapping(address => uint256) public balancesB;\r\n\tmapping (address => mapping (address => uint256)) public allowanceA;\r\n\tmapping (address => mapping (address => uint256)) public allowanceB;\r\n\taddress[] public users;\r\n\tmapping (address => bool) public existingUsers;\r\n\tmapping(address => uint256) public ethPendingWithdrawal;\r\n\tuint public feeAccumulatedInWei;\r\n\r\n\tuint constant WEI_DENOMINATOR = 1000000000000000000;\r\n\tuint constant BP_DENOMINATOR = 10000;\r\n\r\n\taddress admin;\r\n\t// public parameters, do not change after deployment\r\n\tPrice public resetPrice; \r\n\tPrice public lastPrice; \r\n\tuint public alphaInBP;\r\n\tuint public periodCouponInWei; \r\n\tuint public limitPeriodicInWei; \r\n\tuint public limitUpperInWei; \r\n\tuint public limitLowerInWei;\r\n\tuint public commissionRateInBP;\r\n\tuint public period;\r\n\t// public info\r\n\tuint public betaInWei = WEI_DENOMINATOR;\r\n\tuint public navAInWei;\r\n\tuint public navBInWei; \r\n\t\r\n\t// public parameters, can change after deployment\r\n\tuint public memberThresholdInWei;\r\n\tuint public iterationGasThreshold;\r\n\r\n\t// private parameters, can change after deployment\r\n\tuint preResetWaitingBlocks = 10;\r\n\tuint postResetWaitingBlocks = 10;\r\n\tuint priceTolInBP = 500; \r\n\tuint priceFeedTolInBP = 100;\r\n\tuint priceFeedTimeTol = 1 minutes;\r\n\tuint priceUpdateCoolDown;\r\n\r\n\t// cycle state variables\r\n\tuint numOfPrices = 0;\r\n\tuint lastPreResetBlockNo = 0;\r\n\tuint lastPostResetBlockNo = 0;\r\n\tuint public nextResetAddrIndex = 0;\r\n\taddress firstAddr;\r\n\taddress secondAddr;\r\n\tPrice firstPrice;\r\n\tPrice secondPrice;\r\n\r\n\tmodifier inState(State _state) {\r\n\t\trequire(state == _state);\r\n\t\t_;\r\n\t}\r\n\r\n\tmodifier only(address addr) {\r\n\t\trequire(msg.sender == addr);\r\n\t\t_;\r\n\t}\r\n\r\n\tmodifier among(address addr1, address addr2, address addr3) {\r\n\t\trequire(msg.sender == addr1 || msg.sender == addr2 || msg.sender == addr3);\r\n\t\t_;\r\n\t}\r\n\r\n\tmodifier isDuoMember() {\r\n\t\tDUO duoToken = DUO(duoTokenAddress);\r\n\t\trequire(duoToken.balanceOf(msg.sender) >= memberThresholdInWei);\r\n\t\t_;\r\n\t}\r\n\r\n\tevent StartTrading();\r\n\tevent StartPreReset();\r\n\tevent StartReset();\r\n\tevent StartPostReset();\r\n\r\n\tevent TransferA(address indexed from, address indexed to, uint256 value);\r\n\tevent TransferB(address indexed from, address indexed to, uint256 value);\r\n\tevent AcceptPrice(uint indexed priceInWei, uint indexed timeInSecond);\r\n\t\r\n\tfunction Custodian (\r\n\t\taddress feeAddress, \r\n\t\taddress duoAddress,\r\n\t\taddress pf1,\r\n\t\taddress pf2,\r\n\t\taddress pf3,\r\n\t\tuint alpha,\r\n\t\tuint r,\r\n\t\tuint hp,\r\n\t\tuint hu,\r\n\t\tuint hd,\r\n\t\tuint c,\r\n\t\tuint p,\r\n\t\tuint memberThreshold,\r\n\t\tuint gasThreshold,\r\n\t\tuint coolDown) \r\n\t\tpublic \r\n\t{\r\n\t\tstate = State.Inception;\r\n\t\tadmin = msg.sender;\r\n\t\tdecimals = 18;\r\n\t\tcommissionRateInBP = 100;\r\n\t\tfeeCollector = feeAddress;\r\n\t\tpriceFeed1 = pf1;\r\n\t\tpriceFeed2 = pf2;\r\n\t\tpriceFeed3 = pf3;\r\n\t\tduoTokenAddress = duoAddress;\r\n\t\talphaInBP = alpha;\r\n\t\tperiodCouponInWei = r; \r\n\t\tlimitPeriodicInWei = hp; \r\n\t\tlimitUpperInWei = hu; \r\n\t\tlimitLowerInWei = hd;\r\n\t\tcommissionRateInBP = c;\r\n\t\tperiod = p;\r\n\t\tmemberThresholdInWei = memberThreshold;\r\n\t\titerationGasThreshold = gasThreshold;\r\n\t\tnavAInWei = 1;\r\n\t\tnavBInWei = 1;\r\n\t\tpriceUpdateCoolDown = coolDown;\r\n\t}\r\n\r\n\tfunction startContract(\r\n\t\tuint priceInWei, \r\n\t\tuint timeInSecond) \r\n\t\tpublic \r\n\t\tinState(State.Inception) \r\n\t\tamong(priceFeed1, priceFeed2, priceFeed3) \r\n\t\treturns (bool success) \r\n\t{\r\n\t\trequire(timeInSecond <= getNowTimestamp());\r\n\t\tlastPrice.timeInSecond = timeInSecond;\r\n\t\tlastPrice.priceInWei = priceInWei;\r\n\t\tresetPrice.timeInSecond = timeInSecond;\r\n\t\tresetPrice.priceInWei = priceInWei;\r\n\t\tstate = State.Trading;\r\n\t\treturn true;\r\n\t}\r\n\t\r\n\tfunction getNowTimestamp() internal view returns (uint) {\r\n\t\treturn now;\r\n\t}\r\n\t\r\n\tfunction checkNewUser(address user) internal {\r\n\t\tif (!existingUsers[user]) {\r\n\t\t\tusers.push(user);\r\n\t\t\texistingUsers[user] = true;\r\n\t\t\tbalancesA[user] = 0;\r\n\t\t\tbalancesB[user] = 0;\r\n\t\t}\r\n\t}\r\n\r\n\tfunction calculateNav(\r\n\t\tuint priceInWei, \r\n\t\tuint timeInSecond, \r\n\t\tuint resetPriceInWei, \r\n\t\tuint resetTimeInSecond,\r\n\t\tuint bInWei) \r\n\tpublic view returns (uint, uint) {\r\n\t\tuint numOfPeriods = timeInSecond.sub(resetTimeInSecond).div(period);\r\n\t\tuint navParent = priceInWei.mul(WEI_DENOMINATOR).div(resetPriceInWei);\r\n\t\tnavParent = navParent\r\n\t\t\t.mul(WEI_DENOMINATOR)\r\n\t\t\t.mul(alphaInBP.add(BP_DENOMINATOR))\r\n\t\t\t.div(BP_DENOMINATOR)\r\n\t\t\t.div(bInWei\r\n\t\t);\r\n\t\tuint navA = periodCouponInWei.mul(numOfPeriods).add(WEI_DENOMINATOR);\r\n\t\tuint navAAdj = navA.mul(alphaInBP).div(BP_DENOMINATOR);\r\n\t\tif (navParent <= navAAdj)\r\n\t\t\treturn (navParent.mul(BP_DENOMINATOR).div(alphaInBP), 0);\r\n\t\telse\r\n\t\t\treturn (navA, navParent.sub(navAAdj));\r\n\t}\r\n\r\n\tfunction startPreReset() public inState(State.PreReset) returns (bool success) {\r\n\t\tif (block.number - lastPreResetBlockNo >= preResetWaitingBlocks) {\r\n\t\t\tif (navBInWei >= limitUpperInWei) {\r\n\t\t\t\tstate = State.UpwardReset;\r\n\t\t\t\tbetaInWei = WEI_DENOMINATOR;\r\n\t\t\t} else if(navBInWei <= limitLowerInWei) {\r\n\t\t\t\tstate = State.DownwardReset;\r\n\t\t\t\tbetaInWei = WEI_DENOMINATOR;\r\n\t\t\t} else { // navAInWei >= limitPeriodicInWei\r\n\t\t\t\tstate = State.PeriodicReset;\r\n\t\t\t\tuint num = alphaInBP\r\n\t\t\t\t\t.add(BP_DENOMINATOR)\r\n\t\t\t\t\t.mul(lastPrice.priceInWei);\r\n\t\t\t\tuint den = num\r\n\t\t\t\t\t.sub(\r\n\t\t\t\t\t\tresetPrice.priceInWei\r\n\t\t\t\t\t\t\t.mul(alphaInBP)\r\n\t\t\t\t\t\t\t.mul(betaInWei)\r\n\t\t\t\t\t\t\t.mul(navAInWei\r\n\t\t\t\t\t\t\t\t.sub(WEI_DENOMINATOR))\r\n\t\t\t\t\t\t\t.div(WEI_DENOMINATOR)\r\n\t\t\t\t\t\t\t.div(WEI_DENOMINATOR)\r\n\t\t\t\t);\r\n\t\t\t\tbetaInWei = betaInWei.mul(num).div(den);\r\n\t\t\t}\r\n\t\t\temit StartReset();\r\n\t\t} else {\r\n\t\t\temit StartPreReset();\r\n\t\t}\r\n\r\n\t\treturn true;\r\n\t}\r\n\r\n\tfunction startPostReset() public inState(State.PostReset) returns (bool success) {\r\n\t\tif (block.number - lastPostResetBlockNo >= postResetWaitingBlocks) {\r\n\t\t\tstate = State.Trading;\r\n\t\t\temit StartTrading();\r\n\t\t} else {\r\n\t\t\temit StartPostReset();\r\n\t\t}\r\n\r\n\t\treturn true;\r\n\t}\r\n\r\n\tfunction startReset() public returns (bool success) {\r\n\t\trequire(state == State.UpwardReset || state == State.DownwardReset || state == State.PeriodicReset);\r\n\t\tuint bAdj = alphaInBP.add(BP_DENOMINATOR).mul(WEI_DENOMINATOR).div(BP_DENOMINATOR);\r\n\t\tuint newBFromAPerA;\r\n\t\tuint newBFromBPerB;\r\n\t\tif (state == State.DownwardReset){\r\n\t\t\tnewBFromAPerA = navAInWei.sub(navBInWei).mul(betaInWei).div(bAdj);\r\n\t\t} else {\r\n\t\t\tnewBFromAPerA = navAInWei.sub(WEI_DENOMINATOR).mul(betaInWei).div(bAdj);\r\n\t\t\tnewBFromBPerB = state == State.UpwardReset ? navBInWei.sub(WEI_DENOMINATOR).mul(betaInWei).div(bAdj) : 0;\r\n\t\t}\r\n\r\n\t\twhile (nextResetAddrIndex < users.length && gasleft() > iterationGasThreshold) {\r\n\t\t\tuint currentBalanceA = balancesA[users[nextResetAddrIndex]];\r\n\t\t\tuint currentBalanceB = balancesB[users[nextResetAddrIndex]];\r\n\t\t\tuint newBalanceA;\r\n\t\t\tuint newBalanceB;\r\n\t\t\tif (state == State.DownwardReset)\r\n\t\t\t\t(newBalanceA, newBalanceB) = downwardResetForAddress(\r\n\t\t\t\t\tcurrentBalanceA,\r\n\t\t\t\t\tcurrentBalanceB, \r\n\t\t\t\t\tnewBFromAPerA,\r\n\t\t\t\t\talphaInBP,\r\n\t\t\t\t\tnavBInWei);\r\n\t\t\telse // periodic and upward has similar logic in issuing new A and B\r\n\t\t\t\t(newBalanceA, newBalanceB) = upwardResetForAddress(\r\n\t\t\t\t\tcurrentBalanceA, \r\n\t\t\t\t\tcurrentBalanceB,\r\n\t\t\t\t\tnewBFromAPerA, \r\n\t\t\t\t\tnewBFromBPerB,\r\n\t\t\t\t\talphaInBP); \r\n\t\t\tbalancesA[users[nextResetAddrIndex]] = newBalanceA;\r\n\t\t\tbalancesB[users[nextResetAddrIndex]] = newBalanceB;\r\n\t\t\tnextResetAddrIndex++;\r\n\t\t}\r\n\r\n\t\tif (nextResetAddrIndex >= users.length) {\r\n\t\t\tif (state != State.PeriodicReset) {\r\n\t\t\t\tresetPrice.priceInWei = lastPrice.priceInWei;\r\n\t\t\t\tresetPrice.timeInSecond = lastPrice.timeInSecond;\r\n\t\t\t\tnavBInWei = WEI_DENOMINATOR;\r\n\t\t\t}\r\n\t\t\t\r\n\t\t\tnavAInWei = WEI_DENOMINATOR;\r\n\t\t\tnextResetAddrIndex = 0;\r\n\r\n\t\t\tstate = State.PostReset;\r\n\t\t\tlastPostResetBlockNo = block.number;\r\n\t\t\temit StartPostReset();\r\n\t\t\treturn true;\r\n\t\t} else{\r\n\t\t\temit StartReset();\r\n\t\t\treturn false;\r\n\t\t}\r\n\t}\r\n\r\n\tfunction upwardResetForAddress(\r\n\t\tuint balanceA,\r\n\t\tuint balanceB, \r\n\t\tuint newBFromAPerA, \r\n\t\tuint newBFromBPerB,\r\n\t\tuint alpha) \r\n\t\tpure\r\n\t\tinternal \r\n\t\treturns(uint newBalanceA, uint newBalanceB)\r\n\t{\r\n\t\tuint newBFromA = balanceA.mul(newBFromAPerA).div(WEI_DENOMINATOR);\r\n\t\tuint newAFromA = newBFromA.mul(alpha).div(BP_DENOMINATOR);\r\n\t\tuint newBFromB = balanceB.mul(newBFromBPerB).div(WEI_DENOMINATOR);\r\n\t\tuint newAFromB = newBFromB.mul(alpha).div(BP_DENOMINATOR);\r\n\t\tnewBalanceA = balanceA.add(newAFromA).add(newAFromB);\r\n\t\tnewBalanceB = balanceB.add(newBFromA).add(newBFromB);\r\n\t}\r\n\r\n\tfunction downwardResetForAddress(\r\n\t\tuint balanceA, \r\n\t\tuint balanceB,\r\n\t\tuint newBFromAPerA,\r\n\t\tuint alpha,\r\n\t\tuint navB) \r\n\t\tpure\r\n\t\tinternal \r\n\t\treturns(uint newBalanceA, uint newBalanceB)\r\n\t{\r\n\t\tuint newBFromA = balanceA.mul(newBFromAPerA).div(WEI_DENOMINATOR);\r\n\t\tuint newAFromA = newBFromA.mul(alpha).div(BP_DENOMINATOR);\r\n\t\tnewBalanceA = balanceA.mul(navB).div(WEI_DENOMINATOR).add(newAFromA);\r\n\t\tnewBalanceB = balanceB.mul(navB).div(WEI_DENOMINATOR).add(newBFromA);\r\n\t}\r\n\r\n\tfunction acceptPrice(uint priceInWei, uint timeInSecond) internal {\r\n\t\tlastPrice.priceInWei = priceInWei;\r\n\t\tlastPrice.timeInSecond = timeInSecond;\r\n\t\tnumOfPrices = 0;\r\n\t\t(navAInWei, navBInWei) = calculateNav(\r\n\t\t\tlastPrice.priceInWei, \r\n\t\t\tlastPrice.timeInSecond, \r\n\t\t\tresetPrice.priceInWei, \r\n\t\t\tresetPrice.timeInSecond, \r\n\t\t\tbetaInWei);\r\n\t\tif (navBInWei >= limitUpperInWei || navBInWei <= limitLowerInWei || navAInWei >= limitPeriodicInWei) {\r\n\t\t\tstate = State.PreReset;\r\n\t\t\tlastPreResetBlockNo = block.number;\r\n\t\t\temit StartPreReset();\r\n\t\t} \r\n\t\temit AcceptPrice(priceInWei, timeInSecond);\r\n\t}\r\n\r\n\tfunction getMedian(uint a, uint b, uint c) public pure returns (uint){\r\n\t\tif (a.gt(b) ^ c.gt(a) == 0x0) {\r\n\t\t\treturn a;\r\n\t\t} else if(b.gt(a) ^ c.gt(b) == 0x0) {\r\n\t\t\treturn b;\r\n\t\t} else {\r\n\t\t\treturn c;\r\n\t\t}\r\n\t}\r\n\r\n\t//PriceFeed\r\n\tfunction commitPrice(uint priceInWei, uint timeInSecond) \r\n\t\tpublic \r\n\t\tinState(State.Trading) \r\n\t\tamong(priceFeed1, priceFeed2, priceFeed3) \r\n\t\treturns (bool success)\r\n\t{\t\r\n\t\trequire(timeInSecond <= getNowTimestamp());\r\n\t\trequire(timeInSecond > lastPrice.timeInSecond.add(priceUpdateCoolDown));\r\n\t\tuint priceDiff;\r\n\t\tif (numOfPrices == 0) {\r\n\t\t\tpriceDiff = getPriceDiff(priceInWei, lastPrice.priceInWei);\r\n\t\t\tif (priceDiff.mul(BP_DENOMINATOR).div(lastPrice.priceInWei) <= priceTolInBP) {\r\n\t\t\t\tacceptPrice(priceInWei, timeInSecond);\r\n\t\t\t} else {\r\n\t\t\t\t// wait for the second price\r\n\t\t\t\tfirstPrice = Price(priceInWei, timeInSecond);\r\n\t\t\t\tfirstAddr = msg.sender;\r\n\t\t\t\tnumOfPrices++;\r\n\t\t\t}\r\n\t\t} else if (numOfPrices == 1) {\r\n\t\t\tif (timeInSecond > firstPrice.timeInSecond.add(priceUpdateCoolDown)) {\r\n\t\t\t\tif (firstAddr == msg.sender)\r\n\t\t\t\t\tacceptPrice(priceInWei, timeInSecond);\r\n\t\t\t\telse\r\n\t\t\t\t\tacceptPrice(firstPrice.priceInWei, timeInSecond);\r\n\t\t\t} else {\r\n\t\t\t\trequire(firstAddr != msg.sender);\r\n\t\t\t\t// if second price times out, use first one\r\n\t\t\t\tif (firstPrice.timeInSecond.add(priceFeedTimeTol) < timeInSecond || \r\n\t\t\t\t\tfirstPrice.timeInSecond.sub(priceFeedTimeTol) > timeInSecond) {\r\n\t\t\t\t\tacceptPrice(firstPrice.priceInWei, firstPrice.timeInSecond);\r\n\t\t\t\t} else {\r\n\t\t\t\t\tpriceDiff = getPriceDiff(priceInWei, firstPrice.priceInWei);\r\n\t\t\t\t\tif (priceDiff.mul(BP_DENOMINATOR).div(firstPrice.priceInWei) <= priceTolInBP) {\r\n\t\t\t\t\t\tacceptPrice(firstPrice.priceInWei, firstPrice.timeInSecond);\r\n\t\t\t\t\t} else {\r\n\t\t\t\t\t\t// wait for the third price\r\n\t\t\t\t\t\tsecondPrice = Price(priceInWei, timeInSecond);\r\n\t\t\t\t\t\tsecondAddr = msg.sender;\r\n\t\t\t\t\t\tnumOfPrices++;\r\n\t\t\t\t\t} \r\n\t\t\t\t}\r\n\t\t\t}\r\n\t\t} else if (numOfPrices == 2) {\r\n\t\t\tif (timeInSecond > firstPrice.timeInSecond + priceUpdateCoolDown) {\r\n\t\t\t\tif ((firstAddr == msg.sender || secondAddr == msg.sender))\r\n\t\t\t\t\tacceptPrice(priceInWei, timeInSecond);\r\n\t\t\t\telse\r\n\t\t\t\t\tacceptPrice(secondPrice.priceInWei, timeInSecond);\r\n\t\t\t} else {\r\n\t\t\t\trequire(firstAddr != msg.sender && secondAddr != msg.sender);\r\n\t\t\t\tuint acceptedPriceInWei;\r\n\t\t\t\t// if third price times out, use first one\r\n\t\t\t\tif (firstPrice.timeInSecond.add(priceFeedTimeTol) < timeInSecond || \r\n\t\t\t\t\tfirstPrice.timeInSecond.sub(priceFeedTimeTol) > timeInSecond) {\r\n\t\t\t\t\tacceptedPriceInWei = firstPrice.priceInWei;\r\n\t\t\t\t} else {\r\n\t\t\t\t\t// take median and proceed\r\n\t\t\t\t\t// first and second price will never be equal in this part\r\n\t\t\t\t\t// if second and third price are the same, they are median\r\n\t\t\t\t\tif (secondPrice.priceInWei == priceInWei) {\r\n\t\t\t\t\t\tacceptedPriceInWei = priceInWei;\r\n\t\t\t\t\t} else {\r\n\t\t\t\t\t\tacceptedPriceInWei = getMedian(firstPrice.priceInWei, secondPrice.priceInWei, priceInWei);\r\n\t\t\t\t\t}\r\n\t\t\t\t}\r\n\t\t\t\tacceptPrice(acceptedPriceInWei, firstPrice.timeInSecond);\r\n\t\t\t}\r\n\t\t} else {\r\n\t\t\treturn false;\r\n\t\t}\r\n\r\n\t\treturn true;\r\n\t}\r\n\r\n\tfunction getPriceDiff(uint price1InWei, uint price2InWei) \r\n\t\tinternal \r\n\t\tpure \r\n\t\treturns(uint) \r\n\t{\r\n\t\treturn price1InWei > price2InWei \r\n\t\t\t? price1InWei.sub(price2InWei) \r\n\t\t\t: price2InWei.sub(price1InWei);\r\n\t}\r\n\r\n\tfunction getFee(uint ethInWei) internal constant returns(uint) {\r\n\t\treturn ethInWei.mul(commissionRateInBP).div(BP_DENOMINATOR);\r\n\t}\r\n\r\n\tfunction redeem(uint amtInWeiA, uint amtInWeiB) \r\n\t\tpublic \r\n\t\tinState(State.Trading) \r\n\t\tisDuoMember() \r\n\t\treturns (bool success) \r\n\t{\r\n\t\trequire(amtInWeiA > 0 && amtInWeiB > 0);\r\n\t\tuint adjAmtInWeiA = amtInWeiA.mul(BP_DENOMINATOR).div(alphaInBP);\r\n\t\tuint deductAmtInWeiB = adjAmtInWeiA < amtInWeiB ? adjAmtInWeiA : amtInWeiB;\r\n\t\tuint deductAmtInWeiA = deductAmtInWeiB.mul(alphaInBP).div(BP_DENOMINATOR);\r\n\t\trequire(balancesA[msg.sender] >= deductAmtInWeiA && balancesB[msg.sender] >= deductAmtInWeiB);\r\n\t\tuint amtEthInWei = deductAmtInWeiA\r\n\t\t\t.add(deductAmtInWeiB)\r\n\t\t\t.mul(WEI_DENOMINATOR)\r\n\t\t\t.mul(WEI_DENOMINATOR)\r\n\t\t\t.div(resetPrice.priceInWei)\r\n\t\t\t.div(betaInWei);\r\n\t\tuint feeInWei = getFee(amtEthInWei);\r\n\t\tbalancesA[msg.sender] = balancesA[msg.sender].sub(deductAmtInWeiA);\r\n\t\tbalancesB[msg.sender] = balancesB[msg.sender].sub(deductAmtInWeiB);\r\n\t\tfeeAccumulatedInWei = feeAccumulatedInWei.add(feeInWei);\r\n\t\tethPendingWithdrawal[msg.sender] = ethPendingWithdrawal[msg.sender].add(amtEthInWei.sub(feeInWei));\r\n\t\treturn true;\r\n\t}\r\n\r\n\tfunction withdraw(uint amtEthInWei) public inState(State.Trading) returns (bool success) {\r\n\t\trequire(amtEthInWei > 0 && amtEthInWei <= ethPendingWithdrawal[msg.sender] && amtEthInWei < address(this).balance);\r\n\t\tethPendingWithdrawal[msg.sender] = ethPendingWithdrawal[msg.sender].sub(amtEthInWei);\r\n\t\tmsg.sender.transfer(amtEthInWei);\r\n\t\treturn true;\r\n\t}\r\n\r\n\tfunction collectFee(uint amountInWei) public only(feeCollector) inState(State.Trading) returns (bool success) {\r\n\t\trequire(amountInWei > 0);\r\n\t\trequire(amountInWei <= feeAccumulatedInWei);\r\n\t\tfeeCollector.transfer(amountInWei);\r\n\t\treturn true;\r\n\t}\r\n\r\n\tfunction create() \r\n\t\tpublic \r\n\t\tpayable \r\n\t\tinState(State.Trading) \r\n\t\tisDuoMember() \r\n\t\treturns (bool success) \r\n\t{\r\n\t\tuint feeInWei = getFee(msg.value);\r\n\t\tfeeAccumulatedInWei = feeAccumulatedInWei.add(feeInWei);\r\n\t\tuint numeritor = msg.value\r\n\t\t\t\t\t\t.sub(feeInWei)\r\n\t\t\t\t\t\t.mul(resetPrice.priceInWei)\r\n\t\t\t\t\t\t.mul(betaInWei)\r\n\t\t\t\t\t\t.mul(BP_DENOMINATOR\r\n\t\t);\r\n\t\tuint denominator = WEI_DENOMINATOR\r\n\t\t\t\t\t\t.mul(WEI_DENOMINATOR)\r\n\t\t\t\t\t\t.mul(alphaInBP\r\n\t\t\t\t\t\t\t.add(BP_DENOMINATOR)\r\n\t\t);\r\n\t\tuint tokenValueB = numeritor.div(denominator);\r\n\t\tuint tokenValueA = tokenValueB.mul(alphaInBP).div(BP_DENOMINATOR);\r\n\t\tcheckNewUser(msg.sender);\r\n\t\tbalancesA[msg.sender] = balancesA[msg.sender].add(tokenValueA);\r\n\t\tbalancesB[msg.sender] = balancesB[msg.sender].add(tokenValueB);\r\n\t\treturn true;\r\n\t}\r\n\r\n\tfunction checkBalanceA(address add) public constant returns(uint) {\r\n\t\treturn balancesA[add];\r\n\t}\r\n\t\r\n\tfunction checkBalanceB(address add) public constant returns(uint) {\r\n\t\treturn balancesB[add];\r\n\t}\r\n\r\n\tfunction checkAllowanceA(address _user, address _spender) public constant returns(uint) {\r\n\t\treturn allowanceA[_user][_spender];\r\n\t}\r\n\r\n\tfunction checkAllowanceB(address _user, address _spender) public constant returns(uint) {\r\n\t\treturn allowanceB[_user][_spender];\r\n\t}\r\n\t\r\n\tfunction transferA(address _from, address _to, uint _tokens) \r\n\t\tpublic \r\n\t\tinState(State.Trading)\r\n\t\treturns (bool success) \r\n\t{\r\n\t\t// Prevent transfer to 0x0 address. Use burn() instead\r\n\t\trequire(_to != 0x0);\r\n\t\t// Check if the sender has enough\r\n\t\trequire(balancesA[_from] >= _tokens);\r\n\t\t// Check for overflows\r\n\t\trequire(balancesA[_to].add(_tokens) > balancesA[_to]);\r\n\r\n\t\t// Save this for an assertion in the future\r\n\t\tuint previousBalances = balancesA[_from].add(balancesA[_to]);\r\n\t\t//check whether _to is new. if new then add\r\n\t\tcheckNewUser(_to);\r\n\t\t// Subtract from the sender\r\n\t\tbalancesA[_from] = balancesA[_from].sub(_tokens);\r\n\t\t// Add the same to the recipient\r\n\t\tbalancesA[_to] = balancesA[_to].add(_tokens);\r\n\t\t\r\n\t\temit TransferA(_from, _to, _tokens);\r\n\t\t// Asserts are used to use static analysis to find bugs in your code. They should never fail\r\n\t\tassert(balancesA[_from].add(balancesA[_to]) == previousBalances);\r\n\t\treturn true;\r\n\t}\r\n\r\n\tfunction transferB(address _from, address _to, uint _tokens) \r\n\t\tpublic \r\n\t\tinState(State.Trading)\r\n\t\treturns (bool success) \r\n\t{\r\n\t\t// Prevent transfer to 0x0 address. Use burn() instead\r\n\t\trequire(_to != 0x0);\r\n\t\t// Check if the sender has enough\r\n\t\trequire(balancesB[_from] >= _tokens);\r\n\t\t// Check for overflows\r\n\t\trequire(balancesB[_to].add(_tokens) > balancesB[_to]);\r\n\r\n\t\t// Save this for an assertion in the future\r\n\t\tuint previousBalances = balancesB[_from].add(balancesB[_to]);\r\n\t\t//check whether _to is new. if new then add\r\n\t\tcheckNewUser(_to);\r\n\t\t// Subtract from the sender\r\n\t\tbalancesB[_from] = balancesB[_from].sub(_tokens);\r\n\t\t// Add the same to the recipient\r\n\t\tbalancesB[_to] = balancesB[_to].add(_tokens);\r\n\t\temit TransferB(_from, _to, _tokens);\r\n\t\t// Asserts are used to use static analysis to find bugs in your code. They should never fail\r\n\t\tassert(balancesB[_from].add(balancesB[_to]) == previousBalances);\r\n\t\treturn true;\r\n\t}\r\n\r\n\tfunction approveA(address _sender, address _spender, uint _tokens) \r\n\t\tpublic \r\n\t\treturns (bool success) \r\n\t{\r\n\t\tallowanceA[_sender][_spender] = _tokens;\r\n\t\treturn true;\r\n\t}\r\n\t\r\n\tfunction approveB(address _sender, address _spender, uint _tokens) \r\n\t\tpublic \r\n\t\treturns (bool success) \r\n\t{\r\n\t\tallowanceB[_sender][_spender] = _tokens;\r\n\t\treturn true;\r\n\t}\r\n\r\n\tfunction transferAFrom(address _spender, address _from, address _to, uint _tokens) \r\n\t\tpublic \r\n\t\tinState(State.Trading)\r\n\t\treturns (bool success) \r\n\t{\r\n\t\trequire(_tokens <= allowanceA[_from][_spender]);\t // Check allowance\r\n\t\tallowanceA[_from][_spender] = allowanceA[_from][_spender].sub(_tokens);\r\n\t\ttransferA(_from, _to, _tokens);\r\n\t\treturn true;\r\n\t}\r\n\t\r\n\tfunction transferBFrom(address _spender, address _from, address _to, uint _tokens) \r\n\t\tpublic \r\n\t\tinState(State.Trading)\r\n\t\treturns (bool success) \r\n\t{\r\n\t\trequire(_tokens <= allowanceB[_from][_spender]);\t // Check allowance\r\n\t\tallowanceB[_from][_spender] = allowanceB[_from][_spender].sub(_tokens);\r\n\t\ttransferB(_from, _to, _tokens);\r\n\t\treturn true;\r\n\t}\r\n\r\n\t//admin function\r\n\tfunction setFeeAddress(address newAddress) public only(admin) inState(State.Trading) returns (bool success) {\r\n\t\tfeeCollector = newAddress;\r\n\t\treturn true;\r\n\t}\r\n\r\n\tfunction setCommission(uint newComm) public only(admin) inState(State.Trading) returns (bool success) {\r\n\t\trequire(newComm > 0);\r\n\t\trequire(newComm < BP_DENOMINATOR);\r\n\t\tcommissionRateInBP = newComm;\r\n\t\treturn true;\r\n\t}\r\n\r\n\tfunction setMemberThresholdInWei(uint newValue) public only(admin) inState(State.Trading) returns (bool success) {\r\n\t\tmemberThresholdInWei = newValue;\r\n\t\treturn true;\r\n\t}\r\n\r\n\tfunction setIterationGasThreshold(uint newValue) public only(admin) inState(State.Trading) returns (bool success) {\r\n\t\titerationGasThreshold = newValue;\r\n\t\treturn true;\r\n\t}\r\n\r\n\tfunction setPreResetWaitingBlocks(uint newValue) public only(admin) inState(State.Trading) returns (bool success) {\r\n\t\tpreResetWaitingBlocks = newValue;\r\n\t\treturn true;\r\n\t}\r\n\r\n\tfunction setPostResetWaitingBlocks(uint newValue) public only(admin) inState(State.Trading) returns (bool success) {\r\n\t\tpostResetWaitingBlocks = newValue;\r\n\t\treturn true;\r\n\t}\r\n\r\n\tfunction setPriceTolInBP(uint newValue) public only(admin) inState(State.Trading) returns (bool success) {\r\n\t\tpriceTolInBP = newValue;\r\n\t\treturn true;\r\n\t}\r\n\r\n\tfunction setPriceFeedTolInBP(uint newValue) public only(admin) inState(State.Trading) returns (bool success) {\r\n\t\tpriceFeedTolInBP = newValue;\r\n\t\treturn true;\r\n\t}\r\n\r\n\tfunction setPriceFeedTimeTol(uint newValue) public only(admin) inState(State.Trading) returns (bool success) {\r\n\t\tpriceFeedTimeTol = newValue;\r\n\t\treturn true;\r\n\t}\r\n\r\n\tfunction setPriceUpdateCoolDown(uint newValue) public only(admin) inState(State.Trading) returns (bool success) {\r\n\t\tpriceUpdateCoolDown = newValue;\r\n\t\treturn true;\r\n\t}\r\n\r\n\tfunction getNumOfUsers() public view returns (uint256) {\r\n\t\treturn users.length;\r\n\t}\r\n}\r\n\r\n\r\n\r\n\t",
  "sourcePath": "C:\\dev\\coinFront\\israfel\\contracts\\Custodian.sol",
  "compiler": {
    "name": "solc",
    "version": "0.4.21+commit.dfe3193c.Emscripten.clang"
  },
  "schemaVersion": "2.0.0",
  "updatedAt": "2018-04-25T06:19:04.013Z"
}