{
  "contractName": "Beethoven",
  "abi": [
    {
      "constant": false,
      "inputs": [],
      "name": "updateFeeCollector",
      "outputs": [
        {
          "name": "",
          "type": "bool"
        }
      ],
      "payable": false,
      "stateMutability": "nonpayable",
      "type": "function",
      "signature": "0x0565f7c0"
    },
    {
      "constant": false,
      "inputs": [
        {
          "name": "index",
          "type": "uint256"
        },
        {
          "name": "spender",
          "type": "address"
        },
        {
          "name": "from",
          "type": "address"
        },
        {
          "name": "to",
          "type": "address"
        },
        {
          "name": "tokens",
          "type": "uint256"
        }
      ],
      "name": "transferFrom",
      "outputs": [
        {
          "name": "success",
          "type": "bool"
        }
      ],
      "payable": false,
      "stateMutability": "nonpayable",
      "type": "function",
      "signature": "0x0a23b9b1"
    },
    {
      "constant": true,
      "inputs": [
        {
          "name": "",
          "type": "uint256"
        },
        {
          "name": "",
          "type": "address"
        },
        {
          "name": "",
          "type": "address"
        }
      ],
      "name": "allowance",
      "outputs": [
        {
          "name": "",
          "type": "uint256"
        }
      ],
      "payable": false,
      "stateMutability": "view",
      "type": "function",
      "signature": "0x0d550b75"
    },
    {
      "constant": false,
      "inputs": [
        {
          "name": "newManagerAddr",
          "type": "address"
        }
      ],
      "name": "updateRoleManager",
      "outputs": [
        {
          "name": "",
          "type": "bool"
        }
      ],
      "payable": false,
      "stateMutability": "nonpayable",
      "type": "function",
      "signature": "0x0f36a16d"
    },
    {
      "constant": true,
      "inputs": [],
      "name": "totalSupplyB",
      "outputs": [
        {
          "name": "",
          "type": "uint256"
        }
      ],
      "payable": false,
      "stateMutability": "view",
      "type": "function",
      "signature": "0x15ed0793"
    },
    {
      "constant": true,
      "inputs": [],
      "name": "lastOperationTime",
      "outputs": [
        {
          "name": "",
          "type": "uint256"
        }
      ],
      "payable": false,
      "stateMutability": "view",
      "type": "function",
      "signature": "0x16d43a97"
    },
    {
      "constant": false,
      "inputs": [
        {
          "name": "newOracleAddr",
          "type": "address"
        }
      ],
      "name": "updateOracle",
      "outputs": [
        {
          "name": "",
          "type": "bool"
        }
      ],
      "payable": false,
      "stateMutability": "nonpayable",
      "type": "function",
      "signature": "0x1cb44dfc"
    },
    {
      "constant": true,
      "inputs": [
        {
          "name": "",
          "type": "uint256"
        },
        {
          "name": "",
          "type": "address"
        }
      ],
      "name": "balanceOf",
      "outputs": [
        {
          "name": "",
          "type": "uint256"
        }
      ],
      "payable": false,
      "stateMutability": "view",
      "type": "function",
      "signature": "0x3656eec2"
    },
    {
      "constant": true,
      "inputs": [
        {
          "name": "",
          "type": "uint256"
        }
      ],
      "name": "users",
      "outputs": [
        {
          "name": "",
          "type": "address"
        }
      ],
      "payable": false,
      "stateMutability": "view",
      "type": "function",
      "signature": "0x365b98b2"
    },
    {
      "constant": false,
      "inputs": [
        {
          "name": "index",
          "type": "uint256"
        },
        {
          "name": "from",
          "type": "address"
        },
        {
          "name": "to",
          "type": "address"
        },
        {
          "name": "tokens",
          "type": "uint256"
        }
      ],
      "name": "transfer",
      "outputs": [
        {
          "name": "success",
          "type": "bool"
        }
      ],
      "payable": false,
      "stateMutability": "nonpayable",
      "type": "function",
      "signature": "0x36cd52a6"
    },
    {
      "constant": true,
      "inputs": [],
      "name": "operationCoolDown",
      "outputs": [
        {
          "name": "",
          "type": "uint256"
        }
      ],
      "payable": false,
      "stateMutability": "view",
      "type": "function",
      "signature": "0x5623732e"
    },
    {
      "constant": true,
      "inputs": [],
      "name": "operator",
      "outputs": [
        {
          "name": "",
          "type": "address"
        }
      ],
      "payable": false,
      "stateMutability": "view",
      "type": "function",
      "signature": "0x570ca735"
    },
    {
      "constant": true,
      "inputs": [],
      "name": "totalSupplyA",
      "outputs": [
        {
          "name": "",
          "type": "uint256"
        }
      ],
      "payable": false,
      "stateMutability": "view",
      "type": "function",
      "signature": "0x6c67b21e"
    },
    {
      "constant": true,
      "inputs": [],
      "name": "feeBalanceInWei",
      "outputs": [
        {
          "name": "",
          "type": "uint256"
        }
      ],
      "payable": false,
      "stateMutability": "view",
      "type": "function",
      "signature": "0x912be04b"
    },
    {
      "constant": false,
      "inputs": [
        {
          "name": "amountInWei",
          "type": "uint256"
        }
      ],
      "name": "collectFee",
      "outputs": [
        {
          "name": "success",
          "type": "bool"
        }
      ],
      "payable": false,
      "stateMutability": "nonpayable",
      "type": "function",
      "signature": "0xa969ff0a"
    },
    {
      "constant": true,
      "inputs": [
        {
          "name": "",
          "type": "address"
        }
      ],
      "name": "existingUsers",
      "outputs": [
        {
          "name": "",
          "type": "uint256"
        }
      ],
      "payable": false,
      "stateMutability": "view",
      "type": "function",
      "signature": "0xb337f8cc"
    },
    {
      "constant": true,
      "inputs": [],
      "name": "totalUsers",
      "outputs": [
        {
          "name": "",
          "type": "uint256"
        }
      ],
      "payable": false,
      "stateMutability": "view",
      "type": "function",
      "signature": "0xbff1f9e1"
    },
    {
      "constant": true,
      "inputs": [],
      "name": "roleManagerAddress",
      "outputs": [
        {
          "name": "",
          "type": "address"
        }
      ],
      "payable": false,
      "stateMutability": "view",
      "type": "function",
      "signature": "0xd33b8d23"
    },
    {
      "constant": false,
      "inputs": [],
      "name": "updateOperator",
      "outputs": [
        {
          "name": "",
          "type": "bool"
        }
      ],
      "payable": false,
      "stateMutability": "nonpayable",
      "type": "function",
      "signature": "0xd5934b76"
    },
    {
      "constant": false,
      "inputs": [
        {
          "name": "index",
          "type": "uint256"
        },
        {
          "name": "sender",
          "type": "address"
        },
        {
          "name": "spender",
          "type": "address"
        },
        {
          "name": "tokens",
          "type": "uint256"
        }
      ],
      "name": "approve",
      "outputs": [
        {
          "name": "success",
          "type": "bool"
        }
      ],
      "payable": false,
      "stateMutability": "nonpayable",
      "type": "function",
      "signature": "0xf20f76ba"
    },
    {
      "inputs": [
        {
          "name": "roleManagerAddr",
          "type": "address"
        },
        {
          "name": "fc",
          "type": "address"
        },
        {
          "name": "alpha",
          "type": "uint256"
        },
        {
          "name": "r",
          "type": "uint256"
        },
        {
          "name": "hp",
          "type": "uint256"
        },
        {
          "name": "hu",
          "type": "uint256"
        },
        {
          "name": "hd",
          "type": "uint256"
        },
        {
          "name": "comm",
          "type": "uint256"
        },
        {
          "name": "pd",
          "type": "uint256"
        },
        {
          "name": "optCoolDown",
          "type": "uint256"
        },
        {
          "name": "pxFetchCoolDown",
          "type": "uint256"
        },
        {
          "name": "iteGasTh",
          "type": "uint256"
        },
        {
          "name": "preResetWaitBlk",
          "type": "uint256"
        },
        {
          "name": "minimumBalance",
          "type": "uint256"
        }
      ],
      "payable": false,
      "stateMutability": "nonpayable",
      "type": "constructor",
      "signature": "constructor"
    },
    {
      "payable": true,
      "stateMutability": "payable",
      "type": "fallback"
    },
    {
      "anonymous": false,
      "inputs": [
        {
          "indexed": false,
          "name": "index",
          "type": "uint256"
        },
        {
          "indexed": false,
          "name": "oldValue",
          "type": "uint256"
        },
        {
          "indexed": false,
          "name": "newValue",
          "type": "uint256"
        }
      ],
      "name": "SetValue",
      "type": "event",
      "signature": "0xabd08d77cf1eed600c8ba851f4210365f6695aa58b9500aa52a83db7d8b534ba"
    },
    {
      "anonymous": false,
      "inputs": [
        {
          "indexed": false,
          "name": "navAInWei",
          "type": "uint256"
        },
        {
          "indexed": false,
          "name": "navBInWei",
          "type": "uint256"
        }
      ],
      "name": "StartTrading",
      "type": "event",
      "signature": "0xe59d261c86f3e28ec60b2625dd89458b15cc93d4b260e2122846d5823a5aafab"
    },
    {
      "anonymous": false,
      "inputs": [],
      "name": "StartPreReset",
      "type": "event",
      "signature": "0xa1f85a3680dfb51f7db8069e794f07f371ef5a545a9c915ac6315b0768a08b3f"
    },
    {
      "anonymous": false,
      "inputs": [
        {
          "indexed": false,
          "name": "nextIndex",
          "type": "uint256"
        },
        {
          "indexed": false,
          "name": "total",
          "type": "uint256"
        }
      ],
      "name": "StartReset",
      "type": "event",
      "signature": "0x69b6a1e0fd2f9f5af1f0c0d638c544eb53a8e2218b46c49e91cdf6b9100bb12a"
    },
    {
      "anonymous": false,
      "inputs": [
        {
          "indexed": true,
          "name": "priceInWei",
          "type": "uint256"
        },
        {
          "indexed": true,
          "name": "timeInSecond",
          "type": "uint256"
        },
        {
          "indexed": false,
          "name": "navAInWei",
          "type": "uint256"
        },
        {
          "indexed": false,
          "name": "navBInWei",
          "type": "uint256"
        }
      ],
      "name": "AcceptPrice",
      "type": "event",
      "signature": "0x9044c32331b11a41789cda95b2838242d103fe41d345b0ed821b6b3728283a0f"
    },
    {
      "anonymous": false,
      "inputs": [
        {
          "indexed": true,
          "name": "sender",
          "type": "address"
        },
        {
          "indexed": false,
          "name": "ethAmtInWei",
          "type": "uint256"
        },
        {
          "indexed": false,
          "name": "tokenAInWei",
          "type": "uint256"
        },
        {
          "indexed": false,
          "name": "tokenBInWei",
          "type": "uint256"
        },
        {
          "indexed": false,
          "name": "feeInWei",
          "type": "uint256"
        }
      ],
      "name": "Create",
      "type": "event",
      "signature": "0x1bbfc9eb113af4226de738bd6f2c94b98c4618014c7d65650e0b5d179697bf27"
    },
    {
      "anonymous": false,
      "inputs": [
        {
          "indexed": true,
          "name": "sender",
          "type": "address"
        },
        {
          "indexed": false,
          "name": "ethAmtInWei",
          "type": "uint256"
        },
        {
          "indexed": false,
          "name": "tokenAInWei",
          "type": "uint256"
        },
        {
          "indexed": false,
          "name": "tokenBInWei",
          "type": "uint256"
        },
        {
          "indexed": false,
          "name": "feeInWei",
          "type": "uint256"
        }
      ],
      "name": "Redeem",
      "type": "event",
      "signature": "0xe02f6383e19e87c24e0c03e2cd5dbd05156cb29a1b0f3dbca1fa3430e444f63d"
    },
    {
      "anonymous": false,
      "inputs": [
        {
          "indexed": false,
          "name": "totalSupplyAInWei",
          "type": "uint256"
        },
        {
          "indexed": false,
          "name": "totalSupplyBInWei",
          "type": "uint256"
        }
      ],
      "name": "TotalSupply",
      "type": "event",
      "signature": "0xce065be89501ad8aef77e0eb0160264c2d1eb1732a004bcb98735bb0b8102205"
    },
    {
      "anonymous": false,
      "inputs": [
        {
          "indexed": true,
          "name": "from",
          "type": "address"
        },
        {
          "indexed": true,
          "name": "to",
          "type": "address"
        },
        {
          "indexed": false,
          "name": "value",
          "type": "uint256"
        },
        {
          "indexed": false,
          "name": "index",
          "type": "uint256"
        }
      ],
      "name": "Transfer",
      "type": "event",
      "signature": "0x9ed053bb818ff08b8353cd46f78db1f0799f31c9e4458fdb425c10eccd2efc44"
    },
    {
      "anonymous": false,
      "inputs": [
        {
          "indexed": true,
          "name": "tokenOwner",
          "type": "address"
        },
        {
          "indexed": true,
          "name": "spender",
          "type": "address"
        },
        {
          "indexed": false,
          "name": "tokens",
          "type": "uint256"
        },
        {
          "indexed": false,
          "name": "index",
          "type": "uint256"
        }
      ],
      "name": "Approval",
      "type": "event",
      "signature": "0xb3fd5071835887567a0671151121894ddccc2842f1d10bedad13e0d17cace9a7"
    },
    {
      "anonymous": false,
      "inputs": [
        {
          "indexed": false,
          "name": "addr",
          "type": "address"
        },
        {
          "indexed": false,
          "name": "feeInWei",
          "type": "uint256"
        },
        {
          "indexed": false,
          "name": "feeBalanceInWei",
          "type": "uint256"
        }
      ],
      "name": "CollectFee",
      "type": "event",
      "signature": "0x5b5b4c58fded589766d5845c3cddd53ffcb18bcb7e21933ec1858dddafb2d9a5"
    },
    {
      "anonymous": false,
      "inputs": [
        {
          "indexed": false,
          "name": "newOracleAddress",
          "type": "address"
        }
      ],
      "name": "UpdateOracle",
      "type": "event",
      "signature": "0x09ad0a3595604db9b7aef0dbd4918cea3642b96bc65ad7c9fb501a1529becd79"
    },
    {
      "anonymous": false,
      "inputs": [
        {
          "indexed": false,
          "name": "updater",
          "type": "address"
        },
        {
          "indexed": false,
          "name": "newFeeCollector",
          "type": "address"
        }
      ],
      "name": "UpdateFeeCollector",
      "type": "event",
      "signature": "0xcc882185e6edeeb762130016ea1faf3d7aa9c01b199bfd646f965b58ab741063"
    },
    {
      "anonymous": false,
      "inputs": [
        {
          "indexed": false,
          "name": "newManagerAddress",
          "type": "address"
        }
      ],
      "name": "UpdateRoleManager",
      "type": "event",
      "signature": "0xce93baa0b608a7d420822b6b90cfcccb70574363ba4fd26ef5ac17dd465016c4"
    },
    {
      "anonymous": false,
      "inputs": [
        {
          "indexed": false,
          "name": "updater",
          "type": "address"
        },
        {
          "indexed": false,
          "name": "newOperator",
          "type": "address"
        }
      ],
      "name": "UpdateOperator",
      "type": "event",
      "signature": "0xf7fa3b6184cd955c4d8db1b118f541d29ad3cde98ac41ffac1864077b27acc5b"
    },
    {
      "constant": false,
      "inputs": [
        {
          "name": "aAddr",
          "type": "address"
        },
        {
          "name": "bAddr",
          "type": "address"
        },
        {
          "name": "oracleAddr",
          "type": "address"
        }
      ],
      "name": "startCustodian",
      "outputs": [
        {
          "name": "success",
          "type": "bool"
        }
      ],
      "payable": false,
      "stateMutability": "nonpayable",
      "type": "function",
      "signature": "0xa64e8f5a"
    },
    {
      "constant": false,
      "inputs": [],
      "name": "create",
      "outputs": [
        {
          "name": "",
          "type": "bool"
        }
      ],
      "payable": true,
      "stateMutability": "payable",
      "type": "function",
      "signature": "0xefc81a8c"
    },
    {
      "constant": false,
      "inputs": [
        {
          "name": "amount",
          "type": "uint256"
        },
        {
          "name": "wethAddr",
          "type": "address"
        }
      ],
      "name": "createWithWETH",
      "outputs": [
        {
          "name": "success",
          "type": "bool"
        }
      ],
      "payable": false,
      "stateMutability": "nonpayable",
      "type": "function",
      "signature": "0xa1dec2d6"
    },
    {
      "constant": false,
      "inputs": [
        {
          "name": "amtInWeiA",
          "type": "uint256"
        },
        {
          "name": "amtInWeiB",
          "type": "uint256"
        }
      ],
      "name": "redeem",
      "outputs": [
        {
          "name": "success",
          "type": "bool"
        }
      ],
      "payable": false,
      "stateMutability": "nonpayable",
      "type": "function",
      "signature": "0x7cbc2373"
    },
    {
      "constant": false,
      "inputs": [],
      "name": "fetchPrice",
      "outputs": [
        {
          "name": "",
          "type": "bool"
        }
      ],
      "payable": false,
      "stateMutability": "nonpayable",
      "type": "function",
      "signature": "0x0fdb11cf"
    },
    {
      "constant": true,
      "inputs": [
        {
          "name": "priceInWei",
          "type": "uint256"
        },
        {
          "name": "timeInSecond",
          "type": "uint256"
        },
        {
          "name": "rstPriceInWei",
          "type": "uint256"
        },
        {
          "name": "rstTimeInSecond",
          "type": "uint256"
        },
        {
          "name": "bInWei",
          "type": "uint256"
        }
      ],
      "name": "calculateNav",
      "outputs": [
        {
          "name": "",
          "type": "uint256"
        },
        {
          "name": "",
          "type": "uint256"
        }
      ],
      "payable": false,
      "stateMutability": "view",
      "type": "function",
      "signature": "0x93b72fce"
    },
    {
      "constant": false,
      "inputs": [],
      "name": "startPreReset",
      "outputs": [
        {
          "name": "success",
          "type": "bool"
        }
      ],
      "payable": false,
      "stateMutability": "nonpayable",
      "type": "function",
      "signature": "0x134e92a8"
    },
    {
      "constant": false,
      "inputs": [],
      "name": "startReset",
      "outputs": [
        {
          "name": "success",
          "type": "bool"
        }
      ],
      "payable": false,
      "stateMutability": "nonpayable",
      "type": "function",
      "signature": "0x32a3bc0c"
    },
    {
      "constant": false,
      "inputs": [
        {
          "name": "idx",
          "type": "uint256"
        },
        {
          "name": "newValue",
          "type": "uint256"
        }
      ],
      "name": "setValue",
      "outputs": [
        {
          "name": "success",
          "type": "bool"
        }
      ],
      "payable": false,
      "stateMutability": "nonpayable",
      "type": "function",
      "signature": "0x7b8d56e3"
    },
    {
      "constant": true,
      "inputs": [],
      "name": "getStates",
      "outputs": [
        {
          "name": "",
          "type": "uint256[29]"
        }
      ],
      "payable": false,
      "stateMutability": "view",
      "type": "function",
      "signature": "0xd8ab8274"
    },
    {
      "constant": true,
      "inputs": [],
      "name": "getAddresses",
      "outputs": [
        {
          "name": "",
          "type": "address[6]"
        }
      ],
      "payable": false,
      "stateMutability": "view",
      "type": "function",
      "signature": "0xa39fac12"
    }
  ],
  "bytecode": "0x6080604052662386f26fc100006011556000602055670de0b6b3a76400006024553480156200002d57600080fd5b506040516101c080620052ef83398101806040528101908080519060200190929190805190602001909291908051906020019092919080519060200190929190805190602001909291908051906020019092919080519060200190929190805190602001909291908051906020019092919080519060200190929190805190602001909291908051906020019092919080519060200190929190805190602001909291905050508d8d88888588338b8888838382600160006101000a81548173ffffffffffffffffffffffffffffffffffffffff021916908373ffffffffffffffffffffffffffffffffffffffff160217905550826000806101000a81548173ffffffffffffffffffffffffffffffffffffffff021916908373ffffffffffffffffffffffffffffffffffffffff16021790555081600260006101000a81548173ffffffffffffffffffffffffffffffffffffffff021916908373ffffffffffffffffffffffffffffffffffffffff160217905550806004819055505050506000601060006101000a81548160ff02191690836003811115620001cc57fe5b021790555087600660006101000a81548173ffffffffffffffffffffffffffffffffffffffff021916908373ffffffffffffffffffffffffffffffffffffffff16021790555086601b8190555086601c8190555085601d8190555084601e8190555083601f81905550670de0b6b3a7640000601581905550670de0b6b3a7640000601681905550806011819055505050505050505050508b6023819055508a6025819055508960268190555088602781905550876028819055508260298190555062000302612710620002e5670de0b6b3a7640000620002c86127106023546200031c64010000000002620046fe179091906401000000009004565b6200033b640100000000026200471c179091906401000000009004565b62000371640100000000026200474f179091906401000000009004565b602a8190555050505050505050505050505050506200038d565b60008082840190508381101515156200033157fe5b8091505092915050565b600080828402905060008414806200035e57508284828115156200035b57fe5b04145b15156200036757fe5b8091505092915050565b60008082848115156200038057fe5b0490508091505092915050565b614f52806200039d6000396000f30060806040526004361061018b576000357c0100000000000000000000000000000000000000000000000000000000900463ffffffff1680630565f7c01461018d5780630a23b9b1146101bc5780630d550b751461026b5780630f36a16d146102ec5780630fdb11cf14610347578063134e92a81461037657806315ed0793146103a557806316d43a97146103d05780631cb44dfc146103fb57806332a3bc0c146104565780633656eec214610485578063365b98b2146104e657806336cd52a6146105535780635623732e146105e2578063570ca7351461060d5780636c67b21e146106645780637b8d56e31461068f5780637cbc2373146106de578063912be04b1461072d57806393b72fce14610758578063a1dec2d6146107c8578063a39fac121461082d578063a64e8f5a14610880578063a969ff0a1461091b578063b337f8cc14610960578063bff1f9e1146109b7578063d33b8d23146109e2578063d5934b7614610a39578063d8ab827414610a68578063efc81a8c14610abb578063f20f76ba14610add575b005b34801561019957600080fd5b506101a2610b6c565b604051808215151515815260200191505060405180910390f35b3480156101c857600080fd5b5061025160048036038101908080359060200190929190803573ffffffffffffffffffffffffffffffffffffffff169060200190929190803573ffffffffffffffffffffffffffffffffffffffff169060200190929190803573ffffffffffffffffffffffffffffffffffffffff16906020019092919080359060200190929190505050610d9c565b604051808215151515815260200191505060405180910390f35b34801561027757600080fd5b506102d660048036038101908080359060200190929190803573ffffffffffffffffffffffffffffffffffffffff169060200190929190803573ffffffffffffffffffffffffffffffffffffffff169060200190929190505050610fd7565b6040518082815260200191505060405180910390f35b3480156102f857600080fd5b5061032d600480360381019080803573ffffffffffffffffffffffffffffffffffffffff16906020019092919050505061100b565b604051808215151515815260200191505060405180910390f35b34801561035357600080fd5b5061035c61132b565b604051808215151515815260200191505060405180910390f35b34801561038257600080fd5b5061038b611592565b604051808215151515815260200191505060405180910390f35b3480156103b157600080fd5b506103ba611cc5565b6040518082815260200191505060405180910390f35b3480156103dc57600080fd5b506103e5611ccb565b6040518082815260200191505060405180910390f35b34801561040757600080fd5b5061043c600480360381019080803573ffffffffffffffffffffffffffffffffffffffff169060200190929190505050611cd1565b604051808215151515815260200191505060405180910390f35b34801561046257600080fd5b5061046b6120f7565b604051808215151515815260200191505060405180910390f35b34801561049157600080fd5b506104d060048036038101908080359060200190929190803573ffffffffffffffffffffffffffffffffffffffff1690602001909291905050506126ce565b6040518082815260200191505060405180910390f35b3480156104f257600080fd5b50610511600480360381019080803590602001909291905050506126f5565b604051808273ffffffffffffffffffffffffffffffffffffffff1673ffffffffffffffffffffffffffffffffffffffff16815260200191505060405180910390f35b34801561055f57600080fd5b506105c860048036038101908080359060200190929190803573ffffffffffffffffffffffffffffffffffffffff169060200190929190803573ffffffffffffffffffffffffffffffffffffffff16906020019092919080359060200190929190505050612733565b604051808215151515815260200191505060405180910390f35b3480156105ee57600080fd5b506105f76127a4565b6040518082815260200191505060405180910390f35b34801561061957600080fd5b506106226127aa565b604051808273ffffffffffffffffffffffffffffffffffffffff1673ffffffffffffffffffffffffffffffffffffffff16815260200191505060405180910390f35b34801561067057600080fd5b506106796127d0565b6040518082815260200191505060405180910390f35b34801561069b57600080fd5b506106c460048036038101908080359060200190929190803590602001909291905050506127d6565b604051808215151515815260200191505060405180910390f35b3480156106ea57600080fd5b50610713600480360381019080803590602001909291908035906020019092919050505061297a565b604051808215151515815260200191505060405180910390f35b34801561073957600080fd5b50610742612ebf565b6040518082815260200191505060405180910390f35b34801561076457600080fd5b506107ab6004803603810190808035906020019092919080359060200190929190803590602001909291908035906020019092919080359060200190929190505050612ef2565b604051808381526020018281526020019250505060405180910390f35b3480156107d457600080fd5b5061081360048036038101908080359060200190929190803573ffffffffffffffffffffffffffffffffffffffff169060200190929190505050613081565b604051808215151515815260200191505060405180910390f35b34801561083957600080fd5b506108426133e0565b6040518082600660200280838360005b8381101561086d578082015181840152602081019050610852565b5050505090500191505060405180910390f35b34801561088c57600080fd5b50610901600480360381019080803573ffffffffffffffffffffffffffffffffffffffff169060200190929190803573ffffffffffffffffffffffffffffffffffffffff169060200190929190803573ffffffffffffffffffffffffffffffffffffffff1690602001909291905050506135ef565b604051808215151515815260200191505060405180910390f35b34801561092757600080fd5b50610946600480360381019080803590602001909291905050506139d1565b604051808215151515815260200191505060405180910390f35b34801561096c57600080fd5b506109a1600480360381019080803573ffffffffffffffffffffffffffffffffffffffff169060200190929190505050613b8c565b6040518082815260200191505060405180910390f35b3480156109c357600080fd5b506109cc613ba4565b6040518082815260200191505060405180910390f35b3480156109ee57600080fd5b506109f7613bb1565b604051808273ffffffffffffffffffffffffffffffffffffffff1673ffffffffffffffffffffffffffffffffffffffff16815260200191505060405180910390f35b348015610a4557600080fd5b50610a4e613bd7565b604051808215151515815260200191505060405180910390f35b348015610a7457600080fd5b50610a7d613e07565b6040518082601d60200280838360005b83811015610aa8578082015181840152602081019050610a8d565b5050505090500191505060405180910390f35b610ac3613f41565b604051808215151515815260200191505060405180910390f35b348015610ae957600080fd5b50610b5260048036038101908080359060200190929190803573ffffffffffffffffffffffffffffffffffffffff169060200190929190803573ffffffffffffffffffffffffffffffffffffffff16906020019092919080359060200190929190505050613f88565b604051808215151515815260200191505060405180910390f35b6000806000610b796140ba565b9050600454600354820310151515610b9057600080fd5b3391506000809054906101000a900473ffffffffffffffffffffffffffffffffffffffff1673ffffffffffffffffffffffffffffffffffffffff1663d04787a78360006040518363ffffffff167c0100000000000000000000000000000000000000000000000000000000028152600401808373ffffffffffffffffffffffffffffffffffffffff1673ffffffffffffffffffffffffffffffffffffffff16815260200182815260200192505050602060405180830381600087803b158015610c5857600080fd5b505af1158015610c6c573d6000803e3d6000fd5b505050506040513d6020811015610c8257600080fd5b8101908080519060200190929190505050600660006101000a81548173ffffffffffffffffffffffffffffffffffffffff021916908373ffffffffffffffffffffffffffffffffffffffff1602179055507fcc882185e6edeeb762130016ea1faf3d7aa9c01b199bfd646f965b58ab74106382600660009054906101000a900473ffffffffffffffffffffffffffffffffffffffff16604051808373ffffffffffffffffffffffffffffffffffffffff1673ffffffffffffffffffffffffffffffffffffffff1681526020018273ffffffffffffffffffffffffffffffffffffffff1673ffffffffffffffffffffffffffffffffffffffff1681526020019250505060405180910390a16001925080600381905550505090565b6000806001806003811115610dad57fe5b601060009054906101000a900460ff166003811115610dc857fe5b141515610dd457600080fd5b6000881480610de35750600188145b1515610dee57600080fd5b610df888886140c2565b9150600c88600281101515610e0957fe5b0160008773ffffffffffffffffffffffffffffffffffffffff1673ffffffffffffffffffffffffffffffffffffffff16815260200190815260200160002060008373ffffffffffffffffffffffffffffffffffffffff1673ffffffffffffffffffffffffffffffffffffffff168152602001908152602001600020548411151515610e9357600080fd5b610f3084600c8a600281101515610ea657fe5b0160008973ffffffffffffffffffffffffffffffffffffffff1673ffffffffffffffffffffffffffffffffffffffff16815260200190815260200160002060008573ffffffffffffffffffffffffffffffffffffffff1673ffffffffffffffffffffffffffffffffffffffff1681526020019081526020016000205461419890919063ffffffff16565b600c89600281101515610f3f57fe5b0160008873ffffffffffffffffffffffffffffffffffffffff1673ffffffffffffffffffffffffffffffffffffffff16815260200190815260200160002060008473ffffffffffffffffffffffffffffffffffffffff1673ffffffffffffffffffffffffffffffffffffffff16815260200190815260200160002081905550610fca888787876141b1565b9250505095945050505050565b600c83600281101515610fe657fe5b0160205281600052604060002060205280600052604060002060009250925050505481565b6000806110166140ba565b905060045460035482031015151561102d57600080fd5b6000809054906101000a900473ffffffffffffffffffffffffffffffffffffffff1673ffffffffffffffffffffffffffffffffffffffff1663b0a93414846040518263ffffffff167c0100000000000000000000000000000000000000000000000000000000028152600401808273ffffffffffffffffffffffffffffffffffffffff1673ffffffffffffffffffffffffffffffffffffffff168152602001915050602060405180830381600087803b1580156110e957600080fd5b505af11580156110fd573d6000803e3d6000fd5b505050506040513d602081101561111357600080fd5b8101908080519060200190929190505050151561112f57600080fd5b82600160006101000a81548173ffffffffffffffffffffffffffffffffffffffff021916908373ffffffffffffffffffffffffffffffffffffffff160217905550600160009054906101000a900473ffffffffffffffffffffffffffffffffffffffff166000806101000a81548173ffffffffffffffffffffffffffffffffffffffff021916908373ffffffffffffffffffffffffffffffffffffffff16021790555060008060009054906101000a900473ffffffffffffffffffffffffffffffffffffffff1673ffffffffffffffffffffffffffffffffffffffff1663387439046040518163ffffffff167c0100000000000000000000000000000000000000000000000000000000028152600401602060405180830381600087803b15801561125957600080fd5b505af115801561126d573d6000803e3d6000fd5b505050506040513d602081101561128357600080fd5b810190808051906020019092919050505073ffffffffffffffffffffffffffffffffffffffff16141515156112b757600080fd5b7fce93baa0b608a7d420822b6b90cfcccb70574363ba4fd26ef5ac17dd465016c483604051808273ffffffffffffffffffffffffffffffffffffffff1673ffffffffffffffffffffffffffffffffffffffff16815260200191505060405180910390a1600191508060038190555050919050565b600080600080600180600381111561133f57fe5b601060009054906101000a900460ff16600381111561135a57fe5b14151561136657600080fd5b61136e6140ba565b9350611387601f546018546146fe90919063ffffffff16565b8411151561139457600080fd5b600560009054906101000a900473ffffffffffffffffffffffffffffffffffffffff1673ffffffffffffffffffffffffffffffffffffffff1663d8cf24fd6040518163ffffffff167c01000000000000000000000000000000000000000000000000000000000281526004016040805180830381600087803b15801561141957600080fd5b505af115801561142d573d6000803e3d6000fd5b505050506040513d604081101561144357600080fd5b81019080805190602001909291908051906020019092919050505092509250601854821180156114735750838211155b801561147f5750600083115b151561148a57600080fd5b82601781905550816018819055506114ab8383601954601a54602454612ef2565b60156000601660008491905055839190505550506027546016541015806114d6575060285460165411155b806114e5575060265460155410155b15611542576002601060006101000a81548160ff0219169083600381111561150957fe5b0217905550436020819055507fa1f85a3680dfb51f7db8069e794f07f371ef5a545a9c915ac6315b0768a08b3f60405160405180910390a15b81837f9044c32331b11a41789cda95b2838242d103fe41d345b0ed821b6b3728283a0f601554601654604051808381526020018281526020019250505060405180910390a3600194505050505090565b600080600080600080600080600060028060038111156115ae57fe5b601060009054906101000a900460ff1660038111156115c957fe5b1415156115d557600080fd5b601e546020544303101515611c8857602754601654101515611808576003601060006101000a81548160ff0219169083600381111561161057fe5b02179055506000602260006101000a81548160ff0219169083600281111561163457fe5b0217905550670de0b6b3a7640000602481905550611665670de0b6b3a764000060155461419890919063ffffffff16565b9650611684670de0b6b3a764000060165461419890919063ffffffff16565b9550611699878761419890919063ffffffff16565b945086602b819055506000602d819055506116d3602a546116c56024548861471c90919063ffffffff16565b61474f90919063ffffffff16565b93506116fe6127106116f06023548761471c90919063ffffffff16565b61474f90919063ffffffff16565b602c8190555061171784886146fe90919063ffffffff16565b602e8190555061178a611779670de0b6b3a764000061176b611746602c5460135461471c90919063ffffffff16565b61175d602b5460125461471c90919063ffffffff16565b6146fe90919063ffffffff16565b61474f90919063ffffffff16565b6012546146fe90919063ffffffff16565b6012819055506117fd6117ec670de0b6b3a76400006117de6117b9602e5460135461471c90919063ffffffff16565b6117d0602d5460125461471c90919063ffffffff16565b6146fe90919063ffffffff16565b61474f90919063ffffffff16565b6013546146fe90919063ffffffff16565b601381905550611bfa565b6028546016541115156119be576003601060006101000a81548160ff0219169083600381111561183457fe5b02179055506001602260006101000a81548160ff0219169083600281111561185857fe5b0217905550670de0b6b3a76400006024819055506118ab602a5461189d60245461188f60165460155461419890919063ffffffff16565b61471c90919063ffffffff16565b61474f90919063ffffffff16565b602d819055506000602b819055506000602e819055506000602c819055506118fa670de0b6b3a76400006118ec602d5460125461471c90919063ffffffff16565b61474f90919063ffffffff16565b98506119256127106119176023548c61471c90919063ffffffff16565b61474f90919063ffffffff16565b975061196a8861195c670de0b6b3a764000061194e60165460125461471c90919063ffffffff16565b61474f90919063ffffffff16565b6146fe90919063ffffffff16565b6012819055506119b3896119a5670de0b6b3a764000061199760165460135461471c90919063ffffffff16565b61474f90919063ffffffff16565b6146fe90919063ffffffff16565b601381905550611bf9565b6003601060006101000a81548160ff021916908360038111156119dd57fe5b02179055506002602260006101000a81548160ff02191690836002811115611a0157fe5b0217905550611a31601754611a236127106023546146fe90919063ffffffff16565b61471c90919063ffffffff16565b9250611ad2611ac3670de0b6b3a7640000611ab5670de0b6b3a7640000611aa7611a6e670de0b6b3a764000060155461419890919063ffffffff16565b611a99602454611a8b60235460195461471c90919063ffffffff16565b61471c90919063ffffffff16565b61471c90919063ffffffff16565b61474f90919063ffffffff16565b61474f90919063ffffffff16565b8461419890919063ffffffff16565b9150611afb82611aed8560245461471c90919063ffffffff16565b61474f90919063ffffffff16565b602481905550611b46602a54611b38602454611b2a670de0b6b3a764000060155461419890919063ffffffff16565b61471c90919063ffffffff16565b61474f90919063ffffffff16565b602d819055506000602e819055506000602b819055506000602c81905550611b95670de0b6b3a7640000611b87602d5460125461471c90919063ffffffff16565b61474f90919063ffffffff16565b9850611bc0612710611bb26023548c61471c90919063ffffffff16565b61474f90919063ffffffff16565b9750611bd7886012546146fe90919063ffffffff16565b601281905550611bf2896013546146fe90919063ffffffff16565b6013819055505b5b7fce065be89501ad8aef77e0eb0160264c2d1eb1732a004bcb98735bb0b8102205601254601354604051808381526020018281526020019250505060405180910390a17f69b6a1e0fd2f9f5af1f0c0d638c544eb53a8e2218b46c49e91cdf6b9100bb12a602154600e80549050604051808381526020018281526020019250505060405180910390a1611cb5565b7fa1f85a3680dfb51f7db8069e794f07f371ef5a545a9c915ac6315b0768a08b3f60405160405180910390a15b6001995050505050505050505090565b60135481565b60035481565b60008060008060009054906101000a900473ffffffffffffffffffffffffffffffffffffffff1673ffffffffffffffffffffffffffffffffffffffff1663387439046040518163ffffffff167c0100000000000000000000000000000000000000000000000000000000028152600401602060405180830381600087803b158015611d5b57600080fd5b505af1158015611d6f573d6000803e3d6000fd5b505050506040513d6020811015611d8557600080fd5b81019080805190602001909291905050508073ffffffffffffffffffffffffffffffffffffffff163373ffffffffffffffffffffffffffffffffffffffff16141515611dd057600080fd5b6000611dda6140ba565b9050600454600354820310151515611df157600080fd5b6000809054906101000a900473ffffffffffffffffffffffffffffffffffffffff1673ffffffffffffffffffffffffffffffffffffffff1663b0a93414876040518263ffffffff167c0100000000000000000000000000000000000000000000000000000000028152600401808273ffffffffffffffffffffffffffffffffffffffff1673ffffffffffffffffffffffffffffffffffffffff168152602001915050602060405180830381600087803b158015611ead57600080fd5b505af1158015611ec1573d6000803e3d6000fd5b505050506040513d6020811015611ed757600080fd5b81019080805190602001909291905050501515611ef357600080fd5b85600760006101000a81548173ffffffffffffffffffffffffffffffffffffffff021916908373ffffffffffffffffffffffffffffffffffffffff160217905550600760009054906101000a900473ffffffffffffffffffffffffffffffffffffffff16600560006101000a81548173ffffffffffffffffffffffffffffffffffffffff021916908373ffffffffffffffffffffffffffffffffffffffff160217905550600560009054906101000a900473ffffffffffffffffffffffffffffffffffffffff1673ffffffffffffffffffffffffffffffffffffffff1663d8cf24fd6040518163ffffffff167c01000000000000000000000000000000000000000000000000000000000281526004016040805180830381600087803b15801561201c57600080fd5b505af1158015612030573d6000803e3d6000fd5b505050506040513d604081101561204657600080fd5b810190808051906020019092919080519060200190929190505050935093506000841180156120755750600083115b151561208057600080fd5b7f09ad0a3595604db9b7aef0dbd4918cea3642b96bc65ad7c9fb501a1529becd7986604051808273ffffffffffffffffffffffffffffffffffffffff1673ffffffffffffffffffffffffffffffffffffffff16815260200191505060405180910390a1600194508060038190555050505050919050565b6000806000806000806000806000600380600381111561211357fe5b601060009054906101000a900460ff16600381111561212e57fe5b14151561213a57600080fd5b60215491505b600e805490508210801561215557506029545a115b1561258d57600e8281548110151561216957fe5b9060005260206000200160009054906101000a900473ffffffffffffffffffffffffffffffffffffffff169250600a60006002811015156121a657fe5b0160008473ffffffffffffffffffffffffffffffffffffffff1673ffffffffffffffffffffffffffffffffffffffff168152602001908152602001600020549850600a60016002811015156121f757fe5b0160008473ffffffffffffffffffffffffffffffffffffffff1673ffffffffffffffffffffffffffffffffffffffff1681526020019081526020016000205497506001600281111561224557fe5b602260009054906101000a900460ff16600281111561226057fe5b141561234d57612295670de0b6b3a7640000612287602d548c61471c90919063ffffffff16565b61474f90919063ffffffff16565b93506122c06127106122b26023548761471c90919063ffffffff16565b61474f90919063ffffffff16565b9450612303856122f5670de0b6b3a76400006122e76016548e61471c90919063ffffffff16565b61474f90919063ffffffff16565b6146fe90919063ffffffff16565b965061234684612338670de0b6b3a764000061232a6016548d61471c90919063ffffffff16565b61474f90919063ffffffff16565b6146fe90919063ffffffff16565b95506124da565b6000600281111561235a57fe5b602260009054906101000a900460ff16600281111561237557fe5b1415612452576123e26123d3670de0b6b3a76400006123c56123a2602c548d61471c90919063ffffffff16565b6123b7602b548f61471c90919063ffffffff16565b6146fe90919063ffffffff16565b61474f90919063ffffffff16565b8a6146fe90919063ffffffff16565b965061244b61243c670de0b6b3a764000061242e61240b602e548d61471c90919063ffffffff16565b612420602d548f61471c90919063ffffffff16565b6146fe90919063ffffffff16565b61474f90919063ffffffff16565b896146fe90919063ffffffff16565b95506124d9565b612481670de0b6b3a7640000612473602d548c61471c90919063ffffffff16565b61474f90919063ffffffff16565b93506124ac61271061249e6023548761471c90919063ffffffff16565b61474f90919063ffffffff16565b94506124c1858a6146fe90919063ffffffff16565b96506124d684896146fe90919063ffffffff16565b95505b5b86600a60006002811015156124eb57fe5b0160008573ffffffffffffffffffffffffffffffffffffffff1673ffffffffffffffffffffffffffffffffffffffff1681526020019081526020016000208190555085600a600160028110151561253e57fe5b0160008573ffffffffffffffffffffffffffffffffffffffff1673ffffffffffffffffffffffffffffffffffffffff168152602001908152602001600020819055508180600101925050612140565b600e8054905082101515612672576002808111156125a757fe5b602260009054906101000a900460ff1660028111156125c257fe5b1415156125e257601754601981905550670de0b6b3a76400006016819055505b601854601a81905550670de0b6b3a764000060158190555060006021819055506001601060006101000a81548160ff0219169083600381111561262157fe5b02179055507fe59d261c86f3e28ec60b2625dd89458b15cc93d4b260e2122846d5823a5aafab601554601654604051808381526020018281526020019250505060405180910390a1600199506126c2565b816021819055507f69b6a1e0fd2f9f5af1f0c0d638c544eb53a8e2218b46c49e91cdf6b9100bb12a82600e80549050604051808381526020018281526020019250505060405180910390a1600099505b50505050505050505090565b600a826002811015156126dd57fe5b01602052806000526040600020600091509150505481565b600e8181548110151561270457fe5b906000526020600020016000915054906101000a900473ffffffffffffffffffffffffffffffffffffffff1681565b6000600180600381111561274357fe5b601060009054906101000a900460ff16600381111561275e57fe5b14151561276a57600080fd5b60008614806127795750600186145b151561278457600080fd5b6127998661279288886140c2565b86866141b1565b915050949350505050565b60045481565b600260009054906101000a900473ffffffffffffffffffffffffffffffffffffffff1681565b60125481565b600080600260009054906101000a900473ffffffffffffffffffffffffffffffffffffffff168073ffffffffffffffffffffffffffffffffffffffff163373ffffffffffffffffffffffffffffffffffffffff1614151561283657600080fd5b600180600381111561284457fe5b601060009054906101000a900460ff16600381111561285f57fe5b14151561286b57600080fd5b60006128756140ba565b905060045460035482031015151561288c57600080fd5b60008714156128b75761271086111515156128a657600080fd5b601b54935085601b8190555061291e565b60018714156128e25761271086111515156128d157600080fd5b601c54935085601c8190555061291d565b60028714156128fc5760295493508560298190555061291c565b600387141561291657601e54935085601e8190555061291b565b600080fd5b5b5b5b7fabd08d77cf1eed600c8ba851f4210365f6695aa58b9500aa52a83db7d8b534ba87858860405180848152602001838152602001828152602001935050505060405180910390a160019450806003819055505050505092915050565b6000806000806000806000600180600381111561299357fe5b601060009054906101000a900460ff1660038111156129ae57fe5b1415156129ba57600080fd5b6129e36023546129d56127108d61471c90919063ffffffff16565b61474f90919063ffffffff16565b96508887106129f257886129f4565b865b9550612a1f612710612a116023548961471c90919063ffffffff16565b61474f90919063ffffffff16565b945033935084600a6000600281101515612a3557fe5b0160008673ffffffffffffffffffffffffffffffffffffffff1673ffffffffffffffffffffffffffffffffffffffff1681526020019081526020016000205410158015612ad0575085600a6001600281101515612a8e57fe5b0160008673ffffffffffffffffffffffffffffffffffffffff1673ffffffffffffffffffffffffffffffffffffffff1681526020019081526020016000205410155b1515612adb57600080fd5b612b4a602454612b3c601954612b2e670de0b6b3a7640000612b20670de0b6b3a7640000612b128e8e6146fe90919063ffffffff16565b61471c90919063ffffffff16565b61471c90919063ffffffff16565b61474f90919063ffffffff16565b61474f90919063ffffffff16565b9250612b618360145461419890919063ffffffff16565b601481905550612b7383601c5461476a565b8093508194505050612bdc85600a6000600281101515612b8f57fe5b0160008773ffffffffffffffffffffffffffffffffffffffff1673ffffffffffffffffffffffffffffffffffffffff1681526020019081526020016000205461419890919063ffffffff16565b600a6000600281101515612bec57fe5b0160008673ffffffffffffffffffffffffffffffffffffffff1673ffffffffffffffffffffffffffffffffffffffff16815260200190815260200160002081905550612c8f86600a6001600281101515612c4257fe5b0160008773ffffffffffffffffffffffffffffffffffffffff1673ffffffffffffffffffffffffffffffffffffffff1681526020019081526020016000205461419890919063ffffffff16565b600a6001600281101515612c9f57fe5b0160008673ffffffffffffffffffffffffffffffffffffffff1673ffffffffffffffffffffffffffffffffffffffff16815260200190815260200160002081905550612d8884600a6000600281101515612cf557fe5b0160008773ffffffffffffffffffffffffffffffffffffffff1673ffffffffffffffffffffffffffffffffffffffff16815260200190815260200160002054600a6001600281101515612d4457fe5b0160008873ffffffffffffffffffffffffffffffffffffffff1673ffffffffffffffffffffffffffffffffffffffff168152602001908152602001600020546147c1565b612d9d8560125461419890919063ffffffff16565b601281905550612db88660135461419890919063ffffffff16565b6013819055508373ffffffffffffffffffffffffffffffffffffffff166108fc849081150290604051600060405180830381858888f19350505050158015612e04573d6000803e3d6000fd5b508373ffffffffffffffffffffffffffffffffffffffff167fe02f6383e19e87c24e0c03e2cd5dbd05156cb29a1b0f3dbca1fa3430e444f63d848789866040518085815260200184815260200183815260200182815260200194505050505060405180910390a27fce065be89501ad8aef77e0eb0160264c2d1eb1732a004bcb98735bb0b8102205601254601354604051808381526020018281526020019250505060405180910390a1600197505050505050505092915050565b6000612eed6014543073ffffffffffffffffffffffffffffffffffffffff163161419890919063ffffffff16565b905090565b600080600080600080612f22601d54612f148a8d61419890919063ffffffff16565b61474f90919063ffffffff16565b9350612f5189612f43670de0b6b3a76400008e61471c90919063ffffffff16565b61474f90919063ffffffff16565b9250612fbc87612fae612710612fa0612f776127106023546146fe90919063ffffffff16565b612f92670de0b6b3a76400008a61471c90919063ffffffff16565b61471c90919063ffffffff16565b61474f90919063ffffffff16565b61474f90919063ffffffff16565b9250612fed670de0b6b3a7640000612fdf8660255461471c90919063ffffffff16565b6146fe90919063ffffffff16565b915061301861271061300a6023548561471c90919063ffffffff16565b61474f90919063ffffffff16565b9050808311151561305a5761304c60235461303e6127108661471c90919063ffffffff16565b61474f90919063ffffffff16565b600080905095509550613073565b8161306e828561419890919063ffffffff16565b955095505b505050509550959350505050565b6000806000806000600180600381111561309757fe5b601060009054906101000a900460ff1660038111156130b257fe5b1415156130be57600080fd5b6000881180156130e5575060008773ffffffffffffffffffffffffffffffffffffffff1614155b15156130f057600080fd5b8694508473ffffffffffffffffffffffffffffffffffffffff166323b872dd33308b6040518463ffffffff167c0100000000000000000000000000000000000000000000000000000000028152600401808473ffffffffffffffffffffffffffffffffffffffff1673ffffffffffffffffffffffffffffffffffffffff1681526020018373ffffffffffffffffffffffffffffffffffffffff1673ffffffffffffffffffffffffffffffffffffffff1681526020018281526020019350505050602060405180830381600087803b1580156131ca57600080fd5b505af11580156131de573d6000803e3d6000fd5b505050506040513d60208110156131f457600080fd5b8101908080519060200190929190505050508473ffffffffffffffffffffffffffffffffffffffff166370a08231306040518263ffffffff167c0100000000000000000000000000000000000000000000000000000000028152600401808273ffffffffffffffffffffffffffffffffffffffff1673ffffffffffffffffffffffffffffffffffffffff168152602001915050602060405180830381600087803b1580156132a157600080fd5b505af11580156132b5573d6000803e3d6000fd5b505050506040513d60208110156132cb57600080fd5b810190808051906020019092919050505093508784101515156132ed57600080fd5b3073ffffffffffffffffffffffffffffffffffffffff163192508473ffffffffffffffffffffffffffffffffffffffff16632e1a7d4d856040518263ffffffff167c010000000000000000000000000000000000000000000000000000000002815260040180828152602001915050600060405180830381600087803b15801561337657600080fd5b505af115801561338a573d6000803e3d6000fd5b505050506133b8833073ffffffffffffffffffffffffffffffffffffffff163161419890919063ffffffff16565b91508382101515156133c957600080fd5b6133d33389614a88565b9550505050505092915050565b6133e8614e8e565b60c060405190810160405280600160009054906101000a900473ffffffffffffffffffffffffffffffffffffffff1673ffffffffffffffffffffffffffffffffffffffff1673ffffffffffffffffffffffffffffffffffffffff168152602001600260009054906101000a900473ffffffffffffffffffffffffffffffffffffffff1673ffffffffffffffffffffffffffffffffffffffff1673ffffffffffffffffffffffffffffffffffffffff168152602001600660009054906101000a900473ffffffffffffffffffffffffffffffffffffffff1673ffffffffffffffffffffffffffffffffffffffff1673ffffffffffffffffffffffffffffffffffffffff168152602001600760009054906101000a900473ffffffffffffffffffffffffffffffffffffffff1673ffffffffffffffffffffffffffffffffffffffff1673ffffffffffffffffffffffffffffffffffffffff168152602001600860009054906101000a900473ffffffffffffffffffffffffffffffffffffffff1673ffffffffffffffffffffffffffffffffffffffff1673ffffffffffffffffffffffffffffffffffffffff168152602001600960009054906101000a900473ffffffffffffffffffffffffffffffffffffffff1673ffffffffffffffffffffffffffffffffffffffff1673ffffffffffffffffffffffffffffffffffffffff16815250905090565b60008060008080600381111561360157fe5b601060009054906101000a900460ff16600381111561361c57fe5b14151561362857600080fd5b600260009054906101000a900473ffffffffffffffffffffffffffffffffffffffff168073ffffffffffffffffffffffffffffffffffffffff163373ffffffffffffffffffffffffffffffffffffffff1614151561368557600080fd5b87600860006101000a81548173ffffffffffffffffffffffffffffffffffffffff021916908373ffffffffffffffffffffffffffffffffffffffff16021790555086600960006101000a81548173ffffffffffffffffffffffffffffffffffffffff021916908373ffffffffffffffffffffffffffffffffffffffff16021790555085600760006101000a81548173ffffffffffffffffffffffffffffffffffffffff021916908373ffffffffffffffffffffffffffffffffffffffff160217905550600760009054906101000a900473ffffffffffffffffffffffffffffffffffffffff16600560006101000a81548173ffffffffffffffffffffffffffffffffffffffff021916908373ffffffffffffffffffffffffffffffffffffffff160217905550600560009054906101000a900473ffffffffffffffffffffffffffffffffffffffff1673ffffffffffffffffffffffffffffffffffffffff1663d8cf24fd6040518163ffffffff167c01000000000000000000000000000000000000000000000000000000000281526004016040805180830381600087803b15801561383057600080fd5b505af1158015613844573d6000803e3d6000fd5b505050506040513d604081101561385a57600080fd5b810190808051906020019092919080519060200190929190505050935093506000841180156138895750600083115b151561389457600080fd5b83601781905550826018819055508360198190555082601a81905550600160009054906101000a900473ffffffffffffffffffffffffffffffffffffffff166000806101000a81548173ffffffffffffffffffffffffffffffffffffffff021916908373ffffffffffffffffffffffffffffffffffffffff1602179055506001601060006101000a81548160ff0219169083600381111561393157fe5b021790555082847f9044c32331b11a41789cda95b2838242d103fe41d345b0ed821b6b3728283a0f670de0b6b3a764000080604051808381526020018281526020019250505060405180910390a37fe59d261c86f3e28ec60b2625dd89458b15cc93d4b260e2122846d5823a5aafab601554601654604051808381526020018281526020019250505060405180910390a160019450505050509392505050565b600080600660009054906101000a900473ffffffffffffffffffffffffffffffffffffffff168073ffffffffffffffffffffffffffffffffffffffff163373ffffffffffffffffffffffffffffffffffffffff16141515613a3157600080fd5b6001806003811115613a3f57fe5b601060009054906101000a900460ff166003811115613a5a57fe5b141515613a6657600080fd5b613a8085613a72612ebf565b61419890919063ffffffff16565b9250600660009054906101000a900473ffffffffffffffffffffffffffffffffffffffff1673ffffffffffffffffffffffffffffffffffffffff166108fc869081150290604051600060405180830381858888f19350505050158015613aea573d6000803e3d6000fd5b507f5b5b4c58fded589766d5845c3cddd53ffcb18bcb7e21933ec1858dddafb2d9a5600660009054906101000a900473ffffffffffffffffffffffffffffffffffffffff168685604051808473ffffffffffffffffffffffffffffffffffffffff1673ffffffffffffffffffffffffffffffffffffffff168152602001838152602001828152602001935050505060405180910390a160019350505050919050565b600f6020528060005260406000206000915090505481565b6000600e80549050905090565b600160009054906101000a900473ffffffffffffffffffffffffffffffffffffffff1681565b6000806000613be46140ba565b9050600454600354820310151515613bfb57600080fd5b3391506000809054906101000a900473ffffffffffffffffffffffffffffffffffffffff1673ffffffffffffffffffffffffffffffffffffffff1663d04787a78360006040518363ffffffff167c0100000000000000000000000000000000000000000000000000000000028152600401808373ffffffffffffffffffffffffffffffffffffffff1673ffffffffffffffffffffffffffffffffffffffff16815260200182815260200192505050602060405180830381600087803b158015613cc357600080fd5b505af1158015613cd7573d6000803e3d6000fd5b505050506040513d6020811015613ced57600080fd5b8101908080519060200190929190505050600260006101000a81548173ffffffffffffffffffffffffffffffffffffffff021916908373ffffffffffffffffffffffffffffffffffffffff1602179055507ff7fa3b6184cd955c4d8db1b118f541d29ad3cde98ac41ffac1864077b27acc5b82600260009054906101000a900473ffffffffffffffffffffffffffffffffffffffff16604051808373ffffffffffffffffffffffffffffffffffffffff1673ffffffffffffffffffffffffffffffffffffffff1681526020018273ffffffffffffffffffffffffffffffffffffffff1673ffffffffffffffffffffffffffffffffffffffff1681526020019250505060405180910390a16001925080600381905550505090565b613e0f614eb1565b6103a06040519081016040528060035481526020016004548152602001601060009054906101000a900460ff166003811115613e4757fe5b8152602001601154815260200160125481526020016013548152602001601454815260200160155481526020016016548152602001601754815260200160185481526020016019548152602001601a548152602001601b548152602001601c548152602001601d548152602001601e548152602001601f5481526020016021548152602001613ed4613ba4565b8152602001613ee1612ebf565b8152602001602260009054906101000a900460ff166002811115613f0157fe5b8152602001602354815260200160245481526020016025548152602001602654815260200160275481526020016028548152602001602954815250905090565b60006001806003811115613f5157fe5b601060009054906101000a900460ff166003811115613f6c57fe5b141515613f7857600080fd5b613f823334614a88565b91505090565b6000806000861480613f9a5750600186145b1515613fa557600080fd5b613faf86866140c2565b905082600c87600281101515613fc157fe5b0160008373ffffffffffffffffffffffffffffffffffffffff1673ffffffffffffffffffffffffffffffffffffffff16815260200190815260200160002060008673ffffffffffffffffffffffffffffffffffffffff1673ffffffffffffffffffffffffffffffffffffffff168152602001908152602001600020819055508373ffffffffffffffffffffffffffffffffffffffff168173ffffffffffffffffffffffffffffffffffffffff167fb3fd5071835887567a0671151121894ddccc2842f1d10bedad13e0d17cace9a78589604051808381526020018281526020019250505060405180910390a36001915050949350505050565b600042905090565b600080831480156141205750600860009054906101000a900473ffffffffffffffffffffffffffffffffffffffff1673ffffffffffffffffffffffffffffffffffffffff163373ffffffffffffffffffffffffffffffffffffffff16145b8061418457506001831480156141835750600960009054906101000a900473ffffffffffffffffffffffffffffffffffffffff1673ffffffffffffffffffffffffffffffffffffffff163373ffffffffffffffffffffffffffffffffffffffff16145b5b61418e5733614190565b815b905092915050565b60008282111515156141a657fe5b818303905092915050565b60008060018060038111156141c257fe5b601060009054906101000a900460ff1660038111156141dd57fe5b1415156141e957600080fd5b60008573ffffffffffffffffffffffffffffffffffffffff161415151561420f57600080fd5b83600a8860028110151561421f57fe5b0160008873ffffffffffffffffffffffffffffffffffffffff1673ffffffffffffffffffffffffffffffffffffffff168152602001908152602001600020541015151561426b57600080fd5b614318600a8860028110151561427d57fe5b0160008773ffffffffffffffffffffffffffffffffffffffff1673ffffffffffffffffffffffffffffffffffffffff16815260200190815260200160002054600a896002811015156142cb57fe5b0160008973ffffffffffffffffffffffffffffffffffffffff1673ffffffffffffffffffffffffffffffffffffffff168152602001908152602001600020546146fe90919063ffffffff16565b915061437a84600a8960028110151561432d57fe5b0160008973ffffffffffffffffffffffffffffffffffffffff1673ffffffffffffffffffffffffffffffffffffffff1681526020019081526020016000205461419890919063ffffffff16565b600a8860028110151561438957fe5b0160008873ffffffffffffffffffffffffffffffffffffffff1673ffffffffffffffffffffffffffffffffffffffff1681526020019081526020016000208190555061442b84600a896002811015156143de57fe5b0160008873ffffffffffffffffffffffffffffffffffffffff1673ffffffffffffffffffffffffffffffffffffffff168152602001908152602001600020546146fe90919063ffffffff16565b600a8860028110151561443a57fe5b0160008773ffffffffffffffffffffffffffffffffffffffff1673ffffffffffffffffffffffffffffffffffffffff168152602001908152602001600020819055508161452a600a8960028110151561448f57fe5b0160008873ffffffffffffffffffffffffffffffffffffffff1673ffffffffffffffffffffffffffffffffffffffff16815260200190815260200160002054600a8a6002811015156144dd57fe5b0160008a73ffffffffffffffffffffffffffffffffffffffff1673ffffffffffffffffffffffffffffffffffffffff168152602001908152602001600020546146fe90919063ffffffff16565b14151561453357fe5b8473ffffffffffffffffffffffffffffffffffffffff168673ffffffffffffffffffffffffffffffffffffffff167f9ed053bb818ff08b8353cd46f78db1f0799f31c9e4458fdb425c10eccd2efc44868a604051808381526020018281526020019250505060405180910390a361464886600a896002811015156145b357fe5b0160008973ffffffffffffffffffffffffffffffffffffffff1673ffffffffffffffffffffffffffffffffffffffff16815260200190815260200160002054600a8a60010360028110151561460457fe5b0160008a73ffffffffffffffffffffffffffffffffffffffff1673ffffffffffffffffffffffffffffffffffffffff168152602001908152602001600020546147c1565b6146f085600a8960028110151561465b57fe5b0160008873ffffffffffffffffffffffffffffffffffffffff1673ffffffffffffffffffffffffffffffffffffffff16815260200190815260200160002054600a8a6001036002811015156146ac57fe5b0160008973ffffffffffffffffffffffffffffffffffffffff1673ffffffffffffffffffffffffffffffffffffffff168152602001908152602001600020546147c1565b600192505050949350505050565b600080828401905083811015151561471257fe5b8091505092915050565b6000808284029050600084148061473d575082848281151561473a57fe5b04145b151561474557fe5b8091505092915050565b600080828481151561475d57fe5b0490508091505092915050565b60008060008411151561477c57600080fd5b6147a3612710614795858761471c90919063ffffffff16565b61474f90919063ffffffff16565b90506147b8818561419890919063ffffffff16565b91509250929050565b6000806000600f60008773ffffffffffffffffffffffffffffffffffffffff1673ffffffffffffffffffffffffffffffffffffffff16815260200190815260200160002054925060008311156149b75760115485108015614823575060115484105b156149b257600e805490509150600e6001830381548110151561484257fe5b9060005260206000200160009054906101000a900473ffffffffffffffffffffffffffffffffffffffff169050818310156149175780600e6001850381548110151561488a57fe5b9060005260206000200160006101000a81548173ffffffffffffffffffffffffffffffffffffffff021916908373ffffffffffffffffffffffffffffffffffffffff16021790555082600f60008373ffffffffffffffffffffffffffffffffffffffff1673ffffffffffffffffffffffffffffffffffffffff168152602001908152602001600020819055505b600e6001830381548110151561492957fe5b9060005260206000200160006101000a81549073ffffffffffffffffffffffffffffffffffffffff02191690556000600f60008873ffffffffffffffffffffffffffffffffffffffff1673ffffffffffffffffffffffffffffffffffffffff16815260200190815260200160002081905550600e8054809190600190036149b09190614ed5565b505b614a80565b601154851015806149ca57506011548410155b15614a7f57600e8690806001815401808255809150509060018203906000526020600020016000909192909190916101000a81548173ffffffffffffffffffffffffffffffffffffffff021916908373ffffffffffffffffffffffffffffffffffffffff16021790555050600e80549050600f60008873ffffffffffffffffffffffffffffffffffffffff1673ffffffffffffffffffffffffffffffffffffffff168152602001908152602001600020819055505b5b505050505050565b600080600080600080600087111515614aa057600080fd5b614aac87601b5461476a565b8096508198505050614ac9876014546146fe90919063ffffffff16565b601481905550614b0c612710614afe602454614af06019548c61471c90919063ffffffff16565b61471c90919063ffffffff16565b61471c90919063ffffffff16565b9350614b51614b286127106023546146fe90919063ffffffff16565b614b43670de0b6b3a76400008061471c90919063ffffffff16565b61471c90919063ffffffff16565b9250614b66838561474f90919063ffffffff16565b9150614b91612710614b836023548561471c90919063ffffffff16565b61474f90919063ffffffff16565b9050614bf481600a6000600281101515614ba757fe5b0160008b73ffffffffffffffffffffffffffffffffffffffff1673ffffffffffffffffffffffffffffffffffffffff168152602001908152602001600020546146fe90919063ffffffff16565b600a6000600281101515614c0457fe5b0160008a73ffffffffffffffffffffffffffffffffffffffff1673ffffffffffffffffffffffffffffffffffffffff16815260200190815260200160002081905550614ca782600a6001600281101515614c5a57fe5b0160008b73ffffffffffffffffffffffffffffffffffffffff1673ffffffffffffffffffffffffffffffffffffffff168152602001908152602001600020546146fe90919063ffffffff16565b600a6001600281101515614cb757fe5b0160008a73ffffffffffffffffffffffffffffffffffffffff1673ffffffffffffffffffffffffffffffffffffffff16815260200190815260200160002081905550614da088600a6000600281101515614d0d57fe5b0160008b73ffffffffffffffffffffffffffffffffffffffff1673ffffffffffffffffffffffffffffffffffffffff16815260200190815260200160002054600a6001600281101515614d5c57fe5b0160008c73ffffffffffffffffffffffffffffffffffffffff1673ffffffffffffffffffffffffffffffffffffffff168152602001908152602001600020546147c1565b614db5816012546146fe90919063ffffffff16565b601281905550614dd0826013546146fe90919063ffffffff16565b6013819055508773ffffffffffffffffffffffffffffffffffffffff167f1bbfc9eb113af4226de738bd6f2c94b98c4618014c7d65650e0b5d179697bf27888385896040518085815260200184815260200183815260200182815260200194505050505060405180910390a27fce065be89501ad8aef77e0eb0160264c2d1eb1732a004bcb98735bb0b8102205601254601354604051808381526020018281526020019250505060405180910390a160019550505050505092915050565b60c060405190810160405280600690602082028038833980820191505090505090565b6103a060405190810160405280601d90602082028038833980820191505090505090565b815481835581811115614efc57818360005260206000209182019101614efb9190614f01565b5b505050565b614f2391905b80821115614f1f576000816000905550600101614f07565b5090565b905600a165627a7a72305820a92b16cd6797d987851cf34e7083c7aae44fd0f1141fef5b86795e07f2163a3f0029",
  "source": "pragma solidity ^0.4.24;\nimport { IMultiSigManager } from \"../interfaces/IMultiSigManager.sol\";\nimport { IWETH } from \"../interfaces/IWETH.sol\";\nimport { IOracle } from \"../interfaces/IOracle.sol\";\nimport { Custodian } from \"./Custodian.sol\";\n// import { SafeMath } from \"../common/SafeMath.sol\";\n\n/// @title Beethoven - dual class token contract\n/// @author duo.network\ncontract Beethoven is Custodian {\n\t// using SafeMath for uint;\n\n\t/*\n     * Storage\n     */\n\tenum ResetState {\n\t\tUpwardReset,\n\t\tDownwardReset,\n\t\tPeriodicReset\n\t}\n\n\tResetState resetState;\n\tuint alphaInBP;\n\tuint betaInWei = WEI_DENOMINATOR;\n\tuint periodCouponInWei; \n\tuint limitPeriodicInWei; \n\tuint limitUpperInWei; \n\tuint limitLowerInWei;\n\tuint iterationGasThreshold;\n\n\t// reset intermediate values\n\tuint bAdj;\n\tuint newAFromAPerA;\n\tuint newAFromBPerB;\n\tuint newBFromAPerA;\n\tuint newBFromBPerB;\n\n\t/*\n     * Events\n     */\n\tevent SetValue(uint index, uint oldValue, uint newValue);\n\n\tfunction() public payable {}\n\t\n\t/*\n     * Constructor\n     */\n\tconstructor(\n\t\taddress roleManagerAddr,\n\t\taddress fc,\n\t\tuint alpha,\n\t\tuint r,\n\t\tuint hp,\n\t\tuint hu,\n\t\tuint hd,\n\t\tuint comm,\n\t\tuint pd,\n\t\tuint optCoolDown,\n\t\tuint pxFetchCoolDown,\n\t\tuint iteGasTh,\n\t\tuint preResetWaitBlk,\n\t\tuint minimumBalance\n\t\t) \n\t\tpublic \n\t\tCustodian ( \n\t\troleManagerAddr,\n\t\tfc,\n\t\tcomm,\n\t\tpd,\n\t\tpreResetWaitBlk, \n\t\tpxFetchCoolDown,\n\t\tmsg.sender,\n\t\toptCoolDown,\n\t\tminimumBalance\n\t\t)\n\t{\n\t\talphaInBP = alpha;\n\t\tperiodCouponInWei = r; \n\t\tlimitPeriodicInWei = hp; \n\t\tlimitUpperInWei = hu; \n\t\tlimitLowerInWei = hd;\n\t\titerationGasThreshold = iteGasTh; // 65000;\n\t\tbAdj = alphaInBP.add(BP_DENOMINATOR).mul(WEI_DENOMINATOR).div(BP_DENOMINATOR);\n\t}\n\n\n\t/*\n     * Public Functions\n     */\n\t/// @dev startCustodian\n\t///\t@param aAddr contract address of Class A\n\t///\t@param bAddr contract address of Class B\n\t///\t@param oracleAddr contract address of Oracle\n\tfunction startCustodian(\n\t\taddress aAddr,\n\t\taddress bAddr,\n\t\taddress oracleAddr\n\t\t) \n\t\tpublic \n\t\tinState(State.Inception) \n\t\tonly(operator)\n\t\treturns (bool success) \n\t{\t\n\t\taTokenAddress = aAddr;\n\t\tbTokenAddress = bAddr;\n\t\toracleAddress = oracleAddr;\n\t\toracle = IOracle(oracleAddress);\n\t\t(uint priceInWei, uint timeInSecond) = oracle.getLastPrice();\n\t\trequire(priceInWei > 0 && timeInSecond > 0);\n\t\tlastPriceInWei = priceInWei;\n\t\tlastPriceTimeInSecond = timeInSecond;\n\t\tresetPriceInWei = priceInWei;\n\t\tresetPriceTimeInSecond = timeInSecond;\n\t\troleManager = IMultiSigManager(roleManagerAddress);\n\t\tstate = State.Trading;\n\t\temit AcceptPrice(priceInWei, timeInSecond, WEI_DENOMINATOR, WEI_DENOMINATOR);\n\t\temit StartTrading(navAInWei, navBInWei);\n\t\treturn true;\n\t}\n\n\t/// @dev create with ETH\n\tfunction create() \n\t\tpublic \n\t\tpayable \n\t\tinState(State.Trading) \n\t\treturns (bool) \n\t{\t\n\t\treturn createInternal(msg.sender, msg.value);\n\t}\n\n\t/// @dev create with ETH\n\t///\t@param amount amount of WETH to create\n\t///\t@param wethAddr wrapEth contract address\n\tfunction createWithWETH(uint amount, address wethAddr)\n\t\tpublic \n\t\tinState(State.Trading) \n\t\treturns (bool success) \n\t{\n\t\trequire(amount > 0 && wethAddr != 0x0);\n\t\tIWETH wethToken = IWETH(wethAddr);\n\t\twethToken.transferFrom(msg.sender, address(this), amount);\n\t\tuint wethBalance = wethToken.balanceOf(address(this));\n\t\trequire(wethBalance >= amount);\n\t\tuint beforeEthBalance = address(this).balance;\n        wethToken.withdraw(wethBalance);\n\t\tuint ethIncrement = address(this).balance.sub(beforeEthBalance);\n\t\trequire(ethIncrement >= wethBalance);\n\t\treturn createInternal(msg.sender, amount);\n\t}\n\n\tfunction createInternal(address sender, uint ethAmtInWei) \n\t\tinternal \n\t\treturns(bool)\n\t{\n\t\trequire(ethAmtInWei > 0);\n\t\tuint feeInWei;\n\t\t(ethAmtInWei, feeInWei) = deductFee(ethAmtInWei, createCommInBP);\n\t\tethCollateralInWei = ethCollateralInWei.add(ethAmtInWei);\n\t\tuint numeritor = ethAmtInWei\n\t\t\t\t\t\t.mul(resetPriceInWei)\n\t\t\t\t\t\t.mul(betaInWei)\n\t\t\t\t\t\t.mul(BP_DENOMINATOR\n\t\t);\n\t\tuint denominator = WEI_DENOMINATOR\n\t\t\t\t\t\t.mul(WEI_DENOMINATOR)\n\t\t\t\t\t\t.mul(alphaInBP\n\t\t\t\t\t\t\t.add(BP_DENOMINATOR)\n\t\t);\n\t\tuint tokenValueB = numeritor.div(denominator);\n\t\tuint tokenValueA = tokenValueB.mul(alphaInBP).div(BP_DENOMINATOR);\n\t\tbalanceOf[0][sender] = balanceOf[0][sender].add(tokenValueA);\n\t\tbalanceOf[1][sender] = balanceOf[1][sender].add(tokenValueB);\n\t\tcheckUser(sender, balanceOf[0][sender], balanceOf[1][sender]);\n\t\ttotalSupplyA = totalSupplyA.add(tokenValueA);\n\t\ttotalSupplyB = totalSupplyB.add(tokenValueB);\n\n\t\temit Create(\n\t\t\tsender, \n\t\t\tethAmtInWei, \n\t\t\ttokenValueA, \n\t\t\ttokenValueB, \n\t\t\tfeeInWei\n\t\t\t);\n\t\temit TotalSupply(totalSupplyA, totalSupplyB);\t\n\t\treturn true;\n\n\t}\n\n\tfunction redeem(uint amtInWeiA, uint amtInWeiB) \n\t\tpublic \n\t\tinState(State.Trading) \n\t\treturns (bool success) \n\t{\n\t\tuint adjAmtInWeiA = amtInWeiA.mul(BP_DENOMINATOR).div(alphaInBP);\n\t\tuint deductAmtInWeiB = adjAmtInWeiA < amtInWeiB ? adjAmtInWeiA : amtInWeiB;\n\t\tuint deductAmtInWeiA = deductAmtInWeiB.mul(alphaInBP).div(BP_DENOMINATOR);\n\t\taddress sender = msg.sender;\n\t\trequire(balanceOf[0][sender] >= deductAmtInWeiA && balanceOf[1][sender] >= deductAmtInWeiB);\n\t\tuint ethAmtInWei = deductAmtInWeiA\n\t\t\t.add(deductAmtInWeiB)\n\t\t\t.mul(WEI_DENOMINATOR)\n\t\t\t.mul(WEI_DENOMINATOR)\n\t\t\t.div(resetPriceInWei)\n\t\t\t.div(betaInWei);\n\t\tethCollateralInWei = ethCollateralInWei.sub(ethAmtInWei);\n\t\tuint feeInWei;\n\t\t(ethAmtInWei,  feeInWei) = deductFee(ethAmtInWei, redeemCommInBP);\n\n\t\tbalanceOf[0][sender] = balanceOf[0][sender].sub(deductAmtInWeiA);\n\t\tbalanceOf[1][sender] = balanceOf[1][sender].sub(deductAmtInWeiB);\n\t\tcheckUser(sender, balanceOf[0][sender], balanceOf[1][sender]);\n\t\ttotalSupplyA = totalSupplyA.sub(deductAmtInWeiA);\n\t\ttotalSupplyB = totalSupplyB.sub(deductAmtInWeiB);\n\t\tsender.transfer(ethAmtInWei);\n\t\temit Redeem(\n\t\t\tsender, \n\t\t\tethAmtInWei, \n\t\t\tdeductAmtInWeiA, \n\t\t\tdeductAmtInWeiB, \n\t\t\tfeeInWei\n\t\t);\n\t\temit TotalSupply(totalSupplyA, totalSupplyB);\n\t\treturn true;\n\t}\n\n\tfunction deductFee(\n\t\tuint ethAmtInWei, \n\t\tuint commInBP\n\t) \n\t\tinternal pure\n\t\treturns (\n\t\t\tuint ethAmtAfterFeeInWei, \n\t\t\tuint feeInWei) \n\t{\n\t\trequire(ethAmtInWei > 0);\n\t\tfeeInWei = ethAmtInWei.mul(commInBP).div(BP_DENOMINATOR);\n\t\tethAmtAfterFeeInWei = ethAmtInWei.sub(feeInWei);\n\t}\n\t// end of conversion\n\n\t// start of priceFetch funciton\n\tfunction fetchPrice() public inState(State.Trading) returns (bool) {\n\t\tuint currentTime = getNowTimestamp();\n\t\trequire(currentTime > lastPriceTimeInSecond.add(priceFetchCoolDown));\n\t\t(uint priceInWei, uint timeInSecond) = oracle.getLastPrice();\n\t\trequire(timeInSecond > lastPriceTimeInSecond && timeInSecond <= currentTime && priceInWei > 0);\n\t\tlastPriceInWei = priceInWei;\n\t\tlastPriceTimeInSecond = timeInSecond;\n\t\t(navAInWei, navBInWei) = calculateNav(\n\t\t\tpriceInWei, \n\t\t\ttimeInSecond, \n\t\t\tresetPriceInWei, \n\t\t\tresetPriceTimeInSecond, \n\t\t\tbetaInWei);\n\t\tif (navBInWei >= limitUpperInWei || navBInWei <= limitLowerInWei || navAInWei >= limitPeriodicInWei) {\n\t\t\tstate = State.PreReset;\n\t\t\tlastPreResetBlockNo = block.number;\n\t\t\temit StartPreReset();\n\t\t} \n\t\temit AcceptPrice(priceInWei, timeInSecond, navAInWei, navBInWei);\n\t\treturn true;\n\t}\n\t\n\tfunction calculateNav(\n\t\tuint priceInWei, \n\t\tuint timeInSecond, \n\t\tuint rstPriceInWei, \n\t\tuint rstTimeInSecond,\n\t\tuint bInWei) \n\t\tpublic \n\t\tview \n\t\treturns (uint, uint) \n\t{\n\t\tuint numOfPeriods = timeInSecond.sub(rstTimeInSecond).div(period);\n\t\tuint navParent = priceInWei.mul(WEI_DENOMINATOR).div(rstPriceInWei);\n\t\tnavParent = navParent\n\t\t\t.mul(WEI_DENOMINATOR)\n\t\t\t.mul(alphaInBP.add(BP_DENOMINATOR))\n\t\t\t.div(BP_DENOMINATOR)\n\t\t\t.div(bInWei\n\t\t);\n\t\tuint navA = periodCouponInWei.mul(numOfPeriods).add(WEI_DENOMINATOR);\n\t\tuint navAAdj = navA.mul(alphaInBP).div(BP_DENOMINATOR);\n\t\tif (navParent <= navAAdj)\n\t\t\treturn (navParent.mul(BP_DENOMINATOR).div(alphaInBP), 0);\n\t\telse\n\t\t\treturn (navA, navParent.sub(navAAdj));\n\t}\n\t// end of priceFetch function\n\n\t// start of reset function\n\tfunction startPreReset() public inState(State.PreReset) returns (bool success) {\n\t\tif (block.number - lastPreResetBlockNo >= preResetWaitingBlocks) {\n\t\t\tuint newBFromA;\n\t\t\tuint newAFromA;\n\t\t\tif (navBInWei >= limitUpperInWei) {\n\t\t\t\tstate = State.Reset;\n\t\t\t\tresetState = ResetState.UpwardReset;\n\t\t\t\tbetaInWei = WEI_DENOMINATOR;\n\t\t\t\tuint excessAInWei = navAInWei.sub(WEI_DENOMINATOR);\n\t\t\t\tuint excessBInWei = navBInWei.sub(WEI_DENOMINATOR);\n\t\t\t\t// excessive B is enough to cover excessive A\n\t\t\t\t//if (excessBInWei >= excessAInWei) {\n\t\t\t\tuint excessBAfterAInWei = excessBInWei.sub(excessAInWei);\n\t\t\t\tnewAFromAPerA = excessAInWei;\n\t\t\t\tnewBFromAPerA = 0;\n\t\t\t\tuint newBFromExcessBPerB = excessBAfterAInWei.mul(betaInWei).div(bAdj);\n\t\t\t\tnewAFromBPerB = newBFromExcessBPerB.mul(alphaInBP).div(BP_DENOMINATOR);\n\t\t\t\tnewBFromBPerB = excessAInWei.add(newBFromExcessBPerB);\t\t\t\n\t\t\t\t// ignore this case for now as it requires a very high coupon rate \n\t\t\t\t// and very low upper limit for upward reset and a very high periodic limit\n\t\t\t\t/*} else {\n\t\t\t\t\tuint excessAForBInWei = excessBInWei.mul(alphaInBP).div(BP_DENOMINATOR);\n\t\t\t\t\tuint excessAAfterBInWei = excessAInWei.sub(excessAForBInWei);\n\t\t\t\t\tnewAFromBPerB = 0;\n\t\t\t\t\tnewBFromBPerB = excessBInWei;\n\t\t\t\t\tnewBFromAPerA = excessAAfterBInWei.mul(betaInWei).div(bAdj);\n\t\t\t\t\tnewAFromAPerA = excessAForBInWei.add(newBFromAPerA.mul(alphaInBP).div(BP_DENOMINATOR));\n\t\t\t\t}*/\n\t\t\t\t// adjust total supply\n\t\t\t\ttotalSupplyA = totalSupplyA\n\t\t\t\t\t.add(totalSupplyA\n\t\t\t\t\t\t.mul(newAFromAPerA)\n\t\t\t\t\t\t.add(totalSupplyB\n\t\t\t\t\t\t\t.mul(newAFromBPerB))\n\t\t\t\t\t\t.div(WEI_DENOMINATOR)\n\t\t\t\t);\n\t\t\t\ttotalSupplyB = totalSupplyB\n\t\t\t\t\t.add(totalSupplyA\n\t\t\t\t\t\t.mul(newBFromAPerA)\n\t\t\t\t\t\t.add(totalSupplyB\n\t\t\t\t\t\t\t.mul(newBFromBPerB))\n\t\t\t\t\t\t.div(WEI_DENOMINATOR)\n\t\t\t\t);\n\t\t\t} else if(navBInWei <= limitLowerInWei) {\n\t\t\t\tstate = State.Reset;\n\t\t\t\tresetState = ResetState.DownwardReset;\n\t\t\t\tbetaInWei = WEI_DENOMINATOR;\n\t\t\t\tnewBFromAPerA = navAInWei.sub(navBInWei).mul(betaInWei).div(bAdj);\n\t\t\t\t// below are not used and set to 0\n\t\t\t\tnewAFromAPerA = 0;\n\t\t\t\tnewBFromBPerB = 0;\n\t\t\t\tnewAFromBPerB = 0;\n\t\t\t\t// adjust total supply\n\t\t\t\tnewBFromA = totalSupplyA.mul(newBFromAPerA).div(WEI_DENOMINATOR);\n\t\t\t\tnewAFromA = newBFromA.mul(alphaInBP).div(BP_DENOMINATOR);\n\t\t\t\ttotalSupplyA = totalSupplyA.mul(navBInWei).div(WEI_DENOMINATOR).add(newAFromA);\n\t\t\t\ttotalSupplyB = totalSupplyB.mul(navBInWei).div(WEI_DENOMINATOR).add(newBFromA);\n\t\t\t} else { // navAInWei >= limitPeriodicInWei\n\t\t\t\tstate = State.Reset;\n\t\t\t\tresetState = ResetState.PeriodicReset;\n\t\t\t\tuint num = alphaInBP\n\t\t\t\t\t.add(BP_DENOMINATOR)\n\t\t\t\t\t.mul(lastPriceInWei);\n\t\t\t\tuint den = num\n\t\t\t\t\t.sub(\n\t\t\t\t\t\tresetPriceInWei\n\t\t\t\t\t\t\t.mul(alphaInBP)\n\t\t\t\t\t\t\t.mul(betaInWei)\n\t\t\t\t\t\t\t.mul(navAInWei\n\t\t\t\t\t\t\t\t.sub(WEI_DENOMINATOR))\n\t\t\t\t\t\t\t.div(WEI_DENOMINATOR)\n\t\t\t\t\t\t\t.div(WEI_DENOMINATOR)\n\t\t\t\t);\n\t\t\t\tbetaInWei = betaInWei.mul(num).div(den);\n\t\t\t\tnewBFromAPerA = navAInWei.sub(WEI_DENOMINATOR).mul(betaInWei).div(bAdj);\n\t\t\t\t// below are not used and set to 0\n\t\t\t\tnewBFromBPerB = 0;\n\t\t\t\tnewAFromAPerA = 0;\n\t\t\t\tnewAFromBPerB = 0;\n\t\t\t\t// adjust total supply\n\t\t\t\tnewBFromA = totalSupplyA.mul(newBFromAPerA).div(WEI_DENOMINATOR);\n\t\t\t\tnewAFromA = newBFromA.mul(alphaInBP).div(BP_DENOMINATOR);\n\t\t\t\ttotalSupplyA = totalSupplyA.add(newAFromA);\n\t\t\t\ttotalSupplyB = totalSupplyB.add(newBFromA);\n\t\t\t}\n\n\t\t\temit TotalSupply(totalSupplyA, totalSupplyB);\n\n\t\t\temit StartReset(nextResetAddrIndex, users.length);\n\t\t} else \n\t\t\temit StartPreReset();\n\n\t\treturn true;\n\t}\n\n\tfunction startReset() public inState(State.Reset) returns (bool success) {\n\t\tuint currentBalanceA;\n\t\tuint currentBalanceB;\n\t\tuint newBalanceA;\n\t\tuint newBalanceB;\n\t\tuint newAFromA;\n\t\tuint newBFromA;\n\t\taddress currentAddress;\n\t\tuint localResetAddrIndex = nextResetAddrIndex;\n\t\twhile (localResetAddrIndex < users.length && gasleft() > iterationGasThreshold) {\n\t\t\tcurrentAddress = users[localResetAddrIndex];\n\t\t\tcurrentBalanceA = balanceOf[0][currentAddress];\n\t\t\tcurrentBalanceB = balanceOf[1][currentAddress];\n\t\t\tif (resetState == ResetState.DownwardReset) {\n\t\t\t\tnewBFromA = currentBalanceA.mul(newBFromAPerA).div(WEI_DENOMINATOR);\n\t\t\t\tnewAFromA = newBFromA.mul(alphaInBP).div(BP_DENOMINATOR);\n\t\t\t\tnewBalanceA = currentBalanceA.mul(navBInWei).div(WEI_DENOMINATOR).add(newAFromA);\n\t\t\t\tnewBalanceB = currentBalanceB.mul(navBInWei).div(WEI_DENOMINATOR).add(newBFromA);\n\t\t\t}\n\t\t\telse if (resetState == ResetState.UpwardReset) {\n\t\t\t\tnewBalanceA = currentBalanceA\n\t\t\t\t\t.add(currentBalanceA\n\t\t\t\t\t\t.mul(newAFromAPerA)\n\t\t\t\t\t\t.add(currentBalanceB\n\t\t\t\t\t\t\t.mul(newAFromBPerB))\n\t\t\t\t\t\t.div(WEI_DENOMINATOR)\n\t\t\t\t);\n\t\t\t\tnewBalanceB = currentBalanceB\n\t\t\t\t\t.add(currentBalanceA\n\t\t\t\t\t\t.mul(newBFromAPerA)\n\t\t\t\t\t\t.add(currentBalanceB\n\t\t\t\t\t\t\t.mul(newBFromBPerB))\n\t\t\t\t\t\t.div(WEI_DENOMINATOR)\n\t\t\t\t);\n\t\t\t} else {\n\t\t\t\tnewBFromA = currentBalanceA.mul(newBFromAPerA).div(WEI_DENOMINATOR);\n\t\t\t\tnewAFromA = newBFromA.mul(alphaInBP).div(BP_DENOMINATOR);\n\t\t\t\tnewBalanceA = currentBalanceA.add(newAFromA);\n\t\t\t\tnewBalanceB = currentBalanceB.add(newBFromA);\n\t\t\t}\n\n\t\t\tbalanceOf[0][currentAddress] = newBalanceA;\n\t\t\tbalanceOf[1][currentAddress] = newBalanceB;\n\t\t\tlocalResetAddrIndex++;\n\t\t}\n\n\t\tif (localResetAddrIndex >= users.length) {\n\t\t\tif (resetState != ResetState.PeriodicReset) {\n\t\t\t\tresetPriceInWei = lastPriceInWei;\n\t\t\t\tnavBInWei = WEI_DENOMINATOR;\n\t\t\t}\n\t\t\tresetPriceTimeInSecond = lastPriceTimeInSecond;\n\t\t\t\n\t\t\tnavAInWei = WEI_DENOMINATOR;\n\t\t\tnextResetAddrIndex = 0;\n\n\t\t\tstate = State.Trading;\n\t\t\temit StartTrading(navAInWei, navBInWei);\n\t\t\treturn true;\n\t\t} else {\n\t\t\tnextResetAddrIndex = localResetAddrIndex;\n\t\t\temit StartReset(localResetAddrIndex, users.length);\n\t\t\treturn false;\n\t\t}\n\t}\n\t// end of reset function\n\n\t// start of operator functions\n\tfunction setValue(uint idx, uint newValue) public only(operator) inState(State.Trading) inUpdateWindow() returns (bool success) {\n\t\tuint oldValue;\n\t\tif (idx == 0) {\n\t\t\trequire(newValue <= BP_DENOMINATOR);\n\t\t\toldValue = createCommInBP;\n\t\t\tcreateCommInBP = newValue;\n\t\t} else if (idx == 1) {\n\t\t\trequire(newValue <= BP_DENOMINATOR);\n\t\t\toldValue = redeemCommInBP;\n\t\t\tredeemCommInBP = newValue;\n\t\t} else if (idx == 2) {\n\t\t\toldValue = iterationGasThreshold;\n\t\t\titerationGasThreshold = newValue;\n\t\t} else if (idx == 3) {\n\t\t\toldValue = preResetWaitingBlocks;\n\t\t\tpreResetWaitingBlocks = newValue;\n\t\t} else {\n\t\t\trevert();\n\t\t}\n\n\t\temit SetValue(idx, oldValue, newValue);\n\t\treturn true;\n\t}\n\t// end of operator functions\n\n\tfunction getStates() public view returns (uint[29]) {\n\t\treturn [\n\t\t\t// managed\n\t\t\tlastOperationTime,\n\t\t\toperationCoolDown,\n\t\t\t// custodian\n\t\t\tuint(state),\n\t\t\tminBalance,\n\t\t\ttotalSupplyA,\n\t\t\ttotalSupplyB,\n\t\t\tethCollateralInWei,\n\t\t\tnavAInWei,\n\t\t\tnavBInWei,\n\t\t\tlastPriceInWei,\n\t\t\tlastPriceTimeInSecond,\n\t\t\tresetPriceInWei,\n\t\t\tresetPriceTimeInSecond,\n\t\t\tcreateCommInBP,\n\t\t\tredeemCommInBP,\n\t\t\tperiod,\n\t\t\tpreResetWaitingBlocks,\n\t\t\tpriceFetchCoolDown,\n\t\t\tnextResetAddrIndex,\n\t\t\ttotalUsers(),\n\t\t\tfeeBalanceInWei(),\n\t\t\t// beethovan\n\t\t\tuint(resetState),\n\t\t\talphaInBP,\n\t\t\tbetaInWei,\n\t\t\tperiodCouponInWei, \n\t\t\tlimitPeriodicInWei, \n\t\t\tlimitUpperInWei, \n\t\t\tlimitLowerInWei,\n\t\t\titerationGasThreshold\n\t\t];\n\t}\n\n\tfunction getAddresses() public view returns (address[6]) {\n\t\treturn [\n\t\t\t// managed\n\t\t\troleManagerAddress,\n\t\t\toperator,\n\t\t\t// custodian\n\t\t\tfeeCollector,\n\t\t\toracleAddress,\n\t\t\taTokenAddress,\n\t\t\tbTokenAddress\n\t\t];\n\t}\n}\n",
  "sourcePath": "C:\\dev\\coinFront\\duo-contract\\contracts\\custodians\\Beethoven.sol",
  "compiler": {
    "name": "solc",
    "version": "0.4.24+commit.e67f0147.Emscripten.clang"
  },
  "schemaVersion": "3.0.0-beta.0",
  "updatedAt": "2018-11-12T09:14:29.411Z"
}