{
  "contractName": "Custodian",
  "abi": [
    {
      "constant": true,
      "inputs": [
        {
          "name": "",
          "type": "uint256"
        },
        {
          "name": "",
          "type": "address"
        },
        {
          "name": "",
          "type": "address"
        }
      ],
      "name": "allowance",
      "outputs": [
        {
          "name": "",
          "type": "uint256"
        }
      ],
      "payable": false,
      "stateMutability": "view",
      "type": "function"
    },
    {
      "constant": false,
      "inputs": [
        {
          "name": "newManagerAddr",
          "type": "address"
        }
      ],
      "name": "updateRoleManager",
      "outputs": [
        {
          "name": "",
          "type": "bool"
        }
      ],
      "payable": false,
      "stateMutability": "nonpayable",
      "type": "function"
    },
    {
      "constant": true,
      "inputs": [],
      "name": "totalSupplyB",
      "outputs": [
        {
          "name": "",
          "type": "uint256"
        }
      ],
      "payable": false,
      "stateMutability": "view",
      "type": "function"
    },
    {
      "constant": true,
      "inputs": [],
      "name": "lastOperationTime",
      "outputs": [
        {
          "name": "",
          "type": "uint256"
        }
      ],
      "payable": false,
      "stateMutability": "view",
      "type": "function"
    },
    {
      "constant": true,
      "inputs": [
        {
          "name": "",
          "type": "uint256"
        },
        {
          "name": "",
          "type": "address"
        }
      ],
      "name": "balanceOf",
      "outputs": [
        {
          "name": "",
          "type": "uint256"
        }
      ],
      "payable": false,
      "stateMutability": "view",
      "type": "function"
    },
    {
      "constant": true,
      "inputs": [
        {
          "name": "",
          "type": "uint256"
        }
      ],
      "name": "users",
      "outputs": [
        {
          "name": "",
          "type": "address"
        }
      ],
      "payable": false,
      "stateMutability": "view",
      "type": "function"
    },
    {
      "constant": true,
      "inputs": [],
      "name": "operationCoolDown",
      "outputs": [
        {
          "name": "",
          "type": "uint256"
        }
      ],
      "payable": false,
      "stateMutability": "view",
      "type": "function"
    },
    {
      "constant": true,
      "inputs": [],
      "name": "operator",
      "outputs": [
        {
          "name": "",
          "type": "address"
        }
      ],
      "payable": false,
      "stateMutability": "view",
      "type": "function"
    },
    {
      "constant": true,
      "inputs": [],
      "name": "totalSupplyA",
      "outputs": [
        {
          "name": "",
          "type": "uint256"
        }
      ],
      "payable": false,
      "stateMutability": "view",
      "type": "function"
    },
    {
      "constant": true,
      "inputs": [
        {
          "name": "",
          "type": "address"
        }
      ],
      "name": "existingUsers",
      "outputs": [
        {
          "name": "",
          "type": "uint256"
        }
      ],
      "payable": false,
      "stateMutability": "view",
      "type": "function"
    },
    {
      "constant": true,
      "inputs": [],
      "name": "roleManagerAddress",
      "outputs": [
        {
          "name": "",
          "type": "address"
        }
      ],
      "payable": false,
      "stateMutability": "view",
      "type": "function"
    },
    {
      "constant": false,
      "inputs": [],
      "name": "updateOperator",
      "outputs": [
        {
          "name": "",
          "type": "bool"
        }
      ],
      "payable": false,
      "stateMutability": "nonpayable",
      "type": "function"
    },
    {
      "inputs": [
        {
          "name": "roleManagerAddr",
          "type": "address"
        },
        {
          "name": "fc",
          "type": "address"
        },
        {
          "name": "comm",
          "type": "uint256"
        },
        {
          "name": "pd",
          "type": "uint256"
        },
        {
          "name": "preResetWaitBlk",
          "type": "uint256"
        },
        {
          "name": "pxFetchCoolDown",
          "type": "uint256"
        },
        {
          "name": "opt",
          "type": "address"
        },
        {
          "name": "optCoolDown",
          "type": "uint256"
        },
        {
          "name": "minimumBalance",
          "type": "uint256"
        }
      ],
      "payable": false,
      "stateMutability": "nonpayable",
      "type": "constructor"
    },
    {
      "anonymous": false,
      "inputs": [
        {
          "indexed": false,
          "name": "navAInWei",
          "type": "uint256"
        },
        {
          "indexed": false,
          "name": "navBInWei",
          "type": "uint256"
        }
      ],
      "name": "StartTrading",
      "type": "event"
    },
    {
      "anonymous": false,
      "inputs": [],
      "name": "StartPreReset",
      "type": "event"
    },
    {
      "anonymous": false,
      "inputs": [
        {
          "indexed": false,
          "name": "nextIndex",
          "type": "uint256"
        },
        {
          "indexed": false,
          "name": "total",
          "type": "uint256"
        }
      ],
      "name": "StartReset",
      "type": "event"
    },
    {
      "anonymous": false,
      "inputs": [
        {
          "indexed": true,
          "name": "priceInWei",
          "type": "uint256"
        },
        {
          "indexed": true,
          "name": "timeInSecond",
          "type": "uint256"
        },
        {
          "indexed": false,
          "name": "navAInWei",
          "type": "uint256"
        },
        {
          "indexed": false,
          "name": "navBInWei",
          "type": "uint256"
        }
      ],
      "name": "AcceptPrice",
      "type": "event"
    },
    {
      "anonymous": false,
      "inputs": [
        {
          "indexed": true,
          "name": "sender",
          "type": "address"
        },
        {
          "indexed": false,
          "name": "ethAmtInWei",
          "type": "uint256"
        },
        {
          "indexed": false,
          "name": "tokenAInWei",
          "type": "uint256"
        },
        {
          "indexed": false,
          "name": "tokenBInWei",
          "type": "uint256"
        },
        {
          "indexed": false,
          "name": "feeInWei",
          "type": "uint256"
        }
      ],
      "name": "Create",
      "type": "event"
    },
    {
      "anonymous": false,
      "inputs": [
        {
          "indexed": true,
          "name": "sender",
          "type": "address"
        },
        {
          "indexed": false,
          "name": "ethAmtInWei",
          "type": "uint256"
        },
        {
          "indexed": false,
          "name": "tokenAInWei",
          "type": "uint256"
        },
        {
          "indexed": false,
          "name": "tokenBInWei",
          "type": "uint256"
        },
        {
          "indexed": false,
          "name": "feeInWei",
          "type": "uint256"
        }
      ],
      "name": "Redeem",
      "type": "event"
    },
    {
      "anonymous": false,
      "inputs": [
        {
          "indexed": false,
          "name": "totalSupplyAInWei",
          "type": "uint256"
        },
        {
          "indexed": false,
          "name": "totalSupplyBInWei",
          "type": "uint256"
        }
      ],
      "name": "TotalSupply",
      "type": "event"
    },
    {
      "anonymous": false,
      "inputs": [
        {
          "indexed": true,
          "name": "from",
          "type": "address"
        },
        {
          "indexed": true,
          "name": "to",
          "type": "address"
        },
        {
          "indexed": false,
          "name": "value",
          "type": "uint256"
        },
        {
          "indexed": false,
          "name": "index",
          "type": "uint256"
        }
      ],
      "name": "Transfer",
      "type": "event"
    },
    {
      "anonymous": false,
      "inputs": [
        {
          "indexed": true,
          "name": "tokenOwner",
          "type": "address"
        },
        {
          "indexed": true,
          "name": "spender",
          "type": "address"
        },
        {
          "indexed": false,
          "name": "tokens",
          "type": "uint256"
        },
        {
          "indexed": false,
          "name": "index",
          "type": "uint256"
        }
      ],
      "name": "Approval",
      "type": "event"
    },
    {
      "anonymous": false,
      "inputs": [
        {
          "indexed": false,
          "name": "addr",
          "type": "address"
        },
        {
          "indexed": false,
          "name": "feeInWei",
          "type": "uint256"
        },
        {
          "indexed": false,
          "name": "feeBalanceInWei",
          "type": "uint256"
        }
      ],
      "name": "CollectFee",
      "type": "event"
    },
    {
      "anonymous": false,
      "inputs": [
        {
          "indexed": false,
          "name": "newOracleAddress",
          "type": "address"
        }
      ],
      "name": "UpdateOracle",
      "type": "event"
    },
    {
      "anonymous": false,
      "inputs": [
        {
          "indexed": false,
          "name": "updater",
          "type": "address"
        },
        {
          "indexed": false,
          "name": "newFeeCollector",
          "type": "address"
        }
      ],
      "name": "UpdateFeeCollector",
      "type": "event"
    },
    {
      "anonymous": false,
      "inputs": [
        {
          "indexed": false,
          "name": "newManagerAddress",
          "type": "address"
        }
      ],
      "name": "UpdateRoleManager",
      "type": "event"
    },
    {
      "anonymous": false,
      "inputs": [
        {
          "indexed": false,
          "name": "updater",
          "type": "address"
        },
        {
          "indexed": false,
          "name": "newOperator",
          "type": "address"
        }
      ],
      "name": "UpdateOperator",
      "type": "event"
    },
    {
      "constant": true,
      "inputs": [],
      "name": "totalUsers",
      "outputs": [
        {
          "name": "",
          "type": "uint256"
        }
      ],
      "payable": false,
      "stateMutability": "view",
      "type": "function"
    },
    {
      "constant": true,
      "inputs": [],
      "name": "feeBalanceInWei",
      "outputs": [
        {
          "name": "",
          "type": "uint256"
        }
      ],
      "payable": false,
      "stateMutability": "view",
      "type": "function"
    },
    {
      "constant": false,
      "inputs": [
        {
          "name": "index",
          "type": "uint256"
        },
        {
          "name": "from",
          "type": "address"
        },
        {
          "name": "to",
          "type": "address"
        },
        {
          "name": "tokens",
          "type": "uint256"
        }
      ],
      "name": "transfer",
      "outputs": [
        {
          "name": "success",
          "type": "bool"
        }
      ],
      "payable": false,
      "stateMutability": "nonpayable",
      "type": "function"
    },
    {
      "constant": false,
      "inputs": [
        {
          "name": "index",
          "type": "uint256"
        },
        {
          "name": "spender",
          "type": "address"
        },
        {
          "name": "from",
          "type": "address"
        },
        {
          "name": "to",
          "type": "address"
        },
        {
          "name": "tokens",
          "type": "uint256"
        }
      ],
      "name": "transferFrom",
      "outputs": [
        {
          "name": "success",
          "type": "bool"
        }
      ],
      "payable": false,
      "stateMutability": "nonpayable",
      "type": "function"
    },
    {
      "constant": false,
      "inputs": [
        {
          "name": "index",
          "type": "uint256"
        },
        {
          "name": "sender",
          "type": "address"
        },
        {
          "name": "spender",
          "type": "address"
        },
        {
          "name": "tokens",
          "type": "uint256"
        }
      ],
      "name": "approve",
      "outputs": [
        {
          "name": "success",
          "type": "bool"
        }
      ],
      "payable": false,
      "stateMutability": "nonpayable",
      "type": "function"
    },
    {
      "constant": false,
      "inputs": [
        {
          "name": "amountInWei",
          "type": "uint256"
        }
      ],
      "name": "collectFee",
      "outputs": [
        {
          "name": "success",
          "type": "bool"
        }
      ],
      "payable": false,
      "stateMutability": "nonpayable",
      "type": "function"
    },
    {
      "constant": false,
      "inputs": [
        {
          "name": "newOracleAddr",
          "type": "address"
        }
      ],
      "name": "updateOracle",
      "outputs": [
        {
          "name": "",
          "type": "bool"
        }
      ],
      "payable": false,
      "stateMutability": "nonpayable",
      "type": "function"
    },
    {
      "constant": false,
      "inputs": [],
      "name": "updateFeeCollector",
      "outputs": [
        {
          "name": "",
          "type": "bool"
        }
      ],
      "payable": false,
      "stateMutability": "nonpayable",
      "type": "function"
    }
  ],
  "bytecode": "0x6080604052662386f26fc10000601155600060205534801561002057600080fd5b50604051610120806125f583398101806040528101908080519060200190929190805190602001909291908051906020019092919080519060200190929190805190602001909291908051906020019092919080519060200190929190805190602001909291908051906020019092919050505088838382600160006101000a81548173ffffffffffffffffffffffffffffffffffffffff021916908373ffffffffffffffffffffffffffffffffffffffff160217905550826000806101000a81548173ffffffffffffffffffffffffffffffffffffffff021916908373ffffffffffffffffffffffffffffffffffffffff16021790555081600260006101000a81548173ffffffffffffffffffffffffffffffffffffffff021916908373ffffffffffffffffffffffffffffffffffffffff160217905550806004819055505050506000601060006101000a81548160ff0219169083600381111561018257fe5b021790555087600660006101000a81548173ffffffffffffffffffffffffffffffffffffffff021916908373ffffffffffffffffffffffffffffffffffffffff16021790555086601b8190555086601c8190555085601d8190555084601e8190555083601f81905550670de0b6b3a7640000601581905550670de0b6b3a7640000601681905550806011819055505050505050505050506123cd806102286000396000f300608060405260043610610112576000357c0100000000000000000000000000000000000000000000000000000000900463ffffffff1680630565f7c0146101175780630a23b9b1146101465780630d550b75146101f55780630f36a16d1461027657806315ed0793146102d157806316d43a97146102fc5780631cb44dfc146103275780633656eec214610382578063365b98b2146103e357806336cd52a6146104505780635623732e146104df578063570ca7351461050a5780636c67b21e14610561578063912be04b1461058c578063a969ff0a146105b7578063b337f8cc146105fc578063bff1f9e114610653578063d33b8d231461067e578063d5934b76146106d5578063f20f76ba14610704575b600080fd5b34801561012357600080fd5b5061012c610793565b604051808215151515815260200191505060405180910390f35b34801561015257600080fd5b506101db60048036038101908080359060200190929190803573ffffffffffffffffffffffffffffffffffffffff169060200190929190803573ffffffffffffffffffffffffffffffffffffffff169060200190929190803573ffffffffffffffffffffffffffffffffffffffff169060200190929190803590602001909291905050506109c3565b604051808215151515815260200191505060405180910390f35b34801561020157600080fd5b5061026060048036038101908080359060200190929190803573ffffffffffffffffffffffffffffffffffffffff169060200190929190803573ffffffffffffffffffffffffffffffffffffffff169060200190929190505050610bfe565b6040518082815260200191505060405180910390f35b34801561028257600080fd5b506102b7600480360381019080803573ffffffffffffffffffffffffffffffffffffffff169060200190929190505050610c32565b604051808215151515815260200191505060405180910390f35b3480156102dd57600080fd5b506102e6610f52565b6040518082815260200191505060405180910390f35b34801561030857600080fd5b50610311610f58565b6040518082815260200191505060405180910390f35b34801561033357600080fd5b50610368600480360381019080803573ffffffffffffffffffffffffffffffffffffffff169060200190929190505050610f5e565b604051808215151515815260200191505060405180910390f35b34801561038e57600080fd5b506103cd60048036038101908080359060200190929190803573ffffffffffffffffffffffffffffffffffffffff169060200190929190505050611384565b6040518082815260200191505060405180910390f35b3480156103ef57600080fd5b5061040e600480360381019080803590602001909291905050506113ab565b604051808273ffffffffffffffffffffffffffffffffffffffff1673ffffffffffffffffffffffffffffffffffffffff16815260200191505060405180910390f35b34801561045c57600080fd5b506104c560048036038101908080359060200190929190803573ffffffffffffffffffffffffffffffffffffffff169060200190929190803573ffffffffffffffffffffffffffffffffffffffff169060200190929190803590602001909291905050506113e9565b604051808215151515815260200191505060405180910390f35b3480156104eb57600080fd5b506104f461145a565b6040518082815260200191505060405180910390f35b34801561051657600080fd5b5061051f611460565b604051808273ffffffffffffffffffffffffffffffffffffffff1673ffffffffffffffffffffffffffffffffffffffff16815260200191505060405180910390f35b34801561056d57600080fd5b50610576611486565b6040518082815260200191505060405180910390f35b34801561059857600080fd5b506105a161148c565b6040518082815260200191505060405180910390f35b3480156105c357600080fd5b506105e2600480360381019080803590602001909291905050506114bf565b604051808215151515815260200191505060405180910390f35b34801561060857600080fd5b5061063d600480360381019080803573ffffffffffffffffffffffffffffffffffffffff16906020019092919050505061167a565b6040518082815260200191505060405180910390f35b34801561065f57600080fd5b50610668611692565b6040518082815260200191505060405180910390f35b34801561068a57600080fd5b5061069361169f565b604051808273ffffffffffffffffffffffffffffffffffffffff1673ffffffffffffffffffffffffffffffffffffffff16815260200191505060405180910390f35b3480156106e157600080fd5b506106ea6116c5565b604051808215151515815260200191505060405180910390f35b34801561071057600080fd5b5061077960048036038101908080359060200190929190803573ffffffffffffffffffffffffffffffffffffffff169060200190929190803573ffffffffffffffffffffffffffffffffffffffff169060200190929190803590602001909291905050506118f5565b604051808215151515815260200191505060405180910390f35b60008060006107a0611a27565b90506004546003548203101515156107b757600080fd5b3391506000809054906101000a900473ffffffffffffffffffffffffffffffffffffffff1673ffffffffffffffffffffffffffffffffffffffff1663d04787a78360006040518363ffffffff167c0100000000000000000000000000000000000000000000000000000000028152600401808373ffffffffffffffffffffffffffffffffffffffff1673ffffffffffffffffffffffffffffffffffffffff16815260200182815260200192505050602060405180830381600087803b15801561087f57600080fd5b505af1158015610893573d6000803e3d6000fd5b505050506040513d60208110156108a957600080fd5b8101908080519060200190929190505050600660006101000a81548173ffffffffffffffffffffffffffffffffffffffff021916908373ffffffffffffffffffffffffffffffffffffffff1602179055507fcc882185e6edeeb762130016ea1faf3d7aa9c01b199bfd646f965b58ab74106382600660009054906101000a900473ffffffffffffffffffffffffffffffffffffffff16604051808373ffffffffffffffffffffffffffffffffffffffff1673ffffffffffffffffffffffffffffffffffffffff1681526020018273ffffffffffffffffffffffffffffffffffffffff1673ffffffffffffffffffffffffffffffffffffffff1681526020019250505060405180910390a16001925080600381905550505090565b60008060018060038111156109d457fe5b601060009054906101000a900460ff1660038111156109ef57fe5b1415156109fb57600080fd5b6000881480610a0a5750600188145b1515610a1557600080fd5b610a1f8888611a2f565b9150600c88600281101515610a3057fe5b0160008773ffffffffffffffffffffffffffffffffffffffff1673ffffffffffffffffffffffffffffffffffffffff16815260200190815260200160002060008373ffffffffffffffffffffffffffffffffffffffff1673ffffffffffffffffffffffffffffffffffffffff168152602001908152602001600020548411151515610aba57600080fd5b610b5784600c8a600281101515610acd57fe5b0160008973ffffffffffffffffffffffffffffffffffffffff1673ffffffffffffffffffffffffffffffffffffffff16815260200190815260200160002060008573ffffffffffffffffffffffffffffffffffffffff1673ffffffffffffffffffffffffffffffffffffffff16815260200190815260200160002054611b0590919063ffffffff16565b600c89600281101515610b6657fe5b0160008873ffffffffffffffffffffffffffffffffffffffff1673ffffffffffffffffffffffffffffffffffffffff16815260200190815260200160002060008473ffffffffffffffffffffffffffffffffffffffff1673ffffffffffffffffffffffffffffffffffffffff16815260200190815260200160002081905550610bf188878787611b1e565b9250505095945050505050565b600c83600281101515610c0d57fe5b0160205281600052604060002060205280600052604060002060009250925050505481565b600080610c3d611a27565b9050600454600354820310151515610c5457600080fd5b6000809054906101000a900473ffffffffffffffffffffffffffffffffffffffff1673ffffffffffffffffffffffffffffffffffffffff1663b0a93414846040518263ffffffff167c0100000000000000000000000000000000000000000000000000000000028152600401808273ffffffffffffffffffffffffffffffffffffffff1673ffffffffffffffffffffffffffffffffffffffff168152602001915050602060405180830381600087803b158015610d1057600080fd5b505af1158015610d24573d6000803e3d6000fd5b505050506040513d6020811015610d3a57600080fd5b81019080805190602001909291905050501515610d5657600080fd5b82600160006101000a81548173ffffffffffffffffffffffffffffffffffffffff021916908373ffffffffffffffffffffffffffffffffffffffff160217905550600160009054906101000a900473ffffffffffffffffffffffffffffffffffffffff166000806101000a81548173ffffffffffffffffffffffffffffffffffffffff021916908373ffffffffffffffffffffffffffffffffffffffff16021790555060008060009054906101000a900473ffffffffffffffffffffffffffffffffffffffff1673ffffffffffffffffffffffffffffffffffffffff1663387439046040518163ffffffff167c0100000000000000000000000000000000000000000000000000000000028152600401602060405180830381600087803b158015610e8057600080fd5b505af1158015610e94573d6000803e3d6000fd5b505050506040513d6020811015610eaa57600080fd5b810190808051906020019092919050505073ffffffffffffffffffffffffffffffffffffffff1614151515610ede57600080fd5b7fce93baa0b608a7d420822b6b90cfcccb70574363ba4fd26ef5ac17dd465016c483604051808273ffffffffffffffffffffffffffffffffffffffff1673ffffffffffffffffffffffffffffffffffffffff16815260200191505060405180910390a1600191508060038190555050919050565b60135481565b60035481565b60008060008060009054906101000a900473ffffffffffffffffffffffffffffffffffffffff1673ffffffffffffffffffffffffffffffffffffffff1663387439046040518163ffffffff167c0100000000000000000000000000000000000000000000000000000000028152600401602060405180830381600087803b158015610fe857600080fd5b505af1158015610ffc573d6000803e3d6000fd5b505050506040513d602081101561101257600080fd5b81019080805190602001909291905050508073ffffffffffffffffffffffffffffffffffffffff163373ffffffffffffffffffffffffffffffffffffffff1614151561105d57600080fd5b6000611067611a27565b905060045460035482031015151561107e57600080fd5b6000809054906101000a900473ffffffffffffffffffffffffffffffffffffffff1673ffffffffffffffffffffffffffffffffffffffff1663b0a93414876040518263ffffffff167c0100000000000000000000000000000000000000000000000000000000028152600401808273ffffffffffffffffffffffffffffffffffffffff1673ffffffffffffffffffffffffffffffffffffffff168152602001915050602060405180830381600087803b15801561113a57600080fd5b505af115801561114e573d6000803e3d6000fd5b505050506040513d602081101561116457600080fd5b8101908080519060200190929190505050151561118057600080fd5b85600760006101000a81548173ffffffffffffffffffffffffffffffffffffffff021916908373ffffffffffffffffffffffffffffffffffffffff160217905550600760009054906101000a900473ffffffffffffffffffffffffffffffffffffffff16600560006101000a81548173ffffffffffffffffffffffffffffffffffffffff021916908373ffffffffffffffffffffffffffffffffffffffff160217905550600560009054906101000a900473ffffffffffffffffffffffffffffffffffffffff1673ffffffffffffffffffffffffffffffffffffffff1663d8cf24fd6040518163ffffffff167c01000000000000000000000000000000000000000000000000000000000281526004016040805180830381600087803b1580156112a957600080fd5b505af11580156112bd573d6000803e3d6000fd5b505050506040513d60408110156112d357600080fd5b810190808051906020019092919080519060200190929190505050935093506000841180156113025750600083115b151561130d57600080fd5b7f09ad0a3595604db9b7aef0dbd4918cea3642b96bc65ad7c9fb501a1529becd7986604051808273ffffffffffffffffffffffffffffffffffffffff1673ffffffffffffffffffffffffffffffffffffffff16815260200191505060405180910390a1600194508060038190555050505050919050565b600a8260028110151561139357fe5b01602052806000526040600020600091509150505481565b600e818154811015156113ba57fe5b906000526020600020016000915054906101000a900473ffffffffffffffffffffffffffffffffffffffff1681565b600060018060038111156113f957fe5b601060009054906101000a900460ff16600381111561141457fe5b14151561142057600080fd5b600086148061142f5750600186145b151561143a57600080fd5b61144f866114488888611a2f565b8686611b1e565b915050949350505050565b60045481565b600260009054906101000a900473ffffffffffffffffffffffffffffffffffffffff1681565b60125481565b60006114ba6014543073ffffffffffffffffffffffffffffffffffffffff1631611b0590919063ffffffff16565b905090565b600080600660009054906101000a900473ffffffffffffffffffffffffffffffffffffffff168073ffffffffffffffffffffffffffffffffffffffff163373ffffffffffffffffffffffffffffffffffffffff1614151561151f57600080fd5b600180600381111561152d57fe5b601060009054906101000a900460ff16600381111561154857fe5b14151561155457600080fd5b61156e8561156061148c565b611b0590919063ffffffff16565b9250600660009054906101000a900473ffffffffffffffffffffffffffffffffffffffff1673ffffffffffffffffffffffffffffffffffffffff166108fc869081150290604051600060405180830381858888f193505050501580156115d8573d6000803e3d6000fd5b507f5b5b4c58fded589766d5845c3cddd53ffcb18bcb7e21933ec1858dddafb2d9a5600660009054906101000a900473ffffffffffffffffffffffffffffffffffffffff168685604051808473ffffffffffffffffffffffffffffffffffffffff1673ffffffffffffffffffffffffffffffffffffffff168152602001838152602001828152602001935050505060405180910390a160019350505050919050565b600f6020528060005260406000206000915090505481565b6000600e80549050905090565b600160009054906101000a900473ffffffffffffffffffffffffffffffffffffffff1681565b60008060006116d2611a27565b90506004546003548203101515156116e957600080fd5b3391506000809054906101000a900473ffffffffffffffffffffffffffffffffffffffff1673ffffffffffffffffffffffffffffffffffffffff1663d04787a78360006040518363ffffffff167c0100000000000000000000000000000000000000000000000000000000028152600401808373ffffffffffffffffffffffffffffffffffffffff1673ffffffffffffffffffffffffffffffffffffffff16815260200182815260200192505050602060405180830381600087803b1580156117b157600080fd5b505af11580156117c5573d6000803e3d6000fd5b505050506040513d60208110156117db57600080fd5b8101908080519060200190929190505050600260006101000a81548173ffffffffffffffffffffffffffffffffffffffff021916908373ffffffffffffffffffffffffffffffffffffffff1602179055507ff7fa3b6184cd955c4d8db1b118f541d29ad3cde98ac41ffac1864077b27acc5b82600260009054906101000a900473ffffffffffffffffffffffffffffffffffffffff16604051808373ffffffffffffffffffffffffffffffffffffffff1673ffffffffffffffffffffffffffffffffffffffff1681526020018273ffffffffffffffffffffffffffffffffffffffff1673ffffffffffffffffffffffffffffffffffffffff1681526020019250505060405180910390a16001925080600381905550505090565b60008060008614806119075750600186145b151561191257600080fd5b61191c8686611a2f565b905082600c8760028110151561192e57fe5b0160008373ffffffffffffffffffffffffffffffffffffffff1673ffffffffffffffffffffffffffffffffffffffff16815260200190815260200160002060008673ffffffffffffffffffffffffffffffffffffffff1673ffffffffffffffffffffffffffffffffffffffff168152602001908152602001600020819055508373ffffffffffffffffffffffffffffffffffffffff168173ffffffffffffffffffffffffffffffffffffffff167fb3fd5071835887567a0671151121894ddccc2842f1d10bedad13e0d17cace9a78589604051808381526020018281526020019250505060405180910390a36001915050949350505050565b600042905090565b60008083148015611a8d5750600860009054906101000a900473ffffffffffffffffffffffffffffffffffffffff1673ffffffffffffffffffffffffffffffffffffffff163373ffffffffffffffffffffffffffffffffffffffff16145b80611af15750600183148015611af05750600960009054906101000a900473ffffffffffffffffffffffffffffffffffffffff1673ffffffffffffffffffffffffffffffffffffffff163373ffffffffffffffffffffffffffffffffffffffff16145b5b611afb5733611afd565b815b905092915050565b6000828211151515611b1357fe5b818303905092915050565b6000806001806003811115611b2f57fe5b601060009054906101000a900460ff166003811115611b4a57fe5b141515611b5657600080fd5b60008573ffffffffffffffffffffffffffffffffffffffff1614151515611b7c57600080fd5b83600a88600281101515611b8c57fe5b0160008873ffffffffffffffffffffffffffffffffffffffff1673ffffffffffffffffffffffffffffffffffffffff1681526020019081526020016000205410151515611bd857600080fd5b611c85600a88600281101515611bea57fe5b0160008773ffffffffffffffffffffffffffffffffffffffff1673ffffffffffffffffffffffffffffffffffffffff16815260200190815260200160002054600a89600281101515611c3857fe5b0160008973ffffffffffffffffffffffffffffffffffffffff1673ffffffffffffffffffffffffffffffffffffffff1681526020019081526020016000205461206b90919063ffffffff16565b9150611ce784600a89600281101515611c9a57fe5b0160008973ffffffffffffffffffffffffffffffffffffffff1673ffffffffffffffffffffffffffffffffffffffff16815260200190815260200160002054611b0590919063ffffffff16565b600a88600281101515611cf657fe5b0160008873ffffffffffffffffffffffffffffffffffffffff1673ffffffffffffffffffffffffffffffffffffffff16815260200190815260200160002081905550611d9884600a89600281101515611d4b57fe5b0160008873ffffffffffffffffffffffffffffffffffffffff1673ffffffffffffffffffffffffffffffffffffffff1681526020019081526020016000205461206b90919063ffffffff16565b600a88600281101515611da757fe5b0160008773ffffffffffffffffffffffffffffffffffffffff1673ffffffffffffffffffffffffffffffffffffffff1681526020019081526020016000208190555081611e97600a89600281101515611dfc57fe5b0160008873ffffffffffffffffffffffffffffffffffffffff1673ffffffffffffffffffffffffffffffffffffffff16815260200190815260200160002054600a8a600281101515611e4a57fe5b0160008a73ffffffffffffffffffffffffffffffffffffffff1673ffffffffffffffffffffffffffffffffffffffff1681526020019081526020016000205461206b90919063ffffffff16565b141515611ea057fe5b8473ffffffffffffffffffffffffffffffffffffffff168673ffffffffffffffffffffffffffffffffffffffff167f9ed053bb818ff08b8353cd46f78db1f0799f31c9e4458fdb425c10eccd2efc44868a604051808381526020018281526020019250505060405180910390a3611fb586600a89600281101515611f2057fe5b0160008973ffffffffffffffffffffffffffffffffffffffff1673ffffffffffffffffffffffffffffffffffffffff16815260200190815260200160002054600a8a600103600281101515611f7157fe5b0160008a73ffffffffffffffffffffffffffffffffffffffff1673ffffffffffffffffffffffffffffffffffffffff16815260200190815260200160002054612089565b61205d85600a89600281101515611fc857fe5b0160008873ffffffffffffffffffffffffffffffffffffffff1673ffffffffffffffffffffffffffffffffffffffff16815260200190815260200160002054600a8a60010360028110151561201957fe5b0160008973ffffffffffffffffffffffffffffffffffffffff1673ffffffffffffffffffffffffffffffffffffffff16815260200190815260200160002054612089565b600192505050949350505050565b600080828401905083811015151561207f57fe5b8091505092915050565b6000806000600f60008773ffffffffffffffffffffffffffffffffffffffff1673ffffffffffffffffffffffffffffffffffffffff168152602001908152602001600020549250600083111561227f57601154851080156120eb575060115484105b1561227a57600e805490509150600e6001830381548110151561210a57fe5b9060005260206000200160009054906101000a900473ffffffffffffffffffffffffffffffffffffffff169050818310156121df5780600e6001850381548110151561215257fe5b9060005260206000200160006101000a81548173ffffffffffffffffffffffffffffffffffffffff021916908373ffffffffffffffffffffffffffffffffffffffff16021790555082600f60008373ffffffffffffffffffffffffffffffffffffffff1673ffffffffffffffffffffffffffffffffffffffff168152602001908152602001600020819055505b600e600183038154811015156121f157fe5b9060005260206000200160006101000a81549073ffffffffffffffffffffffffffffffffffffffff02191690556000600f60008873ffffffffffffffffffffffffffffffffffffffff1673ffffffffffffffffffffffffffffffffffffffff16815260200190815260200160002081905550600e8054809190600190036122789190612350565b505b612348565b6011548510158061229257506011548410155b1561234757600e8690806001815401808255809150509060018203906000526020600020016000909192909190916101000a81548173ffffffffffffffffffffffffffffffffffffffff021916908373ffffffffffffffffffffffffffffffffffffffff16021790555050600e80549050600f60008873ffffffffffffffffffffffffffffffffffffffff1673ffffffffffffffffffffffffffffffffffffffff168152602001908152602001600020819055505b5b505050505050565b81548183558181111561237757818360005260206000209182019101612376919061237c565b5b505050565b61239e91905b8082111561239a576000816000905550600101612382565b5090565b905600a165627a7a723058204f14b8182a20d7073b2e1df47433ad2a81595ae623ded374a75695c913d5d17f0029",
  "source": "pragma solidity ^0.4.24;\nimport { SafeMath } from \"../common/SafeMath.sol\";\nimport { IOracle } from \"../interfaces/IOracle.sol\";\nimport { Managed } from \"../common/Managed.sol\";\n\n/// @title Custodian - every derivative contract should has basic custodian properties\n/// @author duo.network\ncontract Custodian is Managed {\n\tusing SafeMath for uint;\n\n\t/*\n     * Constants\n     */\n\tuint constant decimals = 18;\n\tuint constant WEI_DENOMINATOR = 1000000000000000000;\n\tenum State {\n\t\tInception,\n\t\tTrading,\n\t\tPreReset,\n\t\tReset\n\t}\n\n\t/*\n     * Storage\n     */\n\tIOracle oracle;\n\taddress feeCollector;\n\taddress oracleAddress;\n\taddress aTokenAddress;\n\taddress bTokenAddress;\n\tmapping(address => uint)[2] public balanceOf;\n\tmapping (address => mapping (address => uint))[2] public allowance;\n\taddress[] public users;\n\tmapping (address => uint) public existingUsers;\n\tState state;\n\tuint minBalance = 10000000000000000; // set at constructor\n\tuint public totalSupplyA;\n\tuint public totalSupplyB;\n\tuint ethCollateralInWei;\n\tuint navAInWei;\n\tuint navBInWei;\n\tuint lastPriceInWei;\n\tuint lastPriceTimeInSecond;\n\tuint resetPriceInWei;\n\tuint resetPriceTimeInSecond;\n\tuint createCommInBP;\n\tuint redeemCommInBP;\n\tuint period;\n\tuint preResetWaitingBlocks;\n\tuint priceFetchCoolDown;\n\t\n\t// cycle state variables\n\tuint lastPreResetBlockNo = 0;\n\tuint nextResetAddrIndex;\n\n\t/*\n     *  Modifiers\n     */\n\tmodifier inState(State _state) {\n\t\trequire(state == _state);\n\t\t_;\n\t}\n\n\t/*\n     *  Events\n     */\n\tevent StartTrading(uint navAInWei, uint navBInWei);\n\tevent StartPreReset();\n\tevent StartReset(uint nextIndex, uint total);\n\tevent AcceptPrice(uint indexed priceInWei, uint indexed timeInSecond, uint navAInWei, uint navBInWei);\n\tevent Create(address indexed sender, uint ethAmtInWei, uint tokenAInWei, uint tokenBInWei, uint feeInWei);\n\tevent Redeem(address indexed sender, uint ethAmtInWei, uint tokenAInWei, uint tokenBInWei, uint feeInWei);\n\tevent TotalSupply(uint totalSupplyAInWei, uint totalSupplyBInWei);\n\t// token events\n\tevent Transfer(address indexed from, address indexed to, uint value, uint index);\n\tevent Approval(address indexed tokenOwner, address indexed spender, uint tokens, uint index);\n\t// operation events\n\tevent CollectFee(address addr, uint feeInWei, uint feeBalanceInWei);\n\tevent UpdateOracle(address newOracleAddress);\n\tevent UpdateFeeCollector(address updater, address newFeeCollector);\n\n\t/*\n     *  Constructor\n     */\n\t/// @dev Contract constructor sets operation cool down and set address pool status.\n\t///\t@param roleManagerAddr roleManagerContract Address\n\t///\t@param fc feeCollector address\n\t///\t@param comm commission rate\n\t///\t@param pd period\n\t///\t@param preResetWaitBlk pre reset waiting block numbers\n\t///\t@param pxFetchCoolDown price fetching cool down\n\t///\t@param opt operator\n\t///\t@param optCoolDown operation cooldown\n\tconstructor(\n\t\taddress roleManagerAddr,\n\t\taddress fc,\n\t\tuint comm,\n\t\tuint pd,\n\t\tuint preResetWaitBlk, \n\t\tuint pxFetchCoolDown,\n\t\taddress opt,\n\t\tuint optCoolDown,\n\t\tuint minimumBalance\n\t\t) \n\t\tpublic\n\t\tManaged(roleManagerAddr, opt, optCoolDown) \n\t{\n\t\tstate = State.Inception;\n\t\tfeeCollector = fc;\n\t\tcreateCommInBP = comm;\n\t\tredeemCommInBP = comm;\n\t\tperiod = pd;\n\t\tpreResetWaitingBlocks = preResetWaitBlk;\n\t\tpriceFetchCoolDown = pxFetchCoolDown;\n\t\tnavAInWei = WEI_DENOMINATOR;\n\t\tnavBInWei = WEI_DENOMINATOR;\n\t\tminBalance = minimumBalance;\n\t}\n\n\t/*\n     * Public functions\n     */\n\n\t/// @dev return totalUsers in the system.\n\tfunction totalUsers() public view returns (uint) {\n\t\treturn users.length;\n\t}\n\n\tfunction feeBalanceInWei() public view returns(uint) {\n\t\treturn address(this).balance.sub(ethCollateralInWei);\n\t}\n\n\t/*\n     * ERC token functions\n     */\n\t/// @dev transferInternal function.\n\t/// @param index 0 is classA , 1 is class B\n\t/// @param from  from address\n\t/// @param to   to address\n\t/// @param tokens num of tokens transferred\n\tfunction transferInternal(uint index, address from, address to, uint tokens) \n\t\tinternal \n\t\tinState(State.Trading)\n\t\treturns (bool success) \n\t{\n\t\t// Prevent transfer to 0x0 address. Use burn() instead\n\t\trequire(to != 0x0);\n\t\t// Check if the sender has enough\n\t\trequire(balanceOf[index][from] >= tokens);\n\n\t\t// Save this for an assertion in the future\n\t\tuint previousBalances = balanceOf[index][from].add(balanceOf[index][to]);\n\t\t// Subtract from the sender\n\t\tbalanceOf[index][from] = balanceOf[index][from].sub(tokens);\n\t\t// Add the same to the recipient\n\t\tbalanceOf[index][to] = balanceOf[index][to].add(tokens);\n\t\n\t\t// Asserts are used to use static analysis to find bugs in your code. They should never fail\n\t\tassert(balanceOf[index][from].add(balanceOf[index][to]) == previousBalances);\n\t\temit Transfer(from, to, tokens, index);\n\t\tcheckUser(from, balanceOf[index][from], balanceOf[1 - index][from]);\n\t\tcheckUser(to, balanceOf[index][to], balanceOf[1 - index][to]);\n\t\treturn true;\n\t}\n\n\tfunction determineAddress(uint index, address from) internal view returns (address) {\n\t\treturn index == 0 && msg.sender == aTokenAddress || \n\t\t\tindex == 1 && msg.sender == bTokenAddress \n\t\t\t? from : msg.sender;\n\t}\n\n\tfunction transfer(uint index, address from, address to, uint tokens)\n\t\tpublic\n\t\tinState(State.Trading)\n\t\treturns (bool success) \n\t{\n\t\trequire(index == 0 || index == 1);\n\t\treturn transferInternal(index, determineAddress(index, from), to, tokens);\n\t}\n\n\tfunction transferFrom(uint index, address spender, address from, address to, uint tokens) \n\t\tpublic \n\t\tinState(State.Trading)\n\t\treturns (bool success) \n\t{\n\t\trequire(index == 0 || index == 1);\n\t\taddress spenderToUse = determineAddress(index, spender);\n\t\trequire(tokens <= allowance[index][from][spenderToUse]);\t // Check allowance\n\t\tallowance[index][from][spenderToUse] = allowance[index][from][spenderToUse].sub(tokens);\n\t\treturn transferInternal(index, from, to, tokens);\n\t}\n\n\tfunction approve(uint index, address sender, address spender, uint tokens) \n\t\tpublic \n\t\treturns (bool success) \n\t{\n\t\trequire(index == 0 || index == 1);\n\t\taddress senderToUse = determineAddress(index, sender);\n\t\tallowance[index][senderToUse][spender] = tokens;\n\t\temit Approval(senderToUse, spender, tokens, index);\n\t\treturn true;\n\t}\n\t// end of token functions\n\n\t/*\n     * Internal Functions\n     */\n\t// start of internal utility functions\n\tfunction checkUser(address user, uint256 balanceA, uint256 balanceB) internal {\n\t\tuint userIdx = existingUsers[user];\n\t\tif ( userIdx > 0) {\n\t\t\tif (balanceA < minBalance && balanceB < minBalance) {\n\t\t\t\tuint lastIdx = users.length;\n\t\t\t\taddress lastUser = users[lastIdx - 1];\n\t\t\t\tif (userIdx < lastIdx) {\n\t\t\t\t\tusers[userIdx - 1] = lastUser;\n\t\t\t\t\texistingUsers[lastUser] = userIdx;\n\t\t\t\t}\n\t\t\t\tdelete users[lastIdx - 1];\n\t\t\t\texistingUsers[user] = 0;\n\t\t\t\tusers.length--;\t\t\t\t\t\n\t\t\t}\n\t\t} else if (balanceA >= minBalance || balanceB >= minBalance) {\n\t\t\tusers.push(user);\n\t\t\texistingUsers[user] = users.length;\n\t\t}\n\t}\n\t// end of internal utility functions\n\n\t/*\n     * Operation Functions\n     */\n\tfunction collectFee(uint amountInWei) \n\t\tpublic \n\t\tonly(feeCollector) \n\t\tinState(State.Trading) \n\t\treturns (bool success) \n\t{\n\t\tuint feeBalance = feeBalanceInWei().sub(amountInWei);\n\t\tfeeCollector.transfer(amountInWei);\n\t\temit CollectFee(feeCollector, amountInWei, feeBalance);\n\t\treturn true;\n\t}\n\n\tfunction updateOracle(address newOracleAddr) \n\t\tonly(roleManager.moderator())\n\t\tinUpdateWindow() \n\t\tpublic \n\treturns (bool) {\n\t\trequire(roleManager.passedContract(newOracleAddr));\n\t\toracleAddress = newOracleAddr;\n\t\toracle = IOracle(oracleAddress);\n\t\t(uint lastPrice, uint lastPriceTime) = oracle.getLastPrice();\n\t\trequire(lastPrice > 0 && lastPriceTime > 0);\n\t\temit UpdateOracle(newOracleAddr);\n\t\treturn true;\n\t}\n\n\tfunction updateFeeCollector() \n\t\tpublic \n\t\tinUpdateWindow() \n\treturns (bool) {\n\t\taddress updater = msg.sender;\n\t\tfeeCollector = roleManager.provideAddress(updater, 0);\n\t\temit UpdateFeeCollector(updater, feeCollector);\n\t\treturn true;\n\t}\n}",
  "sourcePath": "C:\\dev\\coinFront\\duo-contract\\contracts\\custodians\\Custodian.sol",
  "compiler": {
    "name": "solc",
    "version": "0.4.24+commit.e67f0147.Emscripten.clang"
  },
  "schemaVersion": "3.0.0-beta.0",
  "updatedAt": "2018-11-12T09:10:32.798Z"
}