{
  "contractName": "Custodian",
  "abi": [
    {
      "constant": true,
      "inputs": [],
      "name": "lastPrice",
      "outputs": [
        {
          "name": "priceInWei",
          "type": "uint256"
        },
        {
          "name": "timeInSecond",
          "type": "uint256"
        }
      ],
      "payable": false,
      "stateMutability": "view",
      "type": "function"
    },
    {
      "constant": true,
      "inputs": [
        {
          "name": "",
          "type": "uint256"
        },
        {
          "name": "",
          "type": "address"
        },
        {
          "name": "",
          "type": "address"
        }
      ],
      "name": "allowance",
      "outputs": [
        {
          "name": "",
          "type": "uint256"
        }
      ],
      "payable": false,
      "stateMutability": "view",
      "type": "function"
    },
    {
      "constant": true,
      "inputs": [],
      "name": "totalSupplyB",
      "outputs": [
        {
          "name": "",
          "type": "uint256"
        }
      ],
      "payable": false,
      "stateMutability": "view",
      "type": "function"
    },
    {
      "constant": true,
      "inputs": [
        {
          "name": "",
          "type": "uint256"
        },
        {
          "name": "",
          "type": "address"
        }
      ],
      "name": "balanceOf",
      "outputs": [
        {
          "name": "",
          "type": "uint256"
        }
      ],
      "payable": false,
      "stateMutability": "view",
      "type": "function"
    },
    {
      "constant": true,
      "inputs": [
        {
          "name": "",
          "type": "uint256"
        }
      ],
      "name": "users",
      "outputs": [
        {
          "name": "",
          "type": "address"
        }
      ],
      "payable": false,
      "stateMutability": "view",
      "type": "function"
    },
    {
      "constant": true,
      "inputs": [],
      "name": "totalSupplyA",
      "outputs": [
        {
          "name": "",
          "type": "uint256"
        }
      ],
      "payable": false,
      "stateMutability": "view",
      "type": "function"
    },
    {
      "constant": true,
      "inputs": [
        {
          "name": "",
          "type": "address"
        }
      ],
      "name": "ethPendingWithdrawal",
      "outputs": [
        {
          "name": "",
          "type": "uint256"
        }
      ],
      "payable": false,
      "stateMutability": "view",
      "type": "function"
    },
    {
      "constant": true,
      "inputs": [],
      "name": "resetPrice",
      "outputs": [
        {
          "name": "priceInWei",
          "type": "uint256"
        },
        {
          "name": "timeInSecond",
          "type": "uint256"
        }
      ],
      "payable": false,
      "stateMutability": "view",
      "type": "function"
    },
    {
      "constant": true,
      "inputs": [],
      "name": "navBInWei",
      "outputs": [
        {
          "name": "",
          "type": "uint256"
        }
      ],
      "payable": false,
      "stateMutability": "view",
      "type": "function"
    },
    {
      "constant": true,
      "inputs": [],
      "name": "state",
      "outputs": [
        {
          "name": "",
          "type": "uint8"
        }
      ],
      "payable": false,
      "stateMutability": "view",
      "type": "function"
    },
    {
      "constant": true,
      "inputs": [
        {
          "name": "",
          "type": "uint256"
        }
      ],
      "name": "addrPool",
      "outputs": [
        {
          "name": "",
          "type": "address"
        }
      ],
      "payable": false,
      "stateMutability": "view",
      "type": "function"
    },
    {
      "constant": true,
      "inputs": [],
      "name": "navAInWei",
      "outputs": [
        {
          "name": "",
          "type": "uint256"
        }
      ],
      "payable": false,
      "stateMutability": "view",
      "type": "function"
    },
    {
      "inputs": [
        {
          "name": "feeAddress",
          "type": "address"
        },
        {
          "name": "duoAddress",
          "type": "address"
        },
        {
          "name": "pf1",
          "type": "address"
        },
        {
          "name": "pf2",
          "type": "address"
        },
        {
          "name": "pf3",
          "type": "address"
        },
        {
          "name": "poolMng",
          "type": "address"
        },
        {
          "name": "alpha",
          "type": "uint256"
        },
        {
          "name": "r",
          "type": "uint256"
        },
        {
          "name": "hp",
          "type": "uint256"
        },
        {
          "name": "hu",
          "type": "uint256"
        },
        {
          "name": "hd",
          "type": "uint256"
        },
        {
          "name": "c",
          "type": "uint256"
        },
        {
          "name": "p",
          "type": "uint256"
        },
        {
          "name": "coolDown",
          "type": "uint256"
        }
      ],
      "payable": false,
      "stateMutability": "nonpayable",
      "type": "constructor"
    },
    {
      "anonymous": false,
      "inputs": [],
      "name": "StartTrading",
      "type": "event"
    },
    {
      "anonymous": false,
      "inputs": [],
      "name": "StartPreReset",
      "type": "event"
    },
    {
      "anonymous": false,
      "inputs": [],
      "name": "StartReset",
      "type": "event"
    },
    {
      "anonymous": false,
      "inputs": [
        {
          "indexed": true,
          "name": "priceInWei",
          "type": "uint256"
        },
        {
          "indexed": true,
          "name": "timeInSecond",
          "type": "uint256"
        },
        {
          "indexed": false,
          "name": "sender",
          "type": "address"
        },
        {
          "indexed": false,
          "name": "index",
          "type": "uint256"
        }
      ],
      "name": "CommitPrice",
      "type": "event"
    },
    {
      "anonymous": false,
      "inputs": [
        {
          "indexed": true,
          "name": "priceInWei",
          "type": "uint256"
        },
        {
          "indexed": true,
          "name": "timeInSecond",
          "type": "uint256"
        }
      ],
      "name": "AcceptPrice",
      "type": "event"
    },
    {
      "anonymous": false,
      "inputs": [
        {
          "indexed": true,
          "name": "from",
          "type": "address"
        },
        {
          "indexed": true,
          "name": "to",
          "type": "address"
        },
        {
          "indexed": false,
          "name": "value",
          "type": "uint256"
        },
        {
          "indexed": false,
          "name": "index",
          "type": "uint256"
        }
      ],
      "name": "Transfer",
      "type": "event"
    },
    {
      "anonymous": false,
      "inputs": [
        {
          "indexed": true,
          "name": "tokenOwner",
          "type": "address"
        },
        {
          "indexed": true,
          "name": "spender",
          "type": "address"
        },
        {
          "indexed": false,
          "name": "tokens",
          "type": "uint256"
        },
        {
          "indexed": false,
          "name": "index",
          "type": "uint256"
        }
      ],
      "name": "Approval",
      "type": "event"
    },
    {
      "anonymous": false,
      "inputs": [
        {
          "indexed": false,
          "name": "added1",
          "type": "address"
        },
        {
          "indexed": false,
          "name": "added2",
          "type": "address"
        },
        {
          "indexed": false,
          "name": "newPoolManager",
          "type": "address"
        }
      ],
      "name": "AddAddress",
      "type": "event"
    },
    {
      "anonymous": false,
      "inputs": [
        {
          "indexed": false,
          "name": "current",
          "type": "address"
        },
        {
          "indexed": false,
          "name": "newAddr",
          "type": "address"
        }
      ],
      "name": "UpdateAddress",
      "type": "event"
    },
    {
      "anonymous": false,
      "inputs": [
        {
          "indexed": false,
          "name": "addr",
          "type": "address"
        },
        {
          "indexed": false,
          "name": "newPoolManager",
          "type": "address"
        }
      ],
      "name": "RemoveAddress",
      "type": "event"
    },
    {
      "anonymous": false,
      "inputs": [
        {
          "indexed": false,
          "name": "index",
          "type": "uint256"
        },
        {
          "indexed": false,
          "name": "oldValue",
          "type": "uint256"
        },
        {
          "indexed": false,
          "name": "newValue",
          "type": "uint256"
        }
      ],
      "name": "SetValue",
      "type": "event"
    },
    {
      "anonymous": false,
      "inputs": [
        {
          "indexed": false,
          "name": "addr",
          "type": "address"
        },
        {
          "indexed": false,
          "name": "value",
          "type": "uint256"
        }
      ],
      "name": "CollectFee",
      "type": "event"
    },
    {
      "constant": false,
      "inputs": [
        {
          "name": "payFeeInEth",
          "type": "bool"
        }
      ],
      "name": "create",
      "outputs": [
        {
          "name": "success",
          "type": "bool"
        }
      ],
      "payable": true,
      "stateMutability": "payable",
      "type": "function"
    },
    {
      "constant": false,
      "inputs": [
        {
          "name": "amtInWeiA",
          "type": "uint256"
        },
        {
          "name": "amtInWeiB",
          "type": "uint256"
        },
        {
          "name": "payFeeInEth",
          "type": "bool"
        }
      ],
      "name": "redeem",
      "outputs": [
        {
          "name": "success",
          "type": "bool"
        }
      ],
      "payable": false,
      "stateMutability": "nonpayable",
      "type": "function"
    },
    {
      "constant": false,
      "inputs": [
        {
          "name": "amtEthInWei",
          "type": "uint256"
        }
      ],
      "name": "withdraw",
      "outputs": [
        {
          "name": "success",
          "type": "bool"
        }
      ],
      "payable": false,
      "stateMutability": "nonpayable",
      "type": "function"
    },
    {
      "constant": true,
      "inputs": [
        {
          "name": "priceInWei",
          "type": "uint256"
        },
        {
          "name": "timeInSecond",
          "type": "uint256"
        },
        {
          "name": "resetPriceInWei",
          "type": "uint256"
        },
        {
          "name": "resetTimeInSecond",
          "type": "uint256"
        },
        {
          "name": "bInWei",
          "type": "uint256"
        }
      ],
      "name": "calculateNav",
      "outputs": [
        {
          "name": "",
          "type": "uint256"
        },
        {
          "name": "",
          "type": "uint256"
        }
      ],
      "payable": false,
      "stateMutability": "view",
      "type": "function"
    },
    {
      "constant": false,
      "inputs": [],
      "name": "startPreReset",
      "outputs": [
        {
          "name": "success",
          "type": "bool"
        }
      ],
      "payable": false,
      "stateMutability": "nonpayable",
      "type": "function"
    },
    {
      "constant": false,
      "inputs": [],
      "name": "startReset",
      "outputs": [
        {
          "name": "success",
          "type": "bool"
        }
      ],
      "payable": false,
      "stateMutability": "nonpayable",
      "type": "function"
    },
    {
      "constant": true,
      "inputs": [],
      "name": "getSystemAddresses",
      "outputs": [
        {
          "name": "sysAddr",
          "type": "address[6]"
        }
      ],
      "payable": false,
      "stateMutability": "view",
      "type": "function"
    },
    {
      "constant": true,
      "inputs": [],
      "name": "getSystemStates",
      "outputs": [
        {
          "name": "sysState",
          "type": "uint256[20]"
        }
      ],
      "payable": false,
      "stateMutability": "view",
      "type": "function"
    },
    {
      "constant": true,
      "inputs": [],
      "name": "getStagingPrices",
      "outputs": [
        {
          "name": "addr1",
          "type": "address"
        },
        {
          "name": "px1",
          "type": "uint256"
        },
        {
          "name": "ts1",
          "type": "uint256"
        },
        {
          "name": "addr2",
          "type": "address"
        },
        {
          "name": "px2",
          "type": "uint256"
        },
        {
          "name": "ts2",
          "type": "uint256"
        }
      ],
      "payable": false,
      "stateMutability": "view",
      "type": "function"
    },
    {
      "constant": false,
      "inputs": [
        {
          "name": "priceInWei",
          "type": "uint256"
        },
        {
          "name": "timeInSecond",
          "type": "uint256"
        }
      ],
      "name": "startContract",
      "outputs": [
        {
          "name": "success",
          "type": "bool"
        }
      ],
      "payable": false,
      "stateMutability": "nonpayable",
      "type": "function"
    },
    {
      "constant": false,
      "inputs": [
        {
          "name": "priceInWei",
          "type": "uint256"
        },
        {
          "name": "timeInSecond",
          "type": "uint256"
        }
      ],
      "name": "commitPrice",
      "outputs": [
        {
          "name": "success",
          "type": "bool"
        }
      ],
      "payable": false,
      "stateMutability": "nonpayable",
      "type": "function"
    },
    {
      "constant": false,
      "inputs": [
        {
          "name": "index",
          "type": "uint256"
        },
        {
          "name": "_from",
          "type": "address"
        },
        {
          "name": "_to",
          "type": "address"
        },
        {
          "name": "_tokens",
          "type": "uint256"
        }
      ],
      "name": "transfer",
      "outputs": [
        {
          "name": "success",
          "type": "bool"
        }
      ],
      "payable": false,
      "stateMutability": "nonpayable",
      "type": "function"
    },
    {
      "constant": false,
      "inputs": [
        {
          "name": "index",
          "type": "uint256"
        },
        {
          "name": "_sender",
          "type": "address"
        },
        {
          "name": "_spender",
          "type": "address"
        },
        {
          "name": "_tokens",
          "type": "uint256"
        }
      ],
      "name": "approve",
      "outputs": [
        {
          "name": "success",
          "type": "bool"
        }
      ],
      "payable": false,
      "stateMutability": "nonpayable",
      "type": "function"
    },
    {
      "constant": false,
      "inputs": [
        {
          "name": "index",
          "type": "uint256"
        },
        {
          "name": "_spender",
          "type": "address"
        },
        {
          "name": "_from",
          "type": "address"
        },
        {
          "name": "_to",
          "type": "address"
        },
        {
          "name": "_tokens",
          "type": "uint256"
        }
      ],
      "name": "transferFrom",
      "outputs": [
        {
          "name": "success",
          "type": "bool"
        }
      ],
      "payable": false,
      "stateMutability": "nonpayable",
      "type": "function"
    },
    {
      "constant": false,
      "inputs": [
        {
          "name": "amountInWei",
          "type": "uint256"
        }
      ],
      "name": "collectFee",
      "outputs": [
        {
          "name": "success",
          "type": "bool"
        }
      ],
      "payable": false,
      "stateMutability": "nonpayable",
      "type": "function"
    },
    {
      "constant": false,
      "inputs": [
        {
          "name": "idx",
          "type": "uint256"
        },
        {
          "name": "newValue",
          "type": "uint256"
        }
      ],
      "name": "setValue",
      "outputs": [
        {
          "name": "success",
          "type": "bool"
        }
      ],
      "payable": false,
      "stateMutability": "nonpayable",
      "type": "function"
    },
    {
      "constant": false,
      "inputs": [
        {
          "name": "addr1",
          "type": "address"
        },
        {
          "name": "addr2",
          "type": "address"
        }
      ],
      "name": "addAddress",
      "outputs": [
        {
          "name": "success",
          "type": "bool"
        }
      ],
      "payable": false,
      "stateMutability": "nonpayable",
      "type": "function"
    },
    {
      "constant": false,
      "inputs": [
        {
          "name": "addr",
          "type": "address"
        }
      ],
      "name": "removeAddress",
      "outputs": [
        {
          "name": "success",
          "type": "bool"
        }
      ],
      "payable": false,
      "stateMutability": "nonpayable",
      "type": "function"
    },
    {
      "constant": false,
      "inputs": [
        {
          "name": "current",
          "type": "address"
        }
      ],
      "name": "updateAddress",
      "outputs": [
        {
          "name": "addr",
          "type": "address"
        }
      ],
      "payable": false,
      "stateMutability": "nonpayable",
      "type": "function"
    }
  ],
  "bytecode": "0x608060405260c060405190810160405280731952e39f7bc9e00faffcea0305e09c065dbd8efd73ffffffffffffffffffffffffffffffffffffffff1673ffffffffffffffffffffffffffffffffffffffff1681526020017351a123239894f0c7175f9c0e9e9519d9d74194f673ffffffffffffffffffffffffffffffffffffffff1673ffffffffffffffffffffffffffffffffffffffff1681526020017315421ef85e1f4ed8e20cdf35894caa3d2fb4334473ffffffffffffffffffffffffffffffffffffffff1673ffffffffffffffffffffffffffffffffffffffff1681526020017311b73358799d057d195fcec8b93c70e54e39da2773ffffffffffffffffffffffffffffffffffffffff1673ffffffffffffffffffffffffffffffffffffffff16815260200173ac5e46b58417a111aaa2dfd972e86c87c55d1c8373ffffffffffffffffffffffffffffffffffffffff1673ffffffffffffffffffffffffffffffffffffffff16815260200173b7c034cad16adbcb3ad10bdad9160220cd0aa8bd73ffffffffffffffffffffffffffffffffffffffff1673ffffffffffffffffffffffffffffffffffffffff168152506007906006620001c492919062000970565b50670de0b6b3a764000060155561ea60601d556103e8601e55600a601f556101f46020556064602155603c602255600060245560006025556000602a553480156200020e57600080fd5b506040516101c08062005dbd833981018060405281019080805190602001909291908051906020019092919080519060200190929190805190602001909291908051906020019092919080519060200190929190805190602001909291908051906020019092919080519060200190929190805190602001909291908051906020019092919080519060200190929190805190602001909291908051906020019092919050505060008090505b6007805490508110156200035657600160086000600784815481101515620002df57fe5b9060005260206000200160009054906101000a900473ffffffffffffffffffffffffffffffffffffffff1673ffffffffffffffffffffffffffffffffffffffff1673ffffffffffffffffffffffffffffffffffffffff168152602001908152602001600020819055508080600101915050620002bb565b60008060006101000a81548160ff021916908360058111156200037557fe5b021790555089600660006101000a81548173ffffffffffffffffffffffffffffffffffffffff021916908373ffffffffffffffffffffffffffffffffffffffff160217905550600260086000600660009054906101000a900473ffffffffffffffffffffffffffffffffffffffff1673ffffffffffffffffffffffffffffffffffffffff1673ffffffffffffffffffffffffffffffffffffffff1681526020019081526020016000208190555033600160006101000a81548173ffffffffffffffffffffffffffffffffffffffff021916908373ffffffffffffffffffffffffffffffffffffffff160217905550600260086000600160009054906101000a900473ffffffffffffffffffffffffffffffffffffffff1673ffffffffffffffffffffffffffffffffffffffff1673ffffffffffffffffffffffffffffffffffffffff168152602001908152602001600020819055506064601b819055508e600260006101000a81548173ffffffffffffffffffffffffffffffffffffffff021916908373ffffffffffffffffffffffffffffffffffffffff160217905550600260086000600260009054906101000a900473ffffffffffffffffffffffffffffffffffffffff1673ffffffffffffffffffffffffffffffffffffffff1673ffffffffffffffffffffffffffffffffffffffff168152602001908152602001600020819055508c600360006101000a81548173ffffffffffffffffffffffffffffffffffffffff021916908373ffffffffffffffffffffffffffffffffffffffff160217905550600260086000600360009054906101000a900473ffffffffffffffffffffffffffffffffffffffff1673ffffffffffffffffffffffffffffffffffffffff1673ffffffffffffffffffffffffffffffffffffffff168152602001908152602001600020819055508b600460006101000a81548173ffffffffffffffffffffffffffffffffffffffff021916908373ffffffffffffffffffffffffffffffffffffffff160217905550600260086000600460009054906101000a900473ffffffffffffffffffffffffffffffffffffffff1673ffffffffffffffffffffffffffffffffffffffff1673ffffffffffffffffffffffffffffffffffffffff168152602001908152602001600020819055508a600560006101000a81548173ffffffffffffffffffffffffffffffffffffffff021916908373ffffffffffffffffffffffffffffffffffffffff160217905550600260086000600560009054906101000a900473ffffffffffffffffffffffffffffffffffffffff1673ffffffffffffffffffffffffffffffffffffffff1673ffffffffffffffffffffffffffffffffffffffff168152602001908152602001600020819055508d600060016101000a81548173ffffffffffffffffffffffffffffffffffffffff021916908373ffffffffffffffffffffffffffffffffffffffff1602179055506002600860008060019054906101000a900473ffffffffffffffffffffffffffffffffffffffff1673ffffffffffffffffffffffffffffffffffffffff1673ffffffffffffffffffffffffffffffffffffffff168152602001908152602001600020819055508860148190555087601781905550866018819055508560198190555084601a8190555083601b8190555082601c81905550670de0b6b3a7640000602681905550670de0b6b3a764000060278190555081602381905550620008e4612710620008c7670de0b6b3a7640000620008aa612710601454620008ff6401000000000262004a65179091906401000000009004565b6200091e6401000000000262004aae179091906401000000009004565b620009546401000000000262004ae1179091906401000000009004565b60318190555050505050505050505050505050505062000a45565b60008082840190508381101515156200091457fe5b8091505092915050565b600080828402905060008414806200094157508284828115156200093e57fe5b04145b15156200094a57fe5b8091505092915050565b60008082848115156200096357fe5b0490508091505092915050565b828054828255906000526020600020908101928215620009ec579160200282015b82811115620009eb5782518260006101000a81548173ffffffffffffffffffffffffffffffffffffffff021916908373ffffffffffffffffffffffffffffffffffffffff1602179055509160200191906001019062000991565b5b509050620009fb9190620009ff565b5090565b62000a4291905b8082111562000a3e57600081816101000a81549073ffffffffffffffffffffffffffffffffffffffff02191690555060010162000a06565b5090565b90565b6153688062000a556000396000f30060806040526004361061018b576000357c0100000000000000000000000000000000000000000000000000000000900463ffffffff16806303ee06f414610190578063053f14da146101df5780630a23b9b1146102115780630d550b75146102c0578063134e92a81461034157806315ed0793146103705780632e1a7d4d1461039b57806332a3bc0c146103e05780633656eec21461040f578063365b98b21461047057806336cd52a6146104dd578063435a658f1461056c5780634ba79dfe146105bf5780636c67b21e1461061a578063713e7b851461064557806378e80fc7146106c05780637b8d56e3146107175780637ddaa84b146107665780638ee2fd3d146107c157806393b72fce14610867578063a969ff0a146108d7578063bafb73361461091c578063bf1f6d451461094e578063c19d93fb14610979578063c5da3410146109b2578063c6bbb04a14610a05578063d968392e14610a72578063db5a4ce614610ac1578063ed6d909614610afb578063f20f76ba14610b7e578063f707817914610c0d575b600080fd5b34801561019c57600080fd5b506101c56004803603810190808035906020019092919080359060200190929190505050610c38565b604051808215151515815260200191505060405180910390f35b3480156101eb57600080fd5b506101f461142b565b604051808381526020018281526020019250505060405180910390f35b34801561021d57600080fd5b506102a660048036038101908080359060200190929190803573ffffffffffffffffffffffffffffffffffffffff169060200190929190803573ffffffffffffffffffffffffffffffffffffffff169060200190929190803573ffffffffffffffffffffffffffffffffffffffff1690602001909291908035906020019092919050505061143d565b604051808215151515815260200191505060405180910390f35b3480156102cc57600080fd5b5061032b60048036038101908080359060200190929190803573ffffffffffffffffffffffffffffffffffffffff169060200190929190803573ffffffffffffffffffffffffffffffffffffffff16906020019092919050505061166c565b6040518082815260200191505060405180910390f35b34801561034d57600080fd5b506103566116a0565b604051808215151515815260200191505060405180910390f35b34801561037c57600080fd5b50610385611d0c565b6040518082815260200191505060405180910390f35b3480156103a757600080fd5b506103c660048036038101908080359060200190929190505050611d12565b604051808215151515815260200191505060405180910390f35b3480156103ec57600080fd5b506103f5611eaa565b604051808215151515815260200191505060405180910390f35b34801561041b57600080fd5b5061045a60048036038101908080359060200190929190803573ffffffffffffffffffffffffffffffffffffffff1690602001909291905050506124b6565b6040518082815260200191505060405180910390f35b34801561047c57600080fd5b5061049b600480360381019080803590602001909291905050506124dd565b604051808273ffffffffffffffffffffffffffffffffffffffff1673ffffffffffffffffffffffffffffffffffffffff16815260200191505060405180910390f35b3480156104e957600080fd5b5061055260048036038101908080359060200190929190803573ffffffffffffffffffffffffffffffffffffffff169060200190929190803573ffffffffffffffffffffffffffffffffffffffff1690602001909291908035906020019092919050505061251b565b604051808215151515815260200191505060405180910390f35b34801561057857600080fd5b506105816129f4565b6040518082600660200280838360005b838110156105ac578082015181840152602081019050610591565b5050505090500191505060405180910390f35b3480156105cb57600080fd5b50610600600480360381019080803573ffffffffffffffffffffffffffffffffffffffff169060200190929190505050612c75565b604051808215151515815260200191505060405180910390f35b34801561062657600080fd5b5061062f612f22565b6040518082815260200191505060405180910390f35b34801561065157600080fd5b506106a6600480360381019080803573ffffffffffffffffffffffffffffffffffffffff169060200190929190803573ffffffffffffffffffffffffffffffffffffffff169060200190929190505050612f28565b604051808215151515815260200191505060405180910390f35b3480156106cc57600080fd5b50610701600480360381019080803573ffffffffffffffffffffffffffffffffffffffff169060200190929190505050613335565b6040518082815260200191505060405180910390f35b34801561072357600080fd5b5061074c600480360381019080803590602001909291908035906020019092919050505061334d565b604051808215151515815260200191505060405180910390f35b34801561077257600080fd5b506107a7600480360381019080803590602001909291908035906020019092919080351515906020019092919050505061354e565b604051808215151515815260200191505060405180910390f35b3480156107cd57600080fd5b506107d6613989565b604051808773ffffffffffffffffffffffffffffffffffffffff1673ffffffffffffffffffffffffffffffffffffffff1681526020018681526020018581526020018473ffffffffffffffffffffffffffffffffffffffff1673ffffffffffffffffffffffffffffffffffffffff168152602001838152602001828152602001965050505050505060405180910390f35b34801561087357600080fd5b506108ba6004803603810190808035906020019092919080359060200190929190803590602001909291908035906020019092919080359060200190929190505050613a04565b604051808381526020018281526020019250505060405180910390f35b3480156108e357600080fd5b5061090260048036038101908080359060200190929190505050613b93565b604051808215151515815260200191505060405180910390f35b34801561092857600080fd5b50610931613d25565b604051808381526020018281526020019250505060405180910390f35b34801561095a57600080fd5b50610963613d37565b6040518082815260200191505060405180910390f35b34801561098557600080fd5b5061098e613d3d565b6040518082600581111561099e57fe5b60ff16815260200191505060405180910390f35b3480156109be57600080fd5b506109c7613d4f565b6040518082601460200280838360005b838110156109f25780820151818401526020810190506109d7565b5050505090500191505060405180910390f35b348015610a1157600080fd5b50610a3060048036038101908080359060200190929190505050613f7c565b604051808273ffffffffffffffffffffffffffffffffffffffff1673ffffffffffffffffffffffffffffffffffffffff16815260200191505060405180910390f35b348015610a7e57600080fd5b50610aa76004803603810190808035906020019092919080359060200190929190505050613fba565b604051808215151515815260200191505060405180910390f35b610ae1600480360381019080803515159060200190929190505050614167565b604051808215151515815260200191505060405180910390f35b348015610b0757600080fd5b50610b3c600480360381019080803573ffffffffffffffffffffffffffffffffffffffff169060200190929190505050614431565b604051808273ffffffffffffffffffffffffffffffffffffffff1673ffffffffffffffffffffffffffffffffffffffff16815260200191505060405180910390f35b348015610b8a57600080fd5b50610bf360048036038101908080359060200190929190803573ffffffffffffffffffffffffffffffffffffffff169060200190929190803573ffffffffffffffffffffffffffffffffffffffff16906020019092919080359060200190929190505050614934565b604051808215151515815260200191505060405180910390f35b348015610c1957600080fd5b50610c22614a57565b6040518082815260200191505060405180910390f35b60008060006001806005811115610c4b57fe5b6000809054906101000a900460ff166005811115610c6557fe5b141515610c7157600080fd5b600360009054906101000a900473ffffffffffffffffffffffffffffffffffffffff1673ffffffffffffffffffffffffffffffffffffffff163373ffffffffffffffffffffffffffffffffffffffff161480610d1a5750600460009054906101000a900473ffffffffffffffffffffffffffffffffffffffff1673ffffffffffffffffffffffffffffffffffffffff163373ffffffffffffffffffffffffffffffffffffffff16145b80610d725750600560009054906101000a900473ffffffffffffffffffffffffffffffffffffffff1673ffffffffffffffffffffffffffffffffffffffff163373ffffffffffffffffffffffffffffffffffffffff16145b1515610d7d57600080fd5b610d85614a5d565b8511151515610d9357600080fd5b610dad602354601260010154614a6590919063ffffffff16565b85111515610dba57600080fd5b60006024541415610f1957610ddd60126000015487614a8390919063ffffffff16565b9250602054610e0e601260000154610e0061271087614aae90919063ffffffff16565b614ae190919063ffffffff16565b111515610e2457610e1f8686614afc565b610f14565b604080519081016040528087815260200186815250602d600082015181600001556020820151816001015590505033602b60006101000a81548173ffffffffffffffffffffffffffffffffffffffff021916908373ffffffffffffffffffffffffffffffffffffffff16021790555084867fe95a7bb58ff5f75fa581ca00ff98b7a825caba174942abffb75a1d2b12d90dd9336000604051808373ffffffffffffffffffffffffffffffffffffffff1673ffffffffffffffffffffffffffffffffffffffff1681526020018281526020019250505060405180910390a36024600081548092919060010191905055505b61141d565b600160245414156111d957610f3e602354602d60010154614a6590919063ffffffff16565b851115610fbf573373ffffffffffffffffffffffffffffffffffffffff16602b60009054906101000a900473ffffffffffffffffffffffffffffffffffffffff1673ffffffffffffffffffffffffffffffffffffffff161415610faa57610fa58686614afc565b610fba565b610fb9602d6000015486614afc565b5b6111d4565b3373ffffffffffffffffffffffffffffffffffffffff16602b60009054906101000a900473ffffffffffffffffffffffffffffffffffffffff1673ffffffffffffffffffffffffffffffffffffffff161415151561101c57600080fd5b84611037602254602d60010154614a6590919063ffffffff16565b108061105b575084611059602254602d60010154614c0390919063ffffffff16565b115b1561107957611074602d60000154602d60010154614afc565b6111d3565b611091602d6000015487614a8390919063ffffffff16565b92506020546110c2602d600001546110b461271087614aae90919063ffffffff16565b614ae190919063ffffffff16565b1115156110e2576110dd602d60000154602d60010154614afc565b6111d2565b604080519081016040528087815260200186815250602f600082015181600001556020820151816001015590505033602c60006101000a81548173ffffffffffffffffffffffffffffffffffffffff021916908373ffffffffffffffffffffffffffffffffffffffff16021790555084867fe95a7bb58ff5f75fa581ca00ff98b7a825caba174942abffb75a1d2b12d90dd9336001604051808373ffffffffffffffffffffffffffffffffffffffff1673ffffffffffffffffffffffffffffffffffffffff1681526020018281526020019250505060405180910390a36024600081548092919060010191905055505b5b5b61141c565b6002602454141561141257602354602d60010154018511156112c7573373ffffffffffffffffffffffffffffffffffffffff16602b60009054906101000a900473ffffffffffffffffffffffffffffffffffffffff1673ffffffffffffffffffffffffffffffffffffffff16148061129e57503373ffffffffffffffffffffffffffffffffffffffff16602c60009054906101000a900473ffffffffffffffffffffffffffffffffffffffff1673ffffffffffffffffffffffffffffffffffffffff16145b156112b2576112ad8686614afc565b6112c2565b6112c1602f6000015486614afc565b5b61140d565b3373ffffffffffffffffffffffffffffffffffffffff16602b60009054906101000a900473ffffffffffffffffffffffffffffffffffffffff1673ffffffffffffffffffffffffffffffffffffffff161415801561137357503373ffffffffffffffffffffffffffffffffffffffff16602c60009054906101000a900473ffffffffffffffffffffffffffffffffffffffff1673ffffffffffffffffffffffffffffffffffffffff1614155b151561137e57600080fd5b84611399602254602d60010154614a6590919063ffffffff16565b10806113bd5750846113bb602254602d60010154614c0390919063ffffffff16565b115b156113cf57602d6000015491506113fd565b85602f6000015414156113e4578591506113fc565b6113f9602d60000154602f6000015488614c1c565b91505b5b61140c82602d60010154614afc565b5b61141b565b60009350611422565b5b5b600193505b50505092915050565b60128060000154908060010154905082565b6000600180600581111561144d57fe5b6000809054906101000a900460ff16600581111561146757fe5b14151561147357600080fd5b60008714806114825750600187145b151561148d57600080fd5b600b8760028110151561149c57fe5b0160008673ffffffffffffffffffffffffffffffffffffffff1673ffffffffffffffffffffffffffffffffffffffff16815260200190815260200160002060008773ffffffffffffffffffffffffffffffffffffffff1673ffffffffffffffffffffffffffffffffffffffff16815260200190815260200160002054831115151561152657600080fd5b6115c383600b8960028110151561153957fe5b0160008873ffffffffffffffffffffffffffffffffffffffff1673ffffffffffffffffffffffffffffffffffffffff16815260200190815260200160002060008973ffffffffffffffffffffffffffffffffffffffff1673ffffffffffffffffffffffffffffffffffffffff16815260200190815260200160002054614c0390919063ffffffff16565b600b886002811015156115d257fe5b0160008773ffffffffffffffffffffffffffffffffffffffff1673ffffffffffffffffffffffffffffffffffffffff16815260200190815260200160002060008873ffffffffffffffffffffffffffffffffffffffff1673ffffffffffffffffffffffffffffffffffffffff1681526020019081526020016000208190555061165d8786868661251b565b50600191505095945050505050565b600b8360028110151561167b57fe5b0160205281600052604060002060205280600052604060002060009250925050505481565b600080600080600080600080600060028060058111156116bc57fe5b6000809054906101000a900460ff1660058111156116d657fe5b1415156116e257600080fd5b601f54602a544303101515611ccf576019546027541015156118f05760036000806101000a81548160ff0219169083600581111561171c57fe5b0217905550670de0b6b3a764000060158190555061174d670de0b6b3a7640000602654614c0390919063ffffffff16565b965061176c670de0b6b3a7640000602754614c0390919063ffffffff16565b95506117818787614c0390919063ffffffff16565b94508660328190555060006034819055506117bb6031546117ad60155488614aae90919063ffffffff16565b614ae190919063ffffffff16565b93506117e66127106117d860145487614aae90919063ffffffff16565b614ae190919063ffffffff16565b6033819055506117ff8488614a6590919063ffffffff16565b603581905550611872611861670de0b6b3a764000061185361182e603354602954614aae90919063ffffffff16565b611845603254602854614aae90919063ffffffff16565b614a6590919063ffffffff16565b614ae190919063ffffffff16565b602854614a6590919063ffffffff16565b6028819055506118e56118d4670de0b6b3a76400006118c66118a1603554602954614aae90919063ffffffff16565b6118b8603454602854614aae90919063ffffffff16565b614a6590919063ffffffff16565b614ae190919063ffffffff16565b602954614a6590919063ffffffff16565b602981905550611c9e565b601a54602754111515611a815760046000806101000a81548160ff0219169083600581111561191b57fe5b0217905550670de0b6b3a764000060158190555061196e603154611960601554611952602754602654614c0390919063ffffffff16565b614aae90919063ffffffff16565b614ae190919063ffffffff16565b6034819055506000603281905550600060358190555060006033819055506119bd670de0b6b3a76400006119af603454602854614aae90919063ffffffff16565b614ae190919063ffffffff16565b98506119e86127106119da6014548c614aae90919063ffffffff16565b614ae190919063ffffffff16565b9750611a2d88611a1f670de0b6b3a7640000611a11602754602854614aae90919063ffffffff16565b614ae190919063ffffffff16565b614a6590919063ffffffff16565b602881905550611a7689611a68670de0b6b3a7640000611a5a602754602954614aae90919063ffffffff16565b614ae190919063ffffffff16565b614a6590919063ffffffff16565b602981905550611c9d565b60056000806101000a81548160ff02191690836005811115611a9f57fe5b0217905550611ad2601260000154611ac4612710601454614a6590919063ffffffff16565b614aae90919063ffffffff16565b9250611b76611b67670de0b6b3a7640000611b59670de0b6b3a7640000611b4b611b0f670de0b6b3a7640000602654614c0390919063ffffffff16565b611b3d601554611b2f601454601060000154614aae90919063ffffffff16565b614aae90919063ffffffff16565b614aae90919063ffffffff16565b614ae190919063ffffffff16565b614ae190919063ffffffff16565b84614c0390919063ffffffff16565b9150611b9f82611b9185601554614aae90919063ffffffff16565b614ae190919063ffffffff16565b601581905550611bea603154611bdc601554611bce670de0b6b3a7640000602654614c0390919063ffffffff16565b614aae90919063ffffffff16565b614ae190919063ffffffff16565b603481905550600060358190555060006032819055506000603381905550611c39670de0b6b3a7640000611c2b603454602854614aae90919063ffffffff16565b614ae190919063ffffffff16565b9850611c64612710611c566014548c614aae90919063ffffffff16565b614ae190919063ffffffff16565b9750611c7b88602854614a6590919063ffffffff16565b602881905550611c9689602954614a6590919063ffffffff16565b6029819055505b5b7f91c286863163aa15991e5aabc5934ed57007ed7f0b1bddcde66ca789ab227ea360405160405180910390a1611cfc565b7fa1f85a3680dfb51f7db8069e794f07f371ef5a545a9c915ac6315b0768a08b3f60405160405180910390a15b6001995050505050505050505090565b60295481565b60006001806005811115611d2257fe5b6000809054906101000a900460ff166005811115611d3c57fe5b141515611d4857600080fd5b600083118015611d975750600f60003373ffffffffffffffffffffffffffffffffffffffff1673ffffffffffffffffffffffffffffffffffffffff168152602001908152602001600020548311155b8015611db957503073ffffffffffffffffffffffffffffffffffffffff163183105b1515611dc457600080fd5b611e1683600f60003373ffffffffffffffffffffffffffffffffffffffff1673ffffffffffffffffffffffffffffffffffffffff16815260200190815260200160002054614c0390919063ffffffff16565b600f60003373ffffffffffffffffffffffffffffffffffffffff1673ffffffffffffffffffffffffffffffffffffffff168152602001908152602001600020819055503373ffffffffffffffffffffffffffffffffffffffff166108fc849081150290604051600060405180830381858888f19350505050158015611e9f573d6000803e3d6000fd5b506001915050919050565b600080600080600080600080600060036005811115611ec557fe5b6000809054906101000a900460ff166005811115611edf57fe5b1480611f0f575060046005811115611ef357fe5b6000809054906101000a900460ff166005811115611f0d57fe5b145b80611f3d5750600580811115611f2157fe5b6000809054906101000a900460ff166005811115611f3b57fe5b145b1515611f4857600080fd5b60255490505b600d8054905081108015611f635750601d545a115b1561239b57600d602554815481101515611f7957fe5b9060005260206000200160009054906101000a900473ffffffffffffffffffffffffffffffffffffffff16915060096000600281101515611fb657fe5b0160008373ffffffffffffffffffffffffffffffffffffffff1673ffffffffffffffffffffffffffffffffffffffff1681526020019081526020016000205497506009600160028110151561200757fe5b0160008373ffffffffffffffffffffffffffffffffffffffff1673ffffffffffffffffffffffffffffffffffffffff1681526020019081526020016000205496506004600581111561205557fe5b6000809054906101000a900460ff16600581111561206f57fe5b141561215c576120a4670de0b6b3a76400006120966034548b614aae90919063ffffffff16565b614ae190919063ffffffff16565b92506120cf6127106120c160145486614aae90919063ffffffff16565b614ae190919063ffffffff16565b935061211284612104670de0b6b3a76400006120f66027548d614aae90919063ffffffff16565b614ae190919063ffffffff16565b614a6590919063ffffffff16565b955061215583612147670de0b6b3a76400006121396027548c614aae90919063ffffffff16565b614ae190919063ffffffff16565b614a6590919063ffffffff16565b94506122e8565b6003600581111561216957fe5b6000809054906101000a900460ff16600581111561218357fe5b1415612260576121f06121e1670de0b6b3a76400006121d36121b06033548c614aae90919063ffffffff16565b6121c56032548e614aae90919063ffffffff16565b614a6590919063ffffffff16565b614ae190919063ffffffff16565b89614a6590919063ffffffff16565b955061225961224a670de0b6b3a764000061223c6122196035548c614aae90919063ffffffff16565b61222e6034548e614aae90919063ffffffff16565b614a6590919063ffffffff16565b614ae190919063ffffffff16565b88614a6590919063ffffffff16565b94506122e7565b61228f670de0b6b3a76400006122816034548b614aae90919063ffffffff16565b614ae190919063ffffffff16565b92506122ba6127106122ac60145486614aae90919063ffffffff16565b614ae190919063ffffffff16565b93506122cf8489614a6590919063ffffffff16565b95506122e48388614a6590919063ffffffff16565b94505b5b85600960006002811015156122f957fe5b0160008473ffffffffffffffffffffffffffffffffffffffff1673ffffffffffffffffffffffffffffffffffffffff16815260200190815260200160002081905550846009600160028110151561234c57fe5b0160008473ffffffffffffffffffffffffffffffffffffffff1673ffffffffffffffffffffffffffffffffffffffff168152602001908152602001600020819055508080600101915050611f4e565b600d8054905081101515612473576005808111156123b557fe5b6000809054906101000a900460ff1660058111156123cf57fe5b14151561240457601260000154601060000181905550601260010154601060010181905550670de0b6b3a76400006027819055505b670de0b6b3a7640000602681905550600060258190555060016000806101000a81548160ff0219169083600581111561243957fe5b02179055507fbf6a1c0d2669c1534a4b018edab32445ffb4f4e914517f62fb885949552d7e3460405160405180910390a1600198506124ab565b806025819055507f91c286863163aa15991e5aabc5934ed57007ed7f0b1bddcde66ca789ab227ea360405160405180910390a1600098505b505050505050505090565b6009826002811015156124c557fe5b01602052806000526040600020600091509150505481565b600d818154811015156124ec57fe5b906000526020600020016000915054906101000a900473ffffffffffffffffffffffffffffffffffffffff1681565b600080600180600581111561252c57fe5b6000809054906101000a900460ff16600581111561254657fe5b14151561255257600080fd5b60008714806125615750600187145b151561256c57600080fd5b60008573ffffffffffffffffffffffffffffffffffffffff161415151561259257600080fd5b836009886002811015156125a257fe5b0160008873ffffffffffffffffffffffffffffffffffffffff1673ffffffffffffffffffffffffffffffffffffffff16815260200190815260200160002054101515156125ee57600080fd5b6009876002811015156125fd57fe5b0160008673ffffffffffffffffffffffffffffffffffffffff1673ffffffffffffffffffffffffffffffffffffffff1681526020019081526020016000205461269c8560098a60028110151561264f57fe5b0160008973ffffffffffffffffffffffffffffffffffffffff1673ffffffffffffffffffffffffffffffffffffffff16815260200190815260200160002054614a6590919063ffffffff16565b1115156126a857600080fd5b6127556009886002811015156126ba57fe5b0160008773ffffffffffffffffffffffffffffffffffffffff1673ffffffffffffffffffffffffffffffffffffffff1681526020019081526020016000205460098960028110151561270857fe5b0160008973ffffffffffffffffffffffffffffffffffffffff1673ffffffffffffffffffffffffffffffffffffffff16815260200190815260200160002054614a6590919063ffffffff16565b915061276085614d1e565b6127c08460098960028110151561277357fe5b0160008973ffffffffffffffffffffffffffffffffffffffff1673ffffffffffffffffffffffffffffffffffffffff16815260200190815260200160002054614c0390919063ffffffff16565b6009886002811015156127cf57fe5b0160008873ffffffffffffffffffffffffffffffffffffffff1673ffffffffffffffffffffffffffffffffffffffff168152602001908152602001600020819055506128718460098960028110151561282457fe5b0160008873ffffffffffffffffffffffffffffffffffffffff1673ffffffffffffffffffffffffffffffffffffffff16815260200190815260200160002054614a6590919063ffffffff16565b60098860028110151561288057fe5b0160008773ffffffffffffffffffffffffffffffffffffffff1673ffffffffffffffffffffffffffffffffffffffff168152602001908152602001600020819055508473ffffffffffffffffffffffffffffffffffffffff168673ffffffffffffffffffffffffffffffffffffffff167f9ed053bb818ff08b8353cd46f78db1f0799f31c9e4458fdb425c10eccd2efc44868a604051808381526020018281526020019250505060405180910390a3816129dd60098960028110151561294257fe5b0160008873ffffffffffffffffffffffffffffffffffffffff1673ffffffffffffffffffffffffffffffffffffffff1681526020019081526020016000205460098a60028110151561299057fe5b0160008a73ffffffffffffffffffffffffffffffffffffffff1673ffffffffffffffffffffffffffffffffffffffff16815260200190815260200160002054614a6590919063ffffffff16565b1415156129e657fe5b600192505050949350505050565b6129fc6152a4565b600160009054906101000a900473ffffffffffffffffffffffffffffffffffffffff16816000600681101515612a2e57fe5b602002019073ffffffffffffffffffffffffffffffffffffffff16908173ffffffffffffffffffffffffffffffffffffffff1681525050600260009054906101000a900473ffffffffffffffffffffffffffffffffffffffff16816001600681101515612a9757fe5b602002019073ffffffffffffffffffffffffffffffffffffffff16908173ffffffffffffffffffffffffffffffffffffffff1681525050600360009054906101000a900473ffffffffffffffffffffffffffffffffffffffff16816002600681101515612b0057fe5b602002019073ffffffffffffffffffffffffffffffffffffffff16908173ffffffffffffffffffffffffffffffffffffffff1681525050600460009054906101000a900473ffffffffffffffffffffffffffffffffffffffff16816003600681101515612b6957fe5b602002019073ffffffffffffffffffffffffffffffffffffffff16908173ffffffffffffffffffffffffffffffffffffffff1681525050600560009054906101000a900473ffffffffffffffffffffffffffffffffffffffff16816004600681101515612bd257fe5b602002019073ffffffffffffffffffffffffffffffffffffffff16908173ffffffffffffffffffffffffffffffffffffffff1681525050600660009054906101000a900473ffffffffffffffffffffffffffffffffffffffff16816005600681101515612c3b57fe5b602002019073ffffffffffffffffffffffffffffffffffffffff16908173ffffffffffffffffffffffffffffffffffffffff168152505090565b6000806000600660009054906101000a900473ffffffffffffffffffffffffffffffffffffffff168073ffffffffffffffffffffffffffffffffffffffff163373ffffffffffffffffffffffffffffffffffffffff16141515612cd757600080fd5b6003600780549050118015612d2b57506001600860008773ffffffffffffffffffffffffffffffffffffffff1673ffffffffffffffffffffffffffffffffffffffff16815260200190815260200160002054145b1515612d3657600080fd5b612d3e614edb565b9250600783815481101515612d4f57fe5b9060005260206000200160009054906101000a900473ffffffffffffffffffffffffffffffffffffffff16600660006101000a81548173ffffffffffffffffffffffffffffffffffffffff021916908373ffffffffffffffffffffffffffffffffffffffff160217905550612dc383614efa565b600091505b600780549050821015612e5d578473ffffffffffffffffffffffffffffffffffffffff16600783815481101515612dfb57fe5b9060005260206000200160009054906101000a900473ffffffffffffffffffffffffffffffffffffffff1673ffffffffffffffffffffffffffffffffffffffff161415612e5057612e4b82614efa565b612e5d565b8180600101925050612dc8565b7f3b083a28fbc2d3b480250410efe1675634e4c964b7b7712dc5a2759c04e1f70b85600660009054906101000a900473ffffffffffffffffffffffffffffffffffffffff16604051808373ffffffffffffffffffffffffffffffffffffffff1673ffffffffffffffffffffffffffffffffffffffff1681526020018273ffffffffffffffffffffffffffffffffffffffff1673ffffffffffffffffffffffffffffffffffffffff1681526020019250505060405180910390a160019350505050919050565b60285481565b600080600660009054906101000a900473ffffffffffffffffffffffffffffffffffffffff168073ffffffffffffffffffffffffffffffffffffffff163373ffffffffffffffffffffffffffffffffffffffff16141515612f8857600080fd5b6000600860008773ffffffffffffffffffffffffffffffffffffffff1673ffffffffffffffffffffffffffffffffffffffff1681526020019081526020016000205414801561301657506000600860008673ffffffffffffffffffffffffffffffffffffffff1673ffffffffffffffffffffffffffffffffffffffff16815260200190815260200160002054145b801561304e57508373ffffffffffffffffffffffffffffffffffffffff168573ffffffffffffffffffffffffffffffffffffffff1614155b151561305957600080fd5b613061614edb565b915060078281548110151561307257fe5b9060005260206000200160009054906101000a900473ffffffffffffffffffffffffffffffffffffffff16600660006101000a81548173ffffffffffffffffffffffffffffffffffffffff021916908373ffffffffffffffffffffffffffffffffffffffff1602179055506130e682614efa565b60078590806001815401808255809150509060018203906000526020600020016000909192909190916101000a81548173ffffffffffffffffffffffffffffffffffffffff021916908373ffffffffffffffffffffffffffffffffffffffff160217905550506001600860008773ffffffffffffffffffffffffffffffffffffffff1673ffffffffffffffffffffffffffffffffffffffff1681526020019081526020016000208190555060078490806001815401808255809150509060018203906000526020600020016000909192909190916101000a81548173ffffffffffffffffffffffffffffffffffffffff021916908373ffffffffffffffffffffffffffffffffffffffff160217905550506001600860008673ffffffffffffffffffffffffffffffffffffffff1673ffffffffffffffffffffffffffffffffffffffff168152602001908152602001600020819055507f02ee3a216923cea2d63174f6ddce31a78142e8238d0f3071b356fac8516f77e48585600660009054906101000a900473ffffffffffffffffffffffffffffffffffffffff16604051808473ffffffffffffffffffffffffffffffffffffffff1673ffffffffffffffffffffffffffffffffffffffff1681526020018373ffffffffffffffffffffffffffffffffffffffff1673ffffffffffffffffffffffffffffffffffffffff1681526020018273ffffffffffffffffffffffffffffffffffffffff1673ffffffffffffffffffffffffffffffffffffffff168152602001935050505060405180910390a160019250505092915050565b600f6020528060005260406000206000915090505481565b600080600160009054906101000a900473ffffffffffffffffffffffffffffffffffffffff168073ffffffffffffffffffffffffffffffffffffffff163373ffffffffffffffffffffffffffffffffffffffff161415156133ad57600080fd5b600060058111156133ba57fe5b6000809054906101000a900460ff1660058111156133d457fe5b14806134045750600160058111156133e857fe5b6000809054906101000a900460ff16600581111561340257fe5b145b151561340f57600080fd5b6000851415613439576127108410151561342857600080fd5b601b54915083601b819055506134fb565b600185141561345357601e54915083601e819055506134fa565b600285141561346d57601d54915083601d819055506134f9565b600385141561348757601f54915083601f819055506134f8565b60048514156134a1576020549150836020819055506134f7565b60058514156134bb576021549150836021819055506134f6565b60068514156134d5576022549150836022819055506134f5565b60078514156134ef576023549150836023819055506134f4565b600080fd5b5b5b5b5b5b5b5b7fabd08d77cf1eed600c8ba851f4210365f6695aa58b9500aa52a83db7d8b534ba85838660405180848152602001838152602001828152602001935050505060405180910390a160019250505092915050565b600080600080600080600180600581111561356557fe5b6000809054906101000a900460ff16600581111561357f57fe5b14151561358b57600080fd5b60008a11801561359b5750600089115b15156135a657600080fd5b6135cf6014546135c16127108d614aae90919063ffffffff16565b614ae190919063ffffffff16565b95508886106135de57886135e0565b855b945061360b6127106135fd60145488614aae90919063ffffffff16565b614ae190919063ffffffff16565b9350339250836009600060028110151561362157fe5b0160008573ffffffffffffffffffffffffffffffffffffffff1673ffffffffffffffffffffffffffffffffffffffff16815260200190815260200160002054101580156136bc5750846009600160028110151561367a57fe5b0160008573ffffffffffffffffffffffffffffffffffffffff1673ffffffffffffffffffffffffffffffffffffffff1681526020019081526020016000205410155b15156136c757600080fd5b61373960155461372b60106000015461371d670de0b6b3a764000061370f670de0b6b3a76400006137018d8d614a6590919063ffffffff16565b614aae90919063ffffffff16565b614aae90919063ffffffff16565b614ae190919063ffffffff16565b614ae190919063ffffffff16565b9150613745828961507f565b91506137a8846009600060028110151561375b57fe5b0160008673ffffffffffffffffffffffffffffffffffffffff1673ffffffffffffffffffffffffffffffffffffffff16815260200190815260200160002054614c0390919063ffffffff16565b600960006002811015156137b857fe5b0160008573ffffffffffffffffffffffffffffffffffffffff1673ffffffffffffffffffffffffffffffffffffffff1681526020019081526020016000208190555061385b856009600160028110151561380e57fe5b0160008673ffffffffffffffffffffffffffffffffffffffff1673ffffffffffffffffffffffffffffffffffffffff16815260200190815260200160002054614c0390919063ffffffff16565b6009600160028110151561386b57fe5b0160008573ffffffffffffffffffffffffffffffffffffffff1673ffffffffffffffffffffffffffffffffffffffff168152602001908152602001600020819055506138c284602854614c0390919063ffffffff16565b6028819055506138dd85602954614c0390919063ffffffff16565b60298190555061393582600f60008673ffffffffffffffffffffffffffffffffffffffff1673ffffffffffffffffffffffffffffffffffffffff16815260200190815260200160002054614a6590919063ffffffff16565b600f60008573ffffffffffffffffffffffffffffffffffffffff1673ffffffffffffffffffffffffffffffffffffffff16815260200190815260200160002081905550600196505050505050509392505050565b600080600080600080602b60009054906101000a900473ffffffffffffffffffffffffffffffffffffffff169550602c60009054906101000a900473ffffffffffffffffffffffffffffffffffffffff169250602d600001549450602d600101549350602f600001549150602f600101549050909192939495565b600080600080600080613a34601c54613a268a8d614c0390919063ffffffff16565b614ae190919063ffffffff16565b9350613a6389613a55670de0b6b3a76400008e614aae90919063ffffffff16565b614ae190919063ffffffff16565b9250613ace87613ac0612710613ab2613a89612710601454614a6590919063ffffffff16565b613aa4670de0b6b3a76400008a614aae90919063ffffffff16565b614aae90919063ffffffff16565b614ae190919063ffffffff16565b614ae190919063ffffffff16565b9250613aff670de0b6b3a7640000613af186601754614aae90919063ffffffff16565b614a6590919063ffffffff16565b9150613b2a612710613b1c60145485614aae90919063ffffffff16565b614ae190919063ffffffff16565b90508083111515613b6c57613b5e601454613b5061271086614aae90919063ffffffff16565b614ae190919063ffffffff16565b600080905095509550613b85565b81613b808285614c0390919063ffffffff16565b955095505b505050509550959350505050565b6000600260009054906101000a900473ffffffffffffffffffffffffffffffffffffffff168073ffffffffffffffffffffffffffffffffffffffff163373ffffffffffffffffffffffffffffffffffffffff16141515613bf257600080fd5b6001806005811115613c0057fe5b6000809054906101000a900460ff166005811115613c1a57fe5b141515613c2657600080fd5b600084111515613c3557600080fd5b6016548411151515613c4657600080fd5b600260009054906101000a900473ffffffffffffffffffffffffffffffffffffffff1673ffffffffffffffffffffffffffffffffffffffff166108fc859081150290604051600060405180830381858888f19350505050158015613cae573d6000803e3d6000fd5b507fdfeef5879c25440d1418a79a16489f0e739d22ac040c8c76f7b998fc704edeb83385604051808373ffffffffffffffffffffffffffffffffffffffff1673ffffffffffffffffffffffffffffffffffffffff1681526020018281526020019250505060405180910390a1600192505050919050565b60108060000154908060010154905082565b60275481565b6000809054906101000a900460ff1681565b613d576152c7565b601454816000601481101515613d6957fe5b602002018181525050601554816001601481101515613d8457fe5b602002018181525050601654816002601481101515613d9f57fe5b602002018181525050601754816003601481101515613dba57fe5b602002018181525050601854816004601481101515613dd557fe5b602002018181525050601954816005601481101515613df057fe5b602002018181525050601a54816006601481101515613e0b57fe5b602002018181525050601b54816007601481101515613e2657fe5b602002018181525050601c54816008601481101515613e4157fe5b602002018181525050601d54816009601481101515613e5c57fe5b602002018181525050601e5481600a601481101515613e7757fe5b602002018181525050601f5481600b601481101515613e9257fe5b60200201818152505060205481600c601481101515613ead57fe5b60200201818152505060215481600d601481101515613ec857fe5b60200201818152505060225481600e601481101515613ee357fe5b60200201818152505060235481600f601481101515613efe57fe5b602002018181525050602454816010601481101515613f1957fe5b602002018181525050602554816011601481101515613f3457fe5b602002018181525050600d80549050816012601481101515613f5257fe5b602002018181525050600780549050816013601481101515613f7057fe5b60200201818152505090565b600781815481101515613f8b57fe5b906000526020600020016000915054906101000a900473ffffffffffffffffffffffffffffffffffffffff1681565b600080806005811115613fc957fe5b6000809054906101000a900460ff166005811115613fe357fe5b141515613fef57600080fd5b600360009054906101000a900473ffffffffffffffffffffffffffffffffffffffff1673ffffffffffffffffffffffffffffffffffffffff163373ffffffffffffffffffffffffffffffffffffffff1614806140985750600460009054906101000a900473ffffffffffffffffffffffffffffffffffffffff1673ffffffffffffffffffffffffffffffffffffffff163373ffffffffffffffffffffffffffffffffffffffff16145b806140f05750600560009054906101000a900473ffffffffffffffffffffffffffffffffffffffff1673ffffffffffffffffffffffffffffffffffffffff163373ffffffffffffffffffffffffffffffffffffffff16145b15156140fb57600080fd5b614103614a5d565b831115151561411157600080fd5b8260126001018190555083601260000181905550826010600101819055508360106000018190555060016000806101000a81548160ff0219169083600581111561415757fe5b0217905550600191505092915050565b6000806000806000806000600180600581111561418057fe5b6000809054906101000a900460ff16600581111561419a57fe5b1415156141a657600080fd5b6141b0348a61507f565b96506141f26127106141e46015546141d66010600001548c614aae90919063ffffffff16565b614aae90919063ffffffff16565b614aae90919063ffffffff16565b955061423761420e612710601454614a6590919063ffffffff16565b614229670de0b6b3a764000080614aae90919063ffffffff16565b614aae90919063ffffffff16565b945061424c8587614ae190919063ffffffff16565b935061427761271061426960145487614aae90919063ffffffff16565b614ae190919063ffffffff16565b925033915061428582614d1e565b6142e6836009600060028110151561429957fe5b0160008573ffffffffffffffffffffffffffffffffffffffff1673ffffffffffffffffffffffffffffffffffffffff16815260200190815260200160002054614a6590919063ffffffff16565b600960006002811015156142f657fe5b0160008473ffffffffffffffffffffffffffffffffffffffff1673ffffffffffffffffffffffffffffffffffffffff16815260200190815260200160002081905550614399846009600160028110151561434c57fe5b0160008573ffffffffffffffffffffffffffffffffffffffff1673ffffffffffffffffffffffffffffffffffffffff16815260200190815260200160002054614a6590919063ffffffff16565b600960016002811015156143a957fe5b0160008473ffffffffffffffffffffffffffffffffffffffff1673ffffffffffffffffffffffffffffffffffffffff1681526020019081526020016000208190555061440083602854614a6590919063ffffffff16565b60288190555061441b84602954614a6590919063ffffffff16565b6029819055506001975050505050505050919050565b60008060006001600860003373ffffffffffffffffffffffffffffffffffffffff1673ffffffffffffffffffffffffffffffffffffffff1681526020019081526020016000205414151561448457600080fd5b600360078054905011151561449857600080fd5b600091505b600780549050821015614532573373ffffffffffffffffffffffffffffffffffffffff166007838154811015156144d057fe5b9060005260206000200160009054906101000a900473ffffffffffffffffffffffffffffffffffffffff1673ffffffffffffffffffffffffffffffffffffffff1614156145255761452082614efa565b614532565b818060010192505061449d565b61453a614edb565b905060078181548110151561454b57fe5b9060005260206000200160009054906101000a900473ffffffffffffffffffffffffffffffffffffffff16925061458181614efa565b600360009054906101000a900473ffffffffffffffffffffffffffffffffffffffff1673ffffffffffffffffffffffffffffffffffffffff168473ffffffffffffffffffffffffffffffffffffffff16141561461d5782600360006101000a81548173ffffffffffffffffffffffffffffffffffffffff021916908373ffffffffffffffffffffffffffffffffffffffff160217905550614896565b600460009054906101000a900473ffffffffffffffffffffffffffffffffffffffff1673ffffffffffffffffffffffffffffffffffffffff168473ffffffffffffffffffffffffffffffffffffffff1614156146b95782600460006101000a81548173ffffffffffffffffffffffffffffffffffffffff021916908373ffffffffffffffffffffffffffffffffffffffff160217905550614895565b600560009054906101000a900473ffffffffffffffffffffffffffffffffffffffff1673ffffffffffffffffffffffffffffffffffffffff168473ffffffffffffffffffffffffffffffffffffffff1614156147555782600560006101000a81548173ffffffffffffffffffffffffffffffffffffffff021916908373ffffffffffffffffffffffffffffffffffffffff160217905550614894565b600260009054906101000a900473ffffffffffffffffffffffffffffffffffffffff1673ffffffffffffffffffffffffffffffffffffffff168473ffffffffffffffffffffffffffffffffffffffff1614156147f15782600260006101000a81548173ffffffffffffffffffffffffffffffffffffffff021916908373ffffffffffffffffffffffffffffffffffffffff160217905550614893565b600160009054906101000a900473ffffffffffffffffffffffffffffffffffffffff1673ffffffffffffffffffffffffffffffffffffffff168473ffffffffffffffffffffffffffffffffffffffff16141561488d5782600160006101000a81548173ffffffffffffffffffffffffffffffffffffffff021916908373ffffffffffffffffffffffffffffffffffffffff160217905550614892565b600080fd5b5b5b5b5b7fd81bb5ee4f77d798469ff246f77b10775c605f68a46984c3bf126af0623910338484604051808373ffffffffffffffffffffffffffffffffffffffff1673ffffffffffffffffffffffffffffffffffffffff1681526020018273ffffffffffffffffffffffffffffffffffffffff1673ffffffffffffffffffffffffffffffffffffffff1681526020019250505060405180910390a15050919050565b6000808514806149445750600185145b151561494f57600080fd5b81600b8660028110151561495f57fe5b0160008673ffffffffffffffffffffffffffffffffffffffff1673ffffffffffffffffffffffffffffffffffffffff16815260200190815260200160002060008573ffffffffffffffffffffffffffffffffffffffff1673ffffffffffffffffffffffffffffffffffffffff168152602001908152602001600020819055508273ffffffffffffffffffffffffffffffffffffffff168473ffffffffffffffffffffffffffffffffffffffff167fb3fd5071835887567a0671151121894ddccc2842f1d10bedad13e0d17cace9a78488604051808381526020018281526020019250505060405180910390a360019050949350505050565b60265481565b600042905090565b6000808284019050838110151515614a7957fe5b8091505092915050565b6000818311614a9b57614a968284614c03565b614aa6565b614aa58383614c03565b5b905092915050565b60008082840290506000841480614acf5750828482811515614acc57fe5b04145b1515614ad757fe5b8091505092915050565b6000808284811515614aef57fe5b0490508091505092915050565b81601260000181905550806012600101819055506000602481905550614b3b601260000154601260010154601060000154601060010154601554613a04565b6026600060276000849190505583919050555050601954602754101580614b665750601a5460275411155b80614b75575060185460265410155b15614bd15760026000806101000a81548160ff02191690836005811115614b9857fe5b021790555043602a819055507fa1f85a3680dfb51f7db8069e794f07f371ef5a545a9c915ac6315b0768a08b3f60405160405180910390a15b80827f8eb94c6a87f56bd59f4a2a7d571f32a264458ff5b910a34862b9051e5953442d60405160405180910390a35050565b6000828211151515614c1157fe5b818303905092915050565b6000807f010000000000000000000000000000000000000000000000000000000000000002614c54858461524290919063ffffffff16565b614c67858761524290919063ffffffff16565b187effffffffffffffffffffffffffffffffffffffffffffffffffffffffffffff19161415614c9857839050614d17565b60007f010000000000000000000000000000000000000000000000000000000000000002614ccf848461524290919063ffffffff16565b614ce2868661524290919063ffffffff16565b187effffffffffffffffffffffffffffffffffffffffffffffffffffffffffffff19161415614d1357829050614d17565b8190505b9392505050565b600e60008273ffffffffffffffffffffffffffffffffffffffff1673ffffffffffffffffffffffffffffffffffffffff16815260200190815260200160002060009054906101000a900460ff161515614ed857600d8190806001815401808255809150509060018203906000526020600020016000909192909190916101000a81548173ffffffffffffffffffffffffffffffffffffffff021916908373ffffffffffffffffffffffffffffffffffffffff160217905550506001600e60008373ffffffffffffffffffffffffffffffffffffffff1673ffffffffffffffffffffffffffffffffffffffff16815260200190815260200160002060006101000a81548160ff021916908315150217905550600060096000600281101515614e4157fe5b0160008373ffffffffffffffffffffffffffffffffffffffff1673ffffffffffffffffffffffffffffffffffffffff16815260200190815260200160002081905550600060096001600281101515614e9557fe5b0160008373ffffffffffffffffffffffffffffffffffffffff1673ffffffffffffffffffffffffffffffffffffffff168152602001908152602001600020819055505b50565b6000600780549050614eeb614a5d565b811515614ef457fe5b06905090565b600260086000600784815481101515614f0f57fe5b9060005260206000200160009054906101000a900473ffffffffffffffffffffffffffffffffffffffff1673ffffffffffffffffffffffffffffffffffffffff1673ffffffffffffffffffffffffffffffffffffffff16815260200190815260200160002081905550600160078054905003811015615022576007600160078054905003815481101515614f9f57fe5b9060005260206000200160009054906101000a900473ffffffffffffffffffffffffffffffffffffffff16600782815481101515614fd957fe5b9060005260206000200160006101000a81548173ffffffffffffffffffffffffffffffffffffffff021916908373ffffffffffffffffffffffffffffffffffffffff1602179055505b600760016007805490500381548110151561503957fe5b9060005260206000200160006101000a81549073ffffffffffffffffffffffffffffffffffffffff0219169055600780548091906001900361507b91906152eb565b5050565b60008060006150ad61271061509f601b5488614aae90919063ffffffff16565b614ae190919063ffffffff16565b915083156150ea576150ca82601654614a6590919063ffffffff16565b6016819055506150e38286614c0390919063ffffffff16565b925061523a565b600060019054906101000a900473ffffffffffffffffffffffffffffffffffffffff1690508073ffffffffffffffffffffffffffffffffffffffff166323b872dd3330615142601e5487614aae90919063ffffffff16565b6040518463ffffffff167c0100000000000000000000000000000000000000000000000000000000028152600401808473ffffffffffffffffffffffffffffffffffffffff1673ffffffffffffffffffffffffffffffffffffffff1681526020018373ffffffffffffffffffffffffffffffffffffffff1673ffffffffffffffffffffffffffffffffffffffff1681526020018281526020019350505050602060405180830381600087803b1580156151fa57600080fd5b505af115801561520e573d6000803e3d6000fd5b505050506040513d602081101561522457600080fd5b8101908080519060200190929190505050508492505b505092915050565b60008060007f01000000000000000000000000000000000000000000000000000000000000000290508284111561529a5760017f01000000000000000000000000000000000000000000000000000000000000000290505b8091505092915050565b60c060405190810160405280600690602082028038833980820191505090505090565b61028060405190810160405280601490602082028038833980820191505090505090565b815481835581811115615312578183600052602060002091820191016153119190615317565b5b505050565b61533991905b8082111561533557600081600090555060010161531d565b5090565b905600a165627a7a723058203f45f3ed62960aa7c6beb7c3436f25a0cc48e163942d94b2cbb4037ceb2b74210029",
  "source": "pragma solidity ^0.4.23;\r\nimport { DUO } from \"./DUO.sol\";\r\n\r\nlibrary SafeMath {\r\n\tfunction mul(uint a, uint b) internal pure returns (uint) {\r\n\t\tuint c = a * b;\r\n\t\tassert(a == 0 || c / a == b);\r\n\t\treturn c;\r\n\t}\r\n\r\n\tfunction div(uint a, uint b) internal pure returns (uint) {\r\n\t\t// assert(b > 0); // Solidity automatically throws when dividing by 0\r\n\t\tuint c = a / b;\r\n\t\t// assert(a == b * c + a % b); // There is no case in which this doesn't hold\r\n\t\treturn c;\r\n\t}\r\n\r\n\tfunction sub(uint a, uint b) internal pure returns (uint) {\r\n\t\tassert(b <= a);\r\n\t\treturn a - b;\r\n\t}\r\n\r\n\tfunction add(uint a, uint b) internal pure returns (uint) {\r\n\t\tuint c = a + b;\r\n\t\tassert(c >= a);\r\n\t\treturn c;\r\n\t}\r\n\r\n\tfunction diff(uint a, uint b) internal pure returns (uint) {\r\n\t\treturn a > b ? sub(a, b) : sub(b, a);\r\n\t}\r\n\r\n\tfunction gt(uint a, uint b) internal pure returns(bytes1) {\r\n\t\tbytes1 c;\r\n\t\tc = 0x0;\r\n\t\tif (a > b) {\r\n\t\t\tc = 0x1;\r\n\t\t}\r\n\t\treturn c;\r\n\t}\r\n}\r\n\r\ncontract Custodian {\r\n\tusing SafeMath for uint;\r\n\tenum State {\r\n\t\tInception,\r\n\t\tTrading,\r\n\t\tPreReset,\r\n\t\tUpwardReset,\r\n\t\tDownwardReset,\r\n\t\tPeriodicReset\r\n\t}\r\n\r\n\tstruct Price {\r\n\t\tuint priceInWei;\r\n\t\tuint timeInSecond;\r\n\t}\r\n\r\n\tState public state;\r\n\taddress duoTokenAddress;\r\n\t// below 6 address are returned by getSystemAddresses\r\n\taddress admin;\r\n\taddress feeCollector;\r\n\taddress priceFeed1; \r\n\taddress priceFeed2; \r\n\taddress priceFeed3;\r\n\taddress poolManager;\r\n\r\n\t// address pool for allocation\r\n\taddress[] public addrPool =[\r\n\t\t0x1952E39f7Bc9E00FAffcEa0305E09c065DBd8eFd,\r\n\t\t0x51a123239894F0C7175F9c0e9e9519d9D74194f6,\r\n\t\t0x15421ef85E1f4ED8e20Cdf35894caa3d2fb43344,\r\n\t\t0x11B73358799D057D195fCeC8B93C70E54E39da27,\r\n\t\t0xaC5E46B58417a111aAa2Dfd972e86C87C55d1c83,\r\n\t\t0xB7c034Cad16Adbcb3aD10bdAd9160220Cd0aa8BD\r\n\t];\r\n\tmapping(address => uint) addrStatus;\r\n\r\n\tuint constant decimals = 18;\r\n\t// balance and allowance for A and B\r\n\tmapping(address => uint)[2] public balanceOf;\r\n\tmapping (address => mapping (address => uint))[2] public allowance;\r\n\taddress[] public users;\r\n\tmapping (address => bool) existingUsers;\r\n\tmapping(address => uint) public ethPendingWithdrawal;\r\n\r\n\tuint constant WEI_DENOMINATOR = 1000000000000000000;\r\n\tuint constant BP_DENOMINATOR = 10000;\r\n\r\n\tPrice public resetPrice; \r\n\tPrice public lastPrice; \r\n\t// below 18 states are returned in getSystemStates\r\n\tuint alphaInBP;\r\n\tuint betaInWei = WEI_DENOMINATOR;\r\n\tuint feeAccumulatedInWei;\r\n\tuint periodCouponInWei; \r\n\tuint limitPeriodicInWei; \r\n\tuint limitUpperInWei; \r\n\tuint limitLowerInWei;\r\n\tuint commissionRateInBP;\r\n\tuint period;\r\n\tuint iterationGasThreshold = 60000;\r\n\tuint ethDuoFeeRatio = 1000;\r\n\tuint preResetWaitingBlocks = 10;\r\n\tuint priceTolInBP = 500; \r\n\tuint priceFeedTolInBP = 100;\r\n\tuint priceFeedTimeTol = 1 minutes;\r\n\tuint priceUpdateCoolDown;\r\n\tuint numOfPrices = 0;\r\n\tuint nextResetAddrIndex = 0;\r\n\t// nav and current total supply\r\n\tuint public navAInWei;\r\n\tuint public navBInWei; \r\n\tuint public totalSupplyA;\r\n\tuint public totalSupplyB;\r\n\r\n\t// cycle state variables\r\n\tuint lastPreResetBlockNo = 0;\r\n\t// below 4 data are returned in getStagingPrices\r\n\taddress firstAddr;\r\n\taddress secondAddr;\r\n\tPrice firstPrice;\r\n\tPrice secondPrice;\r\n\t\r\n\t// reset intermediate values\r\n\tuint bAdj;\r\n\tuint newAFromAPerA;\r\n\tuint newAFromBPerB;\r\n\tuint newBFromAPerA;\r\n\tuint newBFromBPerB;\r\n\r\n\tmodifier inState(State _state) {\r\n\t\trequire(state == _state);\r\n\t\t_;\r\n\t}\r\n\r\n\tmodifier only(address addr) {\r\n\t\trequire(msg.sender == addr);\r\n\t\t_;\r\n\t}\r\n\r\n\tmodifier isPriceFeed() {\r\n\t\trequire(msg.sender == priceFeed1 || msg.sender == priceFeed2 || msg.sender == priceFeed3);\r\n\t\t_;\r\n\t}\r\n\r\n\tmodifier inAddrPool() {\r\n\t\trequire(addrStatus[msg.sender] == 1);\r\n\t\t_;\r\n\t}\r\n\r\n\t// state events\r\n\tevent StartTrading();\r\n\tevent StartPreReset();\r\n\tevent StartReset();\r\n\tevent CommitPrice(uint indexed priceInWei, uint indexed timeInSecond, address sender, uint index);\r\n\tevent AcceptPrice(uint indexed priceInWei, uint indexed timeInSecond);\r\n\r\n\t// token events\r\n\tevent Transfer(address indexed from, address indexed to, uint value, uint index);\r\n\tevent Approval(address indexed tokenOwner, address indexed spender, uint tokens, uint index);\r\n\t\r\n\t// admin events\r\n\tevent AddAddress(address added1, address added2, address newPoolManager);\r\n\tevent UpdateAddress(address current, address newAddr);\r\n\tevent RemoveAddress(address addr, address newPoolManager);\r\n\tevent SetValue(uint index, uint oldValue, uint newValue);\r\n\tevent CollectFee(address addr, uint value);\r\n\t\r\n\tconstructor(\r\n\t\taddress feeAddress, \r\n\t\taddress duoAddress,\r\n\t\taddress pf1,\r\n\t\taddress pf2,\r\n\t\taddress pf3,\r\n\t\taddress poolMng,\r\n\t\tuint alpha,\r\n\t\tuint r,\r\n\t\tuint hp,\r\n\t\tuint hu,\r\n\t\tuint hd,\r\n\t\tuint c,\r\n\t\tuint p,\r\n\t\tuint coolDown) \r\n\t\tpublic \r\n\t{\r\n\t\tfor (uint i = 0; i < addrPool.length; i++) {\r\n\t\t\taddrStatus[addrPool[i]] = 1;\r\n\t\t}\r\n\t\tstate = State.Inception;\r\n\t\tpoolManager = poolMng;\r\n\t\taddrStatus[poolManager] = 2;\r\n\t\tadmin = msg.sender;\r\n\t\taddrStatus[admin] = 2;\r\n\t\tcommissionRateInBP = 100;\r\n\t\tfeeCollector = feeAddress;\r\n\t\taddrStatus[feeCollector] = 2;\r\n\t\tpriceFeed1 = pf1;\r\n\t\taddrStatus[priceFeed1] = 2;\r\n\t\tpriceFeed2 = pf2;\r\n\t\taddrStatus[priceFeed2] = 2;\r\n\t\tpriceFeed3 = pf3;\r\n\t\taddrStatus[priceFeed3] = 2;\r\n\t\tduoTokenAddress = duoAddress;\r\n\t\taddrStatus[duoTokenAddress] = 2;\r\n\t\talphaInBP = alpha;\r\n\t\tperiodCouponInWei = r; \r\n\t\tlimitPeriodicInWei = hp; \r\n\t\tlimitUpperInWei = hu; \r\n\t\tlimitLowerInWei = hd;\r\n\t\tcommissionRateInBP = c;\r\n\t\tperiod = p;\r\n\t\tnavAInWei = WEI_DENOMINATOR;\r\n\t\tnavBInWei = WEI_DENOMINATOR;\r\n\t\tpriceUpdateCoolDown = coolDown;\r\n\t\tbAdj = alphaInBP.add(BP_DENOMINATOR).mul(WEI_DENOMINATOR).div(BP_DENOMINATOR);\r\n\t}\r\n\r\n\t// start of public functions\r\n\tfunction create(bool payFeeInEth) \r\n\t\tpublic \r\n\t\tpayable \r\n\t\tinState(State.Trading) \r\n\t\treturns (bool success) \r\n\t{\r\n\t\tuint ethAmtInWei = deductFee(msg.value, payFeeInEth);\r\n\t\tuint numeritor = ethAmtInWei\r\n\t\t\t\t\t\t.mul(resetPrice.priceInWei)\r\n\t\t\t\t\t\t.mul(betaInWei)\r\n\t\t\t\t\t\t.mul(BP_DENOMINATOR\r\n\t\t);\r\n\t\tuint denominator = WEI_DENOMINATOR\r\n\t\t\t\t\t\t.mul(WEI_DENOMINATOR)\r\n\t\t\t\t\t\t.mul(alphaInBP\r\n\t\t\t\t\t\t\t.add(BP_DENOMINATOR)\r\n\t\t);\r\n\t\tuint tokenValueB = numeritor.div(denominator);\r\n\t\tuint tokenValueA = tokenValueB.mul(alphaInBP).div(BP_DENOMINATOR);\r\n\t\taddress sender = msg.sender;\r\n\t\tcheckNewUser(sender);\r\n\t\tbalanceOf[0][sender] = balanceOf[0][sender].add(tokenValueA);\r\n\t\tbalanceOf[1][sender] = balanceOf[1][sender].add(tokenValueB);\r\n\t\ttotalSupplyA = totalSupplyA.add(tokenValueA);\r\n\t\ttotalSupplyB = totalSupplyB.add(tokenValueB);\r\n\t\treturn true;\r\n\t}\r\n\r\n\tfunction redeem(uint amtInWeiA, uint amtInWeiB, bool payFeeInEth) \r\n\t\tpublic \r\n\t\tinState(State.Trading) \r\n\t\treturns (bool success) \r\n\t{\r\n\t\trequire(amtInWeiA > 0 && amtInWeiB > 0);\r\n\t\tuint adjAmtInWeiA = amtInWeiA.mul(BP_DENOMINATOR).div(alphaInBP);\r\n\t\tuint deductAmtInWeiB = adjAmtInWeiA < amtInWeiB ? adjAmtInWeiA : amtInWeiB;\r\n\t\tuint deductAmtInWeiA = deductAmtInWeiB.mul(alphaInBP).div(BP_DENOMINATOR);\r\n\t\taddress sender = msg.sender;\r\n\t\trequire(balanceOf[0][sender] >= deductAmtInWeiA && balanceOf[1][sender] >= deductAmtInWeiB);\r\n\t\tuint ethAmtInWei = deductAmtInWeiA\r\n\t\t\t.add(deductAmtInWeiB)\r\n\t\t\t.mul(WEI_DENOMINATOR)\r\n\t\t\t.mul(WEI_DENOMINATOR)\r\n\t\t\t.div(resetPrice.priceInWei)\r\n\t\t\t.div(betaInWei);\r\n\t\tethAmtInWei = deductFee(ethAmtInWei, payFeeInEth);\r\n\t\tbalanceOf[0][sender] = balanceOf[0][sender].sub(deductAmtInWeiA);\r\n\t\tbalanceOf[1][sender] = balanceOf[1][sender].sub(deductAmtInWeiB);\r\n\t\ttotalSupplyA = totalSupplyA.sub(deductAmtInWeiA);\r\n\t\ttotalSupplyB = totalSupplyB.sub(deductAmtInWeiB);\r\n\t\tethPendingWithdrawal[sender] = ethPendingWithdrawal[sender].add(ethAmtInWei);\r\n\t\treturn true;\r\n\t}\r\n\r\n\tfunction withdraw(uint amtEthInWei) public inState(State.Trading) returns (bool success) {\r\n\t\trequire(amtEthInWei > 0 && amtEthInWei <= ethPendingWithdrawal[msg.sender] && amtEthInWei < address(this).balance);\r\n\t\tethPendingWithdrawal[msg.sender] = ethPendingWithdrawal[msg.sender].sub(amtEthInWei);\r\n\t\tmsg.sender.transfer(amtEthInWei);\r\n\t\treturn true;\r\n\t}\r\n\r\n\tfunction deductFee(uint ethAmtInWei, bool payFeeInEth) internal returns (uint ethAmtAfterFeeInWei) {\r\n\t\tuint feeInWei = ethAmtInWei.mul(commissionRateInBP).div(BP_DENOMINATOR);\r\n\t\tif (payFeeInEth) {\r\n\t\t\tfeeAccumulatedInWei = feeAccumulatedInWei.add(feeInWei);\r\n\t\t\tethAmtAfterFeeInWei = ethAmtInWei.sub(feeInWei);\r\n\t\t} else {\r\n\t\t\tDUO duoToken = DUO(duoTokenAddress);\r\n\t\t\tduoToken.transferFrom(msg.sender, this, feeInWei.mul(ethDuoFeeRatio));\r\n\t\t\tethAmtAfterFeeInWei = ethAmtInWei;\r\n\t\t}\r\n\t}\r\n\t\r\n\tfunction calculateNav(\r\n\t\tuint priceInWei, \r\n\t\tuint timeInSecond, \r\n\t\tuint resetPriceInWei, \r\n\t\tuint resetTimeInSecond,\r\n\t\tuint bInWei) \r\n\t\tpublic \r\n\t\tview \r\n\t\treturns (uint, uint) \r\n\t{\r\n\t\tuint numOfPeriods = timeInSecond.sub(resetTimeInSecond).div(period);\r\n\t\tuint navParent = priceInWei.mul(WEI_DENOMINATOR).div(resetPriceInWei);\r\n\t\tnavParent = navParent\r\n\t\t\t.mul(WEI_DENOMINATOR)\r\n\t\t\t.mul(alphaInBP.add(BP_DENOMINATOR))\r\n\t\t\t.div(BP_DENOMINATOR)\r\n\t\t\t.div(bInWei\r\n\t\t);\r\n\t\tuint navA = periodCouponInWei.mul(numOfPeriods).add(WEI_DENOMINATOR);\r\n\t\tuint navAAdj = navA.mul(alphaInBP).div(BP_DENOMINATOR);\r\n\t\tif (navParent <= navAAdj)\r\n\t\t\treturn (navParent.mul(BP_DENOMINATOR).div(alphaInBP), 0);\r\n\t\telse\r\n\t\t\treturn (navA, navParent.sub(navAAdj));\r\n\t}\r\n\r\n\tfunction startPreReset() public inState(State.PreReset) returns (bool success) {\r\n\t\tif (block.number - lastPreResetBlockNo >= preResetWaitingBlocks) {\r\n\t\t\tuint newBFromA;\r\n\t\t\tuint newAFromA;\r\n\t\t\tif (navBInWei >= limitUpperInWei) {\r\n\t\t\t\tstate = State.UpwardReset;\r\n\t\t\t\tbetaInWei = WEI_DENOMINATOR;\r\n\t\t\t\tuint excessAInWei = navAInWei.sub(WEI_DENOMINATOR);\r\n\t\t\t\tuint excessBInWei = navBInWei.sub(WEI_DENOMINATOR);\r\n\t\t\t\t// excessive B is enough to cover excessive A\r\n\t\t\t\t//if (excessBInWei >= excessAInWei) {\r\n\t\t\t\tuint excessBAfterAInWei = excessBInWei.sub(excessAInWei);\r\n\t\t\t\tnewAFromAPerA = excessAInWei;\r\n\t\t\t\tnewBFromAPerA = 0;\r\n\t\t\t\tuint newBFromExcessBPerB = excessBAfterAInWei.mul(betaInWei).div(bAdj);\r\n\t\t\t\tnewAFromBPerB = newBFromExcessBPerB.mul(alphaInBP).div(BP_DENOMINATOR);\r\n\t\t\t\tnewBFromBPerB = excessAInWei.add(newBFromExcessBPerB);\t\t\t\r\n\t\t\t\t// ignore this case for now as it requires a very high coupon rate \r\n\t\t\t\t// and very low upper limit for upward reset and a very high periodic limit\r\n\t\t\t\t/*} else {\r\n\t\t\t\t\tuint excessAForBInWei = excessBInWei.mul(alphaInBP).div(BP_DENOMINATOR);\r\n\t\t\t\t\tuint excessAAfterBInWei = excessAInWei.sub(excessAForBInWei);\r\n\t\t\t\t\tnewAFromBPerB = 0;\r\n\t\t\t\t\tnewBFromBPerB = excessBInWei;\r\n\t\t\t\t\tnewBFromAPerA = excessAAfterBInWei.mul(betaInWei).div(bAdj);\r\n\t\t\t\t\tnewAFromAPerA = excessAForBInWei.add(newBFromAPerA.mul(alphaInBP).div(BP_DENOMINATOR));\r\n\t\t\t\t}*/\r\n\t\t\t\t// adjust total supply\r\n\t\t\t\ttotalSupplyA = totalSupplyA\r\n\t\t\t\t\t.add(totalSupplyA\r\n\t\t\t\t\t\t.mul(newAFromAPerA)\r\n\t\t\t\t\t\t.add(totalSupplyB\r\n\t\t\t\t\t\t\t.mul(newAFromBPerB))\r\n\t\t\t\t\t\t.div(WEI_DENOMINATOR)\r\n\t\t\t\t);\r\n\t\t\t\ttotalSupplyB = totalSupplyB\r\n\t\t\t\t\t.add(totalSupplyA\r\n\t\t\t\t\t\t.mul(newBFromAPerA)\r\n\t\t\t\t\t\t.add(totalSupplyB\r\n\t\t\t\t\t\t\t.mul(newBFromBPerB))\r\n\t\t\t\t\t\t.div(WEI_DENOMINATOR)\r\n\t\t\t\t);\r\n\t\t\t} else if(navBInWei <= limitLowerInWei) {\r\n\t\t\t\tstate = State.DownwardReset;\r\n\t\t\t\tbetaInWei = WEI_DENOMINATOR;\r\n\t\t\t\tnewBFromAPerA = navAInWei.sub(navBInWei).mul(betaInWei).div(bAdj);\r\n\t\t\t\t// below are not used and set to 0\r\n\t\t\t\tnewAFromAPerA = 0;\r\n\t\t\t\tnewBFromBPerB = 0;\r\n\t\t\t\tnewAFromBPerB = 0;\r\n\t\t\t\t// adjust total supply\r\n\t\t\t\tnewBFromA = totalSupplyA.mul(newBFromAPerA).div(WEI_DENOMINATOR);\r\n\t\t\t\tnewAFromA = newBFromA.mul(alphaInBP).div(BP_DENOMINATOR);\r\n\t\t\t\ttotalSupplyA = totalSupplyA.mul(navBInWei).div(WEI_DENOMINATOR).add(newAFromA);\r\n\t\t\t\ttotalSupplyB = totalSupplyB.mul(navBInWei).div(WEI_DENOMINATOR).add(newBFromA);\r\n\t\t\t} else { // navAInWei >= limitPeriodicInWei\r\n\t\t\t\tstate = State.PeriodicReset;\r\n\t\t\t\tuint num = alphaInBP\r\n\t\t\t\t\t.add(BP_DENOMINATOR)\r\n\t\t\t\t\t.mul(lastPrice.priceInWei);\r\n\t\t\t\tuint den = num\r\n\t\t\t\t\t.sub(\r\n\t\t\t\t\t\tresetPrice.priceInWei\r\n\t\t\t\t\t\t\t.mul(alphaInBP)\r\n\t\t\t\t\t\t\t.mul(betaInWei)\r\n\t\t\t\t\t\t\t.mul(navAInWei\r\n\t\t\t\t\t\t\t\t.sub(WEI_DENOMINATOR))\r\n\t\t\t\t\t\t\t.div(WEI_DENOMINATOR)\r\n\t\t\t\t\t\t\t.div(WEI_DENOMINATOR)\r\n\t\t\t\t);\r\n\t\t\t\tbetaInWei = betaInWei.mul(num).div(den);\r\n\t\t\t\tnewBFromAPerA = navAInWei.sub(WEI_DENOMINATOR).mul(betaInWei).div(bAdj);\r\n\t\t\t\t// below are not used and set to 0\r\n\t\t\t\tnewBFromBPerB = 0;\r\n\t\t\t\tnewAFromAPerA = 0;\r\n\t\t\t\tnewAFromBPerB = 0;\r\n\t\t\t\t// adjust total supply\r\n\t\t\t\tnewBFromA = totalSupplyA.mul(newBFromAPerA).div(WEI_DENOMINATOR);\r\n\t\t\t\tnewAFromA = newBFromA.mul(alphaInBP).div(BP_DENOMINATOR);\r\n\t\t\t\ttotalSupplyA = totalSupplyA.add(newAFromA);\r\n\t\t\t\ttotalSupplyB = totalSupplyB.add(newBFromA);\r\n\t\t\t}\r\n\r\n\t\t\temit StartReset();\r\n\t\t} else \r\n\t\t\temit StartPreReset();\r\n\r\n\t\treturn true;\r\n\t}\r\n\r\n\tfunction startReset() public returns (bool success) {\r\n\t\trequire(state == State.UpwardReset || state == State.DownwardReset || state == State.PeriodicReset);\r\n\t\tuint currentBalanceA;\r\n\t\tuint currentBalanceB;\r\n\t\tuint newBalanceA;\r\n\t\tuint newBalanceB;\r\n\t\tuint newAFromA;\r\n\t\tuint newBFromA;\r\n\t\taddress currentAddress;\r\n\t\tuint localResetAddrIndex = nextResetAddrIndex;\r\n\t\twhile (localResetAddrIndex < users.length && gasleft() > iterationGasThreshold) {\r\n\t\t\tcurrentAddress = users[nextResetAddrIndex];\r\n\t\t\tcurrentBalanceA = balanceOf[0][currentAddress];\r\n\t\t\tcurrentBalanceB = balanceOf[1][currentAddress];\r\n\t\t\tif (state == State.DownwardReset) {\r\n\t\t\t\tnewBFromA = currentBalanceA.mul(newBFromAPerA).div(WEI_DENOMINATOR);\r\n\t\t\t\tnewAFromA = newBFromA.mul(alphaInBP).div(BP_DENOMINATOR);\r\n\t\t\t\tnewBalanceA = currentBalanceA.mul(navBInWei).div(WEI_DENOMINATOR).add(newAFromA);\r\n\t\t\t\tnewBalanceB = currentBalanceB.mul(navBInWei).div(WEI_DENOMINATOR).add(newBFromA);\r\n\t\t\t}\r\n\t\t\telse if (state == State.UpwardReset) {\r\n\t\t\t\tnewBalanceA = currentBalanceA\r\n\t\t\t\t\t.add(currentBalanceA\r\n\t\t\t\t\t\t.mul(newAFromAPerA)\r\n\t\t\t\t\t\t.add(currentBalanceB\r\n\t\t\t\t\t\t\t.mul(newAFromBPerB))\r\n\t\t\t\t\t\t.div(WEI_DENOMINATOR)\r\n\t\t\t\t);\r\n\t\t\t\tnewBalanceB = currentBalanceB\r\n\t\t\t\t\t.add(currentBalanceA\r\n\t\t\t\t\t\t.mul(newBFromAPerA)\r\n\t\t\t\t\t\t.add(currentBalanceB\r\n\t\t\t\t\t\t\t.mul(newBFromBPerB))\r\n\t\t\t\t\t\t.div(WEI_DENOMINATOR)\r\n\t\t\t\t);\r\n\t\t\t} else {\r\n\t\t\t\tnewBFromA = currentBalanceA.mul(newBFromAPerA).div(WEI_DENOMINATOR);\r\n\t\t\t\tnewAFromA = newBFromA.mul(alphaInBP).div(BP_DENOMINATOR);\r\n\t\t\t\tnewBalanceA = currentBalanceA.add(newAFromA);\r\n\t\t\t\tnewBalanceB = currentBalanceB.add(newBFromA);\r\n\t\t\t}\r\n\r\n\t\t\tbalanceOf[0][currentAddress] = newBalanceA;\r\n\t\t\tbalanceOf[1][currentAddress] = newBalanceB;\r\n\t\t\tlocalResetAddrIndex++;\r\n\t\t}\r\n\r\n\t\tif (localResetAddrIndex >= users.length) {\r\n\t\t\tif (state != State.PeriodicReset) {\r\n\t\t\t\tresetPrice.priceInWei = lastPrice.priceInWei;\r\n\t\t\t\tresetPrice.timeInSecond = lastPrice.timeInSecond;\r\n\t\t\t\tnavBInWei = WEI_DENOMINATOR;\r\n\t\t\t}\r\n\t\t\t\r\n\t\t\tnavAInWei = WEI_DENOMINATOR;\r\n\t\t\tnextResetAddrIndex = 0;\r\n\r\n\t\t\tstate = State.Trading;\r\n\t\t\temit StartTrading();\r\n\t\t\treturn true;\r\n\t\t} else{\r\n\t\t\tnextResetAddrIndex = localResetAddrIndex;\r\n\t\t\temit StartReset();\r\n\t\t\treturn false;\r\n\t\t}\r\n\t}\r\n\r\n\tfunction getSystemAddresses() public view returns (address[6] sysAddr) {\r\n\t\tsysAddr[0] = admin;\r\n\t\tsysAddr[1] = feeCollector;\r\n\t\tsysAddr[2] = priceFeed1; \r\n\t\tsysAddr[3] = priceFeed2; \r\n\t\tsysAddr[4] = priceFeed3;\r\n\t\tsysAddr[5] = poolManager;\r\n\t}\r\n\r\n\tfunction getSystemStates() public view returns (uint[20] sysState) {\r\n\t\tsysState[0] = alphaInBP;\r\n\t\tsysState[1] = betaInWei;\r\n\t\tsysState[2] = feeAccumulatedInWei;\r\n\t\tsysState[3] = periodCouponInWei; \r\n\t\tsysState[4] = limitPeriodicInWei; \r\n\t\tsysState[5] = limitUpperInWei; \r\n\t\tsysState[6] = limitLowerInWei;\r\n\t\tsysState[7] = commissionRateInBP;\r\n\t\tsysState[8] = period;\r\n\t\tsysState[9] = iterationGasThreshold;\r\n\t\tsysState[10] = ethDuoFeeRatio;\r\n\t\tsysState[11] = preResetWaitingBlocks;\r\n\t\tsysState[12] = priceTolInBP; \r\n\t\tsysState[13] = priceFeedTolInBP;\r\n\t\tsysState[14] = priceFeedTimeTol;\r\n\t\tsysState[15] = priceUpdateCoolDown;\r\n\t\tsysState[16] = numOfPrices;\r\n\t\tsysState[17] = nextResetAddrIndex;\r\n\t\tsysState[18] = users.length;\r\n\t\tsysState[19] = addrPool.length;\r\n\t}\r\n\r\n\tfunction getStagingPrices() \r\n\t\tpublic \r\n\t\tview \r\n\t\treturns (\r\n\t\t\taddress addr1, \r\n\t\t\tuint px1, \r\n\t\t\tuint ts1, \r\n\t\t\taddress addr2, \r\n\t\t\tuint px2, \r\n\t\t\tuint ts2) \r\n\t{\r\n\t\taddr1 = firstAddr;\r\n\t\taddr2 = secondAddr;\r\n\t\tpx1 = firstPrice.priceInWei;\r\n\t\tts1 = firstPrice.timeInSecond;\r\n\t\tpx2 = secondPrice.priceInWei;\r\n\t\tts2 = secondPrice.timeInSecond;\r\n\t}\r\n\r\n\t// end of public functions\r\n\t// start of price feed functions\r\n\r\n\tfunction startContract(\r\n\t\tuint priceInWei, \r\n\t\tuint timeInSecond) \r\n\t\tpublic \r\n\t\tinState(State.Inception) \r\n\t\tisPriceFeed() \r\n\t\treturns (bool success) \r\n\t{\r\n\t\trequire(timeInSecond <= getNowTimestamp());\r\n\t\tlastPrice.timeInSecond = timeInSecond;\r\n\t\tlastPrice.priceInWei = priceInWei;\r\n\t\tresetPrice.timeInSecond = timeInSecond;\r\n\t\tresetPrice.priceInWei = priceInWei;\r\n\t\tstate = State.Trading;\r\n\t\treturn true;\r\n\t}\r\n\r\n\tfunction commitPrice(uint priceInWei, uint timeInSecond) \r\n\t\tpublic \r\n\t\tinState(State.Trading) \r\n\t\tisPriceFeed()\r\n\t\treturns (bool success)\r\n\t{\t\r\n\t\trequire(timeInSecond <= getNowTimestamp());\r\n\t\trequire(timeInSecond > lastPrice.timeInSecond.add(priceUpdateCoolDown));\r\n\t\tuint priceDiff;\r\n\t\tif (numOfPrices == 0) {\r\n\t\t\tpriceDiff = priceInWei.diff(lastPrice.priceInWei);\r\n\t\t\tif (priceDiff.mul(BP_DENOMINATOR).div(lastPrice.priceInWei) <= priceTolInBP) {\r\n\t\t\t\tacceptPrice(priceInWei, timeInSecond);\r\n\t\t\t} else {\r\n\t\t\t\t// wait for the second price\r\n\t\t\t\tfirstPrice = Price(priceInWei, timeInSecond);\r\n\t\t\t\tfirstAddr = msg.sender;\r\n\t\t\t\temit CommitPrice(priceInWei, timeInSecond, msg.sender, 0);\r\n\t\t\t\tnumOfPrices++;\r\n\t\t\t}\r\n\t\t} else if (numOfPrices == 1) {\r\n\t\t\tif (timeInSecond > firstPrice.timeInSecond.add(priceUpdateCoolDown)) {\r\n\t\t\t\tif (firstAddr == msg.sender)\r\n\t\t\t\t\tacceptPrice(priceInWei, timeInSecond);\r\n\t\t\t\telse\r\n\t\t\t\t\tacceptPrice(firstPrice.priceInWei, timeInSecond);\r\n\t\t\t} else {\r\n\t\t\t\trequire(firstAddr != msg.sender);\r\n\t\t\t\t// if second price times out, use first one\r\n\t\t\t\tif (firstPrice.timeInSecond.add(priceFeedTimeTol) < timeInSecond || \r\n\t\t\t\t\tfirstPrice.timeInSecond.sub(priceFeedTimeTol) > timeInSecond) {\r\n\t\t\t\t\tacceptPrice(firstPrice.priceInWei, firstPrice.timeInSecond);\r\n\t\t\t\t} else {\r\n\t\t\t\t\tpriceDiff = priceInWei.diff(firstPrice.priceInWei);\r\n\t\t\t\t\tif (priceDiff.mul(BP_DENOMINATOR).div(firstPrice.priceInWei) <= priceTolInBP) {\r\n\t\t\t\t\t\tacceptPrice(firstPrice.priceInWei, firstPrice.timeInSecond);\r\n\t\t\t\t\t} else {\r\n\t\t\t\t\t\t// wait for the third price\r\n\t\t\t\t\t\tsecondPrice = Price(priceInWei, timeInSecond);\r\n\t\t\t\t\t\tsecondAddr = msg.sender;\r\n\t\t\t\t\t\temit CommitPrice(priceInWei, timeInSecond, msg.sender, 1);\r\n\t\t\t\t\t\tnumOfPrices++;\r\n\t\t\t\t\t} \r\n\t\t\t\t}\r\n\t\t\t}\r\n\t\t} else if (numOfPrices == 2) {\r\n\t\t\tif (timeInSecond > firstPrice.timeInSecond + priceUpdateCoolDown) {\r\n\t\t\t\tif ((firstAddr == msg.sender || secondAddr == msg.sender))\r\n\t\t\t\t\tacceptPrice(priceInWei, timeInSecond);\r\n\t\t\t\telse\r\n\t\t\t\t\tacceptPrice(secondPrice.priceInWei, timeInSecond);\r\n\t\t\t} else {\r\n\t\t\t\trequire(firstAddr != msg.sender && secondAddr != msg.sender);\r\n\t\t\t\tuint acceptedPriceInWei;\r\n\t\t\t\t// if third price times out, use first one\r\n\t\t\t\tif (firstPrice.timeInSecond.add(priceFeedTimeTol) < timeInSecond || \r\n\t\t\t\t\tfirstPrice.timeInSecond.sub(priceFeedTimeTol) > timeInSecond) {\r\n\t\t\t\t\tacceptedPriceInWei = firstPrice.priceInWei;\r\n\t\t\t\t} else {\r\n\t\t\t\t\t// take median and proceed\r\n\t\t\t\t\t// first and second price will never be equal in this part\r\n\t\t\t\t\t// if second and third price are the same, they are median\r\n\t\t\t\t\tif (secondPrice.priceInWei == priceInWei) {\r\n\t\t\t\t\t\tacceptedPriceInWei = priceInWei;\r\n\t\t\t\t\t} else {\r\n\t\t\t\t\t\tacceptedPriceInWei = getMedian(firstPrice.priceInWei, secondPrice.priceInWei, priceInWei);\r\n\t\t\t\t\t}\r\n\t\t\t\t}\r\n\t\t\t\tacceptPrice(acceptedPriceInWei, firstPrice.timeInSecond);\r\n\t\t\t}\r\n\t\t} else {\r\n\t\t\treturn false;\r\n\t\t}\r\n\r\n\t\treturn true;\r\n\t}\r\n\r\n\tfunction acceptPrice(uint priceInWei, uint timeInSecond) internal {\r\n\t\tlastPrice.priceInWei = priceInWei;\r\n\t\tlastPrice.timeInSecond = timeInSecond;\r\n\t\tnumOfPrices = 0;\r\n\t\t(navAInWei, navBInWei) = calculateNav(\r\n\t\t\tlastPrice.priceInWei, \r\n\t\t\tlastPrice.timeInSecond, \r\n\t\t\tresetPrice.priceInWei, \r\n\t\t\tresetPrice.timeInSecond, \r\n\t\t\tbetaInWei);\r\n\t\tif (navBInWei >= limitUpperInWei || navBInWei <= limitLowerInWei || navAInWei >= limitPeriodicInWei) {\r\n\t\t\tstate = State.PreReset;\r\n\t\t\tlastPreResetBlockNo = block.number;\r\n\t\t\temit StartPreReset();\r\n\t\t} \r\n\t\temit AcceptPrice(priceInWei, timeInSecond);\r\n\t}\r\n\r\n\tfunction getMedian(uint a, uint b, uint c) internal pure returns (uint) {\r\n\t\tif (a.gt(b) ^ c.gt(a) == 0x0) {\r\n\t\t\treturn a;\r\n\t\t} else if(b.gt(a) ^ c.gt(b) == 0x0) {\r\n\t\t\treturn b;\r\n\t\t} else {\r\n\t\t\treturn c;\r\n\t\t}\r\n\t}\r\n\r\n\t// end of price feed functions\t\r\n\t// start of token functions\r\n\t\r\n\tfunction transfer(uint index, address _from, address _to, uint _tokens) \r\n\t\tpublic \r\n\t\tinState(State.Trading)\r\n\t\treturns (bool success) \r\n\t{\r\n\t\trequire(index == 0 || index == 1);\r\n\t\t// Prevent transfer to 0x0 address. Use burn() instead\r\n\t\trequire(_to != 0x0);\r\n\t\t// Check if the sender has enough\r\n\t\trequire(balanceOf[index][_from] >= _tokens);\r\n\t\t// Check for overflows\r\n\t\trequire(balanceOf[index][_to].add(_tokens) > balanceOf[index][_to]);\r\n\r\n\t\t// Save this for an assertion in the future\r\n\t\tuint previousBalances = balanceOf[index][_from].add(balanceOf[index][_to]);\r\n\t\t//check whether _to is new. if new then add\r\n\t\tcheckNewUser(_to);\r\n\t\t// Subtract from the sender\r\n\t\tbalanceOf[index][_from] = balanceOf[index][_from].sub(_tokens);\r\n\t\t// Add the same to the recipient\r\n\t\tbalanceOf[index][_to] = balanceOf[index][_to].add(_tokens);\r\n\t\t\r\n\t\temit Transfer(_from, _to, _tokens, index);\r\n\t\t// Asserts are used to use static analysis to find bugs in your code. They should never fail\r\n\t\tassert(balanceOf[index][_from].add(balanceOf[index][_to]) == previousBalances);\r\n\t\treturn true;\r\n\t}\r\n\r\n\tfunction approve(uint index, address _sender, address _spender, uint _tokens) \r\n\t\tpublic \r\n\t\treturns (bool success) \r\n\t{\r\n\t\trequire(index == 0 || index == 1);\r\n\t\tallowance[index][_sender][_spender] = _tokens;\r\n\t\temit Approval(_sender, _spender, _tokens, index);\r\n\t\treturn true;\r\n\t}\r\n\t\r\n\tfunction transferFrom(uint index, address _spender, address _from, address _to, uint _tokens) \r\n\t\tpublic \r\n\t\tinState(State.Trading)\r\n\t\treturns (bool success) \r\n\t{\r\n\t\trequire(index == 0 || index == 1);\r\n\t\trequire(_tokens <= allowance[index][_from][_spender]);\t // Check allowance\r\n\t\tallowance[index][_from][_spender] = allowance[index][_from][_spender].sub(_tokens);\r\n\t\ttransfer(index, _from, _to, _tokens);\r\n\t\treturn true;\r\n\t}\r\n\r\n\t// end of token functions\r\n\t// start of admin functions\r\n\r\n\tfunction collectFee(uint amountInWei) \r\n\t\tpublic \r\n\t\tonly(feeCollector) \r\n\t\tinState(State.Trading) \r\n\t\treturns (bool success) \r\n\t{\r\n\t\trequire(amountInWei > 0);\r\n\t\trequire(amountInWei <= feeAccumulatedInWei);\r\n\t\tfeeCollector.transfer(amountInWei);\r\n\t\temit CollectFee(msg.sender, amountInWei);\r\n\t\treturn true;\r\n\t}\r\n\r\n\tfunction setValue(uint idx, uint newValue) public only(admin) returns (bool success) {\r\n\t\trequire(state == State.Inception || state == State.Trading);\r\n\t\tuint oldValue;\r\n\t\tif (idx == 0) {\r\n\t\t\trequire(newValue < BP_DENOMINATOR);\r\n\t\t\toldValue = commissionRateInBP;\r\n\t\t\tcommissionRateInBP = newValue;\r\n\t\t} else if (idx == 1) {\r\n\t\t\toldValue = ethDuoFeeRatio;\r\n\t\t\tethDuoFeeRatio = newValue;\r\n\t\t} else if (idx == 2) {\r\n\t\t\toldValue = iterationGasThreshold;\r\n\t\t\titerationGasThreshold = newValue;\r\n\t\t} else if (idx == 3) {\r\n\t\t\toldValue = preResetWaitingBlocks;\r\n\t\t\tpreResetWaitingBlocks = newValue;\r\n\t\t} else if (idx == 4) {\r\n\t\t\toldValue = priceTolInBP;\r\n\t\t\tpriceTolInBP = newValue;\r\n\t\t} else if (idx == 5) {\r\n\t\t\toldValue = priceFeedTolInBP;\r\n\t\t\tpriceFeedTolInBP = newValue;\r\n\t\t} else if (idx == 6) {\r\n\t\t\toldValue = priceFeedTimeTol;\r\n\t\t\tpriceFeedTimeTol = newValue;\r\n\t\t} else if (idx == 7) {\r\n\t\t\toldValue = priceUpdateCoolDown;\r\n\t\t\tpriceUpdateCoolDown = newValue;\r\n\t\t} else {\r\n\t\t\trevert();\r\n\t\t}\r\n\r\n\t\temit SetValue(idx, oldValue, newValue);\r\n\t\treturn true;\r\n\t}\r\n\r\n\tfunction addAddress(address addr1, address addr2) public only(poolManager) returns (bool success) {\r\n\t\trequire(addrStatus[addr1] == 0 && addrStatus[addr2] == 0 && addr1 != addr2);\r\n\t\tuint index = getNextAddrIndex();\r\n\t\tpoolManager = addrPool[index];\r\n\t\tremoveFromPool(index);\r\n\t\taddrPool.push(addr1);\r\n\t\taddrStatus[addr1] = 1;\r\n\t\taddrPool.push(addr2);\r\n\t\taddrStatus[addr2] = 1;\r\n\t\temit AddAddress(addr1, addr2, poolManager);\r\n\t\treturn true;\r\n\t}\r\n\r\n\tfunction removeAddress(address addr) public only(poolManager) returns (bool success) {\r\n\t\trequire(addrPool.length > 3 && addrStatus[addr] == 1);\r\n\t\tuint index = getNextAddrIndex();\r\n\t\tpoolManager = addrPool[index];\r\n\t\tremoveFromPool(index);\r\n\t\tfor (uint i = 0; i < addrPool.length; i++) {\r\n\t\t\tif (addrPool[i] == addr) {\r\n\t\t\t\tremoveFromPool(i);\r\n\t\t\t\tbreak;\r\n            }\r\n\t\t}\r\n\t\temit RemoveAddress(addr, poolManager);\r\n\t\treturn true;\r\n\t}\r\n\r\n\tfunction updateAddress(address current) public inAddrPool() returns (address addr) {\r\n\t\trequire(addrPool.length > 3);\r\n\t\tfor (uint i = 0; i < addrPool.length; i++) {\r\n\t\t\tif (addrPool[i] == msg.sender) {\r\n\t\t\t\tremoveFromPool(i);\r\n\t\t\t\tbreak;\r\n            }\r\n\t\t}\r\n\t\tuint index = getNextAddrIndex();\r\n\t\taddr = addrPool[index];\r\n\t\tremoveFromPool(index);\r\n\r\n\t\tif (current == priceFeed1) {\r\n\t\t\tpriceFeed1 = addr;\r\n\t\t} else if (current == priceFeed2) {\r\n\t\t\tpriceFeed2 = addr;\r\n\t\t} else if (current == priceFeed3) {\r\n\t\t\tpriceFeed3 = addr;\r\n\t\t} else if (current == feeCollector) {\r\n\t\t\tfeeCollector = addr;\r\n\t\t} else if (current == admin) {\r\n\t\t\tadmin = addr;\r\n\t\t} else {\r\n\t\t\trevert();\r\n\t\t}\r\n\r\n\t\temit UpdateAddress(current, addr);\r\n\t}\r\n\r\n\tfunction removeFromPool(uint idx) internal  {\r\n\t\taddrStatus[addrPool[idx]] = 2;\r\n\t\tif (idx < addrPool.length - 1)\r\n\t\t\taddrPool[idx] = addrPool[addrPool.length-1];\r\n\t\tdelete addrPool[addrPool.length - 1];\r\n\t\taddrPool.length--;\r\n\t}\r\n\r\n\tfunction getNextAddrIndex() internal view returns (uint) {\r\n\t\treturn getNowTimestamp() % addrPool.length;\r\n\t}\r\n\r\n\t// end of admin functions\r\n\t// start of internal utility functions\r\n\r\n\tfunction getNowTimestamp() internal view returns (uint) {\r\n\t\treturn now;\r\n\t}\r\n\t\r\n\tfunction checkNewUser(address user) internal {\r\n\t\tif (!existingUsers[user]) {\r\n\t\t\tusers.push(user);\r\n\t\t\texistingUsers[user] = true;\r\n\t\t\tbalanceOf[0][user] = 0;\r\n\t\t\tbalanceOf[1][user] = 0;\r\n\t\t}\r\n\t}\r\n\t// end of internal utility functions\r\n}",
  "sourcePath": "C:\\dev\\coinFront\\israfel\\contracts\\Custodian.sol",
  "compiler": {
    "name": "solc",
    "version": "0.4.23+commit.124ca40d.Emscripten.clang"
  },
  "schemaVersion": "2.0.0",
  "updatedAt": "2018-05-08T08:56:05.731Z"
}