{
  "contractName": "Custodian",
  "abi": [
    {
      "constant": true,
      "inputs": [],
      "name": "lastPrice",
      "outputs": [
        {
          "name": "priceInWei",
          "type": "uint256"
        },
        {
          "name": "timeInSecond",
          "type": "uint256"
        }
      ],
      "payable": false,
      "stateMutability": "view",
      "type": "function"
    },
    {
      "constant": true,
      "inputs": [
        {
          "name": "",
          "type": "uint256"
        },
        {
          "name": "",
          "type": "address"
        },
        {
          "name": "",
          "type": "address"
        }
      ],
      "name": "allowance",
      "outputs": [
        {
          "name": "",
          "type": "uint256"
        }
      ],
      "payable": false,
      "stateMutability": "view",
      "type": "function"
    },
    {
      "constant": true,
      "inputs": [],
      "name": "totalSupplyB",
      "outputs": [
        {
          "name": "",
          "type": "uint256"
        }
      ],
      "payable": false,
      "stateMutability": "view",
      "type": "function"
    },
    {
      "constant": true,
      "inputs": [
        {
          "name": "",
          "type": "uint256"
        },
        {
          "name": "",
          "type": "address"
        }
      ],
      "name": "balanceOf",
      "outputs": [
        {
          "name": "",
          "type": "uint256"
        }
      ],
      "payable": false,
      "stateMutability": "view",
      "type": "function"
    },
    {
      "constant": true,
      "inputs": [
        {
          "name": "",
          "type": "uint256"
        }
      ],
      "name": "users",
      "outputs": [
        {
          "name": "",
          "type": "address"
        }
      ],
      "payable": false,
      "stateMutability": "view",
      "type": "function"
    },
    {
      "constant": true,
      "inputs": [],
      "name": "totalSupplyA",
      "outputs": [
        {
          "name": "",
          "type": "uint256"
        }
      ],
      "payable": false,
      "stateMutability": "view",
      "type": "function"
    },
    {
      "constant": true,
      "inputs": [
        {
          "name": "",
          "type": "address"
        }
      ],
      "name": "ethPendingWithdrawal",
      "outputs": [
        {
          "name": "",
          "type": "uint256"
        }
      ],
      "payable": false,
      "stateMutability": "view",
      "type": "function"
    },
    {
      "constant": true,
      "inputs": [],
      "name": "resetPrice",
      "outputs": [
        {
          "name": "priceInWei",
          "type": "uint256"
        },
        {
          "name": "timeInSecond",
          "type": "uint256"
        }
      ],
      "payable": false,
      "stateMutability": "view",
      "type": "function"
    },
    {
      "constant": true,
      "inputs": [],
      "name": "navBInWei",
      "outputs": [
        {
          "name": "",
          "type": "uint256"
        }
      ],
      "payable": false,
      "stateMutability": "view",
      "type": "function"
    },
    {
      "constant": true,
      "inputs": [],
      "name": "state",
      "outputs": [
        {
          "name": "",
          "type": "uint8"
        }
      ],
      "payable": false,
      "stateMutability": "view",
      "type": "function"
    },
    {
      "constant": true,
      "inputs": [
        {
          "name": "",
          "type": "uint256"
        }
      ],
      "name": "addrPool",
      "outputs": [
        {
          "name": "",
          "type": "address"
        }
      ],
      "payable": false,
      "stateMutability": "view",
      "type": "function"
    },
    {
      "constant": true,
      "inputs": [],
      "name": "navAInWei",
      "outputs": [
        {
          "name": "",
          "type": "uint256"
        }
      ],
      "payable": false,
      "stateMutability": "view",
      "type": "function"
    },
    {
      "inputs": [
        {
          "name": "feeAddress",
          "type": "address"
        },
        {
          "name": "duoAddress",
          "type": "address"
        },
        {
          "name": "pf1",
          "type": "address"
        },
        {
          "name": "pf2",
          "type": "address"
        },
        {
          "name": "pf3",
          "type": "address"
        },
        {
          "name": "poolMng",
          "type": "address"
        },
        {
          "name": "alpha",
          "type": "uint256"
        },
        {
          "name": "r",
          "type": "uint256"
        },
        {
          "name": "hp",
          "type": "uint256"
        },
        {
          "name": "hu",
          "type": "uint256"
        },
        {
          "name": "hd",
          "type": "uint256"
        },
        {
          "name": "c",
          "type": "uint256"
        },
        {
          "name": "p",
          "type": "uint256"
        },
        {
          "name": "coolDown",
          "type": "uint256"
        }
      ],
      "payable": false,
      "stateMutability": "nonpayable",
      "type": "constructor"
    },
    {
      "anonymous": false,
      "inputs": [],
      "name": "StartTrading",
      "type": "event"
    },
    {
      "anonymous": false,
      "inputs": [],
      "name": "StartPreReset",
      "type": "event"
    },
    {
      "anonymous": false,
      "inputs": [],
      "name": "StartReset",
      "type": "event"
    },
    {
      "anonymous": false,
      "inputs": [
        {
          "indexed": true,
          "name": "priceInWei",
          "type": "uint256"
        },
        {
          "indexed": true,
          "name": "timeInSecond",
          "type": "uint256"
        },
        {
          "indexed": false,
          "name": "sender",
          "type": "address"
        },
        {
          "indexed": false,
          "name": "index",
          "type": "uint256"
        }
      ],
      "name": "CommitPrice",
      "type": "event"
    },
    {
      "anonymous": false,
      "inputs": [
        {
          "indexed": true,
          "name": "priceInWei",
          "type": "uint256"
        },
        {
          "indexed": true,
          "name": "timeInSecond",
          "type": "uint256"
        }
      ],
      "name": "AcceptPrice",
      "type": "event"
    },
    {
      "anonymous": false,
      "inputs": [
        {
          "indexed": true,
          "name": "from",
          "type": "address"
        },
        {
          "indexed": true,
          "name": "to",
          "type": "address"
        },
        {
          "indexed": false,
          "name": "value",
          "type": "uint256"
        },
        {
          "indexed": false,
          "name": "index",
          "type": "uint256"
        }
      ],
      "name": "Transfer",
      "type": "event"
    },
    {
      "anonymous": false,
      "inputs": [
        {
          "indexed": true,
          "name": "tokenOwner",
          "type": "address"
        },
        {
          "indexed": true,
          "name": "spender",
          "type": "address"
        },
        {
          "indexed": false,
          "name": "tokens",
          "type": "uint256"
        },
        {
          "indexed": false,
          "name": "index",
          "type": "uint256"
        }
      ],
      "name": "Approval",
      "type": "event"
    },
    {
      "anonymous": false,
      "inputs": [
        {
          "indexed": false,
          "name": "added1",
          "type": "address"
        },
        {
          "indexed": false,
          "name": "added2",
          "type": "address"
        },
        {
          "indexed": false,
          "name": "newPoolManager",
          "type": "address"
        }
      ],
      "name": "AddAddress",
      "type": "event"
    },
    {
      "anonymous": false,
      "inputs": [
        {
          "indexed": false,
          "name": "current",
          "type": "address"
        },
        {
          "indexed": false,
          "name": "newAddr",
          "type": "address"
        }
      ],
      "name": "UpdateAddress",
      "type": "event"
    },
    {
      "anonymous": false,
      "inputs": [
        {
          "indexed": false,
          "name": "addr",
          "type": "address"
        },
        {
          "indexed": false,
          "name": "newPoolManager",
          "type": "address"
        }
      ],
      "name": "RemoveAddress",
      "type": "event"
    },
    {
      "anonymous": false,
      "inputs": [
        {
          "indexed": false,
          "name": "index",
          "type": "uint256"
        },
        {
          "indexed": false,
          "name": "oldValue",
          "type": "uint256"
        },
        {
          "indexed": false,
          "name": "newValue",
          "type": "uint256"
        }
      ],
      "name": "SetValue",
      "type": "event"
    },
    {
      "anonymous": false,
      "inputs": [
        {
          "indexed": false,
          "name": "addr",
          "type": "address"
        },
        {
          "indexed": false,
          "name": "value",
          "type": "uint256"
        }
      ],
      "name": "CollectFee",
      "type": "event"
    },
    {
      "constant": true,
      "inputs": [
        {
          "name": "priceInWei",
          "type": "uint256"
        },
        {
          "name": "timeInSecond",
          "type": "uint256"
        },
        {
          "name": "resetPriceInWei",
          "type": "uint256"
        },
        {
          "name": "resetTimeInSecond",
          "type": "uint256"
        },
        {
          "name": "bInWei",
          "type": "uint256"
        }
      ],
      "name": "calculateNav",
      "outputs": [
        {
          "name": "",
          "type": "uint256"
        },
        {
          "name": "",
          "type": "uint256"
        }
      ],
      "payable": false,
      "stateMutability": "view",
      "type": "function"
    },
    {
      "constant": false,
      "inputs": [],
      "name": "startPreReset",
      "outputs": [
        {
          "name": "success",
          "type": "bool"
        }
      ],
      "payable": false,
      "stateMutability": "nonpayable",
      "type": "function"
    },
    {
      "constant": false,
      "inputs": [],
      "name": "startReset",
      "outputs": [
        {
          "name": "success",
          "type": "bool"
        }
      ],
      "payable": false,
      "stateMutability": "nonpayable",
      "type": "function"
    },
    {
      "constant": true,
      "inputs": [],
      "name": "getSystemAddresses",
      "outputs": [
        {
          "name": "sysAddr",
          "type": "address[6]"
        }
      ],
      "payable": false,
      "stateMutability": "view",
      "type": "function"
    },
    {
      "constant": true,
      "inputs": [],
      "name": "getSystemStates",
      "outputs": [
        {
          "name": "sysState",
          "type": "uint256[20]"
        }
      ],
      "payable": false,
      "stateMutability": "view",
      "type": "function"
    },
    {
      "constant": true,
      "inputs": [],
      "name": "getStagingPrices",
      "outputs": [
        {
          "name": "addr1",
          "type": "address"
        },
        {
          "name": "px1",
          "type": "uint256"
        },
        {
          "name": "ts1",
          "type": "uint256"
        },
        {
          "name": "addr2",
          "type": "address"
        },
        {
          "name": "px2",
          "type": "uint256"
        },
        {
          "name": "ts2",
          "type": "uint256"
        }
      ],
      "payable": false,
      "stateMutability": "view",
      "type": "function"
    },
    {
      "constant": false,
      "inputs": [
        {
          "name": "priceInWei",
          "type": "uint256"
        },
        {
          "name": "timeInSecond",
          "type": "uint256"
        }
      ],
      "name": "startContract",
      "outputs": [
        {
          "name": "success",
          "type": "bool"
        }
      ],
      "payable": false,
      "stateMutability": "nonpayable",
      "type": "function"
    },
    {
      "constant": false,
      "inputs": [
        {
          "name": "priceInWei",
          "type": "uint256"
        },
        {
          "name": "timeInSecond",
          "type": "uint256"
        }
      ],
      "name": "commitPrice",
      "outputs": [
        {
          "name": "success",
          "type": "bool"
        }
      ],
      "payable": false,
      "stateMutability": "nonpayable",
      "type": "function"
    },
    {
      "constant": false,
      "inputs": [],
      "name": "create",
      "outputs": [
        {
          "name": "success",
          "type": "bool"
        }
      ],
      "payable": true,
      "stateMutability": "payable",
      "type": "function"
    },
    {
      "constant": false,
      "inputs": [
        {
          "name": "amtInWeiA",
          "type": "uint256"
        },
        {
          "name": "amtInWeiB",
          "type": "uint256"
        }
      ],
      "name": "redeem",
      "outputs": [
        {
          "name": "success",
          "type": "bool"
        }
      ],
      "payable": false,
      "stateMutability": "nonpayable",
      "type": "function"
    },
    {
      "constant": false,
      "inputs": [
        {
          "name": "amtEthInWei",
          "type": "uint256"
        }
      ],
      "name": "withdraw",
      "outputs": [
        {
          "name": "success",
          "type": "bool"
        }
      ],
      "payable": false,
      "stateMutability": "nonpayable",
      "type": "function"
    },
    {
      "constant": false,
      "inputs": [
        {
          "name": "index",
          "type": "uint256"
        },
        {
          "name": "_from",
          "type": "address"
        },
        {
          "name": "_to",
          "type": "address"
        },
        {
          "name": "_tokens",
          "type": "uint256"
        }
      ],
      "name": "transfer",
      "outputs": [
        {
          "name": "success",
          "type": "bool"
        }
      ],
      "payable": false,
      "stateMutability": "nonpayable",
      "type": "function"
    },
    {
      "constant": false,
      "inputs": [
        {
          "name": "index",
          "type": "uint256"
        },
        {
          "name": "_sender",
          "type": "address"
        },
        {
          "name": "_spender",
          "type": "address"
        },
        {
          "name": "_tokens",
          "type": "uint256"
        }
      ],
      "name": "approve",
      "outputs": [
        {
          "name": "success",
          "type": "bool"
        }
      ],
      "payable": false,
      "stateMutability": "nonpayable",
      "type": "function"
    },
    {
      "constant": false,
      "inputs": [
        {
          "name": "index",
          "type": "uint256"
        },
        {
          "name": "_spender",
          "type": "address"
        },
        {
          "name": "_from",
          "type": "address"
        },
        {
          "name": "_to",
          "type": "address"
        },
        {
          "name": "_tokens",
          "type": "uint256"
        }
      ],
      "name": "transferFrom",
      "outputs": [
        {
          "name": "success",
          "type": "bool"
        }
      ],
      "payable": false,
      "stateMutability": "nonpayable",
      "type": "function"
    },
    {
      "constant": false,
      "inputs": [
        {
          "name": "amountInWei",
          "type": "uint256"
        }
      ],
      "name": "collectFee",
      "outputs": [
        {
          "name": "success",
          "type": "bool"
        }
      ],
      "payable": false,
      "stateMutability": "nonpayable",
      "type": "function"
    },
    {
      "constant": false,
      "inputs": [
        {
          "name": "idx",
          "type": "uint256"
        },
        {
          "name": "newValue",
          "type": "uint256"
        }
      ],
      "name": "setValue",
      "outputs": [
        {
          "name": "success",
          "type": "bool"
        }
      ],
      "payable": false,
      "stateMutability": "nonpayable",
      "type": "function"
    },
    {
      "constant": false,
      "inputs": [
        {
          "name": "addr1",
          "type": "address"
        },
        {
          "name": "addr2",
          "type": "address"
        }
      ],
      "name": "addAddress",
      "outputs": [
        {
          "name": "success",
          "type": "bool"
        }
      ],
      "payable": false,
      "stateMutability": "nonpayable",
      "type": "function"
    },
    {
      "constant": false,
      "inputs": [
        {
          "name": "addr",
          "type": "address"
        }
      ],
      "name": "removeAddress",
      "outputs": [
        {
          "name": "success",
          "type": "bool"
        }
      ],
      "payable": false,
      "stateMutability": "nonpayable",
      "type": "function"
    },
    {
      "constant": false,
      "inputs": [
        {
          "name": "current",
          "type": "address"
        }
      ],
      "name": "updateAddress",
      "outputs": [
        {
          "name": "addr",
          "type": "address"
        }
      ],
      "payable": false,
      "stateMutability": "nonpayable",
      "type": "function"
    }
  ],
  "bytecode": "0x608060405260c060405190810160405280731952e39f7bc9e00faffcea0305e09c065dbd8efd73ffffffffffffffffffffffffffffffffffffffff1673ffffffffffffffffffffffffffffffffffffffff1681526020017351a123239894f0c7175f9c0e9e9519d9d74194f673ffffffffffffffffffffffffffffffffffffffff1673ffffffffffffffffffffffffffffffffffffffff1681526020017315421ef85e1f4ed8e20cdf35894caa3d2fb4334473ffffffffffffffffffffffffffffffffffffffff1673ffffffffffffffffffffffffffffffffffffffff1681526020017311b73358799d057d195fcec8b93c70e54e39da2773ffffffffffffffffffffffffffffffffffffffff1673ffffffffffffffffffffffffffffffffffffffff16815260200173ac5e46b58417a111aaa2dfd972e86c87c55d1c8373ffffffffffffffffffffffffffffffffffffffff1673ffffffffffffffffffffffffffffffffffffffff16815260200173b7c034cad16adbcb3ad10bdad9160220cd0aa8bd73ffffffffffffffffffffffffffffffffffffffff1673ffffffffffffffffffffffffffffffffffffffff168152506007906006620001c49291906200096b565b50670de0b6b3a764000060155561ea60601d55670de0b6b3a7640000600a02601e55600a601f556101f46020556064602155603c602255600060245560006025556000602a553480156200021757600080fd5b506040516101c08062005e69833981018060405281019080805190602001909291908051906020019092919080519060200190929190805190602001909291908051906020019092919080519060200190929190805190602001909291908051906020019092919080519060200190929190805190602001909291908051906020019092919080519060200190929190805190602001909291908051906020019092919050505060008090505b6007805490508110156200035f57600160086000600784815481101515620002e857fe5b9060005260206000200160009054906101000a900473ffffffffffffffffffffffffffffffffffffffff1673ffffffffffffffffffffffffffffffffffffffff1673ffffffffffffffffffffffffffffffffffffffff168152602001908152602001600020819055508080600101915050620002c4565b60008060006101000a81548160ff021916908360058111156200037e57fe5b021790555089600660006101000a81548173ffffffffffffffffffffffffffffffffffffffff021916908373ffffffffffffffffffffffffffffffffffffffff160217905550600260086000600660009054906101000a900473ffffffffffffffffffffffffffffffffffffffff1673ffffffffffffffffffffffffffffffffffffffff1673ffffffffffffffffffffffffffffffffffffffff1681526020019081526020016000208190555033600160006101000a81548173ffffffffffffffffffffffffffffffffffffffff021916908373ffffffffffffffffffffffffffffffffffffffff160217905550600260086000600160009054906101000a900473ffffffffffffffffffffffffffffffffffffffff1673ffffffffffffffffffffffffffffffffffffffff1673ffffffffffffffffffffffffffffffffffffffff168152602001908152602001600020819055506064601b819055508e600260006101000a81548173ffffffffffffffffffffffffffffffffffffffff021916908373ffffffffffffffffffffffffffffffffffffffff160217905550600260086000600260009054906101000a900473ffffffffffffffffffffffffffffffffffffffff1673ffffffffffffffffffffffffffffffffffffffff1673ffffffffffffffffffffffffffffffffffffffff168152602001908152602001600020819055508c600360006101000a81548173ffffffffffffffffffffffffffffffffffffffff021916908373ffffffffffffffffffffffffffffffffffffffff160217905550600260086000600360009054906101000a900473ffffffffffffffffffffffffffffffffffffffff1673ffffffffffffffffffffffffffffffffffffffff1673ffffffffffffffffffffffffffffffffffffffff168152602001908152602001600020819055508b600460006101000a81548173ffffffffffffffffffffffffffffffffffffffff021916908373ffffffffffffffffffffffffffffffffffffffff160217905550600260086000600460009054906101000a900473ffffffffffffffffffffffffffffffffffffffff1673ffffffffffffffffffffffffffffffffffffffff1673ffffffffffffffffffffffffffffffffffffffff168152602001908152602001600020819055508a600560006101000a81548173ffffffffffffffffffffffffffffffffffffffff021916908373ffffffffffffffffffffffffffffffffffffffff160217905550600260086000600560009054906101000a900473ffffffffffffffffffffffffffffffffffffffff1673ffffffffffffffffffffffffffffffffffffffff1673ffffffffffffffffffffffffffffffffffffffff168152602001908152602001600020819055508d600060016101000a81548173ffffffffffffffffffffffffffffffffffffffff021916908373ffffffffffffffffffffffffffffffffffffffff1602179055506002600860008060019054906101000a900473ffffffffffffffffffffffffffffffffffffffff1673ffffffffffffffffffffffffffffffffffffffff1673ffffffffffffffffffffffffffffffffffffffff168152602001908152602001600020819055508860148190555087601781905550866018819055508560198190555084601a8190555083601b8190555082601c819055506001602681905550600160278190555081602381905550620008df612710620008c2670de0b6b3a7640000620008a5612710601454620008fa6401000000000262004ca7179091906401000000009004565b620009196401000000000262004cf0179091906401000000009004565b6200094f6401000000000262004d23179091906401000000009004565b60318190555050505050505050505050505050505062000a40565b60008082840190508381101515156200090f57fe5b8091505092915050565b600080828402905060008414806200093c57508284828115156200093957fe5b04145b15156200094557fe5b8091505092915050565b60008082848115156200095e57fe5b0490508091505092915050565b828054828255906000526020600020908101928215620009e7579160200282015b82811115620009e65782518260006101000a81548173ffffffffffffffffffffffffffffffffffffffff021916908373ffffffffffffffffffffffffffffffffffffffff160217905550916020019190600101906200098c565b5b509050620009f69190620009fa565b5090565b62000a3d91905b8082111562000a3957600081816101000a81549073ffffffffffffffffffffffffffffffffffffffff02191690555060010162000a01565b5090565b90565b6154198062000a506000396000f30060806040526004361061018b576000357c0100000000000000000000000000000000000000000000000000000000900463ffffffff16806303ee06f414610190578063053f14da146101df5780630a23b9b1146102115780630d550b75146102c0578063134e92a81461034157806315ed0793146103705780632e1a7d4d1461039b57806332a3bc0c146103e05780633656eec21461040f578063365b98b21461047057806336cd52a6146104dd578063435a658f1461056c5780634ba79dfe146105bf5780636c67b21e1461061a578063713e7b851461064557806378e80fc7146106c05780637b8d56e3146107175780637cbc2373146107665780638ee2fd3d146107b557806393b72fce1461085b578063a969ff0a146108cb578063bafb733614610910578063bf1f6d4514610942578063c19d93fb1461096d578063c5da3410146109a6578063c6bbb04a146109f9578063d968392e14610a66578063ed6d909614610ab5578063efc81a8c14610b38578063f20f76ba14610b5a578063f707817914610be9575b600080fd5b34801561019c57600080fd5b506101c56004803603810190808035906020019092919080359060200190929190505050610c14565b604051808215151515815260200191505060405180910390f35b3480156101eb57600080fd5b506101f4611407565b604051808381526020018281526020019250505060405180910390f35b34801561021d57600080fd5b506102a660048036038101908080359060200190929190803573ffffffffffffffffffffffffffffffffffffffff169060200190929190803573ffffffffffffffffffffffffffffffffffffffff169060200190929190803573ffffffffffffffffffffffffffffffffffffffff16906020019092919080359060200190929190505050611419565b604051808215151515815260200191505060405180910390f35b3480156102cc57600080fd5b5061032b60048036038101908080359060200190929190803573ffffffffffffffffffffffffffffffffffffffff169060200190929190803573ffffffffffffffffffffffffffffffffffffffff169060200190929190505050611648565b6040518082815260200191505060405180910390f35b34801561034d57600080fd5b5061035661167c565b604051808215151515815260200191505060405180910390f35b34801561037c57600080fd5b50610385611ce8565b6040518082815260200191505060405180910390f35b3480156103a757600080fd5b506103c660048036038101908080359060200190929190505050611cee565b604051808215151515815260200191505060405180910390f35b3480156103ec57600080fd5b506103f5611e86565b604051808215151515815260200191505060405180910390f35b34801561041b57600080fd5b5061045a60048036038101908080359060200190929190803573ffffffffffffffffffffffffffffffffffffffff169060200190929190505050612492565b6040518082815260200191505060405180910390f35b34801561047c57600080fd5b5061049b600480360381019080803590602001909291905050506124b9565b604051808273ffffffffffffffffffffffffffffffffffffffff1673ffffffffffffffffffffffffffffffffffffffff16815260200191505060405180910390f35b3480156104e957600080fd5b5061055260048036038101908080359060200190929190803573ffffffffffffffffffffffffffffffffffffffff169060200190929190803573ffffffffffffffffffffffffffffffffffffffff169060200190929190803590602001909291905050506124f7565b604051808215151515815260200191505060405180910390f35b34801561057857600080fd5b506105816129d0565b6040518082600660200280838360005b838110156105ac578082015181840152602081019050610591565b5050505090500191505060405180910390f35b3480156105cb57600080fd5b50610600600480360381019080803573ffffffffffffffffffffffffffffffffffffffff169060200190929190505050612c51565b604051808215151515815260200191505060405180910390f35b34801561062657600080fd5b5061062f612efe565b6040518082815260200191505060405180910390f35b34801561065157600080fd5b506106a6600480360381019080803573ffffffffffffffffffffffffffffffffffffffff169060200190929190803573ffffffffffffffffffffffffffffffffffffffff169060200190929190505050612f04565b604051808215151515815260200191505060405180910390f35b3480156106cc57600080fd5b50610701600480360381019080803573ffffffffffffffffffffffffffffffffffffffff169060200190929190505050613311565b6040518082815260200191505060405180910390f35b34801561072357600080fd5b5061074c6004803603810190808035906020019092919080359060200190929190505050613329565b604051808215151515815260200191505060405180910390f35b34801561077257600080fd5b5061079b600480360381019080803590602001909291908035906020019092919050505061352a565b604051808215151515815260200191505060405180910390f35b3480156107c157600080fd5b506107ca613a9a565b604051808773ffffffffffffffffffffffffffffffffffffffff1673ffffffffffffffffffffffffffffffffffffffff1681526020018681526020018581526020018473ffffffffffffffffffffffffffffffffffffffff1673ffffffffffffffffffffffffffffffffffffffff168152602001838152602001828152602001965050505050505060405180910390f35b34801561086757600080fd5b506108ae6004803603810190808035906020019092919080359060200190929190803590602001909291908035906020019092919080359060200190929190505050613b15565b604051808381526020018281526020019250505060405180910390f35b3480156108d757600080fd5b506108f660048036038101908080359060200190929190505050613ca4565b604051808215151515815260200191505060405180910390f35b34801561091c57600080fd5b50610925613e36565b604051808381526020018281526020019250505060405180910390f35b34801561094e57600080fd5b50610957613e48565b6040518082815260200191505060405180910390f35b34801561097957600080fd5b50610982613e4e565b6040518082600581111561099257fe5b60ff16815260200191505060405180910390f35b3480156109b257600080fd5b506109bb613e60565b6040518082601460200280838360005b838110156109e65780820151818401526020810190506109cb565b5050505090500191505060405180910390f35b348015610a0557600080fd5b50610a246004803603810190808035906020019092919050505061408d565b604051808273ffffffffffffffffffffffffffffffffffffffff1673ffffffffffffffffffffffffffffffffffffffff16815260200191505060405180910390f35b348015610a7257600080fd5b50610a9b60048036038101908080359060200190929190803590602001909291905050506140cb565b604051808215151515815260200191505060405180910390f35b348015610ac157600080fd5b50610af6600480360381019080803573ffffffffffffffffffffffffffffffffffffffff169060200190929190505050614278565b604051808273ffffffffffffffffffffffffffffffffffffffff1673ffffffffffffffffffffffffffffffffffffffff16815260200191505060405180910390f35b610b4061477b565b604051808215151515815260200191505060405180910390f35b348015610b6657600080fd5b50610bcf60048036038101908080359060200190929190803573ffffffffffffffffffffffffffffffffffffffff169060200190929190803573ffffffffffffffffffffffffffffffffffffffff16906020019092919080359060200190929190505050614b76565b604051808215151515815260200191505060405180910390f35b348015610bf557600080fd5b50610bfe614c99565b6040518082815260200191505060405180910390f35b60008060006001806005811115610c2757fe5b6000809054906101000a900460ff166005811115610c4157fe5b141515610c4d57600080fd5b600360009054906101000a900473ffffffffffffffffffffffffffffffffffffffff1673ffffffffffffffffffffffffffffffffffffffff163373ffffffffffffffffffffffffffffffffffffffff161480610cf65750600460009054906101000a900473ffffffffffffffffffffffffffffffffffffffff1673ffffffffffffffffffffffffffffffffffffffff163373ffffffffffffffffffffffffffffffffffffffff16145b80610d4e5750600560009054906101000a900473ffffffffffffffffffffffffffffffffffffffff1673ffffffffffffffffffffffffffffffffffffffff163373ffffffffffffffffffffffffffffffffffffffff16145b1515610d5957600080fd5b610d61614c9f565b8511151515610d6f57600080fd5b610d89602354601260010154614ca790919063ffffffff16565b85111515610d9657600080fd5b60006024541415610ef557610db960126000015487614cc590919063ffffffff16565b9250602054610dea601260000154610ddc61271087614cf090919063ffffffff16565b614d2390919063ffffffff16565b111515610e0057610dfb8686614d3e565b610ef0565b604080519081016040528087815260200186815250602d600082015181600001556020820151816001015590505033602b60006101000a81548173ffffffffffffffffffffffffffffffffffffffff021916908373ffffffffffffffffffffffffffffffffffffffff16021790555084867fe95a7bb58ff5f75fa581ca00ff98b7a825caba174942abffb75a1d2b12d90dd9336000604051808373ffffffffffffffffffffffffffffffffffffffff1673ffffffffffffffffffffffffffffffffffffffff1681526020018281526020019250505060405180910390a36024600081548092919060010191905055505b6113f9565b600160245414156111b557610f1a602354602d60010154614ca790919063ffffffff16565b851115610f9b573373ffffffffffffffffffffffffffffffffffffffff16602b60009054906101000a900473ffffffffffffffffffffffffffffffffffffffff1673ffffffffffffffffffffffffffffffffffffffff161415610f8657610f818686614d3e565b610f96565b610f95602d6000015486614d3e565b5b6111b0565b3373ffffffffffffffffffffffffffffffffffffffff16602b60009054906101000a900473ffffffffffffffffffffffffffffffffffffffff1673ffffffffffffffffffffffffffffffffffffffff1614151515610ff857600080fd5b84611013602254602d60010154614ca790919063ffffffff16565b1080611037575084611035602254602d60010154614e4590919063ffffffff16565b115b1561105557611050602d60000154602d60010154614d3e565b6111af565b61106d602d6000015487614cc590919063ffffffff16565b925060205461109e602d6000015461109061271087614cf090919063ffffffff16565b614d2390919063ffffffff16565b1115156110be576110b9602d60000154602d60010154614d3e565b6111ae565b604080519081016040528087815260200186815250602f600082015181600001556020820151816001015590505033602c60006101000a81548173ffffffffffffffffffffffffffffffffffffffff021916908373ffffffffffffffffffffffffffffffffffffffff16021790555084867fe95a7bb58ff5f75fa581ca00ff98b7a825caba174942abffb75a1d2b12d90dd9336001604051808373ffffffffffffffffffffffffffffffffffffffff1673ffffffffffffffffffffffffffffffffffffffff1681526020018281526020019250505060405180910390a36024600081548092919060010191905055505b5b5b6113f8565b600260245414156113ee57602354602d60010154018511156112a3573373ffffffffffffffffffffffffffffffffffffffff16602b60009054906101000a900473ffffffffffffffffffffffffffffffffffffffff1673ffffffffffffffffffffffffffffffffffffffff16148061127a57503373ffffffffffffffffffffffffffffffffffffffff16602c60009054906101000a900473ffffffffffffffffffffffffffffffffffffffff1673ffffffffffffffffffffffffffffffffffffffff16145b1561128e576112898686614d3e565b61129e565b61129d602f6000015486614d3e565b5b6113e9565b3373ffffffffffffffffffffffffffffffffffffffff16602b60009054906101000a900473ffffffffffffffffffffffffffffffffffffffff1673ffffffffffffffffffffffffffffffffffffffff161415801561134f57503373ffffffffffffffffffffffffffffffffffffffff16602c60009054906101000a900473ffffffffffffffffffffffffffffffffffffffff1673ffffffffffffffffffffffffffffffffffffffff1614155b151561135a57600080fd5b84611375602254602d60010154614ca790919063ffffffff16565b1080611399575084611397602254602d60010154614e4590919063ffffffff16565b115b156113ab57602d6000015491506113d9565b85602f6000015414156113c0578591506113d8565b6113d5602d60000154602f6000015488614e5e565b91505b5b6113e882602d60010154614d3e565b5b6113f7565b600093506113fe565b5b5b600193505b50505092915050565b60128060000154908060010154905082565b6000600180600581111561142957fe5b6000809054906101000a900460ff16600581111561144357fe5b14151561144f57600080fd5b600087148061145e5750600187145b151561146957600080fd5b600b8760028110151561147857fe5b0160008673ffffffffffffffffffffffffffffffffffffffff1673ffffffffffffffffffffffffffffffffffffffff16815260200190815260200160002060008773ffffffffffffffffffffffffffffffffffffffff1673ffffffffffffffffffffffffffffffffffffffff16815260200190815260200160002054831115151561150257600080fd5b61159f83600b8960028110151561151557fe5b0160008873ffffffffffffffffffffffffffffffffffffffff1673ffffffffffffffffffffffffffffffffffffffff16815260200190815260200160002060008973ffffffffffffffffffffffffffffffffffffffff1673ffffffffffffffffffffffffffffffffffffffff16815260200190815260200160002054614e4590919063ffffffff16565b600b886002811015156115ae57fe5b0160008773ffffffffffffffffffffffffffffffffffffffff1673ffffffffffffffffffffffffffffffffffffffff16815260200190815260200160002060008873ffffffffffffffffffffffffffffffffffffffff1673ffffffffffffffffffffffffffffffffffffffff16815260200190815260200160002081905550611639878686866124f7565b50600191505095945050505050565b600b8360028110151561165757fe5b0160205281600052604060002060205280600052604060002060009250925050505481565b6000806000806000806000806000600280600581111561169857fe5b6000809054906101000a900460ff1660058111156116b257fe5b1415156116be57600080fd5b601f54602a544303101515611cab576019546027541015156118cc5760036000806101000a81548160ff021916908360058111156116f857fe5b0217905550670de0b6b3a7640000601581905550611729670de0b6b3a7640000602654614e4590919063ffffffff16565b9650611748670de0b6b3a7640000602754614e4590919063ffffffff16565b955061175d8787614e4590919063ffffffff16565b945086603281905550600060348190555061179760315461178960155488614cf090919063ffffffff16565b614d2390919063ffffffff16565b93506117c26127106117b460145487614cf090919063ffffffff16565b614d2390919063ffffffff16565b6033819055506117db8488614ca790919063ffffffff16565b60358190555061184e61183d670de0b6b3a764000061182f61180a603354602954614cf090919063ffffffff16565b611821603254602854614cf090919063ffffffff16565b614ca790919063ffffffff16565b614d2390919063ffffffff16565b602854614ca790919063ffffffff16565b6028819055506118c16118b0670de0b6b3a76400006118a261187d603554602954614cf090919063ffffffff16565b611894603454602854614cf090919063ffffffff16565b614ca790919063ffffffff16565b614d2390919063ffffffff16565b602954614ca790919063ffffffff16565b602981905550611c7a565b601a54602754111515611a5d5760046000806101000a81548160ff021916908360058111156118f757fe5b0217905550670de0b6b3a764000060158190555061194a60315461193c60155461192e602754602654614e4590919063ffffffff16565b614cf090919063ffffffff16565b614d2390919063ffffffff16565b603481905550600060328190555060006035819055506000603381905550611999670de0b6b3a764000061198b603454602854614cf090919063ffffffff16565b614d2390919063ffffffff16565b98506119c46127106119b66014548c614cf090919063ffffffff16565b614d2390919063ffffffff16565b9750611a09886119fb670de0b6b3a76400006119ed602754602854614cf090919063ffffffff16565b614d2390919063ffffffff16565b614ca790919063ffffffff16565b602881905550611a5289611a44670de0b6b3a7640000611a36602754602954614cf090919063ffffffff16565b614d2390919063ffffffff16565b614ca790919063ffffffff16565b602981905550611c79565b60056000806101000a81548160ff02191690836005811115611a7b57fe5b0217905550611aae601260000154611aa0612710601454614ca790919063ffffffff16565b614cf090919063ffffffff16565b9250611b52611b43670de0b6b3a7640000611b35670de0b6b3a7640000611b27611aeb670de0b6b3a7640000602654614e4590919063ffffffff16565b611b19601554611b0b601454601060000154614cf090919063ffffffff16565b614cf090919063ffffffff16565b614cf090919063ffffffff16565b614d2390919063ffffffff16565b614d2390919063ffffffff16565b84614e4590919063ffffffff16565b9150611b7b82611b6d85601554614cf090919063ffffffff16565b614d2390919063ffffffff16565b601581905550611bc6603154611bb8601554611baa670de0b6b3a7640000602654614e4590919063ffffffff16565b614cf090919063ffffffff16565b614d2390919063ffffffff16565b603481905550600060358190555060006032819055506000603381905550611c15670de0b6b3a7640000611c07603454602854614cf090919063ffffffff16565b614d2390919063ffffffff16565b9850611c40612710611c326014548c614cf090919063ffffffff16565b614d2390919063ffffffff16565b9750611c5788602854614ca790919063ffffffff16565b602881905550611c7289602954614ca790919063ffffffff16565b6029819055505b5b7f91c286863163aa15991e5aabc5934ed57007ed7f0b1bddcde66ca789ab227ea360405160405180910390a1611cd8565b7fa1f85a3680dfb51f7db8069e794f07f371ef5a545a9c915ac6315b0768a08b3f60405160405180910390a15b6001995050505050505050505090565b60295481565b60006001806005811115611cfe57fe5b6000809054906101000a900460ff166005811115611d1857fe5b141515611d2457600080fd5b600083118015611d735750600f60003373ffffffffffffffffffffffffffffffffffffffff1673ffffffffffffffffffffffffffffffffffffffff168152602001908152602001600020548311155b8015611d9557503073ffffffffffffffffffffffffffffffffffffffff163183105b1515611da057600080fd5b611df283600f60003373ffffffffffffffffffffffffffffffffffffffff1673ffffffffffffffffffffffffffffffffffffffff16815260200190815260200160002054614e4590919063ffffffff16565b600f60003373ffffffffffffffffffffffffffffffffffffffff1673ffffffffffffffffffffffffffffffffffffffff168152602001908152602001600020819055503373ffffffffffffffffffffffffffffffffffffffff166108fc849081150290604051600060405180830381858888f19350505050158015611e7b573d6000803e3d6000fd5b506001915050919050565b600080600080600080600080600060036005811115611ea157fe5b6000809054906101000a900460ff166005811115611ebb57fe5b1480611eeb575060046005811115611ecf57fe5b6000809054906101000a900460ff166005811115611ee957fe5b145b80611f195750600580811115611efd57fe5b6000809054906101000a900460ff166005811115611f1757fe5b145b1515611f2457600080fd5b60255490505b600d8054905081108015611f3f5750601d545a115b1561237757600d602554815481101515611f5557fe5b9060005260206000200160009054906101000a900473ffffffffffffffffffffffffffffffffffffffff16915060096000600281101515611f9257fe5b0160008373ffffffffffffffffffffffffffffffffffffffff1673ffffffffffffffffffffffffffffffffffffffff16815260200190815260200160002054975060096001600281101515611fe357fe5b0160008373ffffffffffffffffffffffffffffffffffffffff1673ffffffffffffffffffffffffffffffffffffffff1681526020019081526020016000205496506004600581111561203157fe5b6000809054906101000a900460ff16600581111561204b57fe5b141561213857612080670de0b6b3a76400006120726034548b614cf090919063ffffffff16565b614d2390919063ffffffff16565b92506120ab61271061209d60145486614cf090919063ffffffff16565b614d2390919063ffffffff16565b93506120ee846120e0670de0b6b3a76400006120d26027548d614cf090919063ffffffff16565b614d2390919063ffffffff16565b614ca790919063ffffffff16565b955061213183612123670de0b6b3a76400006121156027548c614cf090919063ffffffff16565b614d2390919063ffffffff16565b614ca790919063ffffffff16565b94506122c4565b6003600581111561214557fe5b6000809054906101000a900460ff16600581111561215f57fe5b141561223c576121cc6121bd670de0b6b3a76400006121af61218c6033548c614cf090919063ffffffff16565b6121a16032548e614cf090919063ffffffff16565b614ca790919063ffffffff16565b614d2390919063ffffffff16565b89614ca790919063ffffffff16565b9550612235612226670de0b6b3a76400006122186121f56035548c614cf090919063ffffffff16565b61220a6034548e614cf090919063ffffffff16565b614ca790919063ffffffff16565b614d2390919063ffffffff16565b88614ca790919063ffffffff16565b94506122c3565b61226b670de0b6b3a764000061225d6034548b614cf090919063ffffffff16565b614d2390919063ffffffff16565b925061229661271061228860145486614cf090919063ffffffff16565b614d2390919063ffffffff16565b93506122ab8489614ca790919063ffffffff16565b95506122c08388614ca790919063ffffffff16565b94505b5b85600960006002811015156122d557fe5b0160008473ffffffffffffffffffffffffffffffffffffffff1673ffffffffffffffffffffffffffffffffffffffff16815260200190815260200160002081905550846009600160028110151561232857fe5b0160008473ffffffffffffffffffffffffffffffffffffffff1673ffffffffffffffffffffffffffffffffffffffff168152602001908152602001600020819055508080600101915050611f2a565b600d805490508110151561244f5760058081111561239157fe5b6000809054906101000a900460ff1660058111156123ab57fe5b1415156123e057601260000154601060000181905550601260010154601060010181905550670de0b6b3a76400006027819055505b670de0b6b3a7640000602681905550600060258190555060016000806101000a81548160ff0219169083600581111561241557fe5b02179055507fbf6a1c0d2669c1534a4b018edab32445ffb4f4e914517f62fb885949552d7e3460405160405180910390a160019850612487565b806025819055507f91c286863163aa15991e5aabc5934ed57007ed7f0b1bddcde66ca789ab227ea360405160405180910390a1600098505b505050505050505090565b6009826002811015156124a157fe5b01602052806000526040600020600091509150505481565b600d818154811015156124c857fe5b906000526020600020016000915054906101000a900473ffffffffffffffffffffffffffffffffffffffff1681565b600080600180600581111561250857fe5b6000809054906101000a900460ff16600581111561252257fe5b14151561252e57600080fd5b600087148061253d5750600187145b151561254857600080fd5b60008573ffffffffffffffffffffffffffffffffffffffff161415151561256e57600080fd5b8360098860028110151561257e57fe5b0160008873ffffffffffffffffffffffffffffffffffffffff1673ffffffffffffffffffffffffffffffffffffffff16815260200190815260200160002054101515156125ca57600080fd5b6009876002811015156125d957fe5b0160008673ffffffffffffffffffffffffffffffffffffffff1673ffffffffffffffffffffffffffffffffffffffff168152602001908152602001600020546126788560098a60028110151561262b57fe5b0160008973ffffffffffffffffffffffffffffffffffffffff1673ffffffffffffffffffffffffffffffffffffffff16815260200190815260200160002054614ca790919063ffffffff16565b11151561268457600080fd5b61273160098860028110151561269657fe5b0160008773ffffffffffffffffffffffffffffffffffffffff1673ffffffffffffffffffffffffffffffffffffffff168152602001908152602001600020546009896002811015156126e457fe5b0160008973ffffffffffffffffffffffffffffffffffffffff1673ffffffffffffffffffffffffffffffffffffffff16815260200190815260200160002054614ca790919063ffffffff16565b915061273c85614f60565b61279c8460098960028110151561274f57fe5b0160008973ffffffffffffffffffffffffffffffffffffffff1673ffffffffffffffffffffffffffffffffffffffff16815260200190815260200160002054614e4590919063ffffffff16565b6009886002811015156127ab57fe5b0160008873ffffffffffffffffffffffffffffffffffffffff1673ffffffffffffffffffffffffffffffffffffffff1681526020019081526020016000208190555061284d8460098960028110151561280057fe5b0160008873ffffffffffffffffffffffffffffffffffffffff1673ffffffffffffffffffffffffffffffffffffffff16815260200190815260200160002054614ca790919063ffffffff16565b60098860028110151561285c57fe5b0160008773ffffffffffffffffffffffffffffffffffffffff1673ffffffffffffffffffffffffffffffffffffffff168152602001908152602001600020819055508473ffffffffffffffffffffffffffffffffffffffff168673ffffffffffffffffffffffffffffffffffffffff167f9ed053bb818ff08b8353cd46f78db1f0799f31c9e4458fdb425c10eccd2efc44868a604051808381526020018281526020019250505060405180910390a3816129b960098960028110151561291e57fe5b0160008873ffffffffffffffffffffffffffffffffffffffff1673ffffffffffffffffffffffffffffffffffffffff1681526020019081526020016000205460098a60028110151561296c57fe5b0160008a73ffffffffffffffffffffffffffffffffffffffff1673ffffffffffffffffffffffffffffffffffffffff16815260200190815260200160002054614ca790919063ffffffff16565b1415156129c257fe5b600192505050949350505050565b6129d8615355565b600160009054906101000a900473ffffffffffffffffffffffffffffffffffffffff16816000600681101515612a0a57fe5b602002019073ffffffffffffffffffffffffffffffffffffffff16908173ffffffffffffffffffffffffffffffffffffffff1681525050600260009054906101000a900473ffffffffffffffffffffffffffffffffffffffff16816001600681101515612a7357fe5b602002019073ffffffffffffffffffffffffffffffffffffffff16908173ffffffffffffffffffffffffffffffffffffffff1681525050600360009054906101000a900473ffffffffffffffffffffffffffffffffffffffff16816002600681101515612adc57fe5b602002019073ffffffffffffffffffffffffffffffffffffffff16908173ffffffffffffffffffffffffffffffffffffffff1681525050600460009054906101000a900473ffffffffffffffffffffffffffffffffffffffff16816003600681101515612b4557fe5b602002019073ffffffffffffffffffffffffffffffffffffffff16908173ffffffffffffffffffffffffffffffffffffffff1681525050600560009054906101000a900473ffffffffffffffffffffffffffffffffffffffff16816004600681101515612bae57fe5b602002019073ffffffffffffffffffffffffffffffffffffffff16908173ffffffffffffffffffffffffffffffffffffffff1681525050600660009054906101000a900473ffffffffffffffffffffffffffffffffffffffff16816005600681101515612c1757fe5b602002019073ffffffffffffffffffffffffffffffffffffffff16908173ffffffffffffffffffffffffffffffffffffffff168152505090565b6000806000600660009054906101000a900473ffffffffffffffffffffffffffffffffffffffff168073ffffffffffffffffffffffffffffffffffffffff163373ffffffffffffffffffffffffffffffffffffffff16141515612cb357600080fd5b6003600780549050118015612d0757506001600860008773ffffffffffffffffffffffffffffffffffffffff1673ffffffffffffffffffffffffffffffffffffffff16815260200190815260200160002054145b1515612d1257600080fd5b612d1a61511d565b9250600783815481101515612d2b57fe5b9060005260206000200160009054906101000a900473ffffffffffffffffffffffffffffffffffffffff16600660006101000a81548173ffffffffffffffffffffffffffffffffffffffff021916908373ffffffffffffffffffffffffffffffffffffffff160217905550612d9f8361513c565b600091505b600780549050821015612e39578473ffffffffffffffffffffffffffffffffffffffff16600783815481101515612dd757fe5b9060005260206000200160009054906101000a900473ffffffffffffffffffffffffffffffffffffffff1673ffffffffffffffffffffffffffffffffffffffff161415612e2c57612e278261513c565b612e39565b8180600101925050612da4565b7f3b083a28fbc2d3b480250410efe1675634e4c964b7b7712dc5a2759c04e1f70b85600660009054906101000a900473ffffffffffffffffffffffffffffffffffffffff16604051808373ffffffffffffffffffffffffffffffffffffffff1673ffffffffffffffffffffffffffffffffffffffff1681526020018273ffffffffffffffffffffffffffffffffffffffff1673ffffffffffffffffffffffffffffffffffffffff1681526020019250505060405180910390a160019350505050919050565b60285481565b600080600660009054906101000a900473ffffffffffffffffffffffffffffffffffffffff168073ffffffffffffffffffffffffffffffffffffffff163373ffffffffffffffffffffffffffffffffffffffff16141515612f6457600080fd5b6000600860008773ffffffffffffffffffffffffffffffffffffffff1673ffffffffffffffffffffffffffffffffffffffff16815260200190815260200160002054148015612ff257506000600860008673ffffffffffffffffffffffffffffffffffffffff1673ffffffffffffffffffffffffffffffffffffffff16815260200190815260200160002054145b801561302a57508373ffffffffffffffffffffffffffffffffffffffff168573ffffffffffffffffffffffffffffffffffffffff1614155b151561303557600080fd5b61303d61511d565b915060078281548110151561304e57fe5b9060005260206000200160009054906101000a900473ffffffffffffffffffffffffffffffffffffffff16600660006101000a81548173ffffffffffffffffffffffffffffffffffffffff021916908373ffffffffffffffffffffffffffffffffffffffff1602179055506130c28261513c565b60078590806001815401808255809150509060018203906000526020600020016000909192909190916101000a81548173ffffffffffffffffffffffffffffffffffffffff021916908373ffffffffffffffffffffffffffffffffffffffff160217905550506001600860008773ffffffffffffffffffffffffffffffffffffffff1673ffffffffffffffffffffffffffffffffffffffff1681526020019081526020016000208190555060078490806001815401808255809150509060018203906000526020600020016000909192909190916101000a81548173ffffffffffffffffffffffffffffffffffffffff021916908373ffffffffffffffffffffffffffffffffffffffff160217905550506001600860008673ffffffffffffffffffffffffffffffffffffffff1673ffffffffffffffffffffffffffffffffffffffff168152602001908152602001600020819055507f02ee3a216923cea2d63174f6ddce31a78142e8238d0f3071b356fac8516f77e48585600660009054906101000a900473ffffffffffffffffffffffffffffffffffffffff16604051808473ffffffffffffffffffffffffffffffffffffffff1673ffffffffffffffffffffffffffffffffffffffff1681526020018373ffffffffffffffffffffffffffffffffffffffff1673ffffffffffffffffffffffffffffffffffffffff1681526020018273ffffffffffffffffffffffffffffffffffffffff1673ffffffffffffffffffffffffffffffffffffffff168152602001935050505060405180910390a160019250505092915050565b600f6020528060005260406000206000915090505481565b600080600160009054906101000a900473ffffffffffffffffffffffffffffffffffffffff168073ffffffffffffffffffffffffffffffffffffffff163373ffffffffffffffffffffffffffffffffffffffff1614151561338957600080fd5b6000600581111561339657fe5b6000809054906101000a900460ff1660058111156133b057fe5b14806133e05750600160058111156133c457fe5b6000809054906101000a900460ff1660058111156133de57fe5b145b15156133eb57600080fd5b6000851415613415576127108410151561340457600080fd5b601b54915083601b819055506134d7565b600185141561342f57601e54915083601e819055506134d6565b600285141561344957601d54915083601d819055506134d5565b600385141561346357601f54915083601f819055506134d4565b600485141561347d576020549150836020819055506134d3565b6005851415613497576021549150836021819055506134d2565b60068514156134b1576022549150836022819055506134d1565b60078514156134cb576023549150836023819055506134d0565b600080fd5b5b5b5b5b5b5b5b7fabd08d77cf1eed600c8ba851f4210365f6695aa58b9500aa52a83db7d8b534ba85838660405180848152602001838152602001828152602001935050505060405180910390a160019250505092915050565b600080600080600080600180600581111561354157fe5b6000809054906101000a900460ff16600581111561355b57fe5b14151561356757600080fd5b60008060019054906101000a900473ffffffffffffffffffffffffffffffffffffffff169050601e548173ffffffffffffffffffffffffffffffffffffffff166370a08231336040518263ffffffff167c0100000000000000000000000000000000000000000000000000000000028152600401808273ffffffffffffffffffffffffffffffffffffffff1673ffffffffffffffffffffffffffffffffffffffff168152602001915050602060405180830381600087803b15801561362b57600080fd5b505af115801561363f573d6000803e3d6000fd5b505050506040513d602081101561365557600080fd5b81019080805190602001909291905050501015151561367357600080fd5b60008a1180156136835750600089115b151561368e57600080fd5b6136b76014546136a96127108d614cf090919063ffffffff16565b614d2390919063ffffffff16565b96508887106136c657886136c8565b865b95506136f36127106136e560145489614cf090919063ffffffff16565b614d2390919063ffffffff16565b9450846009600060028110151561370657fe5b0160003373ffffffffffffffffffffffffffffffffffffffff1673ffffffffffffffffffffffffffffffffffffffff16815260200190815260200160002054101580156137a15750856009600160028110151561375f57fe5b0160003373ffffffffffffffffffffffffffffffffffffffff1673ffffffffffffffffffffffffffffffffffffffff1681526020019081526020016000205410155b15156137ac57600080fd5b61381e601554613810601060000154613802670de0b6b3a76400006137f4670de0b6b3a76400006137e68e8e614ca790919063ffffffff16565b614cf090919063ffffffff16565b614cf090919063ffffffff16565b614d2390919063ffffffff16565b614d2390919063ffffffff16565b9350613829846152c1565b925061388c856009600060028110151561383f57fe5b0160003373ffffffffffffffffffffffffffffffffffffffff1673ffffffffffffffffffffffffffffffffffffffff16815260200190815260200160002054614e4590919063ffffffff16565b6009600060028110151561389c57fe5b0160003373ffffffffffffffffffffffffffffffffffffffff1673ffffffffffffffffffffffffffffffffffffffff1681526020019081526020016000208190555061393f86600960016002811015156138f257fe5b0160003373ffffffffffffffffffffffffffffffffffffffff1673ffffffffffffffffffffffffffffffffffffffff16815260200190815260200160002054614e4590919063ffffffff16565b6009600160028110151561394f57fe5b0160003373ffffffffffffffffffffffffffffffffffffffff1673ffffffffffffffffffffffffffffffffffffffff168152602001908152602001600020819055506139a685602854614e4590919063ffffffff16565b6028819055506139c186602954614e4590919063ffffffff16565b6029819055506139dc83601654614ca790919063ffffffff16565b601681905550613a466139f88486614e4590919063ffffffff16565b600f60003373ffffffffffffffffffffffffffffffffffffffff1673ffffffffffffffffffffffffffffffffffffffff16815260200190815260200160002054614ca790919063ffffffff16565b600f60003373ffffffffffffffffffffffffffffffffffffffff1673ffffffffffffffffffffffffffffffffffffffff16815260200190815260200160002081905550600197505050505050505092915050565b600080600080600080602b60009054906101000a900473ffffffffffffffffffffffffffffffffffffffff169550602c60009054906101000a900473ffffffffffffffffffffffffffffffffffffffff169250602d600001549450602d600101549350602f600001549150602f600101549050909192939495565b600080600080600080613b45601c54613b378a8d614e4590919063ffffffff16565b614d2390919063ffffffff16565b9350613b7489613b66670de0b6b3a76400008e614cf090919063ffffffff16565b614d2390919063ffffffff16565b9250613bdf87613bd1612710613bc3613b9a612710601454614ca790919063ffffffff16565b613bb5670de0b6b3a76400008a614cf090919063ffffffff16565b614cf090919063ffffffff16565b614d2390919063ffffffff16565b614d2390919063ffffffff16565b9250613c10670de0b6b3a7640000613c0286601754614cf090919063ffffffff16565b614ca790919063ffffffff16565b9150613c3b612710613c2d60145485614cf090919063ffffffff16565b614d2390919063ffffffff16565b90508083111515613c7d57613c6f601454613c6161271086614cf090919063ffffffff16565b614d2390919063ffffffff16565b600080905095509550613c96565b81613c918285614e4590919063ffffffff16565b955095505b505050509550959350505050565b6000600260009054906101000a900473ffffffffffffffffffffffffffffffffffffffff168073ffffffffffffffffffffffffffffffffffffffff163373ffffffffffffffffffffffffffffffffffffffff16141515613d0357600080fd5b6001806005811115613d1157fe5b6000809054906101000a900460ff166005811115613d2b57fe5b141515613d3757600080fd5b600084111515613d4657600080fd5b6016548411151515613d5757600080fd5b600260009054906101000a900473ffffffffffffffffffffffffffffffffffffffff1673ffffffffffffffffffffffffffffffffffffffff166108fc859081150290604051600060405180830381858888f19350505050158015613dbf573d6000803e3d6000fd5b507fdfeef5879c25440d1418a79a16489f0e739d22ac040c8c76f7b998fc704edeb83385604051808373ffffffffffffffffffffffffffffffffffffffff1673ffffffffffffffffffffffffffffffffffffffff1681526020018281526020019250505060405180910390a1600192505050919050565b60108060000154908060010154905082565b60275481565b6000809054906101000a900460ff1681565b613e68615378565b601454816000601481101515613e7a57fe5b602002018181525050601554816001601481101515613e9557fe5b602002018181525050601654816002601481101515613eb057fe5b602002018181525050601754816003601481101515613ecb57fe5b602002018181525050601854816004601481101515613ee657fe5b602002018181525050601954816005601481101515613f0157fe5b602002018181525050601a54816006601481101515613f1c57fe5b602002018181525050601b54816007601481101515613f3757fe5b602002018181525050601c54816008601481101515613f5257fe5b602002018181525050601d54816009601481101515613f6d57fe5b602002018181525050601e5481600a601481101515613f8857fe5b602002018181525050601f5481600b601481101515613fa357fe5b60200201818152505060205481600c601481101515613fbe57fe5b60200201818152505060215481600d601481101515613fd957fe5b60200201818152505060225481600e601481101515613ff457fe5b60200201818152505060235481600f60148110151561400f57fe5b60200201818152505060245481601060148110151561402a57fe5b60200201818152505060255481601160148110151561404557fe5b602002018181525050600d8054905081601260148110151561406357fe5b60200201818152505060078054905081601360148110151561408157fe5b60200201818152505090565b60078181548110151561409c57fe5b906000526020600020016000915054906101000a900473ffffffffffffffffffffffffffffffffffffffff1681565b6000808060058111156140da57fe5b6000809054906101000a900460ff1660058111156140f457fe5b14151561410057600080fd5b600360009054906101000a900473ffffffffffffffffffffffffffffffffffffffff1673ffffffffffffffffffffffffffffffffffffffff163373ffffffffffffffffffffffffffffffffffffffff1614806141a95750600460009054906101000a900473ffffffffffffffffffffffffffffffffffffffff1673ffffffffffffffffffffffffffffffffffffffff163373ffffffffffffffffffffffffffffffffffffffff16145b806142015750600560009054906101000a900473ffffffffffffffffffffffffffffffffffffffff1673ffffffffffffffffffffffffffffffffffffffff163373ffffffffffffffffffffffffffffffffffffffff16145b151561420c57600080fd5b614214614c9f565b831115151561422257600080fd5b8260126001018190555083601260000181905550826010600101819055508360106000018190555060016000806101000a81548160ff0219169083600581111561426857fe5b0217905550600191505092915050565b60008060006001600860003373ffffffffffffffffffffffffffffffffffffffff1673ffffffffffffffffffffffffffffffffffffffff168152602001908152602001600020541415156142cb57600080fd5b60036007805490501115156142df57600080fd5b600091505b600780549050821015614379573373ffffffffffffffffffffffffffffffffffffffff1660078381548110151561431757fe5b9060005260206000200160009054906101000a900473ffffffffffffffffffffffffffffffffffffffff1673ffffffffffffffffffffffffffffffffffffffff16141561436c576143678261513c565b614379565b81806001019250506142e4565b61438161511d565b905060078181548110151561439257fe5b9060005260206000200160009054906101000a900473ffffffffffffffffffffffffffffffffffffffff1692506143c88161513c565b600360009054906101000a900473ffffffffffffffffffffffffffffffffffffffff1673ffffffffffffffffffffffffffffffffffffffff168473ffffffffffffffffffffffffffffffffffffffff1614156144645782600360006101000a81548173ffffffffffffffffffffffffffffffffffffffff021916908373ffffffffffffffffffffffffffffffffffffffff1602179055506146dd565b600460009054906101000a900473ffffffffffffffffffffffffffffffffffffffff1673ffffffffffffffffffffffffffffffffffffffff168473ffffffffffffffffffffffffffffffffffffffff1614156145005782600460006101000a81548173ffffffffffffffffffffffffffffffffffffffff021916908373ffffffffffffffffffffffffffffffffffffffff1602179055506146dc565b600560009054906101000a900473ffffffffffffffffffffffffffffffffffffffff1673ffffffffffffffffffffffffffffffffffffffff168473ffffffffffffffffffffffffffffffffffffffff16141561459c5782600560006101000a81548173ffffffffffffffffffffffffffffffffffffffff021916908373ffffffffffffffffffffffffffffffffffffffff1602179055506146db565b600260009054906101000a900473ffffffffffffffffffffffffffffffffffffffff1673ffffffffffffffffffffffffffffffffffffffff168473ffffffffffffffffffffffffffffffffffffffff1614156146385782600260006101000a81548173ffffffffffffffffffffffffffffffffffffffff021916908373ffffffffffffffffffffffffffffffffffffffff1602179055506146da565b600160009054906101000a900473ffffffffffffffffffffffffffffffffffffffff1673ffffffffffffffffffffffffffffffffffffffff168473ffffffffffffffffffffffffffffffffffffffff1614156146d45782600160006101000a81548173ffffffffffffffffffffffffffffffffffffffff021916908373ffffffffffffffffffffffffffffffffffffffff1602179055506146d9565b600080fd5b5b5b5b5b7fd81bb5ee4f77d798469ff246f77b10775c605f68a46984c3bf126af0623910338484604051808373ffffffffffffffffffffffffffffffffffffffff1673ffffffffffffffffffffffffffffffffffffffff1681526020018273ffffffffffffffffffffffffffffffffffffffff1673ffffffffffffffffffffffffffffffffffffffff1681526020019250505060405180910390a15050919050565b600080600080600080600180600581111561479257fe5b6000809054906101000a900460ff1660058111156147ac57fe5b1415156147b857600080fd5b60008060019054906101000a900473ffffffffffffffffffffffffffffffffffffffff169050601e548173ffffffffffffffffffffffffffffffffffffffff166370a08231336040518263ffffffff167c0100000000000000000000000000000000000000000000000000000000028152600401808273ffffffffffffffffffffffffffffffffffffffff1673ffffffffffffffffffffffffffffffffffffffff168152602001915050602060405180830381600087803b15801561487c57600080fd5b505af1158015614890573d6000803e3d6000fd5b505050506040513d60208110156148a657600080fd5b8101908080519060200190929190505050101515156148c457600080fd5b6148cd346152c1565b96506148e487601654614ca790919063ffffffff16565b60168190555061493c61271061492e6015546149206010600001546149128d34614e4590919063ffffffff16565b614cf090919063ffffffff16565b614cf090919063ffffffff16565b614cf090919063ffffffff16565b9550614981614958612710601454614ca790919063ffffffff16565b614973670de0b6b3a764000080614cf090919063ffffffff16565b614cf090919063ffffffff16565b94506149968587614d2390919063ffffffff16565b93506149c16127106149b360145487614cf090919063ffffffff16565b614d2390919063ffffffff16565b92506149cc33614f60565b614a2d83600960006002811015156149e057fe5b0160003373ffffffffffffffffffffffffffffffffffffffff1673ffffffffffffffffffffffffffffffffffffffff16815260200190815260200160002054614ca790919063ffffffff16565b60096000600281101515614a3d57fe5b0160003373ffffffffffffffffffffffffffffffffffffffff1673ffffffffffffffffffffffffffffffffffffffff16815260200190815260200160002081905550614ae08460096001600281101515614a9357fe5b0160003373ffffffffffffffffffffffffffffffffffffffff1673ffffffffffffffffffffffffffffffffffffffff16815260200190815260200160002054614ca790919063ffffffff16565b60096001600281101515614af057fe5b0160003373ffffffffffffffffffffffffffffffffffffffff1673ffffffffffffffffffffffffffffffffffffffff16815260200190815260200160002081905550614b4783602854614ca790919063ffffffff16565b602881905550614b6284602954614ca790919063ffffffff16565b602981905550600197505050505050505090565b600080851480614b865750600185145b1515614b9157600080fd5b81600b86600281101515614ba157fe5b0160008673ffffffffffffffffffffffffffffffffffffffff1673ffffffffffffffffffffffffffffffffffffffff16815260200190815260200160002060008573ffffffffffffffffffffffffffffffffffffffff1673ffffffffffffffffffffffffffffffffffffffff168152602001908152602001600020819055508273ffffffffffffffffffffffffffffffffffffffff168473ffffffffffffffffffffffffffffffffffffffff167fb3fd5071835887567a0671151121894ddccc2842f1d10bedad13e0d17cace9a78488604051808381526020018281526020019250505060405180910390a360019050949350505050565b60265481565b600042905090565b6000808284019050838110151515614cbb57fe5b8091505092915050565b6000818311614cdd57614cd88284614e45565b614ce8565b614ce78383614e45565b5b905092915050565b60008082840290506000841480614d115750828482811515614d0e57fe5b04145b1515614d1957fe5b8091505092915050565b6000808284811515614d3157fe5b0490508091505092915050565b81601260000181905550806012600101819055506000602481905550614d7d601260000154601260010154601060000154601060010154601554613b15565b6026600060276000849190505583919050555050601954602754101580614da85750601a5460275411155b80614db7575060185460265410155b15614e135760026000806101000a81548160ff02191690836005811115614dda57fe5b021790555043602a819055507fa1f85a3680dfb51f7db8069e794f07f371ef5a545a9c915ac6315b0768a08b3f60405160405180910390a15b80827f8eb94c6a87f56bd59f4a2a7d571f32a264458ff5b910a34862b9051e5953442d60405160405180910390a35050565b6000828211151515614e5357fe5b818303905092915050565b6000807f010000000000000000000000000000000000000000000000000000000000000002614e9685846152f390919063ffffffff16565b614ea985876152f390919063ffffffff16565b187effffffffffffffffffffffffffffffffffffffffffffffffffffffffffffff19161415614eda57839050614f59565b60007f010000000000000000000000000000000000000000000000000000000000000002614f1184846152f390919063ffffffff16565b614f2486866152f390919063ffffffff16565b187effffffffffffffffffffffffffffffffffffffffffffffffffffffffffffff19161415614f5557829050614f59565b8190505b9392505050565b600e60008273ffffffffffffffffffffffffffffffffffffffff1673ffffffffffffffffffffffffffffffffffffffff16815260200190815260200160002060009054906101000a900460ff16151561511a57600d8190806001815401808255809150509060018203906000526020600020016000909192909190916101000a81548173ffffffffffffffffffffffffffffffffffffffff021916908373ffffffffffffffffffffffffffffffffffffffff160217905550506001600e60008373ffffffffffffffffffffffffffffffffffffffff1673ffffffffffffffffffffffffffffffffffffffff16815260200190815260200160002060006101000a81548160ff02191690831515021790555060006009600060028110151561508357fe5b0160008373ffffffffffffffffffffffffffffffffffffffff1673ffffffffffffffffffffffffffffffffffffffff168152602001908152602001600020819055506000600960016002811015156150d757fe5b0160008373ffffffffffffffffffffffffffffffffffffffff1673ffffffffffffffffffffffffffffffffffffffff168152602001908152602001600020819055505b50565b600060078054905061512d614c9f565b81151561513657fe5b06905090565b60026008600060078481548110151561515157fe5b9060005260206000200160009054906101000a900473ffffffffffffffffffffffffffffffffffffffff1673ffffffffffffffffffffffffffffffffffffffff1673ffffffffffffffffffffffffffffffffffffffff168152602001908152602001600020819055506001600780549050038110156152645760076001600780549050038154811015156151e157fe5b9060005260206000200160009054906101000a900473ffffffffffffffffffffffffffffffffffffffff1660078281548110151561521b57fe5b9060005260206000200160006101000a81548173ffffffffffffffffffffffffffffffffffffffff021916908373ffffffffffffffffffffffffffffffffffffffff1602179055505b600760016007805490500381548110151561527b57fe5b9060005260206000200160006101000a81549073ffffffffffffffffffffffffffffffffffffffff021916905560078054809190600190036152bd919061539c565b5050565b60006152ec6127106152de601b5485614cf090919063ffffffff16565b614d2390919063ffffffff16565b9050919050565b60008060007f01000000000000000000000000000000000000000000000000000000000000000290508284111561534b5760017f01000000000000000000000000000000000000000000000000000000000000000290505b8091505092915050565b60c060405190810160405280600690602082028038833980820191505090505090565b61028060405190810160405280601490602082028038833980820191505090505090565b8154818355818111156153c3578183600052602060002091820191016153c291906153c8565b5b505050565b6153ea91905b808211156153e65760008160009055506001016153ce565b5090565b905600a165627a7a723058207dc73ea49ce1594e6afba8458e3af6127f4d4d6a574d169deb744dbd83b573f40029",
  "source": "pragma solidity ^0.4.23;\r\nimport { DUO } from \"./DUO.sol\";\r\n\r\nlibrary SafeMath {\r\n\tfunction mul(uint a, uint b) internal pure returns (uint) {\r\n\t\tuint c = a * b;\r\n\t\tassert(a == 0 || c / a == b);\r\n\t\treturn c;\r\n\t}\r\n\r\n\tfunction div(uint a, uint b) internal pure returns (uint) {\r\n\t\t// assert(b > 0); // Solidity automatically throws when dividing by 0\r\n\t\tuint c = a / b;\r\n\t\t// assert(a == b * c + a % b); // There is no case in which this doesn't hold\r\n\t\treturn c;\r\n\t}\r\n\r\n\tfunction sub(uint a, uint b) internal pure returns (uint) {\r\n\t\tassert(b <= a);\r\n\t\treturn a - b;\r\n\t}\r\n\r\n\tfunction add(uint a, uint b) internal pure returns (uint) {\r\n\t\tuint c = a + b;\r\n\t\tassert(c >= a);\r\n\t\treturn c;\r\n\t}\r\n\r\n\tfunction diff(uint a, uint b) internal pure returns (uint) {\r\n\t\treturn a > b ? sub(a, b) : sub(b, a);\r\n\t}\r\n\r\n\tfunction gt(uint a, uint b) internal pure returns(bytes1) {\r\n\t\tbytes1 c;\r\n\t\tc = 0x0;\r\n\t\tif (a > b) {\r\n\t\t\tc = 0x1;\r\n\t\t}\r\n\t\treturn c;\r\n\t}\r\n}\r\n\r\ncontract Custodian {\r\n\tusing SafeMath for uint;\r\n\tenum State {\r\n\t\tInception,\r\n\t\tTrading,\r\n\t\tPreReset,\r\n\t\tUpwardReset,\r\n\t\tDownwardReset,\r\n\t\tPeriodicReset\r\n\t}\r\n\r\n\tstruct Price {\r\n\t\tuint priceInWei;\r\n\t\tuint timeInSecond;\r\n\t}\r\n\r\n\tState public state;\r\n\taddress duoTokenAddress;\r\n\t// below 6 address are returned by getSystemAddresses\r\n\taddress admin;\r\n\taddress feeCollector;\r\n\taddress priceFeed1; \r\n\taddress priceFeed2; \r\n\taddress priceFeed3;\r\n\taddress poolManager;\r\n\r\n\t// address pool for allocation\r\n\taddress[] public addrPool =[\r\n\t\t0x1952E39f7Bc9E00FAffcEa0305E09c065DBd8eFd,\r\n\t\t0x51a123239894F0C7175F9c0e9e9519d9D74194f6,\r\n\t\t0x15421ef85E1f4ED8e20Cdf35894caa3d2fb43344,\r\n\t\t0x11B73358799D057D195fCeC8B93C70E54E39da27,\r\n\t\t0xaC5E46B58417a111aAa2Dfd972e86C87C55d1c83,\r\n\t\t0xB7c034Cad16Adbcb3aD10bdAd9160220Cd0aa8BD\r\n\t];\r\n\tmapping(address => uint) addrStatus;\r\n\r\n\tuint constant decimals = 18;\r\n\t// balance and allowance for A and B\r\n\tmapping(address => uint)[2] public balanceOf;\r\n\tmapping (address => mapping (address => uint))[2] public allowance;\r\n\taddress[] public users;\r\n\tmapping (address => bool) existingUsers;\r\n\tmapping(address => uint) public ethPendingWithdrawal;\r\n\r\n\tuint constant WEI_DENOMINATOR = 1000000000000000000;\r\n\tuint constant BP_DENOMINATOR = 10000;\r\n\r\n\tPrice public resetPrice; \r\n\tPrice public lastPrice; \r\n\t// below 18 states are returned in getSystemStates\r\n\tuint alphaInBP;\r\n\tuint betaInWei = WEI_DENOMINATOR;\r\n\tuint feeAccumulatedInWei;\r\n\tuint periodCouponInWei; \r\n\tuint limitPeriodicInWei; \r\n\tuint limitUpperInWei; \r\n\tuint limitLowerInWei;\r\n\tuint commissionRateInBP;\r\n\tuint period;\r\n\tuint iterationGasThreshold = 60000;\r\n\tuint memberThresholdInWei = 10 * WEI_DENOMINATOR;\r\n\tuint preResetWaitingBlocks = 10;\r\n\tuint priceTolInBP = 500; \r\n\tuint priceFeedTolInBP = 100;\r\n\tuint priceFeedTimeTol = 1 minutes;\r\n\tuint priceUpdateCoolDown;\r\n\tuint numOfPrices = 0;\r\n\tuint nextResetAddrIndex = 0;\r\n\t// nav and current total supply\r\n\tuint public navAInWei;\r\n\tuint public navBInWei; \r\n\tuint public totalSupplyA;\r\n\tuint public totalSupplyB;\r\n\r\n\t// cycle state variables\r\n\tuint lastPreResetBlockNo = 0;\r\n\t// below 4 data are returned in getStagingPrices\r\n\taddress firstAddr;\r\n\taddress secondAddr;\r\n\tPrice firstPrice;\r\n\tPrice secondPrice;\r\n\t\r\n\t// reset intermediate values\r\n\tuint bAdj;\r\n\tuint newAFromAPerA;\r\n\tuint newAFromBPerB;\r\n\tuint newBFromAPerA;\r\n\tuint newBFromBPerB;\r\n\r\n\tmodifier inState(State _state) {\r\n\t\trequire(state == _state);\r\n\t\t_;\r\n\t}\r\n\r\n\tmodifier only(address addr) {\r\n\t\trequire(msg.sender == addr);\r\n\t\t_;\r\n\t}\r\n\r\n\tmodifier isPriceFeed() {\r\n\t\trequire(msg.sender == priceFeed1 || msg.sender == priceFeed2 || msg.sender == priceFeed3);\r\n\t\t_;\r\n\t}\r\n\r\n\tmodifier isDuoMember() {\r\n\t\tDUO duoToken = DUO(duoTokenAddress);\r\n\t\trequire(duoToken.balanceOf(msg.sender) >= memberThresholdInWei);\r\n\t\t_;\r\n\t}\r\n\r\n\tmodifier inAddrPool() {\r\n\t\trequire(addrStatus[msg.sender] == 1);\r\n\t\t_;\r\n\t}\r\n\r\n\t// state events\r\n\tevent StartTrading();\r\n\tevent StartPreReset();\r\n\tevent StartReset();\r\n\tevent CommitPrice(uint indexed priceInWei, uint indexed timeInSecond, address sender, uint index);\r\n\tevent AcceptPrice(uint indexed priceInWei, uint indexed timeInSecond);\r\n\r\n\t// token events\r\n\tevent Transfer(address indexed from, address indexed to, uint256 value, uint index);\r\n\tevent Approval(address indexed tokenOwner, address indexed spender, uint tokens, uint index);\r\n\t\r\n\t// admin events\r\n\tevent AddAddress(address added1, address added2, address newPoolManager);\r\n\tevent UpdateAddress(address current, address newAddr);\r\n\tevent RemoveAddress(address addr, address newPoolManager);\r\n\tevent SetValue(uint index, uint oldValue, uint newValue);\r\n\tevent CollectFee(address addr, uint value);\r\n\t\r\n\tconstructor(\r\n\t\taddress feeAddress, \r\n\t\taddress duoAddress,\r\n\t\taddress pf1,\r\n\t\taddress pf2,\r\n\t\taddress pf3,\r\n\t\taddress poolMng,\r\n\t\tuint alpha,\r\n\t\tuint r,\r\n\t\tuint hp,\r\n\t\tuint hu,\r\n\t\tuint hd,\r\n\t\tuint c,\r\n\t\tuint p,\r\n\t\tuint coolDown) \r\n\t\tpublic \r\n\t{\r\n\t\tfor (uint i = 0; i < addrPool.length; i++) {\r\n\t\t\taddrStatus[addrPool[i]] = 1;\r\n\t\t}\r\n\t\tstate = State.Inception;\r\n\t\tpoolManager = poolMng;\r\n\t\taddrStatus[poolManager] = 2;\r\n\t\tadmin = msg.sender;\r\n\t\taddrStatus[admin] = 2;\r\n\t\tcommissionRateInBP = 100;\r\n\t\tfeeCollector = feeAddress;\r\n\t\taddrStatus[feeCollector] = 2;\r\n\t\tpriceFeed1 = pf1;\r\n\t\taddrStatus[priceFeed1] = 2;\r\n\t\tpriceFeed2 = pf2;\r\n\t\taddrStatus[priceFeed2] = 2;\r\n\t\tpriceFeed3 = pf3;\r\n\t\taddrStatus[priceFeed3] = 2;\r\n\t\tduoTokenAddress = duoAddress;\r\n\t\taddrStatus[duoTokenAddress] = 2;\r\n\t\talphaInBP = alpha;\r\n\t\tperiodCouponInWei = r; \r\n\t\tlimitPeriodicInWei = hp; \r\n\t\tlimitUpperInWei = hu; \r\n\t\tlimitLowerInWei = hd;\r\n\t\tcommissionRateInBP = c;\r\n\t\tperiod = p;\r\n\t\tnavAInWei = 1;\r\n\t\tnavBInWei = 1;\r\n\t\tpriceUpdateCoolDown = coolDown;\r\n\t\tbAdj = alphaInBP.add(BP_DENOMINATOR).mul(WEI_DENOMINATOR).div(BP_DENOMINATOR);\r\n\t}\r\n\r\n\t// start of public functions\r\n\tfunction calculateNav(\r\n\t\tuint priceInWei, \r\n\t\tuint timeInSecond, \r\n\t\tuint resetPriceInWei, \r\n\t\tuint resetTimeInSecond,\r\n\t\tuint bInWei) \r\n\t\tpublic \r\n\t\tview \r\n\t\treturns (uint, uint) \r\n\t{\r\n\t\tuint numOfPeriods = timeInSecond.sub(resetTimeInSecond).div(period);\r\n\t\tuint navParent = priceInWei.mul(WEI_DENOMINATOR).div(resetPriceInWei);\r\n\t\tnavParent = navParent\r\n\t\t\t.mul(WEI_DENOMINATOR)\r\n\t\t\t.mul(alphaInBP.add(BP_DENOMINATOR))\r\n\t\t\t.div(BP_DENOMINATOR)\r\n\t\t\t.div(bInWei\r\n\t\t);\r\n\t\tuint navA = periodCouponInWei.mul(numOfPeriods).add(WEI_DENOMINATOR);\r\n\t\tuint navAAdj = navA.mul(alphaInBP).div(BP_DENOMINATOR);\r\n\t\tif (navParent <= navAAdj)\r\n\t\t\treturn (navParent.mul(BP_DENOMINATOR).div(alphaInBP), 0);\r\n\t\telse\r\n\t\t\treturn (navA, navParent.sub(navAAdj));\r\n\t}\r\n\r\n\tfunction startPreReset() public inState(State.PreReset) returns (bool success) {\r\n\t\tif (block.number - lastPreResetBlockNo >= preResetWaitingBlocks) {\r\n\t\t\tuint newBFromA;\r\n\t\t\tuint newAFromA;\r\n\t\t\tif (navBInWei >= limitUpperInWei) {\r\n\t\t\t\tstate = State.UpwardReset;\r\n\t\t\t\tbetaInWei = WEI_DENOMINATOR;\r\n\t\t\t\tuint excessAInWei = navAInWei.sub(WEI_DENOMINATOR);\r\n\t\t\t\tuint excessBInWei = navBInWei.sub(WEI_DENOMINATOR);\r\n\t\t\t\t// excessive B is enough to cover excessive A\r\n\t\t\t\t//if (excessBInWei >= excessAInWei) {\r\n\t\t\t\tuint excessBAfterAInWei = excessBInWei.sub(excessAInWei);\r\n\t\t\t\tnewAFromAPerA = excessAInWei;\r\n\t\t\t\tnewBFromAPerA = 0;\r\n\t\t\t\tuint newBFromExcessBPerB = excessBAfterAInWei.mul(betaInWei).div(bAdj);\r\n\t\t\t\tnewAFromBPerB = newBFromExcessBPerB.mul(alphaInBP).div(BP_DENOMINATOR);\r\n\t\t\t\tnewBFromBPerB = excessAInWei.add(newBFromExcessBPerB);\t\t\t\r\n\t\t\t\t// ignore this case for now as it requires a very high coupon rate \r\n\t\t\t\t// and very low upper limit for upward reset and a very high periodic limit\r\n\t\t\t\t/*} else {\r\n\t\t\t\t\tuint excessAForBInWei = excessBInWei.mul(alphaInBP).div(BP_DENOMINATOR);\r\n\t\t\t\t\tuint excessAAfterBInWei = excessAInWei.sub(excessAForBInWei);\r\n\t\t\t\t\tnewAFromBPerB = 0;\r\n\t\t\t\t\tnewBFromBPerB = excessBInWei;\r\n\t\t\t\t\tnewBFromAPerA = excessAAfterBInWei.mul(betaInWei).div(bAdj);\r\n\t\t\t\t\tnewAFromAPerA = excessAForBInWei.add(newBFromAPerA.mul(alphaInBP).div(BP_DENOMINATOR));\r\n\t\t\t\t}*/\r\n\t\t\t\t// adjust total supply\r\n\t\t\t\ttotalSupplyA = totalSupplyA\r\n\t\t\t\t\t.add(totalSupplyA\r\n\t\t\t\t\t\t.mul(newAFromAPerA)\r\n\t\t\t\t\t\t.add(totalSupplyB\r\n\t\t\t\t\t\t\t.mul(newAFromBPerB))\r\n\t\t\t\t\t\t.div(WEI_DENOMINATOR)\r\n\t\t\t\t);\r\n\t\t\t\ttotalSupplyB = totalSupplyB\r\n\t\t\t\t\t.add(totalSupplyA\r\n\t\t\t\t\t\t.mul(newBFromAPerA)\r\n\t\t\t\t\t\t.add(totalSupplyB\r\n\t\t\t\t\t\t\t.mul(newBFromBPerB))\r\n\t\t\t\t\t\t.div(WEI_DENOMINATOR)\r\n\t\t\t\t);\r\n\t\t\t} else if(navBInWei <= limitLowerInWei) {\r\n\t\t\t\tstate = State.DownwardReset;\r\n\t\t\t\tbetaInWei = WEI_DENOMINATOR;\r\n\t\t\t\tnewBFromAPerA = navAInWei.sub(navBInWei).mul(betaInWei).div(bAdj);\r\n\t\t\t\t// below are not used and set to 0\r\n\t\t\t\tnewAFromAPerA = 0;\r\n\t\t\t\tnewBFromBPerB = 0;\r\n\t\t\t\tnewAFromBPerB = 0;\r\n\t\t\t\t// adjust total supply\r\n\t\t\t\tnewBFromA = totalSupplyA.mul(newBFromAPerA).div(WEI_DENOMINATOR);\r\n\t\t\t\tnewAFromA = newBFromA.mul(alphaInBP).div(BP_DENOMINATOR);\r\n\t\t\t\ttotalSupplyA = totalSupplyA.mul(navBInWei).div(WEI_DENOMINATOR).add(newAFromA);\r\n\t\t\t\ttotalSupplyB = totalSupplyB.mul(navBInWei).div(WEI_DENOMINATOR).add(newBFromA);\r\n\t\t\t} else { // navAInWei >= limitPeriodicInWei\r\n\t\t\t\tstate = State.PeriodicReset;\r\n\t\t\t\tuint num = alphaInBP\r\n\t\t\t\t\t.add(BP_DENOMINATOR)\r\n\t\t\t\t\t.mul(lastPrice.priceInWei);\r\n\t\t\t\tuint den = num\r\n\t\t\t\t\t.sub(\r\n\t\t\t\t\t\tresetPrice.priceInWei\r\n\t\t\t\t\t\t\t.mul(alphaInBP)\r\n\t\t\t\t\t\t\t.mul(betaInWei)\r\n\t\t\t\t\t\t\t.mul(navAInWei\r\n\t\t\t\t\t\t\t\t.sub(WEI_DENOMINATOR))\r\n\t\t\t\t\t\t\t.div(WEI_DENOMINATOR)\r\n\t\t\t\t\t\t\t.div(WEI_DENOMINATOR)\r\n\t\t\t\t);\r\n\t\t\t\tbetaInWei = betaInWei.mul(num).div(den);\r\n\t\t\t\tnewBFromAPerA = navAInWei.sub(WEI_DENOMINATOR).mul(betaInWei).div(bAdj);\r\n\t\t\t\t// below are not used and set to 0\r\n\t\t\t\tnewBFromBPerB = 0;\r\n\t\t\t\tnewAFromAPerA = 0;\r\n\t\t\t\tnewAFromBPerB = 0;\r\n\t\t\t\t// adjust total supply\r\n\t\t\t\tnewBFromA = totalSupplyA.mul(newBFromAPerA).div(WEI_DENOMINATOR);\r\n\t\t\t\tnewAFromA = newBFromA.mul(alphaInBP).div(BP_DENOMINATOR);\r\n\t\t\t\ttotalSupplyA = totalSupplyA.add(newAFromA);\r\n\t\t\t\ttotalSupplyB = totalSupplyB.add(newBFromA);\r\n\t\t\t}\r\n\r\n\t\t\temit StartReset();\r\n\t\t} else \r\n\t\t\temit StartPreReset();\r\n\r\n\t\treturn true;\r\n\t}\r\n\r\n\tfunction startReset() public returns (bool success) {\r\n\t\trequire(state == State.UpwardReset || state == State.DownwardReset || state == State.PeriodicReset);\r\n\t\tuint currentBalanceA;\r\n\t\tuint currentBalanceB;\r\n\t\tuint newBalanceA;\r\n\t\tuint newBalanceB;\r\n\t\tuint newAFromA;\r\n\t\tuint newBFromA;\r\n\t\taddress currentAddress;\r\n\t\tuint localResetAddrIndex = nextResetAddrIndex;\r\n\t\twhile (localResetAddrIndex < users.length && gasleft() > iterationGasThreshold) {\r\n\t\t\tcurrentAddress = users[nextResetAddrIndex];\r\n\t\t\tcurrentBalanceA = balanceOf[0][currentAddress];\r\n\t\t\tcurrentBalanceB = balanceOf[1][currentAddress];\r\n\t\t\tif (state == State.DownwardReset) {\r\n\t\t\t\tnewBFromA = currentBalanceA.mul(newBFromAPerA).div(WEI_DENOMINATOR);\r\n\t\t\t\tnewAFromA = newBFromA.mul(alphaInBP).div(BP_DENOMINATOR);\r\n\t\t\t\tnewBalanceA = currentBalanceA.mul(navBInWei).div(WEI_DENOMINATOR).add(newAFromA);\r\n\t\t\t\tnewBalanceB = currentBalanceB.mul(navBInWei).div(WEI_DENOMINATOR).add(newBFromA);\r\n\t\t\t}\r\n\t\t\telse if (state == State.UpwardReset) {\r\n\t\t\t\tnewBalanceA = currentBalanceA\r\n\t\t\t\t\t.add(currentBalanceA\r\n\t\t\t\t\t\t.mul(newAFromAPerA)\r\n\t\t\t\t\t\t.add(currentBalanceB\r\n\t\t\t\t\t\t\t.mul(newAFromBPerB))\r\n\t\t\t\t\t\t.div(WEI_DENOMINATOR)\r\n\t\t\t\t);\r\n\t\t\t\tnewBalanceB = currentBalanceB\r\n\t\t\t\t\t.add(currentBalanceA\r\n\t\t\t\t\t\t.mul(newBFromAPerA)\r\n\t\t\t\t\t\t.add(currentBalanceB\r\n\t\t\t\t\t\t\t.mul(newBFromBPerB))\r\n\t\t\t\t\t\t.div(WEI_DENOMINATOR)\r\n\t\t\t\t);\r\n\t\t\t} else {\r\n\t\t\t\tnewBFromA = currentBalanceA.mul(newBFromAPerA).div(WEI_DENOMINATOR);\r\n\t\t\t\tnewAFromA = newBFromA.mul(alphaInBP).div(BP_DENOMINATOR);\r\n\t\t\t\tnewBalanceA = currentBalanceA.add(newAFromA);\r\n\t\t\t\tnewBalanceB = currentBalanceB.add(newBFromA);\r\n\t\t\t}\r\n\r\n\t\t\tbalanceOf[0][currentAddress] = newBalanceA;\r\n\t\t\tbalanceOf[1][currentAddress] = newBalanceB;\r\n\t\t\tlocalResetAddrIndex++;\r\n\t\t}\r\n\r\n\t\tif (localResetAddrIndex >= users.length) {\r\n\t\t\tif (state != State.PeriodicReset) {\r\n\t\t\t\tresetPrice.priceInWei = lastPrice.priceInWei;\r\n\t\t\t\tresetPrice.timeInSecond = lastPrice.timeInSecond;\r\n\t\t\t\tnavBInWei = WEI_DENOMINATOR;\r\n\t\t\t}\r\n\t\t\t\r\n\t\t\tnavAInWei = WEI_DENOMINATOR;\r\n\t\t\tnextResetAddrIndex = 0;\r\n\r\n\t\t\tstate = State.Trading;\r\n\t\t\temit StartTrading();\r\n\t\t\treturn true;\r\n\t\t} else{\r\n\t\t\tnextResetAddrIndex = localResetAddrIndex;\r\n\t\t\temit StartReset();\r\n\t\t\treturn false;\r\n\t\t}\r\n\t}\r\n\r\n\tfunction getSystemAddresses() public view returns (address[6] sysAddr) {\r\n\t\tsysAddr[0] = admin;\r\n\t\tsysAddr[1] = feeCollector;\r\n\t\tsysAddr[2] = priceFeed1; \r\n\t\tsysAddr[3] = priceFeed2; \r\n\t\tsysAddr[4] = priceFeed3;\r\n\t\tsysAddr[5] = poolManager;\r\n\t}\r\n\r\n\tfunction getSystemStates() public view returns (uint[20] sysState) {\r\n\t\tsysState[0] = alphaInBP;\r\n\t\tsysState[1] = betaInWei;\r\n\t\tsysState[2] = feeAccumulatedInWei;\r\n\t\tsysState[3] = periodCouponInWei; \r\n\t\tsysState[4] = limitPeriodicInWei; \r\n\t\tsysState[5] = limitUpperInWei; \r\n\t\tsysState[6] = limitLowerInWei;\r\n\t\tsysState[7] = commissionRateInBP;\r\n\t\tsysState[8] = period;\r\n\t\tsysState[9] = iterationGasThreshold;\r\n\t\tsysState[10] = memberThresholdInWei;\r\n\t\tsysState[11] = preResetWaitingBlocks;\r\n\t\tsysState[12] = priceTolInBP; \r\n\t\tsysState[13] = priceFeedTolInBP;\r\n\t\tsysState[14] = priceFeedTimeTol;\r\n\t\tsysState[15] = priceUpdateCoolDown;\r\n\t\tsysState[16] = numOfPrices;\r\n\t\tsysState[17] = nextResetAddrIndex;\r\n\t\tsysState[18] = users.length;\r\n\t\tsysState[19] = addrPool.length;\r\n\t}\r\n\r\n\tfunction getStagingPrices() \r\n\t\tpublic \r\n\t\tview \r\n\t\treturns (\r\n\t\t\taddress addr1, \r\n\t\t\tuint px1, \r\n\t\t\tuint ts1, \r\n\t\t\taddress addr2, \r\n\t\t\tuint px2, \r\n\t\t\tuint ts2) \r\n\t{\r\n\t\taddr1 = firstAddr;\r\n\t\taddr2 = secondAddr;\r\n\t\tpx1 = firstPrice.priceInWei;\r\n\t\tts1 = firstPrice.timeInSecond;\r\n\t\tpx2 = secondPrice.priceInWei;\r\n\t\tts2 = secondPrice.timeInSecond;\r\n\t}\r\n\r\n\t// end of public functions\r\n\t// start of price feed functions\r\n\r\n\tfunction startContract(\r\n\t\tuint priceInWei, \r\n\t\tuint timeInSecond) \r\n\t\tpublic \r\n\t\tinState(State.Inception) \r\n\t\tisPriceFeed() \r\n\t\treturns (bool success) \r\n\t{\r\n\t\trequire(timeInSecond <= getNowTimestamp());\r\n\t\tlastPrice.timeInSecond = timeInSecond;\r\n\t\tlastPrice.priceInWei = priceInWei;\r\n\t\tresetPrice.timeInSecond = timeInSecond;\r\n\t\tresetPrice.priceInWei = priceInWei;\r\n\t\tstate = State.Trading;\r\n\t\treturn true;\r\n\t}\r\n\r\n\tfunction commitPrice(uint priceInWei, uint timeInSecond) \r\n\t\tpublic \r\n\t\tinState(State.Trading) \r\n\t\tisPriceFeed()\r\n\t\treturns (bool success)\r\n\t{\t\r\n\t\trequire(timeInSecond <= getNowTimestamp());\r\n\t\trequire(timeInSecond > lastPrice.timeInSecond.add(priceUpdateCoolDown));\r\n\t\tuint priceDiff;\r\n\t\tif (numOfPrices == 0) {\r\n\t\t\tpriceDiff = priceInWei.diff(lastPrice.priceInWei);\r\n\t\t\tif (priceDiff.mul(BP_DENOMINATOR).div(lastPrice.priceInWei) <= priceTolInBP) {\r\n\t\t\t\tacceptPrice(priceInWei, timeInSecond);\r\n\t\t\t} else {\r\n\t\t\t\t// wait for the second price\r\n\t\t\t\tfirstPrice = Price(priceInWei, timeInSecond);\r\n\t\t\t\tfirstAddr = msg.sender;\r\n\t\t\t\temit CommitPrice(priceInWei, timeInSecond, msg.sender, 0);\r\n\t\t\t\tnumOfPrices++;\r\n\t\t\t}\r\n\t\t} else if (numOfPrices == 1) {\r\n\t\t\tif (timeInSecond > firstPrice.timeInSecond.add(priceUpdateCoolDown)) {\r\n\t\t\t\tif (firstAddr == msg.sender)\r\n\t\t\t\t\tacceptPrice(priceInWei, timeInSecond);\r\n\t\t\t\telse\r\n\t\t\t\t\tacceptPrice(firstPrice.priceInWei, timeInSecond);\r\n\t\t\t} else {\r\n\t\t\t\trequire(firstAddr != msg.sender);\r\n\t\t\t\t// if second price times out, use first one\r\n\t\t\t\tif (firstPrice.timeInSecond.add(priceFeedTimeTol) < timeInSecond || \r\n\t\t\t\t\tfirstPrice.timeInSecond.sub(priceFeedTimeTol) > timeInSecond) {\r\n\t\t\t\t\tacceptPrice(firstPrice.priceInWei, firstPrice.timeInSecond);\r\n\t\t\t\t} else {\r\n\t\t\t\t\tpriceDiff = priceInWei.diff(firstPrice.priceInWei);\r\n\t\t\t\t\tif (priceDiff.mul(BP_DENOMINATOR).div(firstPrice.priceInWei) <= priceTolInBP) {\r\n\t\t\t\t\t\tacceptPrice(firstPrice.priceInWei, firstPrice.timeInSecond);\r\n\t\t\t\t\t} else {\r\n\t\t\t\t\t\t// wait for the third price\r\n\t\t\t\t\t\tsecondPrice = Price(priceInWei, timeInSecond);\r\n\t\t\t\t\t\tsecondAddr = msg.sender;\r\n\t\t\t\t\t\temit CommitPrice(priceInWei, timeInSecond, msg.sender, 1);\r\n\t\t\t\t\t\tnumOfPrices++;\r\n\t\t\t\t\t} \r\n\t\t\t\t}\r\n\t\t\t}\r\n\t\t} else if (numOfPrices == 2) {\r\n\t\t\tif (timeInSecond > firstPrice.timeInSecond + priceUpdateCoolDown) {\r\n\t\t\t\tif ((firstAddr == msg.sender || secondAddr == msg.sender))\r\n\t\t\t\t\tacceptPrice(priceInWei, timeInSecond);\r\n\t\t\t\telse\r\n\t\t\t\t\tacceptPrice(secondPrice.priceInWei, timeInSecond);\r\n\t\t\t} else {\r\n\t\t\t\trequire(firstAddr != msg.sender && secondAddr != msg.sender);\r\n\t\t\t\tuint acceptedPriceInWei;\r\n\t\t\t\t// if third price times out, use first one\r\n\t\t\t\tif (firstPrice.timeInSecond.add(priceFeedTimeTol) < timeInSecond || \r\n\t\t\t\t\tfirstPrice.timeInSecond.sub(priceFeedTimeTol) > timeInSecond) {\r\n\t\t\t\t\tacceptedPriceInWei = firstPrice.priceInWei;\r\n\t\t\t\t} else {\r\n\t\t\t\t\t// take median and proceed\r\n\t\t\t\t\t// first and second price will never be equal in this part\r\n\t\t\t\t\t// if second and third price are the same, they are median\r\n\t\t\t\t\tif (secondPrice.priceInWei == priceInWei) {\r\n\t\t\t\t\t\tacceptedPriceInWei = priceInWei;\r\n\t\t\t\t\t} else {\r\n\t\t\t\t\t\tacceptedPriceInWei = getMedian(firstPrice.priceInWei, secondPrice.priceInWei, priceInWei);\r\n\t\t\t\t\t}\r\n\t\t\t\t}\r\n\t\t\t\tacceptPrice(acceptedPriceInWei, firstPrice.timeInSecond);\r\n\t\t\t}\r\n\t\t} else {\r\n\t\t\treturn false;\r\n\t\t}\r\n\r\n\t\treturn true;\r\n\t}\r\n\r\n\tfunction acceptPrice(uint priceInWei, uint timeInSecond) internal {\r\n\t\tlastPrice.priceInWei = priceInWei;\r\n\t\tlastPrice.timeInSecond = timeInSecond;\r\n\t\tnumOfPrices = 0;\r\n\t\t(navAInWei, navBInWei) = calculateNav(\r\n\t\t\tlastPrice.priceInWei, \r\n\t\t\tlastPrice.timeInSecond, \r\n\t\t\tresetPrice.priceInWei, \r\n\t\t\tresetPrice.timeInSecond, \r\n\t\t\tbetaInWei);\r\n\t\tif (navBInWei >= limitUpperInWei || navBInWei <= limitLowerInWei || navAInWei >= limitPeriodicInWei) {\r\n\t\t\tstate = State.PreReset;\r\n\t\t\tlastPreResetBlockNo = block.number;\r\n\t\t\temit StartPreReset();\r\n\t\t} \r\n\t\temit AcceptPrice(priceInWei, timeInSecond);\r\n\t}\r\n\r\n\tfunction getMedian(uint a, uint b, uint c) internal pure returns (uint) {\r\n\t\tif (a.gt(b) ^ c.gt(a) == 0x0) {\r\n\t\t\treturn a;\r\n\t\t} else if(b.gt(a) ^ c.gt(b) == 0x0) {\r\n\t\t\treturn b;\r\n\t\t} else {\r\n\t\t\treturn c;\r\n\t\t}\r\n\t}\r\n\r\n\t// end of price feed functions\t\r\n\t// start of DUO member functions\r\n\r\n\tfunction create() \r\n\t\tpublic \r\n\t\tpayable \r\n\t\tinState(State.Trading) \r\n\t\tisDuoMember() \r\n\t\treturns (bool success) \r\n\t{\r\n\t\tuint feeInWei = getFee(msg.value);\r\n\t\tfeeAccumulatedInWei = feeAccumulatedInWei.add(feeInWei);\r\n\t\tuint numeritor = msg.value\r\n\t\t\t\t\t\t.sub(feeInWei)\r\n\t\t\t\t\t\t.mul(resetPrice.priceInWei)\r\n\t\t\t\t\t\t.mul(betaInWei)\r\n\t\t\t\t\t\t.mul(BP_DENOMINATOR\r\n\t\t);\r\n\t\tuint denominator = WEI_DENOMINATOR\r\n\t\t\t\t\t\t.mul(WEI_DENOMINATOR)\r\n\t\t\t\t\t\t.mul(alphaInBP\r\n\t\t\t\t\t\t\t.add(BP_DENOMINATOR)\r\n\t\t);\r\n\t\tuint tokenValueB = numeritor.div(denominator);\r\n\t\tuint tokenValueA = tokenValueB.mul(alphaInBP).div(BP_DENOMINATOR);\r\n\t\tcheckNewUser(msg.sender);\r\n\t\tbalanceOf[0][msg.sender] = balanceOf[0][msg.sender].add(tokenValueA);\r\n\t\tbalanceOf[1][msg.sender] = balanceOf[1][msg.sender].add(tokenValueB);\r\n\t\ttotalSupplyA = totalSupplyA.add(tokenValueA);\r\n\t\ttotalSupplyB = totalSupplyB.add(tokenValueB);\r\n\t\treturn true;\r\n\t}\r\n\r\n\tfunction redeem(uint amtInWeiA, uint amtInWeiB) \r\n\t\tpublic \r\n\t\tinState(State.Trading) \r\n\t\tisDuoMember() \r\n\t\treturns (bool success) \r\n\t{\r\n\t\trequire(amtInWeiA > 0 && amtInWeiB > 0);\r\n\t\tuint adjAmtInWeiA = amtInWeiA.mul(BP_DENOMINATOR).div(alphaInBP);\r\n\t\tuint deductAmtInWeiB = adjAmtInWeiA < amtInWeiB ? adjAmtInWeiA : amtInWeiB;\r\n\t\tuint deductAmtInWeiA = deductAmtInWeiB.mul(alphaInBP).div(BP_DENOMINATOR);\r\n\t\trequire(balanceOf[0][msg.sender] >= deductAmtInWeiA && balanceOf[1][msg.sender] >= deductAmtInWeiB);\r\n\t\tuint amtEthInWei = deductAmtInWeiA\r\n\t\t\t.add(deductAmtInWeiB)\r\n\t\t\t.mul(WEI_DENOMINATOR)\r\n\t\t\t.mul(WEI_DENOMINATOR)\r\n\t\t\t.div(resetPrice.priceInWei)\r\n\t\t\t.div(betaInWei);\r\n\t\tuint feeInWei = getFee(amtEthInWei);\r\n\t\tbalanceOf[0][msg.sender] = balanceOf[0][msg.sender].sub(deductAmtInWeiA);\r\n\t\tbalanceOf[1][msg.sender] = balanceOf[1][msg.sender].sub(deductAmtInWeiB);\r\n\t\ttotalSupplyA = totalSupplyA.sub(deductAmtInWeiA);\r\n\t\ttotalSupplyB = totalSupplyB.sub(deductAmtInWeiB);\r\n\t\tfeeAccumulatedInWei = feeAccumulatedInWei.add(feeInWei);\r\n\t\tethPendingWithdrawal[msg.sender] = ethPendingWithdrawal[msg.sender].add(amtEthInWei.sub(feeInWei));\r\n\t\treturn true;\r\n\t}\r\n\r\n\tfunction withdraw(uint amtEthInWei) public inState(State.Trading) returns (bool success) {\r\n\t\trequire(amtEthInWei > 0 && amtEthInWei <= ethPendingWithdrawal[msg.sender] && amtEthInWei < address(this).balance);\r\n\t\tethPendingWithdrawal[msg.sender] = ethPendingWithdrawal[msg.sender].sub(amtEthInWei);\r\n\t\tmsg.sender.transfer(amtEthInWei);\r\n\t\treturn true;\r\n\t}\r\n\t\r\n\tfunction getFee(uint ethInWei) internal constant returns(uint) {\r\n\t\treturn ethInWei.mul(commissionRateInBP).div(BP_DENOMINATOR);\r\n\t}\r\n\r\n\t// end of DUO member functions\r\n\t// start of token functions\r\n\t\r\n\tfunction transfer(uint index, address _from, address _to, uint _tokens) \r\n\t\tpublic \r\n\t\tinState(State.Trading)\r\n\t\treturns (bool success) \r\n\t{\r\n\t\trequire(index == 0 || index == 1);\r\n\t\t// Prevent transfer to 0x0 address. Use burn() instead\r\n\t\trequire(_to != 0x0);\r\n\t\t// Check if the sender has enough\r\n\t\trequire(balanceOf[index][_from] >= _tokens);\r\n\t\t// Check for overflows\r\n\t\trequire(balanceOf[index][_to].add(_tokens) > balanceOf[index][_to]);\r\n\r\n\t\t// Save this for an assertion in the future\r\n\t\tuint previousBalances = balanceOf[index][_from].add(balanceOf[index][_to]);\r\n\t\t//check whether _to is new. if new then add\r\n\t\tcheckNewUser(_to);\r\n\t\t// Subtract from the sender\r\n\t\tbalanceOf[index][_from] = balanceOf[index][_from].sub(_tokens);\r\n\t\t// Add the same to the recipient\r\n\t\tbalanceOf[index][_to] = balanceOf[index][_to].add(_tokens);\r\n\t\t\r\n\t\temit Transfer(_from, _to, _tokens, index);\r\n\t\t// Asserts are used to use static analysis to find bugs in your code. They should never fail\r\n\t\tassert(balanceOf[index][_from].add(balanceOf[index][_to]) == previousBalances);\r\n\t\treturn true;\r\n\t}\r\n\r\n\tfunction approve(uint index, address _sender, address _spender, uint _tokens) \r\n\t\tpublic \r\n\t\treturns (bool success) \r\n\t{\r\n\t\trequire(index == 0 || index == 1);\r\n\t\tallowance[index][_sender][_spender] = _tokens;\r\n\t\temit Approval(_sender, _spender, _tokens, index);\r\n\t\treturn true;\r\n\t}\r\n\t\r\n\tfunction transferFrom(uint index, address _spender, address _from, address _to, uint _tokens) \r\n\t\tpublic \r\n\t\tinState(State.Trading)\r\n\t\treturns (bool success) \r\n\t{\r\n\t\trequire(index == 0 || index == 1);\r\n\t\trequire(_tokens <= allowance[index][_from][_spender]);\t // Check allowance\r\n\t\tallowance[index][_from][_spender] = allowance[index][_from][_spender].sub(_tokens);\r\n\t\ttransfer(index, _from, _to, _tokens);\r\n\t\treturn true;\r\n\t}\r\n\r\n\t// end of token functions\r\n\t// start of admin functions\r\n\r\n\tfunction collectFee(uint amountInWei) \r\n\t\tpublic \r\n\t\tonly(feeCollector) \r\n\t\tinState(State.Trading) \r\n\t\treturns (bool success) \r\n\t{\r\n\t\trequire(amountInWei > 0);\r\n\t\trequire(amountInWei <= feeAccumulatedInWei);\r\n\t\tfeeCollector.transfer(amountInWei);\r\n\t\temit CollectFee(msg.sender, amountInWei);\r\n\t\treturn true;\r\n\t}\r\n\r\n\tfunction setValue(uint idx, uint newValue) public only(admin) returns (bool success) {\r\n\t\trequire(state == State.Inception || state == State.Trading);\r\n\t\tuint oldValue;\r\n\t\tif (idx == 0) {\r\n\t\t\trequire(newValue < BP_DENOMINATOR);\r\n\t\t\toldValue = commissionRateInBP;\r\n\t\t\tcommissionRateInBP = newValue;\r\n\t\t} else if (idx == 1) {\r\n\t\t\toldValue = memberThresholdInWei;\r\n\t\t\tmemberThresholdInWei = newValue;\r\n\t\t} else if (idx == 2) {\r\n\t\t\toldValue = iterationGasThreshold;\r\n\t\t\titerationGasThreshold = newValue;\r\n\t\t} else if (idx == 3) {\r\n\t\t\toldValue = preResetWaitingBlocks;\r\n\t\t\tpreResetWaitingBlocks = newValue;\r\n\t\t} else if (idx == 4) {\r\n\t\t\toldValue = priceTolInBP;\r\n\t\t\tpriceTolInBP = newValue;\r\n\t\t} else if (idx == 5) {\r\n\t\t\toldValue = priceFeedTolInBP;\r\n\t\t\tpriceFeedTolInBP = newValue;\r\n\t\t} else if (idx == 6) {\r\n\t\t\toldValue = priceFeedTimeTol;\r\n\t\t\tpriceFeedTimeTol = newValue;\r\n\t\t} else if (idx == 7) {\r\n\t\t\toldValue = priceUpdateCoolDown;\r\n\t\t\tpriceUpdateCoolDown = newValue;\r\n\t\t} else {\r\n\t\t\trevert();\r\n\t\t}\r\n\r\n\t\temit SetValue(idx, oldValue, newValue);\r\n\t\treturn true;\r\n\t}\r\n\r\n\tfunction addAddress(address addr1, address addr2) public only(poolManager) returns (bool success) {\r\n\t\trequire(addrStatus[addr1] == 0 && addrStatus[addr2] == 0 && addr1 != addr2);\r\n\t\tuint index = getNextAddrIndex();\r\n\t\tpoolManager = addrPool[index];\r\n\t\tremoveFromPool(index);\r\n\t\taddrPool.push(addr1);\r\n\t\taddrStatus[addr1] = 1;\r\n\t\taddrPool.push(addr2);\r\n\t\taddrStatus[addr2] = 1;\r\n\t\temit AddAddress(addr1, addr2, poolManager);\r\n\t\treturn true;\r\n\t}\r\n\r\n\tfunction removeAddress(address addr) public only(poolManager) returns (bool success) {\r\n\t\trequire(addrPool.length > 3 && addrStatus[addr] == 1);\r\n\t\tuint index = getNextAddrIndex();\r\n\t\tpoolManager = addrPool[index];\r\n\t\tremoveFromPool(index);\r\n\t\tfor (uint i = 0; i < addrPool.length; i++) {\r\n\t\t\tif (addrPool[i] == addr) {\r\n\t\t\t\tremoveFromPool(i);\r\n\t\t\t\tbreak;\r\n            }\r\n\t\t}\r\n\t\temit RemoveAddress(addr, poolManager);\r\n\t\treturn true;\r\n\t}\r\n\r\n\tfunction updateAddress(address current) public inAddrPool() returns (address addr) {\r\n\t\trequire(addrPool.length > 3);\r\n\t\tfor (uint i = 0; i < addrPool.length; i++) {\r\n\t\t\tif (addrPool[i] == msg.sender) {\r\n\t\t\t\tremoveFromPool(i);\r\n\t\t\t\tbreak;\r\n            }\r\n\t\t}\r\n\t\tuint index = getNextAddrIndex();\r\n\t\taddr = addrPool[index];\r\n\t\tremoveFromPool(index);\r\n\r\n\t\tif (current == priceFeed1) {\r\n\t\t\tpriceFeed1 = addr;\r\n\t\t} else if (current == priceFeed2) {\r\n\t\t\tpriceFeed2 = addr;\r\n\t\t} else if (current == priceFeed3) {\r\n\t\t\tpriceFeed3 = addr;\r\n\t\t} else if (current == feeCollector) {\r\n\t\t\tfeeCollector = addr;\r\n\t\t} else if (current == admin) {\r\n\t\t\tadmin = addr;\r\n\t\t} else {\r\n\t\t\trevert();\r\n\t\t}\r\n\r\n\t\temit UpdateAddress(current, addr);\r\n\t}\r\n\r\n\tfunction removeFromPool(uint idx) internal  {\r\n\t\taddrStatus[addrPool[idx]] = 2;\r\n\t\tif (idx < addrPool.length - 1)\r\n\t\t\taddrPool[idx] = addrPool[addrPool.length-1];\r\n\t\tdelete addrPool[addrPool.length - 1];\r\n\t\taddrPool.length--;\r\n\t}\r\n\r\n\tfunction getNextAddrIndex() internal view returns (uint) {\r\n\t\treturn getNowTimestamp() % addrPool.length;\r\n\t}\r\n\r\n\t// end of admin functions\r\n\t// start of internal utility functions\r\n\r\n\tfunction getNowTimestamp() internal view returns (uint) {\r\n\t\treturn now;\r\n\t}\r\n\t\r\n\tfunction checkNewUser(address user) internal {\r\n\t\tif (!existingUsers[user]) {\r\n\t\t\tusers.push(user);\r\n\t\t\texistingUsers[user] = true;\r\n\t\t\tbalanceOf[0][user] = 0;\r\n\t\t\tbalanceOf[1][user] = 0;\r\n\t\t}\r\n\t}\r\n\t// end of internal utility functions\r\n}",
  "sourcePath": "C:\\dev\\coinFront\\israfel\\contracts\\Custodian.sol",
  "compiler": {
    "name": "solc",
    "version": "0.4.23+commit.124ca40d.Emscripten.clang"
  },
  "schemaVersion": "2.0.0",
  "updatedAt": "2018-05-07T06:06:31.953Z"
}