{
  "contractName": "Custodian",
  "abi": [
    {
      "constant": true,
      "inputs": [
        {
          "name": "",
          "type": "uint256"
        },
        {
          "name": "",
          "type": "address"
        },
        {
          "name": "",
          "type": "address"
        }
      ],
      "name": "allowance",
      "outputs": [
        {
          "name": "",
          "type": "uint256"
        }
      ],
      "payable": false,
      "stateMutability": "view",
      "type": "function"
    },
    {
      "constant": true,
      "inputs": [],
      "name": "bTokenAddress",
      "outputs": [
        {
          "name": "",
          "type": "address"
        }
      ],
      "payable": false,
      "stateMutability": "view",
      "type": "function"
    },
    {
      "constant": false,
      "inputs": [
        {
          "name": "newManagerAddr",
          "type": "address"
        }
      ],
      "name": "updateRoleManager",
      "outputs": [
        {
          "name": "",
          "type": "bool"
        }
      ],
      "payable": false,
      "stateMutability": "nonpayable",
      "type": "function"
    },
    {
      "constant": true,
      "inputs": [],
      "name": "totalSupplyB",
      "outputs": [
        {
          "name": "",
          "type": "uint256"
        }
      ],
      "payable": false,
      "stateMutability": "view",
      "type": "function"
    },
    {
      "constant": true,
      "inputs": [],
      "name": "lastOperationTime",
      "outputs": [
        {
          "name": "",
          "type": "uint256"
        }
      ],
      "payable": false,
      "stateMutability": "view",
      "type": "function"
    },
    {
      "constant": true,
      "inputs": [
        {
          "name": "",
          "type": "uint256"
        },
        {
          "name": "",
          "type": "address"
        }
      ],
      "name": "balanceOf",
      "outputs": [
        {
          "name": "",
          "type": "uint256"
        }
      ],
      "payable": false,
      "stateMutability": "view",
      "type": "function"
    },
    {
      "constant": true,
      "inputs": [
        {
          "name": "",
          "type": "uint256"
        }
      ],
      "name": "users",
      "outputs": [
        {
          "name": "",
          "type": "address"
        }
      ],
      "payable": false,
      "stateMutability": "view",
      "type": "function"
    },
    {
      "constant": true,
      "inputs": [],
      "name": "resetPriceInWei",
      "outputs": [
        {
          "name": "",
          "type": "uint256"
        }
      ],
      "payable": false,
      "stateMutability": "view",
      "type": "function"
    },
    {
      "constant": true,
      "inputs": [],
      "name": "operationCoolDown",
      "outputs": [
        {
          "name": "",
          "type": "uint256"
        }
      ],
      "payable": false,
      "stateMutability": "view",
      "type": "function"
    },
    {
      "constant": true,
      "inputs": [],
      "name": "operator",
      "outputs": [
        {
          "name": "",
          "type": "address"
        }
      ],
      "payable": false,
      "stateMutability": "view",
      "type": "function"
    },
    {
      "constant": true,
      "inputs": [],
      "name": "redeemCommInBP",
      "outputs": [
        {
          "name": "",
          "type": "uint256"
        }
      ],
      "payable": false,
      "stateMutability": "view",
      "type": "function"
    },
    {
      "constant": true,
      "inputs": [],
      "name": "priceFetchCoolDown",
      "outputs": [
        {
          "name": "",
          "type": "uint256"
        }
      ],
      "payable": false,
      "stateMutability": "view",
      "type": "function"
    },
    {
      "constant": true,
      "inputs": [],
      "name": "resetPriceTimeInSecond",
      "outputs": [
        {
          "name": "",
          "type": "uint256"
        }
      ],
      "payable": false,
      "stateMutability": "view",
      "type": "function"
    },
    {
      "constant": true,
      "inputs": [],
      "name": "totalSupplyA",
      "outputs": [
        {
          "name": "",
          "type": "uint256"
        }
      ],
      "payable": false,
      "stateMutability": "view",
      "type": "function"
    },
    {
      "constant": true,
      "inputs": [],
      "name": "ethCollateralInWei",
      "outputs": [
        {
          "name": "",
          "type": "uint256"
        }
      ],
      "payable": false,
      "stateMutability": "view",
      "type": "function"
    },
    {
      "constant": true,
      "inputs": [],
      "name": "lastPriceInWei",
      "outputs": [
        {
          "name": "",
          "type": "uint256"
        }
      ],
      "payable": false,
      "stateMutability": "view",
      "type": "function"
    },
    {
      "constant": true,
      "inputs": [],
      "name": "oracleAddress",
      "outputs": [
        {
          "name": "",
          "type": "address"
        }
      ],
      "payable": false,
      "stateMutability": "view",
      "type": "function"
    },
    {
      "constant": true,
      "inputs": [],
      "name": "preResetWaitingBlocks",
      "outputs": [
        {
          "name": "",
          "type": "uint256"
        }
      ],
      "payable": false,
      "stateMutability": "view",
      "type": "function"
    },
    {
      "constant": true,
      "inputs": [],
      "name": "createCommInBP",
      "outputs": [
        {
          "name": "",
          "type": "uint256"
        }
      ],
      "payable": false,
      "stateMutability": "view",
      "type": "function"
    },
    {
      "constant": true,
      "inputs": [
        {
          "name": "",
          "type": "address"
        }
      ],
      "name": "existingUsers",
      "outputs": [
        {
          "name": "",
          "type": "uint256"
        }
      ],
      "payable": false,
      "stateMutability": "view",
      "type": "function"
    },
    {
      "constant": true,
      "inputs": [],
      "name": "navBInWei",
      "outputs": [
        {
          "name": "",
          "type": "uint256"
        }
      ],
      "payable": false,
      "stateMutability": "view",
      "type": "function"
    },
    {
      "constant": true,
      "inputs": [],
      "name": "state",
      "outputs": [
        {
          "name": "",
          "type": "uint8"
        }
      ],
      "payable": false,
      "stateMutability": "view",
      "type": "function"
    },
    {
      "constant": true,
      "inputs": [],
      "name": "feeCollector",
      "outputs": [
        {
          "name": "",
          "type": "address"
        }
      ],
      "payable": false,
      "stateMutability": "view",
      "type": "function"
    },
    {
      "constant": true,
      "inputs": [],
      "name": "roleManagerAddress",
      "outputs": [
        {
          "name": "",
          "type": "address"
        }
      ],
      "payable": false,
      "stateMutability": "view",
      "type": "function"
    },
    {
      "constant": false,
      "inputs": [],
      "name": "updateOperator",
      "outputs": [
        {
          "name": "",
          "type": "bool"
        }
      ],
      "payable": false,
      "stateMutability": "nonpayable",
      "type": "function"
    },
    {
      "constant": true,
      "inputs": [],
      "name": "aTokenAddress",
      "outputs": [
        {
          "name": "",
          "type": "address"
        }
      ],
      "payable": false,
      "stateMutability": "view",
      "type": "function"
    },
    {
      "constant": true,
      "inputs": [],
      "name": "duoTokenAddress",
      "outputs": [
        {
          "name": "",
          "type": "address"
        }
      ],
      "payable": false,
      "stateMutability": "view",
      "type": "function"
    },
    {
      "constant": true,
      "inputs": [],
      "name": "lastPriceTimeInSecond",
      "outputs": [
        {
          "name": "",
          "type": "uint256"
        }
      ],
      "payable": false,
      "stateMutability": "view",
      "type": "function"
    },
    {
      "constant": true,
      "inputs": [],
      "name": "period",
      "outputs": [
        {
          "name": "",
          "type": "uint256"
        }
      ],
      "payable": false,
      "stateMutability": "view",
      "type": "function"
    },
    {
      "constant": true,
      "inputs": [],
      "name": "navAInWei",
      "outputs": [
        {
          "name": "",
          "type": "uint256"
        }
      ],
      "payable": false,
      "stateMutability": "view",
      "type": "function"
    },
    {
      "inputs": [
        {
          "name": "duoTokenAddr",
          "type": "address"
        },
        {
          "name": "roleManagerAddr",
          "type": "address"
        },
        {
          "name": "fc",
          "type": "address"
        },
        {
          "name": "comm",
          "type": "uint256"
        },
        {
          "name": "pd",
          "type": "uint256"
        },
        {
          "name": "preResetWaitBlk",
          "type": "uint256"
        },
        {
          "name": "pxFetchCoolDown",
          "type": "uint256"
        },
        {
          "name": "opt",
          "type": "address"
        },
        {
          "name": "optCoolDown",
          "type": "uint256"
        }
      ],
      "payable": false,
      "stateMutability": "nonpayable",
      "type": "constructor"
    },
    {
      "anonymous": false,
      "inputs": [
        {
          "indexed": false,
          "name": "navAInWei",
          "type": "uint256"
        },
        {
          "indexed": false,
          "name": "navBInWei",
          "type": "uint256"
        }
      ],
      "name": "StartTrading",
      "type": "event"
    },
    {
      "anonymous": false,
      "inputs": [],
      "name": "StartPreReset",
      "type": "event"
    },
    {
      "anonymous": false,
      "inputs": [
        {
          "indexed": false,
          "name": "nextIndex",
          "type": "uint256"
        },
        {
          "indexed": false,
          "name": "total",
          "type": "uint256"
        }
      ],
      "name": "StartReset",
      "type": "event"
    },
    {
      "anonymous": false,
      "inputs": [
        {
          "indexed": true,
          "name": "priceInWei",
          "type": "uint256"
        },
        {
          "indexed": true,
          "name": "timeInSecond",
          "type": "uint256"
        },
        {
          "indexed": false,
          "name": "navAInWei",
          "type": "uint256"
        },
        {
          "indexed": false,
          "name": "navBInWei",
          "type": "uint256"
        }
      ],
      "name": "AcceptPrice",
      "type": "event"
    },
    {
      "anonymous": false,
      "inputs": [
        {
          "indexed": true,
          "name": "sender",
          "type": "address"
        },
        {
          "indexed": false,
          "name": "ethAmtInWei",
          "type": "uint256"
        },
        {
          "indexed": false,
          "name": "tokenAInWei",
          "type": "uint256"
        },
        {
          "indexed": false,
          "name": "tokenBInWei",
          "type": "uint256"
        },
        {
          "indexed": false,
          "name": "ethFeeInWei",
          "type": "uint256"
        },
        {
          "indexed": false,
          "name": "duoFeeInWei",
          "type": "uint256"
        }
      ],
      "name": "Create",
      "type": "event"
    },
    {
      "anonymous": false,
      "inputs": [
        {
          "indexed": true,
          "name": "sender",
          "type": "address"
        },
        {
          "indexed": false,
          "name": "ethAmtInWei",
          "type": "uint256"
        },
        {
          "indexed": false,
          "name": "tokenAInWei",
          "type": "uint256"
        },
        {
          "indexed": false,
          "name": "tokenBInWei",
          "type": "uint256"
        },
        {
          "indexed": false,
          "name": "ethFeeInWei",
          "type": "uint256"
        },
        {
          "indexed": false,
          "name": "duoFeeInWei",
          "type": "uint256"
        }
      ],
      "name": "Redeem",
      "type": "event"
    },
    {
      "anonymous": false,
      "inputs": [
        {
          "indexed": false,
          "name": "totalSupplyAInWei",
          "type": "uint256"
        },
        {
          "indexed": false,
          "name": "totalSupplyBInWei",
          "type": "uint256"
        }
      ],
      "name": "TotalSupply",
      "type": "event"
    },
    {
      "anonymous": false,
      "inputs": [
        {
          "indexed": true,
          "name": "from",
          "type": "address"
        },
        {
          "indexed": true,
          "name": "to",
          "type": "address"
        },
        {
          "indexed": false,
          "name": "value",
          "type": "uint256"
        },
        {
          "indexed": false,
          "name": "index",
          "type": "uint256"
        }
      ],
      "name": "Transfer",
      "type": "event"
    },
    {
      "anonymous": false,
      "inputs": [
        {
          "indexed": true,
          "name": "tokenOwner",
          "type": "address"
        },
        {
          "indexed": true,
          "name": "spender",
          "type": "address"
        },
        {
          "indexed": false,
          "name": "tokens",
          "type": "uint256"
        },
        {
          "indexed": false,
          "name": "index",
          "type": "uint256"
        }
      ],
      "name": "Approval",
      "type": "event"
    },
    {
      "anonymous": false,
      "inputs": [
        {
          "indexed": false,
          "name": "addr",
          "type": "address"
        },
        {
          "indexed": false,
          "name": "ethFeeInWei",
          "type": "uint256"
        },
        {
          "indexed": false,
          "name": "ethFeeBalanceInWei",
          "type": "uint256"
        },
        {
          "indexed": false,
          "name": "duoFeeInWei",
          "type": "uint256"
        },
        {
          "indexed": false,
          "name": "duoFeeBalanceInWei",
          "type": "uint256"
        }
      ],
      "name": "CollectFee",
      "type": "event"
    },
    {
      "anonymous": false,
      "inputs": [
        {
          "indexed": false,
          "name": "newOracleAddress",
          "type": "address"
        }
      ],
      "name": "UpdateOracle",
      "type": "event"
    },
    {
      "anonymous": false,
      "inputs": [
        {
          "indexed": false,
          "name": "updater",
          "type": "address"
        },
        {
          "indexed": false,
          "name": "newFeeCollector",
          "type": "address"
        }
      ],
      "name": "UpdateFeeCollector",
      "type": "event"
    },
    {
      "anonymous": false,
      "inputs": [
        {
          "indexed": false,
          "name": "newManagerAddress",
          "type": "address"
        }
      ],
      "name": "UpdateRoleManager",
      "type": "event"
    },
    {
      "anonymous": false,
      "inputs": [
        {
          "indexed": false,
          "name": "updater",
          "type": "address"
        },
        {
          "indexed": false,
          "name": "newOperator",
          "type": "address"
        }
      ],
      "name": "UpdateOperator",
      "type": "event"
    },
    {
      "constant": true,
      "inputs": [],
      "name": "totalUsers",
      "outputs": [
        {
          "name": "",
          "type": "uint256"
        }
      ],
      "payable": false,
      "stateMutability": "view",
      "type": "function"
    },
    {
      "constant": true,
      "inputs": [],
      "name": "ethFeeBalanceInWei",
      "outputs": [
        {
          "name": "",
          "type": "uint256"
        }
      ],
      "payable": false,
      "stateMutability": "view",
      "type": "function"
    },
    {
      "constant": false,
      "inputs": [
        {
          "name": "index",
          "type": "uint256"
        },
        {
          "name": "from",
          "type": "address"
        },
        {
          "name": "to",
          "type": "address"
        },
        {
          "name": "tokens",
          "type": "uint256"
        }
      ],
      "name": "transfer",
      "outputs": [
        {
          "name": "success",
          "type": "bool"
        }
      ],
      "payable": false,
      "stateMutability": "nonpayable",
      "type": "function"
    },
    {
      "constant": false,
      "inputs": [
        {
          "name": "index",
          "type": "uint256"
        },
        {
          "name": "spender",
          "type": "address"
        },
        {
          "name": "from",
          "type": "address"
        },
        {
          "name": "to",
          "type": "address"
        },
        {
          "name": "tokens",
          "type": "uint256"
        }
      ],
      "name": "transferFrom",
      "outputs": [
        {
          "name": "success",
          "type": "bool"
        }
      ],
      "payable": false,
      "stateMutability": "nonpayable",
      "type": "function"
    },
    {
      "constant": false,
      "inputs": [
        {
          "name": "index",
          "type": "uint256"
        },
        {
          "name": "sender",
          "type": "address"
        },
        {
          "name": "spender",
          "type": "address"
        },
        {
          "name": "tokens",
          "type": "uint256"
        }
      ],
      "name": "approve",
      "outputs": [
        {
          "name": "success",
          "type": "bool"
        }
      ],
      "payable": false,
      "stateMutability": "nonpayable",
      "type": "function"
    },
    {
      "constant": false,
      "inputs": [
        {
          "name": "amountInWei",
          "type": "uint256"
        }
      ],
      "name": "collectEthFee",
      "outputs": [
        {
          "name": "success",
          "type": "bool"
        }
      ],
      "payable": false,
      "stateMutability": "nonpayable",
      "type": "function"
    },
    {
      "constant": false,
      "inputs": [
        {
          "name": "amountInWei",
          "type": "uint256"
        }
      ],
      "name": "collectDuoFee",
      "outputs": [
        {
          "name": "success",
          "type": "bool"
        }
      ],
      "payable": false,
      "stateMutability": "nonpayable",
      "type": "function"
    },
    {
      "constant": false,
      "inputs": [
        {
          "name": "newOracleAddr",
          "type": "address"
        }
      ],
      "name": "updateOracle",
      "outputs": [
        {
          "name": "",
          "type": "bool"
        }
      ],
      "payable": false,
      "stateMutability": "nonpayable",
      "type": "function"
    },
    {
      "constant": false,
      "inputs": [],
      "name": "updateFeeCollector",
      "outputs": [
        {
          "name": "",
          "type": "bool"
        }
      ],
      "payable": false,
      "stateMutability": "nonpayable",
      "type": "function"
    }
  ],
  "bytecode": "0x6080604052600060205534801561001557600080fd5b506040516101208061312a83398101806040528101908080519060200190929190805190602001909291908051906020019092919080519060200190929190805190602001909291908051906020019092919080519060200190929190805190602001909291908051906020019092919050505087828282600160006101000a81548173ffffffffffffffffffffffffffffffffffffffff021916908373ffffffffffffffffffffffffffffffffffffffff160217905550826000806101000a81548173ffffffffffffffffffffffffffffffffffffffff021916908373ffffffffffffffffffffffffffffffffffffffff16021790555081600260006101000a81548173ffffffffffffffffffffffffffffffffffffffff021916908373ffffffffffffffffffffffffffffffffffffffff160217905550806004819055505050506000600660146101000a81548160ff0219169083600381111561017757fe5b021790555086600760006101000a81548173ffffffffffffffffffffffffffffffffffffffff021916908373ffffffffffffffffffffffffffffffffffffffff16021790555085601b8190555085601c8190555084601d8190555083601e8190555082601f81905550670de0b6b3a7640000601581905550670de0b6b3a764000060168190555088600860006101000a81548173ffffffffffffffffffffffffffffffffffffffff021916908373ffffffffffffffffffffffffffffffffffffffff16021790555088600560006101000a81548173ffffffffffffffffffffffffffffffffffffffff021916908373ffffffffffffffffffffffffffffffffffffffff160217905550505050505050505050612e92806102986000396000f3006080604052600436106101e3576000357c0100000000000000000000000000000000000000000000000000000000900463ffffffff1680630565f7c0146101e85780630a23b9b1146102175780630d550b75146102c65780630ddd2e65146103475780630f36a16d1461039e57806315ed0793146103f957806316d43a97146104245780631cb44dfc1461044f5780633656eec2146104aa578063365b98b21461050b57806336cd52a6146105785780634127058a146106075780635623732e14610632578063570ca7351461065d57806366e14f25146106b45780636aefe5bb146106df5780636b4a6d641461070a5780636bafbc7b1461074f5780636c67b21e1461077a5780638d0686a7146107a5578063a0e73ca7146107d0578063a89ae4ba146107fb578063ad9d86fc14610852578063b2710db91461087d578063b337f8cc146108a8578063bf1f6d45146108ff578063bff1f9e11461092a578063c19d93fb14610955578063c415b95c1461098e578063d33b8d23146109e5578063d5934b7614610a3c578063daef943e14610a6b578063dcfc0ced14610a96578063e6dde2f214610aed578063ebc57e9314610b44578063ed9e478914610b89578063ef78d4fd14610bb4578063f20f76ba14610bdf578063f707817914610c6e575b600080fd5b3480156101f457600080fd5b506101fd610c99565b604051808215151515815260200191505060405180910390f35b34801561022357600080fd5b506102ac60048036038101908080359060200190929190803573ffffffffffffffffffffffffffffffffffffffff169060200190929190803573ffffffffffffffffffffffffffffffffffffffff169060200190929190803573ffffffffffffffffffffffffffffffffffffffff16906020019092919080359060200190929190505050610ec9565b604051808215151515815260200191505060405180910390f35b3480156102d257600080fd5b5061033160048036038101908080359060200190929190803573ffffffffffffffffffffffffffffffffffffffff169060200190929190803573ffffffffffffffffffffffffffffffffffffffff169060200190929190505050611104565b6040518082815260200191505060405180910390f35b34801561035357600080fd5b5061035c611138565b604051808273ffffffffffffffffffffffffffffffffffffffff1673ffffffffffffffffffffffffffffffffffffffff16815260200191505060405180910390f35b3480156103aa57600080fd5b506103df600480360381019080803573ffffffffffffffffffffffffffffffffffffffff16906020019092919050505061115e565b604051808215151515815260200191505060405180910390f35b34801561040557600080fd5b5061040e61147e565b6040518082815260200191505060405180910390f35b34801561043057600080fd5b50610439611484565b6040518082815260200191505060405180910390f35b34801561045b57600080fd5b50610490600480360381019080803573ffffffffffffffffffffffffffffffffffffffff16906020019092919050505061148a565b604051808215151515815260200191505060405180910390f35b3480156104b657600080fd5b506104f560048036038101908080359060200190929190803573ffffffffffffffffffffffffffffffffffffffff1690602001909291905050506118b0565b6040518082815260200191505060405180910390f35b34801561051757600080fd5b50610536600480360381019080803590602001909291905050506118d7565b604051808273ffffffffffffffffffffffffffffffffffffffff1673ffffffffffffffffffffffffffffffffffffffff16815260200191505060405180910390f35b34801561058457600080fd5b506105ed60048036038101908080359060200190929190803573ffffffffffffffffffffffffffffffffffffffff169060200190929190803573ffffffffffffffffffffffffffffffffffffffff16906020019092919080359060200190929190505050611915565b604051808215151515815260200191505060405180910390f35b34801561061357600080fd5b5061061c611986565b6040518082815260200191505060405180910390f35b34801561063e57600080fd5b5061064761198c565b6040518082815260200191505060405180910390f35b34801561066957600080fd5b50610672611992565b604051808273ffffffffffffffffffffffffffffffffffffffff1673ffffffffffffffffffffffffffffffffffffffff16815260200191505060405180910390f35b3480156106c057600080fd5b506106c96119b8565b6040518082815260200191505060405180910390f35b3480156106eb57600080fd5b506106f46119be565b6040518082815260200191505060405180910390f35b34801561071657600080fd5b50610735600480360381019080803590602001909291905050506119c4565b604051808215151515815260200191505060405180910390f35b34801561075b57600080fd5b50610764611d4e565b6040518082815260200191505060405180910390f35b34801561078657600080fd5b5061078f611d54565b6040518082815260200191505060405180910390f35b3480156107b157600080fd5b506107ba611d5a565b6040518082815260200191505060405180910390f35b3480156107dc57600080fd5b506107e5611d60565b6040518082815260200191505060405180910390f35b34801561080757600080fd5b50610810611d66565b604051808273ffffffffffffffffffffffffffffffffffffffff1673ffffffffffffffffffffffffffffffffffffffff16815260200191505060405180910390f35b34801561085e57600080fd5b50610867611d8c565b6040518082815260200191505060405180910390f35b34801561088957600080fd5b50610892611d92565b6040518082815260200191505060405180910390f35b3480156108b457600080fd5b506108e9600480360381019080803573ffffffffffffffffffffffffffffffffffffffff169060200190929190505050611d98565b6040518082815260200191505060405180910390f35b34801561090b57600080fd5b50610914611db0565b6040518082815260200191505060405180910390f35b34801561093657600080fd5b5061093f611db6565b6040518082815260200191505060405180910390f35b34801561096157600080fd5b5061096a611dc3565b6040518082600381111561097a57fe5b60ff16815260200191505060405180910390f35b34801561099a57600080fd5b506109a3611dd6565b604051808273ffffffffffffffffffffffffffffffffffffffff1673ffffffffffffffffffffffffffffffffffffffff16815260200191505060405180910390f35b3480156109f157600080fd5b506109fa611dfc565b604051808273ffffffffffffffffffffffffffffffffffffffff1673ffffffffffffffffffffffffffffffffffffffff16815260200191505060405180910390f35b348015610a4857600080fd5b50610a51611e22565b604051808215151515815260200191505060405180910390f35b348015610a7757600080fd5b50610a80612052565b6040518082815260200191505060405180910390f35b348015610aa257600080fd5b50610aab612085565b604051808273ffffffffffffffffffffffffffffffffffffffff1673ffffffffffffffffffffffffffffffffffffffff16815260200191505060405180910390f35b348015610af957600080fd5b50610b026120ab565b604051808273ffffffffffffffffffffffffffffffffffffffff1673ffffffffffffffffffffffffffffffffffffffff16815260200191505060405180910390f35b348015610b5057600080fd5b50610b6f600480360381019080803590602001909291905050506120d1565b604051808215151515815260200191505060405180910390f35b348015610b9557600080fd5b50610b9e612394565b6040518082815260200191505060405180910390f35b348015610bc057600080fd5b50610bc961239a565b6040518082815260200191505060405180910390f35b348015610beb57600080fd5b50610c5460048036038101908080359060200190929190803573ffffffffffffffffffffffffffffffffffffffff169060200190929190803573ffffffffffffffffffffffffffffffffffffffff169060200190929190803590602001909291905050506123a0565b604051808215151515815260200191505060405180910390f35b348015610c7a57600080fd5b50610c836124d2565b6040518082815260200191505060405180910390f35b6000806000610ca66124d8565b9050600454600354820310151515610cbd57600080fd5b3391506000809054906101000a900473ffffffffffffffffffffffffffffffffffffffff1673ffffffffffffffffffffffffffffffffffffffff1663d04787a78360006040518363ffffffff167c0100000000000000000000000000000000000000000000000000000000028152600401808373ffffffffffffffffffffffffffffffffffffffff1673ffffffffffffffffffffffffffffffffffffffff16815260200182815260200192505050602060405180830381600087803b158015610d8557600080fd5b505af1158015610d99573d6000803e3d6000fd5b505050506040513d6020811015610daf57600080fd5b8101908080519060200190929190505050600760006101000a81548173ffffffffffffffffffffffffffffffffffffffff021916908373ffffffffffffffffffffffffffffffffffffffff1602179055507fcc882185e6edeeb762130016ea1faf3d7aa9c01b199bfd646f965b58ab74106382600760009054906101000a900473ffffffffffffffffffffffffffffffffffffffff16604051808373ffffffffffffffffffffffffffffffffffffffff1673ffffffffffffffffffffffffffffffffffffffff1681526020018273ffffffffffffffffffffffffffffffffffffffff1673ffffffffffffffffffffffffffffffffffffffff1681526020019250505060405180910390a16001925080600381905550505090565b6000806001806003811115610eda57fe5b600660149054906101000a900460ff166003811115610ef557fe5b141515610f0157600080fd5b6000881480610f105750600188145b1515610f1b57600080fd5b610f2588886124e0565b9150601088600281101515610f3657fe5b0160008773ffffffffffffffffffffffffffffffffffffffff1673ffffffffffffffffffffffffffffffffffffffff16815260200190815260200160002060008373ffffffffffffffffffffffffffffffffffffffff1673ffffffffffffffffffffffffffffffffffffffff168152602001908152602001600020548411151515610fc057600080fd5b61105d8460108a600281101515610fd357fe5b0160008973ffffffffffffffffffffffffffffffffffffffff1673ffffffffffffffffffffffffffffffffffffffff16815260200190815260200160002060008573ffffffffffffffffffffffffffffffffffffffff1673ffffffffffffffffffffffffffffffffffffffff168152602001908152602001600020546125b690919063ffffffff16565b60108960028110151561106c57fe5b0160008873ffffffffffffffffffffffffffffffffffffffff1673ffffffffffffffffffffffffffffffffffffffff16815260200190815260200160002060008473ffffffffffffffffffffffffffffffffffffffff1673ffffffffffffffffffffffffffffffffffffffff168152602001908152602001600020819055506110f7888787876125cf565b9250505095945050505050565b60108360028110151561111357fe5b0160205281600052604060002060205280600052604060002060009250925050505481565b600b60009054906101000a900473ffffffffffffffffffffffffffffffffffffffff1681565b6000806111696124d8565b905060045460035482031015151561118057600080fd5b6000809054906101000a900473ffffffffffffffffffffffffffffffffffffffff1673ffffffffffffffffffffffffffffffffffffffff1663b0a93414846040518263ffffffff167c0100000000000000000000000000000000000000000000000000000000028152600401808273ffffffffffffffffffffffffffffffffffffffff1673ffffffffffffffffffffffffffffffffffffffff168152602001915050602060405180830381600087803b15801561123c57600080fd5b505af1158015611250573d6000803e3d6000fd5b505050506040513d602081101561126657600080fd5b8101908080519060200190929190505050151561128257600080fd5b82600160006101000a81548173ffffffffffffffffffffffffffffffffffffffff021916908373ffffffffffffffffffffffffffffffffffffffff160217905550600160009054906101000a900473ffffffffffffffffffffffffffffffffffffffff166000806101000a81548173ffffffffffffffffffffffffffffffffffffffff021916908373ffffffffffffffffffffffffffffffffffffffff16021790555060008060009054906101000a900473ffffffffffffffffffffffffffffffffffffffff1673ffffffffffffffffffffffffffffffffffffffff1663387439046040518163ffffffff167c0100000000000000000000000000000000000000000000000000000000028152600401602060405180830381600087803b1580156113ac57600080fd5b505af11580156113c0573d6000803e3d6000fd5b505050506040513d60208110156113d657600080fd5b810190808051906020019092919050505073ffffffffffffffffffffffffffffffffffffffff161415151561140a57600080fd5b7fce93baa0b608a7d420822b6b90cfcccb70574363ba4fd26ef5ac17dd465016c483604051808273ffffffffffffffffffffffffffffffffffffffff1673ffffffffffffffffffffffffffffffffffffffff16815260200191505060405180910390a1600191508060038190555050919050565b600d5481565b60035481565b60008060008060009054906101000a900473ffffffffffffffffffffffffffffffffffffffff1673ffffffffffffffffffffffffffffffffffffffff1663387439046040518163ffffffff167c0100000000000000000000000000000000000000000000000000000000028152600401602060405180830381600087803b15801561151457600080fd5b505af1158015611528573d6000803e3d6000fd5b505050506040513d602081101561153e57600080fd5b81019080805190602001909291905050508073ffffffffffffffffffffffffffffffffffffffff163373ffffffffffffffffffffffffffffffffffffffff1614151561158957600080fd5b60006115936124d8565b90506004546003548203101515156115aa57600080fd5b6000809054906101000a900473ffffffffffffffffffffffffffffffffffffffff1673ffffffffffffffffffffffffffffffffffffffff1663b0a93414876040518263ffffffff167c0100000000000000000000000000000000000000000000000000000000028152600401808273ffffffffffffffffffffffffffffffffffffffff1673ffffffffffffffffffffffffffffffffffffffff168152602001915050602060405180830381600087803b15801561166657600080fd5b505af115801561167a573d6000803e3d6000fd5b505050506040513d602081101561169057600080fd5b810190808051906020019092919050505015156116ac57600080fd5b85600960006101000a81548173ffffffffffffffffffffffffffffffffffffffff021916908373ffffffffffffffffffffffffffffffffffffffff160217905550600960009054906101000a900473ffffffffffffffffffffffffffffffffffffffff16600660006101000a81548173ffffffffffffffffffffffffffffffffffffffff021916908373ffffffffffffffffffffffffffffffffffffffff160217905550600660009054906101000a900473ffffffffffffffffffffffffffffffffffffffff1673ffffffffffffffffffffffffffffffffffffffff1663d8cf24fd6040518163ffffffff167c01000000000000000000000000000000000000000000000000000000000281526004016040805180830381600087803b1580156117d557600080fd5b505af11580156117e9573d6000803e3d6000fd5b505050506040513d60408110156117ff57600080fd5b8101908080519060200190929190805190602001909291905050509350935060008411801561182e5750600083115b151561183957600080fd5b7f09ad0a3595604db9b7aef0dbd4918cea3642b96bc65ad7c9fb501a1529becd7986604051808273ffffffffffffffffffffffffffffffffffffffff1673ffffffffffffffffffffffffffffffffffffffff16815260200191505060405180910390a1600194508060038190555050505050919050565b600e826002811015156118bf57fe5b01602052806000526040600020600091509150505481565b6012818154811015156118e657fe5b906000526020600020016000915054906101000a900473ffffffffffffffffffffffffffffffffffffffff1681565b6000600180600381111561192557fe5b600660149054906101000a900460ff16600381111561194057fe5b14151561194c57600080fd5b600086148061195b5750600186145b151561196657600080fd5b61197b8661197488886124e0565b86866125cf565b915050949350505050565b60195481565b60045481565b600260009054906101000a900473ffffffffffffffffffffffffffffffffffffffff1681565b601c5481565b601f5481565b6000600760009054906101000a900473ffffffffffffffffffffffffffffffffffffffff168073ffffffffffffffffffffffffffffffffffffffff163373ffffffffffffffffffffffffffffffffffffffff16141515611a2357600080fd5b6001806003811115611a3157fe5b600660149054906101000a900460ff166003811115611a4c57fe5b141515611a5857600080fd5b600560009054906101000a900473ffffffffffffffffffffffffffffffffffffffff1673ffffffffffffffffffffffffffffffffffffffff1663a9059cbb600760009054906101000a900473ffffffffffffffffffffffffffffffffffffffff16866040518363ffffffff167c0100000000000000000000000000000000000000000000000000000000028152600401808373ffffffffffffffffffffffffffffffffffffffff1673ffffffffffffffffffffffffffffffffffffffff16815260200182815260200192505050602060405180830381600087803b158015611b3f57600080fd5b505af1158015611b53573d6000803e3d6000fd5b505050506040513d6020811015611b6957600080fd5b8101908080519060200190929190505050507f30381e748b1fd4c92057032216c3ab0d75ec2d014256e5f3327f40f889f6bc98600760009054906101000a900473ffffffffffffffffffffffffffffffffffffffff166000611bed6014543073ffffffffffffffffffffffffffffffffffffffff16316125b690919063ffffffff16565b87600560009054906101000a900473ffffffffffffffffffffffffffffffffffffffff1673ffffffffffffffffffffffffffffffffffffffff166370a08231306040518263ffffffff167c0100000000000000000000000000000000000000000000000000000000028152600401808273ffffffffffffffffffffffffffffffffffffffff1673ffffffffffffffffffffffffffffffffffffffff168152602001915050602060405180830381600087803b158015611cab57600080fd5b505af1158015611cbf573d6000803e3d6000fd5b505050506040513d6020811015611cd557600080fd5b8101908080519060200190929190505050604051808673ffffffffffffffffffffffffffffffffffffffff1673ffffffffffffffffffffffffffffffffffffffff1681526020018581526020018481526020018381526020018281526020019550505050505060405180910390a1600192505050919050565b601a5481565b600c5481565b60145481565b60175481565b600960009054906101000a900473ffffffffffffffffffffffffffffffffffffffff1681565b601e5481565b601b5481565b60136020528060005260406000206000915090505481565b60165481565b6000601280549050905090565b600660149054906101000a900460ff1681565b600760009054906101000a900473ffffffffffffffffffffffffffffffffffffffff1681565b600160009054906101000a900473ffffffffffffffffffffffffffffffffffffffff1681565b6000806000611e2f6124d8565b9050600454600354820310151515611e4657600080fd5b3391506000809054906101000a900473ffffffffffffffffffffffffffffffffffffffff1673ffffffffffffffffffffffffffffffffffffffff1663d04787a78360006040518363ffffffff167c0100000000000000000000000000000000000000000000000000000000028152600401808373ffffffffffffffffffffffffffffffffffffffff1673ffffffffffffffffffffffffffffffffffffffff16815260200182815260200192505050602060405180830381600087803b158015611f0e57600080fd5b505af1158015611f22573d6000803e3d6000fd5b505050506040513d6020811015611f3857600080fd5b8101908080519060200190929190505050600260006101000a81548173ffffffffffffffffffffffffffffffffffffffff021916908373ffffffffffffffffffffffffffffffffffffffff1602179055507ff7fa3b6184cd955c4d8db1b118f541d29ad3cde98ac41ffac1864077b27acc5b82600260009054906101000a900473ffffffffffffffffffffffffffffffffffffffff16604051808373ffffffffffffffffffffffffffffffffffffffff1673ffffffffffffffffffffffffffffffffffffffff1681526020018273ffffffffffffffffffffffffffffffffffffffff1673ffffffffffffffffffffffffffffffffffffffff1681526020019250505060405180910390a16001925080600381905550505090565b60006120806014543073ffffffffffffffffffffffffffffffffffffffff16316125b690919063ffffffff16565b905090565b600a60009054906101000a900473ffffffffffffffffffffffffffffffffffffffff1681565b600860009054906101000a900473ffffffffffffffffffffffffffffffffffffffff1681565b600080600760009054906101000a900473ffffffffffffffffffffffffffffffffffffffff168073ffffffffffffffffffffffffffffffffffffffff163373ffffffffffffffffffffffffffffffffffffffff1614151561213157600080fd5b600180600381111561213f57fe5b600660149054906101000a900460ff16600381111561215a57fe5b14151561216657600080fd5b61218085612172612052565b6125b690919063ffffffff16565b9250600760009054906101000a900473ffffffffffffffffffffffffffffffffffffffff1673ffffffffffffffffffffffffffffffffffffffff166108fc869081150290604051600060405180830381858888f193505050501580156121ea573d6000803e3d6000fd5b507f30381e748b1fd4c92057032216c3ab0d75ec2d014256e5f3327f40f889f6bc98600760009054906101000a900473ffffffffffffffffffffffffffffffffffffffff1686856000600560009054906101000a900473ffffffffffffffffffffffffffffffffffffffff1673ffffffffffffffffffffffffffffffffffffffff166370a08231306040518263ffffffff167c0100000000000000000000000000000000000000000000000000000000028152600401808273ffffffffffffffffffffffffffffffffffffffff1673ffffffffffffffffffffffffffffffffffffffff168152602001915050602060405180830381600087803b1580156122f057600080fd5b505af1158015612304573d6000803e3d6000fd5b505050506040513d602081101561231a57600080fd5b8101908080519060200190929190505050604051808673ffffffffffffffffffffffffffffffffffffffff1673ffffffffffffffffffffffffffffffffffffffff1681526020018581526020018481526020018381526020018281526020019550505050505060405180910390a160019350505050919050565b60185481565b601d5481565b60008060008614806123b25750600186145b15156123bd57600080fd5b6123c786866124e0565b9050826010876002811015156123d957fe5b0160008373ffffffffffffffffffffffffffffffffffffffff1673ffffffffffffffffffffffffffffffffffffffff16815260200190815260200160002060008673ffffffffffffffffffffffffffffffffffffffff1673ffffffffffffffffffffffffffffffffffffffff168152602001908152602001600020819055508373ffffffffffffffffffffffffffffffffffffffff168173ffffffffffffffffffffffffffffffffffffffff167fb3fd5071835887567a0671151121894ddccc2842f1d10bedad13e0d17cace9a78589604051808381526020018281526020019250505060405180910390a36001915050949350505050565b60155481565b600042905090565b6000808314801561253e5750600a60009054906101000a900473ffffffffffffffffffffffffffffffffffffffff1673ffffffffffffffffffffffffffffffffffffffff163373ffffffffffffffffffffffffffffffffffffffff16145b806125a257506001831480156125a15750600b60009054906101000a900473ffffffffffffffffffffffffffffffffffffffff1673ffffffffffffffffffffffffffffffffffffffff163373ffffffffffffffffffffffffffffffffffffffff16145b5b6125ac57336125ae565b815b905092915050565b60008282111515156125c457fe5b818303905092915050565b60008060018060038111156125e057fe5b600660149054906101000a900460ff1660038111156125fb57fe5b14151561260757600080fd5b60008573ffffffffffffffffffffffffffffffffffffffff161415151561262d57600080fd5b83600e8860028110151561263d57fe5b0160008873ffffffffffffffffffffffffffffffffffffffff1673ffffffffffffffffffffffffffffffffffffffff168152602001908152602001600020541015151561268957600080fd5b612736600e8860028110151561269b57fe5b0160008773ffffffffffffffffffffffffffffffffffffffff1673ffffffffffffffffffffffffffffffffffffffff16815260200190815260200160002054600e896002811015156126e957fe5b0160008973ffffffffffffffffffffffffffffffffffffffff1673ffffffffffffffffffffffffffffffffffffffff16815260200190815260200160002054612b1c90919063ffffffff16565b915061279884600e8960028110151561274b57fe5b0160008973ffffffffffffffffffffffffffffffffffffffff1673ffffffffffffffffffffffffffffffffffffffff168152602001908152602001600020546125b690919063ffffffff16565b600e886002811015156127a757fe5b0160008873ffffffffffffffffffffffffffffffffffffffff1673ffffffffffffffffffffffffffffffffffffffff1681526020019081526020016000208190555061284984600e896002811015156127fc57fe5b0160008873ffffffffffffffffffffffffffffffffffffffff1673ffffffffffffffffffffffffffffffffffffffff16815260200190815260200160002054612b1c90919063ffffffff16565b600e8860028110151561285857fe5b0160008773ffffffffffffffffffffffffffffffffffffffff1673ffffffffffffffffffffffffffffffffffffffff1681526020019081526020016000208190555081612948600e896002811015156128ad57fe5b0160008873ffffffffffffffffffffffffffffffffffffffff1673ffffffffffffffffffffffffffffffffffffffff16815260200190815260200160002054600e8a6002811015156128fb57fe5b0160008a73ffffffffffffffffffffffffffffffffffffffff1673ffffffffffffffffffffffffffffffffffffffff16815260200190815260200160002054612b1c90919063ffffffff16565b14151561295157fe5b8473ffffffffffffffffffffffffffffffffffffffff168673ffffffffffffffffffffffffffffffffffffffff167f9ed053bb818ff08b8353cd46f78db1f0799f31c9e4458fdb425c10eccd2efc44868a604051808381526020018281526020019250505060405180910390a3612a6686600e896002811015156129d157fe5b0160008973ffffffffffffffffffffffffffffffffffffffff1673ffffffffffffffffffffffffffffffffffffffff16815260200190815260200160002054600e8a600103600281101515612a2257fe5b0160008a73ffffffffffffffffffffffffffffffffffffffff1673ffffffffffffffffffffffffffffffffffffffff16815260200190815260200160002054612b3a565b612b0e85600e89600281101515612a7957fe5b0160008873ffffffffffffffffffffffffffffffffffffffff1673ffffffffffffffffffffffffffffffffffffffff16815260200190815260200160002054600e8a600103600281101515612aca57fe5b0160008973ffffffffffffffffffffffffffffffffffffffff1673ffffffffffffffffffffffffffffffffffffffff16815260200190815260200160002054612b3a565b600192505050949350505050565b6000808284019050838110151515612b3057fe5b8091505092915050565b6000806000601360008773ffffffffffffffffffffffffffffffffffffffff1673ffffffffffffffffffffffffffffffffffffffff1681526020019081526020016000205492506000831115612d3a57662386f26fc1000085108015612ba65750662386f26fc1000084105b15612d35576012805490509150601260018303815481101515612bc557fe5b9060005260206000200160009054906101000a900473ffffffffffffffffffffffffffffffffffffffff16905081831015612c9a5780601260018503815481101515612c0d57fe5b9060005260206000200160006101000a81548173ffffffffffffffffffffffffffffffffffffffff021916908373ffffffffffffffffffffffffffffffffffffffff16021790555082601360008373ffffffffffffffffffffffffffffffffffffffff1673ffffffffffffffffffffffffffffffffffffffff168152602001908152602001600020819055505b601260018303815481101515612cac57fe5b9060005260206000200160006101000a81549073ffffffffffffffffffffffffffffffffffffffff02191690556000601360008873ffffffffffffffffffffffffffffffffffffffff1673ffffffffffffffffffffffffffffffffffffffff168152602001908152602001600020819055506012805480919060019003612d339190612e15565b505b612e0d565b662386f26fc1000085101580612d575750662386f26fc100008410155b15612e0c5760128690806001815401808255809150509060018203906000526020600020016000909192909190916101000a81548173ffffffffffffffffffffffffffffffffffffffff021916908373ffffffffffffffffffffffffffffffffffffffff16021790555050601280549050601360008873ffffffffffffffffffffffffffffffffffffffff1673ffffffffffffffffffffffffffffffffffffffff168152602001908152602001600020819055505b5b505050505050565b815481835581811115612e3c57818360005260206000209182019101612e3b9190612e41565b5b505050565b612e6391905b80821115612e5f576000816000905550600101612e47565b5090565b905600a165627a7a7230582053fe86080161652c1242a54322be0b97b0307a58ac0aa8f43a52c892bc6ba41d0029",
  "source": "pragma solidity ^0.4.24;\nimport { SafeMath } from \"../common/SafeMath.sol\";\nimport { IERC20 } from \"../interfaces/IERC20.sol\";\nimport { IOracle } from \"../interfaces/IOracle.sol\";\nimport { Managed } from \"../common/Managed.sol\";\n\n/// @title Custodian - every derivative contract should has basic custodian properties\n/// @author duo.network\ncontract Custodian is Managed {\n\tusing SafeMath for uint;\n\n\t/*\n     * Constants\n     */\n\tuint constant decimals = 18;\n\tuint constant WEI_DENOMINATOR = 1000000000000000000;\n\tuint constant MIN_BALANCE = 10000000000000000;\n\tenum State {\n\t\tInception,\n\t\tTrading,\n\t\tPreReset,\n\t\tReset\n\t}\n\n\t/*\n     * Storage\n     */\n\tIERC20 duoToken;\n\tIOracle oracle;\n\tState public state;\n\taddress public feeCollector;\n\taddress public duoTokenAddress;\n\taddress public oracleAddress;\n\taddress public aTokenAddress;\n\taddress public bTokenAddress;\n\tuint public totalSupplyA;\n\tuint public totalSupplyB;\n\tmapping(address => uint)[2] public balanceOf;\n\tmapping (address => mapping (address => uint))[2] public allowance;\n\taddress[] public users;\n\tmapping (address => uint) public existingUsers;\n\tuint public ethCollateralInWei;\n\tuint public navAInWei;\n\tuint public navBInWei;\n\tuint public lastPriceInWei;\n\tuint public lastPriceTimeInSecond;\n\tuint public resetPriceInWei;\n\tuint public resetPriceTimeInSecond;\n\tuint public createCommInBP;\n\tuint public redeemCommInBP;\n\tuint public period;\n\tuint public preResetWaitingBlocks;\n\tuint public priceFetchCoolDown;\n\t\n\t// cycle state variables\n\tuint lastPreResetBlockNo = 0;\n\tuint nextResetAddrIndex;\n\n\t/*\n     *  Modifiers\n     */\n\tmodifier inState(State _state) {\n\t\trequire(state == _state);\n\t\t_;\n\t}\n\n\t/*\n     *  Events\n     */\n\tevent StartTrading(uint navAInWei, uint navBInWei);\n\tevent StartPreReset();\n\tevent StartReset(uint nextIndex, uint total);\n\tevent AcceptPrice(uint indexed priceInWei, uint indexed timeInSecond, uint navAInWei, uint navBInWei);\n\tevent Create(address indexed sender, uint ethAmtInWei, uint tokenAInWei, uint tokenBInWei, uint ethFeeInWei, uint duoFeeInWei);\n\tevent Redeem(address indexed sender, uint ethAmtInWei, uint tokenAInWei, uint tokenBInWei, uint ethFeeInWei, uint duoFeeInWei);\n\tevent TotalSupply(uint totalSupplyAInWei, uint totalSupplyBInWei);\n\t// token events\n\tevent Transfer(address indexed from, address indexed to, uint value, uint index);\n\tevent Approval(address indexed tokenOwner, address indexed spender, uint tokens, uint index);\n\t// operation events\n\tevent CollectFee(address addr, uint ethFeeInWei, uint ethFeeBalanceInWei, uint duoFeeInWei, uint duoFeeBalanceInWei);\n\tevent UpdateOracle(address newOracleAddress);\n\tevent UpdateFeeCollector(address updater, address newFeeCollector);\n\n\t/*\n     *  Constructor\n     */\n\t/// @dev Contract constructor sets operation cool down and set address pool status.\n\t///\t@param duoTokenAddr duotoken address\n\t///\t@param roleManagerAddr roleManagerContract Address\n\t///\t@param fc feeCollector address\n\t///\t@param comm commission rate\n\t///\t@param pd period\n\t///\t@param preResetWaitBlk pre reset waiting block numbers\n\t///\t@param pxFetchCoolDown price fetching cool down\n\t///\t@param opt operator\n\t///\t@param optCoolDown operation cooldown\n\tconstructor(\n\t\taddress duoTokenAddr,\n\t\taddress roleManagerAddr,\n\t\taddress fc,\n\t\tuint comm,\n\t\tuint pd,\n\t\tuint preResetWaitBlk, \n\t\tuint pxFetchCoolDown,\n\t\taddress opt,\n\t\tuint optCoolDown\n\t\t) \n\t\tpublic\n\t\tManaged(roleManagerAddr, opt, optCoolDown) \n\t{\n\t\tstate = State.Inception;\n\t\tfeeCollector = fc;\n\t\tcreateCommInBP = comm;\n\t\tredeemCommInBP = comm;\n\t\tperiod = pd;\n\t\tpreResetWaitingBlocks = preResetWaitBlk;\n\t\tpriceFetchCoolDown = pxFetchCoolDown;\n\t\tnavAInWei = WEI_DENOMINATOR;\n\t\tnavBInWei = WEI_DENOMINATOR;\n\t\tduoTokenAddress = duoTokenAddr;\n\t\tduoToken = IERC20(duoTokenAddr);\n\t}\n\n\t/*\n     * Public functions\n     */\n\n\t/// @dev return totalUsers in the system.\n\tfunction totalUsers() public view returns (uint) {\n\t\treturn users.length;\n\t}\n\n\tfunction ethFeeBalanceInWei() public view returns(uint) {\n\t\treturn address(this).balance.sub(ethCollateralInWei);\n\t}\n\n\t/*\n     * ERC token functions\n     */\n\t/// @dev transferInternal function.\n\t/// @param index 0 is classA , 1 is class B\n\t/// @param from  from address\n\t/// @param to   to address\n\t/// @param tokens num of tokens transferred\n\tfunction transferInternal(uint index, address from, address to, uint tokens) \n\t\tinternal \n\t\tinState(State.Trading)\n\t\treturns (bool success) \n\t{\n\t\t// Prevent transfer to 0x0 address. Use burn() instead\n\t\trequire(to != 0x0);\n\t\t// Check if the sender has enough\n\t\trequire(balanceOf[index][from] >= tokens);\n\n\t\t// Save this for an assertion in the future\n\t\tuint previousBalances = balanceOf[index][from].add(balanceOf[index][to]);\n\t\t// Subtract from the sender\n\t\tbalanceOf[index][from] = balanceOf[index][from].sub(tokens);\n\t\t// Add the same to the recipient\n\t\tbalanceOf[index][to] = balanceOf[index][to].add(tokens);\n\t\n\t\t// Asserts are used to use static analysis to find bugs in your code. They should never fail\n\t\tassert(balanceOf[index][from].add(balanceOf[index][to]) == previousBalances);\n\t\temit Transfer(from, to, tokens, index);\n\t\tcheckUser(from, balanceOf[index][from], balanceOf[1 - index][from]);\n\t\tcheckUser(to, balanceOf[index][to], balanceOf[1 - index][to]);\n\t\treturn true;\n\t}\n\n\tfunction determineAddress(uint index, address from) internal view returns (address) {\n\t\treturn index == 0 && msg.sender == aTokenAddress || \n\t\t\tindex == 1 && msg.sender == bTokenAddress \n\t\t\t? from : msg.sender;\n\t}\n\n\tfunction transfer(uint index, address from, address to, uint tokens)\n\t\tpublic\n\t\tinState(State.Trading)\n\t\treturns (bool success) \n\t{\n\t\trequire(index == 0 || index == 1);\n\t\treturn transferInternal(index, determineAddress(index, from), to, tokens);\n\t}\n\n\tfunction transferFrom(uint index, address spender, address from, address to, uint tokens) \n\t\tpublic \n\t\tinState(State.Trading)\n\t\treturns (bool success) \n\t{\n\t\trequire(index == 0 || index == 1);\n\t\taddress spenderToUse = determineAddress(index, spender);\n\t\trequire(tokens <= allowance[index][from][spenderToUse]);\t // Check allowance\n\t\tallowance[index][from][spenderToUse] = allowance[index][from][spenderToUse].sub(tokens);\n\t\treturn transferInternal(index, from, to, tokens);\n\t}\n\n\tfunction approve(uint index, address sender, address spender, uint tokens) \n\t\tpublic \n\t\treturns (bool success) \n\t{\n\t\trequire(index == 0 || index == 1);\n\t\taddress senderToUse = determineAddress(index, sender);\n\t\tallowance[index][senderToUse][spender] = tokens;\n\t\temit Approval(senderToUse, spender, tokens, index);\n\t\treturn true;\n\t}\n\t// end of token functions\n\n\t/*\n     * Internal Functions\n     */\n\t// start of internal utility functions\n\tfunction checkUser(address user, uint256 balanceA, uint256 balanceB) internal {\n\t\tuint userIdx = existingUsers[user];\n\t\tif ( userIdx > 0) {\n\t\t\tif (balanceA < MIN_BALANCE && balanceB < MIN_BALANCE) {\n\t\t\t\tuint lastIdx = users.length;\n\t\t\t\taddress lastUser = users[lastIdx - 1];\n\t\t\t\tif (userIdx < lastIdx) {\n\t\t\t\t\tusers[userIdx - 1] = lastUser;\n\t\t\t\t\texistingUsers[lastUser] = userIdx;\n\t\t\t\t}\n\t\t\t\tdelete users[lastIdx - 1];\n\t\t\t\texistingUsers[user] = 0;\n\t\t\t\tusers.length--;\t\t\t\t\t\n\t\t\t}\n\t\t} else if (balanceA >= MIN_BALANCE || balanceB >= MIN_BALANCE) {\n\t\t\tusers.push(user);\n\t\t\texistingUsers[user] = users.length;\n\t\t}\n\t}\n\t// end of internal utility functions\n\n\t/*\n     * Operation Functions\n     */\n\tfunction collectEthFee(uint amountInWei) \n\t\tpublic \n\t\tonly(feeCollector) \n\t\tinState(State.Trading) \n\t\treturns (bool success) \n\t{\n\t\tuint feeBalance = ethFeeBalanceInWei().sub(amountInWei);\n\t\tfeeCollector.transfer(amountInWei);\n\t\temit CollectFee(feeCollector, amountInWei, feeBalance, 0, duoToken.balanceOf(this));\n\t\treturn true;\n\t}\n\n\tfunction collectDuoFee(uint amountInWei) \n\t\tpublic \n\t\tonly(feeCollector) \n\t\tinState(State.Trading) \n\t\treturns (bool success) \n\t{\n\t\tduoToken.transfer(feeCollector, amountInWei);\n\t\temit CollectFee(feeCollector, 0, address(this).balance.sub(ethCollateralInWei), amountInWei, duoToken.balanceOf(this));\n\t\treturn true;\n\t}\n\n\tfunction updateOracle(address newOracleAddr) \n\t\tonly(roleManager.moderator())\n\t\tinUpdateWindow() \n\t\tpublic \n\treturns (bool) {\n\t\trequire(roleManager.passedContract(newOracleAddr));\n\t\toracleAddress = newOracleAddr;\n\t\toracle = IOracle(oracleAddress);\n\t\t(uint lastPrice, uint lastPriceTime) = oracle.getLastPrice();\n\t\trequire(lastPrice > 0 && lastPriceTime > 0);\n\t\temit UpdateOracle(newOracleAddr);\n\t\treturn true;\n\t}\n\n\tfunction updateFeeCollector() \n\t\tpublic \n\t\tinUpdateWindow() \n\treturns (bool) {\n\t\taddress updater = msg.sender;\n\t\tfeeCollector = roleManager.provideAddress(updater, 0);\n\t\temit UpdateFeeCollector(updater, feeCollector);\n\t\treturn true;\n\t}\n}",
  "sourcePath": "C:\\dev\\coinFront\\duo-contract\\contracts\\custodians\\Custodian.sol",
  "compiler": {
    "name": "solc",
    "version": "0.4.24+commit.e67f0147.Emscripten.clang"
  },
  "schemaVersion": "3.0.0-beta.0",
  "updatedAt": "2018-09-26T10:05:12.797Z"
}