{
  "contractName": "Esplanade",
  "abi": [
    {
      "constant": true,
      "inputs": [],
      "name": "votingStage",
      "outputs": [
        {
          "name": "",
          "type": "uint8"
        }
      ],
      "payable": false,
      "stateMutability": "view",
      "type": "function",
      "signature": "0x02b9f4d7"
    },
    {
      "constant": true,
      "inputs": [],
      "name": "operatorCoolDown",
      "outputs": [
        {
          "name": "",
          "type": "uint256"
        }
      ],
      "payable": false,
      "stateMutability": "view",
      "type": "function",
      "signature": "0x0b7cab35"
    },
    {
      "constant": true,
      "inputs": [],
      "name": "lastOperationTime",
      "outputs": [
        {
          "name": "",
          "type": "uint256"
        }
      ],
      "payable": false,
      "stateMutability": "view",
      "type": "function",
      "signature": "0x16d43a97"
    },
    {
      "constant": true,
      "inputs": [],
      "name": "voteStartTimestamp",
      "outputs": [
        {
          "name": "",
          "type": "uint256"
        }
      ],
      "payable": false,
      "stateMutability": "view",
      "type": "function",
      "signature": "0x18732d79"
    },
    {
      "constant": true,
      "inputs": [],
      "name": "started",
      "outputs": [
        {
          "name": "",
          "type": "bool"
        }
      ],
      "payable": false,
      "stateMutability": "view",
      "type": "function",
      "signature": "0x1f2698ab"
    },
    {
      "constant": true,
      "inputs": [
        {
          "name": "",
          "type": "uint256"
        }
      ],
      "name": "otherContractPool",
      "outputs": [
        {
          "name": "",
          "type": "address"
        }
      ],
      "payable": false,
      "stateMutability": "view",
      "type": "function",
      "signature": "0x35e3838b"
    },
    {
      "constant": true,
      "inputs": [],
      "name": "moderator",
      "outputs": [
        {
          "name": "",
          "type": "address"
        }
      ],
      "payable": false,
      "stateMutability": "view",
      "type": "function",
      "signature": "0x38743904"
    },
    {
      "constant": true,
      "inputs": [
        {
          "name": "",
          "type": "address"
        }
      ],
      "name": "existingCustodians",
      "outputs": [
        {
          "name": "",
          "type": "bool"
        }
      ],
      "payable": false,
      "stateMutability": "view",
      "type": "function",
      "signature": "0x607d8a9b"
    },
    {
      "constant": true,
      "inputs": [],
      "name": "candidate",
      "outputs": [
        {
          "name": "",
          "type": "address"
        }
      ],
      "payable": false,
      "stateMutability": "view",
      "type": "function",
      "signature": "0x6c8381f8"
    },
    {
      "constant": true,
      "inputs": [
        {
          "name": "",
          "type": "uint256"
        }
      ],
      "name": "custodianPool",
      "outputs": [
        {
          "name": "",
          "type": "address"
        }
      ],
      "payable": false,
      "stateMutability": "view",
      "type": "function",
      "signature": "0x80e33406"
    },
    {
      "constant": true,
      "inputs": [
        {
          "name": "",
          "type": "uint256"
        },
        {
          "name": "",
          "type": "uint256"
        }
      ],
      "name": "addrPool",
      "outputs": [
        {
          "name": "",
          "type": "address"
        }
      ],
      "payable": false,
      "stateMutability": "view",
      "type": "function",
      "signature": "0x81656b9c"
    },
    {
      "constant": true,
      "inputs": [],
      "name": "votedAgainst",
      "outputs": [
        {
          "name": "",
          "type": "uint256"
        }
      ],
      "payable": false,
      "stateMutability": "view",
      "type": "function",
      "signature": "0x84cf23cd"
    },
    {
      "constant": true,
      "inputs": [],
      "name": "votedFor",
      "outputs": [
        {
          "name": "",
          "type": "uint256"
        }
      ],
      "payable": false,
      "stateMutability": "view",
      "type": "function",
      "signature": "0x941fb21f"
    },
    {
      "constant": true,
      "inputs": [
        {
          "name": "",
          "type": "address"
        }
      ],
      "name": "existingOtherContracts",
      "outputs": [
        {
          "name": "",
          "type": "bool"
        }
      ],
      "payable": false,
      "stateMutability": "view",
      "type": "function",
      "signature": "0x9c336d6b"
    },
    {
      "constant": true,
      "inputs": [
        {
          "name": "",
          "type": "address"
        }
      ],
      "name": "voted",
      "outputs": [
        {
          "name": "",
          "type": "bool"
        }
      ],
      "payable": false,
      "stateMutability": "view",
      "type": "function",
      "signature": "0xaec2ccae"
    },
    {
      "constant": true,
      "inputs": [
        {
          "name": "",
          "type": "address"
        }
      ],
      "name": "passedContract",
      "outputs": [
        {
          "name": "",
          "type": "bool"
        }
      ],
      "payable": false,
      "stateMutability": "view",
      "type": "function",
      "signature": "0xb0a93414"
    },
    {
      "constant": true,
      "inputs": [
        {
          "name": "",
          "type": "address"
        }
      ],
      "name": "addrStatus",
      "outputs": [
        {
          "name": "",
          "type": "uint256"
        }
      ],
      "payable": false,
      "stateMutability": "view",
      "type": "function",
      "signature": "0xf9d963cd"
    },
    {
      "inputs": [
        {
          "name": "optCoolDown",
          "type": "uint256"
        }
      ],
      "payable": false,
      "stateMutability": "nonpayable",
      "type": "constructor",
      "signature": "constructor"
    },
    {
      "anonymous": false,
      "inputs": [
        {
          "indexed": false,
          "name": "poolIndex",
          "type": "uint256"
        },
        {
          "indexed": false,
          "name": "added1",
          "type": "address"
        },
        {
          "indexed": false,
          "name": "added2",
          "type": "address"
        }
      ],
      "name": "AddAddress",
      "type": "event",
      "signature": "0x64e0d4bfddf1fe074a5f7ca37409bf76e23570597ccdd722c9e6e2e615bc74f6"
    },
    {
      "anonymous": false,
      "inputs": [
        {
          "indexed": false,
          "name": "poolIndex",
          "type": "uint256"
        },
        {
          "indexed": false,
          "name": "addr",
          "type": "address"
        }
      ],
      "name": "RemoveAddress",
      "type": "event",
      "signature": "0x0beabfd75a738eb2ce3cf6c2d0a813313042792863ac5302f39138dda684c4e3"
    },
    {
      "anonymous": false,
      "inputs": [
        {
          "indexed": false,
          "name": "poolIndex",
          "type": "uint256"
        },
        {
          "indexed": false,
          "name": "requestor",
          "type": "address"
        },
        {
          "indexed": false,
          "name": "origin",
          "type": "address"
        },
        {
          "indexed": false,
          "name": "addr",
          "type": "address"
        }
      ],
      "name": "ProvideAddress",
      "type": "event",
      "signature": "0xb00e04acce4d18956a13436952e4f6e93cb1004133baa8543acdca458727379d"
    },
    {
      "anonymous": false,
      "inputs": [
        {
          "indexed": false,
          "name": "newCustodianAddr",
          "type": "address"
        }
      ],
      "name": "AddCustodian",
      "type": "event",
      "signature": "0x691987ba3d8a02f63fe4ba0aa03243d9b7a389588f2dc8c0edac22e53db91808"
    },
    {
      "anonymous": false,
      "inputs": [
        {
          "indexed": false,
          "name": "newContractAddr",
          "type": "address"
        }
      ],
      "name": "AddOtherContract",
      "type": "event",
      "signature": "0xc242a17283e801da748c90fb0185a4490521a6d46518a3ff43d9f9ff7af8596f"
    },
    {
      "anonymous": false,
      "inputs": [
        {
          "indexed": false,
          "name": "proposer",
          "type": "address"
        },
        {
          "indexed": false,
          "name": "newContractAddr",
          "type": "address"
        }
      ],
      "name": "StartContractVoting",
      "type": "event",
      "signature": "0xbb008dd595e21681e73362e416350714db403fb52a773900a76766630a8268cd"
    },
    {
      "anonymous": false,
      "inputs": [
        {
          "indexed": false,
          "name": "terminator",
          "type": "address"
        },
        {
          "indexed": false,
          "name": "currentCandidate",
          "type": "address"
        }
      ],
      "name": "TerminateContractVoting",
      "type": "event",
      "signature": "0x30e7c543609c466b8a0af0583df6ec0c16f3a0915a9eaea0bd3265691c68c2c7"
    },
    {
      "anonymous": false,
      "inputs": [
        {
          "indexed": false,
          "name": "proposer",
          "type": "address"
        }
      ],
      "name": "StartModeratorVoting",
      "type": "event",
      "signature": "0xaa8bf416fffb3861bedd6d4840f9ec53b3afba0b283c55c25430717223bc703b"
    },
    {
      "anonymous": false,
      "inputs": [
        {
          "indexed": false,
          "name": "candidate",
          "type": "address"
        }
      ],
      "name": "TerminateByTimeOut",
      "type": "event",
      "signature": "0x44fcf9907c8fe8dae7a5cf8375058f72ed449c8674224bf6e896879374925b73"
    },
    {
      "anonymous": false,
      "inputs": [
        {
          "indexed": false,
          "name": "voter",
          "type": "address"
        },
        {
          "indexed": false,
          "name": "candidate",
          "type": "address"
        },
        {
          "indexed": false,
          "name": "voteFor",
          "type": "bool"
        },
        {
          "indexed": false,
          "name": "votedFor",
          "type": "uint256"
        },
        {
          "indexed": false,
          "name": "votedAgainst",
          "type": "uint256"
        }
      ],
      "name": "Vote",
      "type": "event",
      "signature": "0x7c67171a59076e8b2582ac7c20a432eead1e39ef41d1403888d7256ba0cec5bc"
    },
    {
      "anonymous": false,
      "inputs": [
        {
          "indexed": false,
          "name": "isContractVoting",
          "type": "bool"
        },
        {
          "indexed": false,
          "name": "newAddress",
          "type": "address"
        }
      ],
      "name": "CompleteVoting",
      "type": "event",
      "signature": "0xe5f0040af8624aab96e3b2bab50629d1aac1c12b648de6523d04993775137aa4"
    },
    {
      "anonymous": false,
      "inputs": [
        {
          "indexed": false,
          "name": "oldModerator",
          "type": "address"
        },
        {
          "indexed": false,
          "name": "newModerator",
          "type": "address"
        }
      ],
      "name": "ReplaceModerator",
      "type": "event",
      "signature": "0x7cbd1169ed70e5b24e3bb1fae1ece2bd8cc4124bff096d880b33e8fbe2191ce3"
    },
    {
      "constant": false,
      "inputs": [
        {
          "name": "addr",
          "type": "address"
        }
      ],
      "name": "startContractVoting",
      "outputs": [
        {
          "name": "",
          "type": "bool"
        }
      ],
      "payable": false,
      "stateMutability": "nonpayable",
      "type": "function",
      "signature": "0xb9c3d9a0"
    },
    {
      "constant": false,
      "inputs": [],
      "name": "terminateContractVoting",
      "outputs": [
        {
          "name": "",
          "type": "bool"
        }
      ],
      "payable": false,
      "stateMutability": "nonpayable",
      "type": "function",
      "signature": "0x8a975ee4"
    },
    {
      "constant": false,
      "inputs": [],
      "name": "terminateByTimeout",
      "outputs": [
        {
          "name": "",
          "type": "bool"
        }
      ],
      "payable": false,
      "stateMutability": "nonpayable",
      "type": "function",
      "signature": "0xdfbe526a"
    },
    {
      "constant": false,
      "inputs": [],
      "name": "startModeratorVoting",
      "outputs": [
        {
          "name": "",
          "type": "bool"
        }
      ],
      "payable": false,
      "stateMutability": "nonpayable",
      "type": "function",
      "signature": "0x30e6b4de"
    },
    {
      "constant": false,
      "inputs": [
        {
          "name": "voteFor",
          "type": "bool"
        }
      ],
      "name": "vote",
      "outputs": [
        {
          "name": "",
          "type": "bool"
        }
      ],
      "payable": false,
      "stateMutability": "nonpayable",
      "type": "function",
      "signature": "0x4b9f5c98"
    },
    {
      "constant": false,
      "inputs": [],
      "name": "startManager",
      "outputs": [
        {
          "name": "",
          "type": "bool"
        }
      ],
      "payable": false,
      "stateMutability": "nonpayable",
      "type": "function",
      "signature": "0xc9fc5f44"
    },
    {
      "constant": false,
      "inputs": [
        {
          "name": "custodianAddr",
          "type": "address"
        }
      ],
      "name": "addCustodian",
      "outputs": [
        {
          "name": "success",
          "type": "bool"
        }
      ],
      "payable": false,
      "stateMutability": "nonpayable",
      "type": "function",
      "signature": "0x85d95b81"
    },
    {
      "constant": false,
      "inputs": [
        {
          "name": "contractAddr",
          "type": "address"
        }
      ],
      "name": "addOtherContracts",
      "outputs": [
        {
          "name": "success",
          "type": "bool"
        }
      ],
      "payable": false,
      "stateMutability": "nonpayable",
      "type": "function",
      "signature": "0x32f97bb6"
    },
    {
      "constant": false,
      "inputs": [
        {
          "name": "addr1",
          "type": "address"
        },
        {
          "name": "addr2",
          "type": "address"
        },
        {
          "name": "poolIndex",
          "type": "uint256"
        }
      ],
      "name": "addAddress",
      "outputs": [
        {
          "name": "success",
          "type": "bool"
        }
      ],
      "payable": false,
      "stateMutability": "nonpayable",
      "type": "function",
      "signature": "0x2bfeab3c"
    },
    {
      "constant": false,
      "inputs": [
        {
          "name": "addr",
          "type": "address"
        },
        {
          "name": "poolIndex",
          "type": "uint256"
        }
      ],
      "name": "removeAddress",
      "outputs": [
        {
          "name": "success",
          "type": "bool"
        }
      ],
      "payable": false,
      "stateMutability": "nonpayable",
      "type": "function",
      "signature": "0x0662f008"
    },
    {
      "constant": false,
      "inputs": [
        {
          "name": "origin",
          "type": "address"
        },
        {
          "name": "poolIndex",
          "type": "uint256"
        }
      ],
      "name": "provideAddress",
      "outputs": [
        {
          "name": "",
          "type": "address"
        }
      ],
      "payable": false,
      "stateMutability": "nonpayable",
      "type": "function",
      "signature": "0xd04787a7"
    },
    {
      "constant": true,
      "inputs": [],
      "name": "getAddressPoolSizes",
      "outputs": [
        {
          "name": "",
          "type": "uint256"
        },
        {
          "name": "",
          "type": "uint256"
        }
      ],
      "payable": false,
      "stateMutability": "view",
      "type": "function",
      "signature": "0xea0ec2c5"
    },
    {
      "constant": true,
      "inputs": [],
      "name": "getContractPoolSizes",
      "outputs": [
        {
          "name": "",
          "type": "uint256"
        },
        {
          "name": "",
          "type": "uint256"
        }
      ],
      "payable": false,
      "stateMutability": "view",
      "type": "function",
      "signature": "0xe3e8a052"
    }
  ],
  "bytecode": "0x608060405260408051908101604052806101406040519081016040528073415de7edfe2c9bbf8449e33ff88c9be698483cc073ffffffffffffffffffffffffffffffffffffffff1673ffffffffffffffffffffffffffffffffffffffff16815260200173d066fbac54838c1d3c3113fc4390b9f99feb767873ffffffffffffffffffffffffffffffffffffffff1673ffffffffffffffffffffffffffffffffffffffff16815260200173b0f396d1fba9a5c699695b69337635fad6547b1373ffffffffffffffffffffffffffffffffffffffff1673ffffffffffffffffffffffffffffffffffffffff16815260200173290fc07db2bf4b385987059e919b78898941102e73ffffffffffffffffffffffffffffffffffffffff1673ffffffffffffffffffffffffffffffffffffffff1681526020017306c59e1ad2299ea99631850291021eda772715eb73ffffffffffffffffffffffffffffffffffffffff1673ffffffffffffffffffffffffffffffffffffffff16815260200173d34d743b5bfdf21e0d8829f0eea52cc49362861073ffffffffffffffffffffffffffffffffffffffff1673ffffffffffffffffffffffffffffffffffffffff168152602001732b6d101f5e6b4a577e7d053c168af2afc883eb9c73ffffffffffffffffffffffffffffffffffffffff1673ffffffffffffffffffffffffffffffffffffffff168152602001730a4b6c73ca03762bda89292a498d231837997f5673ffffffffffffffffffffffffffffffffffffffff1673ffffffffffffffffffffffffffffffffffffffff16815260200173b2518e8d6f0601696f1ba3a826951bc3cf6d7ef873ffffffffffffffffffffffffffffffffffffffff1673ffffffffffffffffffffffffffffffffffffffff1681526020017348da82056f5c6a1276258ddcd97e4c89640dd9e273ffffffffffffffffffffffffffffffffffffffff1673ffffffffffffffffffffffffffffffffffffffff1681525081526020016101406040519081016040528073f4463762f1f00e91bd58619db6c9eac47018288673ffffffffffffffffffffffffffffffffffffffff1673ffffffffffffffffffffffffffffffffffffffff168152602001739a5510a050f6148391f7df357506a929723e74ce73ffffffffffffffffffffffffffffffffffffffff1673ffffffffffffffffffffffffffffffffffffffff16815260200173ebabd24f323dce0b94e094a43b698ed1f43a618d73ffffffffffffffffffffffffffffffffffffffff1673ffffffffffffffffffffffffffffffffffffffff168152602001734871c7a6bd3545762c4b1b9edefe40cf3901dc6773ffffffffffffffffffffffffffffffffffffffff1673ffffffffffffffffffffffffffffffffffffffff168152602001737640ced84f07faf1c1b972ea4bb7cacba0bc7d1f73ffffffffffffffffffffffffffffffffffffffff1673ffffffffffffffffffffffffffffffffffffffff16815260200173bc71f5fb6434b18ed98fbbedd4fe34658775ccc973ffffffffffffffffffffffffffffffffffffffff1673ffffffffffffffffffffffffffffffffffffffff16815260200173534758d6f76c7f8994f31fc921353b0c568b1f3a73ffffffffffffffffffffffffffffffffffffffff1673ffffffffffffffffffffffffffffffffffffffff168152602001737ac3e29c0b18c8d93121ab15742228cbaf333ff073ffffffffffffffffffffffffffffffffffffffff1673ffffffffffffffffffffffffffffffffffffffff16815260200173889615f5acfc9627e3d6508d835a0c7cac3d2bc473ffffffffffffffffffffffffffffffffffffffff1673ffffffffffffffffffffffffffffffffffffffff168152602001732db57203e8b6df80a15ba5df41e236a20c6baeb873ffffffffffffffffffffffffffffffffffffffff1673ffffffffffffffffffffffffffffffffffffffff168152508152506001906002620005b79291906200086b565b50610e10600755348015620005cb57600080fd5b5060405160208062003e17833981018060405281019080805190602001909291905050506000806000806101000a81548160ff021916908360028111156200060f57fe5b021790555033600060016101000a81548173ffffffffffffffffffffffffffffffffffffffff021916908373ffffffffffffffffffffffffffffffffffffffff1602179055506003600260008060019054906101000a900473ffffffffffffffffffffffffffffffffffffffff1673ffffffffffffffffffffffffffffffffffffffff1673ffffffffffffffffffffffffffffffffffffffff16815260200190815260200160002081905550600090505b60016000815481101515620006d157fe5b90600052602060002001805490508110156200078d5760016002600060016000815481101515620006fe57fe5b90600052602060002001848154811015156200071657fe5b9060005260206000200160009054906101000a900473ffffffffffffffffffffffffffffffffffffffff1673ffffffffffffffffffffffffffffffffffffffff1673ffffffffffffffffffffffffffffffffffffffff168152602001908152602001600020819055508080600101915050620006c0565b600090505b600180815481101515620007a257fe5b90600052602060002001805490508110156200085c576002806000600180815481101515620007cd57fe5b9060005260206000200184815481101515620007e557fe5b9060005260206000200160009054906101000a900473ffffffffffffffffffffffffffffffffffffffff1673ffffffffffffffffffffffffffffffffffffffff1673ffffffffffffffffffffffffffffffffffffffff16815260200190815260200160002081905550808060010191505062000792565b81600781905550505062000a1e565b828054828255906000526020600020908101928215620008ba579160200282015b82811115620008b95782518290600a620008a8929190620008cd565b50916020019190600101906200088c565b5b509050620008c991906200095c565b5090565b82805482825590600052602060002090810192821562000949579160200282015b82811115620009485782518260006101000a81548173ffffffffffffffffffffffffffffffffffffffff021916908373ffffffffffffffffffffffffffffffffffffffff16021790555091602001919060010190620008ee565b5b5090506200095891906200098d565b5090565b6200098a91905b808211156200098657600081816200097c9190620009d3565b5060010162000963565b5090565b90565b620009d091905b80821115620009cc57600081816101000a81549073ffffffffffffffffffffffffffffffffffffffff02191690555060010162000994565b5090565b90565b5080546000825590600052602060002090810190620009f39190620009f6565b50565b62000a1b91905b8082111562000a17576000816000905550600101620009fd565b5090565b90565b6133e98062000a2e6000396000f300608060405260043610610180576000357c0100000000000000000000000000000000000000000000000000000000900463ffffffff16806302b9f4d7146101855780630662f008146101be5780630b7cab351461022357806316d43a971461024e57806318732d79146102795780631f2698ab146102a45780632bfeab3c146102d357806330e6b4de1461035857806332f97bb61461038757806335e3838b146103e2578063387439041461044f5780634b9f5c98146104a6578063607d8a9b146104ed5780636c8381f81461054857806380e334061461059f57806381656b9c1461060c57806384cf23cd1461068357806385d95b81146106ae5780638a975ee414610709578063941fb21f146107385780639c336d6b14610763578063aec2ccae146107be578063b0a9341414610819578063b9c3d9a014610874578063c9fc5f44146108cf578063d04787a7146108fe578063dfbe526a1461098b578063e3e8a052146109ba578063ea0ec2c5146109ec578063f9d963cd14610a1e575b600080fd5b34801561019157600080fd5b5061019a610a75565b604051808260028111156101aa57fe5b60ff16815260200191505060405180910390f35b3480156101ca57600080fd5b50610209600480360381019080803573ffffffffffffffffffffffffffffffffffffffff16906020019092919080359060200190929190505050610a87565b604051808215151515815260200191505060405180910390f35b34801561022f57600080fd5b50610238610c30565b6040518082815260200191505060405180910390f35b34801561025a57600080fd5b50610263610c36565b6040518082815260200191505060405180910390f35b34801561028557600080fd5b5061028e610c3c565b6040518082815260200191505060405180910390f35b3480156102b057600080fd5b506102b9610c42565b604051808215151515815260200191505060405180910390f35b3480156102df57600080fd5b5061033e600480360381019080803573ffffffffffffffffffffffffffffffffffffffff169060200190929190803573ffffffffffffffffffffffffffffffffffffffff16906020019092919080359060200190929190505050610c55565b604051808215151515815260200191505060405180910390f35b34801561036457600080fd5b5061036d61100a565b604051808215151515815260200191505060405180910390f35b34801561039357600080fd5b506103c8600480360381019080803573ffffffffffffffffffffffffffffffffffffffff16906020019092919050505061117f565b604051808215151515815260200191505060405180910390f35b3480156103ee57600080fd5b5061040d60048036038101908080359060200190929190505050611443565b604051808273ffffffffffffffffffffffffffffffffffffffff1673ffffffffffffffffffffffffffffffffffffffff16815260200191505060405180910390f35b34801561045b57600080fd5b50610464611481565b604051808273ffffffffffffffffffffffffffffffffffffffff1673ffffffffffffffffffffffffffffffffffffffff16815260200191505060405180910390f35b3480156104b257600080fd5b506104d36004803603810190808035151590602001909291905050506114a7565b604051808215151515815260200191505060405180910390f35b3480156104f957600080fd5b5061052e600480360381019080803573ffffffffffffffffffffffffffffffffffffffff169060200190929190505050611956565b604051808215151515815260200191505060405180910390f35b34801561055457600080fd5b5061055d611976565b604051808273ffffffffffffffffffffffffffffffffffffffff1673ffffffffffffffffffffffffffffffffffffffff16815260200191505060405180910390f35b3480156105ab57600080fd5b506105ca6004803603810190808035906020019092919050505061199c565b604051808273ffffffffffffffffffffffffffffffffffffffff1673ffffffffffffffffffffffffffffffffffffffff16815260200191505060405180910390f35b34801561061857600080fd5b5061064160048036038101908080359060200190929190803590602001909291905050506119da565b604051808273ffffffffffffffffffffffffffffffffffffffff1673ffffffffffffffffffffffffffffffffffffffff16815260200191505060405180910390f35b34801561068f57600080fd5b50610698611a32565b6040518082815260200191505060405180910390f35b3480156106ba57600080fd5b506106ef600480360381019080803573ffffffffffffffffffffffffffffffffffffffff169060200190929190505050611a38565b604051808215151515815260200191505060405180910390f35b34801561071557600080fd5b5061071e611f6d565b604051808215151515815260200191505060405180910390f35b34801561074457600080fd5b5061074d61210e565b6040518082815260200191505060405180910390f35b34801561076f57600080fd5b506107a4600480360381019080803573ffffffffffffffffffffffffffffffffffffffff169060200190929190505050612114565b604051808215151515815260200191505060405180910390f35b3480156107ca57600080fd5b506107ff600480360381019080803573ffffffffffffffffffffffffffffffffffffffff169060200190929190505050612134565b604051808215151515815260200191505060405180910390f35b34801561082557600080fd5b5061085a600480360381019080803573ffffffffffffffffffffffffffffffffffffffff169060200190929190505050612154565b604051808215151515815260200191505060405180910390f35b34801561088057600080fd5b506108b5600480360381019080803573ffffffffffffffffffffffffffffffffffffffff169060200190929190505050612174565b604051808215151515815260200191505060405180910390f35b3480156108db57600080fd5b506108e46123d1565b604051808215151515815260200191505060405180910390f35b34801561090a57600080fd5b50610949600480360381019080803573ffffffffffffffffffffffffffffffffffffffff1690602001909291908035906020019092919050505061247f565b604051808273ffffffffffffffffffffffffffffffffffffffff1673ffffffffffffffffffffffffffffffffffffffff16815260200191505060405180910390f35b34801561099757600080fd5b506109a061280a565b604051808215151515815260200191505060405180910390f35b3480156109c657600080fd5b506109cf612920565b604051808381526020018281526020019250505060405180910390f35b3480156109f857600080fd5b50610a01612937565b604051808381526020018281526020019250505060405180910390f35b348015610a2a57600080fd5b50610a5f600480360381019080803573ffffffffffffffffffffffffffffffffffffffff16906020019092919050505061297d565b6040518082815260200191505060405180910390f35b6000809054906101000a900460ff1681565b60008060019054906101000a900473ffffffffffffffffffffffffffffffffffffffff168073ffffffffffffffffffffffffffffffffffffffff163373ffffffffffffffffffffffffffffffffffffffff16141515610ae557600080fd5b6000610aef612995565b9050600960009054906101000a900460ff1615610b1c57600754600854820310151515610b1b57600080fd5b5b6005600185815481101515610b2d57fe5b9060005260206000200180549050118015610b89575060018401600260008773ffffffffffffffffffffffffffffffffffffffff1673ffffffffffffffffffffffffffffffffffffffff16815260200190815260200160002054145b8015610b955750600284105b1515610ba057600080fd5b610baa848661299d565b610bb2612abc565b7f0beabfd75a738eb2ce3cf6c2d0a813313042792863ac5302f39138dda684c4e38486604051808381526020018273ffffffffffffffffffffffffffffffffffffffff1673ffffffffffffffffffffffffffffffffffffffff1681526020019250505060405180910390a16001925080600881905550505092915050565b60075481565b60085481565b600e5481565b600960009054906101000a900460ff1681565b60008060019054906101000a900473ffffffffffffffffffffffffffffffffffffffff168073ffffffffffffffffffffffffffffffffffffffff163373ffffffffffffffffffffffffffffffffffffffff16141515610cb357600080fd5b6000610cbd612995565b9050600960009054906101000a900460ff1615610cea57600754600854820310151515610ce957600080fd5b5b6000600260008873ffffffffffffffffffffffffffffffffffffffff1673ffffffffffffffffffffffffffffffffffffffff16815260200190815260200160002054148015610d7857506000600260008773ffffffffffffffffffffffffffffffffffffffff1673ffffffffffffffffffffffffffffffffffffffff16815260200190815260200160002054145b8015610db057508473ffffffffffffffffffffffffffffffffffffffff168673ffffffffffffffffffffffffffffffffffffffff1614155b8015610dbc5750600284105b1515610dc757600080fd5b610dcf612abc565b600184815481101515610dde57fe5b906000526020600020018690806001815401808255809150509060018203906000526020600020016000909192909190916101000a81548173ffffffffffffffffffffffffffffffffffffffff021916908373ffffffffffffffffffffffffffffffffffffffff1602179055505060018401600260008873ffffffffffffffffffffffffffffffffffffffff1673ffffffffffffffffffffffffffffffffffffffff16815260200190815260200160002081905550600184815481101515610ea257fe5b906000526020600020018590806001815401808255809150509060018203906000526020600020016000909192909190916101000a81548173ffffffffffffffffffffffffffffffffffffffff021916908373ffffffffffffffffffffffffffffffffffffffff1602179055505060018401600260008773ffffffffffffffffffffffffffffffffffffffff1673ffffffffffffffffffffffffffffffffffffffff168152602001908152602001600020819055507f64e0d4bfddf1fe074a5f7ca37409bf76e23570597ccdd722c9e6e2e615bc74f6848787604051808481526020018373ffffffffffffffffffffffffffffffffffffffff1673ffffffffffffffffffffffffffffffffffffffff1681526020018273ffffffffffffffffffffffffffffffffffffffff1673ffffffffffffffffffffffffffffffffffffffff168152602001935050505060405180910390a1600192508060088190555050509392505050565b60006001600260003373ffffffffffffffffffffffffffffffffffffffff1673ffffffffffffffffffffffffffffffffffffffff1681526020019081526020016000205414151561105a57600080fd5b33600960016101000a81548173ffffffffffffffffffffffffffffffffffffffff021916908373ffffffffffffffffffffffffffffffffffffffff16021790555060016000806101000a81548160ff021916908360028111156110b957fe5b02179055506110eb6000600960019054906101000a900473ffffffffffffffffffffffffffffffffffffffff1661299d565b6110f3612ca0565b7faa8bf416fffb3861bedd6d4840f9ec53b3afba0b283c55c25430717223bc703b600960019054906101000a900473ffffffffffffffffffffffffffffffffffffffff16604051808273ffffffffffffffffffffffffffffffffffffffff1673ffffffffffffffffffffffffffffffffffffffff16815260200191505060405180910390a16001905090565b60008060019054906101000a900473ffffffffffffffffffffffffffffffffffffffff168073ffffffffffffffffffffffffffffffffffffffff163373ffffffffffffffffffffffffffffffffffffffff161415156111dd57600080fd5b60006111e7612995565b9050600960009054906101000a900460ff16156112145760075460085482031015151561121357600080fd5b5b600460008573ffffffffffffffffffffffffffffffffffffffff1673ffffffffffffffffffffffffffffffffffffffff16815260200190815260200160002060009054906101000a900460ff161580156112b85750600660008573ffffffffffffffffffffffffffffffffffffffff1673ffffffffffffffffffffffffffffffffffffffff16815260200190815260200160002060009054906101000a900460ff16155b15156112c357600080fd5b6001600660008673ffffffffffffffffffffffffffffffffffffffff1673ffffffffffffffffffffffffffffffffffffffff16815260200190815260200160002060006101000a81548160ff02191690831515021790555060058490806001815401808255809150509060018203906000526020600020016000909192909190916101000a81548173ffffffffffffffffffffffffffffffffffffffff021916908373ffffffffffffffffffffffffffffffffffffffff160217905550506003600260008673ffffffffffffffffffffffffffffffffffffffff1673ffffffffffffffffffffffffffffffffffffffff168152602001908152602001600020819055506113ce612abc565b7fc242a17283e801da748c90fb0185a4490521a6d46518a3ff43d9f9ff7af8596f84604051808273ffffffffffffffffffffffffffffffffffffffff1673ffffffffffffffffffffffffffffffffffffffff16815260200191505060405180910390a160019250806008819055505050919050565b60058181548110151561145257fe5b906000526020600020016000915054906101000a900473ffffffffffffffffffffffffffffffffffffffff1681565b600060019054906101000a900473ffffffffffffffffffffffffffffffffffffffff1681565b600080600080339050600b60008273ffffffffffffffffffffffffffffffffffffffff1673ffffffffffffffffffffffffffffffffffffffff16815260200190815260200160002060009054906101000a900460ff1615801561154957506001600260008373ffffffffffffffffffffffffffffffffffffffff1673ffffffffffffffffffffffffffffffffffffffff16815260200190815260200160002054145b151561155457600080fd5b339250841561156e576001600c5401600c81905550611580565b6001600d600082825401925050819055505b6001600b60008573ffffffffffffffffffffffffffffffffffffffff1673ffffffffffffffffffffffffffffffffffffffff16815260200190815260200160002060006101000a81548160ff0219169083151502179055506002600160008154811015156115ea57fe5b906000526020600020018054905081151561160157fe5b0491507f7c67171a59076e8b2582ac7c20a432eead1e39ef41d1403888d7256ba0cec5bc83600960019054906101000a900473ffffffffffffffffffffffffffffffffffffffff1687600c54600d54604051808673ffffffffffffffffffffffffffffffffffffffff1673ffffffffffffffffffffffffffffffffffffffff1681526020018573ffffffffffffffffffffffffffffffffffffffff1673ffffffffffffffffffffffffffffffffffffffff168152602001841515151581526020018381526020018281526020019550505050505060405180910390a181600c5411806116ee575081600d54115b1561194a576002808111156116ff57fe5b6000809054906101000a900460ff16600281111561171957fe5b1415611830576001600a6000600960019054906101000a900473ffffffffffffffffffffffffffffffffffffffff1673ffffffffffffffffffffffffffffffffffffffff1673ffffffffffffffffffffffffffffffffffffffff16815260200190815260200160002060006101000a81548160ff0219169083151502179055507fe5f0040af8624aab96e3b2bab50629d1aac1c12b648de6523d04993775137aa46001600960019054906101000a900473ffffffffffffffffffffffffffffffffffffffff1660405180831515151581526020018273ffffffffffffffffffffffffffffffffffffffff1673ffffffffffffffffffffffffffffffffffffffff1681526020019250505060405180910390a1611926565b7fe5f0040af8624aab96e3b2bab50629d1aac1c12b648de6523d04993775137aa46000600960019054906101000a900473ffffffffffffffffffffffffffffffffffffffff1660405180831515151581526020018273ffffffffffffffffffffffffffffffffffffffff1673ffffffffffffffffffffffffffffffffffffffff1681526020019250505060405180910390a1600960019054906101000a900473ffffffffffffffffffffffffffffffffffffffff16600060016101000a81548173ffffffffffffffffffffffffffffffffffffffff021916908373ffffffffffffffffffffffffffffffffffffffff1602179055505b60008060006101000a81548160ff0219169083600281111561194457fe5b02179055505b60019350505050919050565b60046020528060005260406000206000915054906101000a900460ff1681565b600960019054906101000a900473ffffffffffffffffffffffffffffffffffffffff1681565b6003818154811015156119ab57fe5b906000526020600020016000915054906101000a900473ffffffffffffffffffffffffffffffffffffffff1681565b6001828154811015156119e957fe5b9060005260206000200181815481101515611a0057fe5b906000526020600020016000915091509054906101000a900473ffffffffffffffffffffffffffffffffffffffff1681565b600d5481565b60008060008060008060019054906101000a900473ffffffffffffffffffffffffffffffffffffffff168073ffffffffffffffffffffffffffffffffffffffff163373ffffffffffffffffffffffffffffffffffffffff16141515611a9c57600080fd5b6000611aa6612995565b9050600960009054906101000a900460ff1615611ad357600754600854820310151515611ad257600080fd5b5b600460008973ffffffffffffffffffffffffffffffffffffffff1673ffffffffffffffffffffffffffffffffffffffff16815260200190815260200160002060009054906101000a900460ff16158015611b775750600660008973ffffffffffffffffffffffffffffffffffffffff1673ffffffffffffffffffffffffffffffffffffffff16815260200190815260200160002060009054906101000a900460ff16155b1515611b8257600080fd5b87955060008673ffffffffffffffffffffffffffffffffffffffff1663bff1f9e16040518163ffffffff167c0100000000000000000000000000000000000000000000000000000000028152600401602060405180830381600087803b158015611beb57600080fd5b505af1158015611bff573d6000803e3d6000fd5b505050506040513d6020811015611c1557600080fd5b810190808051906020019092919050505010151515611c3357600080fd5b60038054905094506000851115611c5157611c4c612abc565b611df1565b600960009054906101000a900460ff161515611df057611c72600089612df1565b9350600060019054906101000a900473ffffffffffffffffffffffffffffffffffffffff16925060016000815481101515611ca957fe5b9060005260206000200184815481101515611cc057fe5b9060005260206000200160009054906101000a900473ffffffffffffffffffffffffffffffffffffffff16600060016101000a81548173ffffffffffffffffffffffffffffffffffffffff021916908373ffffffffffffffffffffffffffffffffffffffff1602179055507f7cbd1169ed70e5b24e3bb1fae1ece2bd8cc4124bff096d880b33e8fbe2191ce383600060019054906101000a900473ffffffffffffffffffffffffffffffffffffffff16604051808373ffffffffffffffffffffffffffffffffffffffff1673ffffffffffffffffffffffffffffffffffffffff1681526020018273ffffffffffffffffffffffffffffffffffffffff1673ffffffffffffffffffffffffffffffffffffffff1681526020019250505060405180910390a1611def600085613115565b5b5b6001600460008a73ffffffffffffffffffffffffffffffffffffffff1673ffffffffffffffffffffffffffffffffffffffff16815260200190815260200160002060006101000a81548160ff02191690831515021790555060038890806001815401808255809150509060018203906000526020600020016000909192909190916101000a81548173ffffffffffffffffffffffffffffffffffffffff021916908373ffffffffffffffffffffffffffffffffffffffff160217905550506003600260008a73ffffffffffffffffffffffffffffffffffffffff1673ffffffffffffffffffffffffffffffffffffffff168152602001908152602001600020819055507f691987ba3d8a02f63fe4ba0aa03243d9b7a389588f2dc8c0edac22e53db9180888604051808273ffffffffffffffffffffffffffffffffffffffff1673ffffffffffffffffffffffffffffffffffffffff16815260200191505060405180910390a16001965080600881905550505050505050919050565b60008060019054906101000a900473ffffffffffffffffffffffffffffffffffffffff168073ffffffffffffffffffffffffffffffffffffffff163373ffffffffffffffffffffffffffffffffffffffff16141515611fcb57600080fd5b6002806002811115611fd957fe5b6000809054906101000a900460ff166002811115611ff357fe5b141515611fff57600080fd5b60008060006101000a81548160ff0219169083600281111561201d57fe5b02179055507f30e7c543609c466b8a0af0583df6ec0c16f3a0915a9eaea0bd3265691c68c2c7600060019054906101000a900473ffffffffffffffffffffffffffffffffffffffff16600960019054906101000a900473ffffffffffffffffffffffffffffffffffffffff16604051808373ffffffffffffffffffffffffffffffffffffffff1673ffffffffffffffffffffffffffffffffffffffff1681526020018273ffffffffffffffffffffffffffffffffffffffff1673ffffffffffffffffffffffffffffffffffffffff1681526020019250505060405180910390a1612105612abc565b60019250505090565b600c5481565b60066020528060005260406000206000915054906101000a900460ff1681565b600b6020528060005260406000206000915054906101000a900460ff1681565b600a6020528060005260406000206000915054906101000a900460ff1681565b60008060019054906101000a900473ffffffffffffffffffffffffffffffffffffffff168073ffffffffffffffffffffffffffffffffffffffff163373ffffffffffffffffffffffffffffffffffffffff161415156121d257600080fd5b60008060028111156121e057fe5b6000809054906101000a900460ff1660028111156121fa57fe5b14151561220657600080fd5b6000600260008673ffffffffffffffffffffffffffffffffffffffff1673ffffffffffffffffffffffffffffffffffffffff1681526020019081526020016000205414151561225457600080fd5b83600960016101000a81548173ffffffffffffffffffffffffffffffffffffffff021916908373ffffffffffffffffffffffffffffffffffffffff1602179055506003600260008673ffffffffffffffffffffffffffffffffffffffff1673ffffffffffffffffffffffffffffffffffffffff1681526020019081526020016000208190555060026000806101000a81548160ff021916908360028111156122f857fe5b0217905550612305612abc565b61230d612ca0565b7fbb008dd595e21681e73362e416350714db403fb52a773900a76766630a8268cd600060019054906101000a900473ffffffffffffffffffffffffffffffffffffffff1685604051808373ffffffffffffffffffffffffffffffffffffffff1673ffffffffffffffffffffffffffffffffffffffff1681526020018273ffffffffffffffffffffffffffffffffffffffff1673ffffffffffffffffffffffffffffffffffffffff1681526020019250505060405180910390a1600192505050919050565b60008060019054906101000a900473ffffffffffffffffffffffffffffffffffffffff168073ffffffffffffffffffffffffffffffffffffffff163373ffffffffffffffffffffffffffffffffffffffff1614151561242f57600080fd5b600960009054906101000a900460ff1615801561245157506000600380549050115b151561245c57600080fd5b6001600960006101000a81548160ff021916908315150217905550600191505090565b600080600080856000339050600460008273ffffffffffffffffffffffffffffffffffffffff1673ffffffffffffffffffffffffffffffffffffffff16815260200190815260200160002060009054906101000a900460ff168061252c5750600660008273ffffffffffffffffffffffffffffffffffffffff1673ffffffffffffffffffffffffffffffffffffffff16815260200190815260200160002060009054906101000a900460ff165b801561257757506001600260008473ffffffffffffffffffffffffffffffffffffffff1673ffffffffffffffffffffffffffffffffffffffff16815260200190815260200160002054145b151561258257600080fd5b600061258c612995565b9050600960009054906101000a900460ff16156125b9576007546008548203101515156125b857600080fd5b5b60056001898154811015156125ca57fe5b90600052602060002001805490501180156125e55750600288105b80156125f657506000600380549050115b151561260157600080fd5b61260c60008a61299d565b33955060009450600460008773ffffffffffffffffffffffffffffffffffffffff1673ffffffffffffffffffffffffffffffffffffffff16815260200190815260200160002060009054906101000a900460ff16156126765761266f8887612df1565b94506126c4565b6126c188600360016003805490500381548110151561269157fe5b9060005260206000200160009054906101000a900473ffffffffffffffffffffffffffffffffffffffff16612df1565b94505b6001888154811015156126d357fe5b90600052602060002001858154811015156126ea57fe5b9060005260206000200160009054906101000a900473ffffffffffffffffffffffffffffffffffffffff1693506127218886613115565b7fb00e04acce4d18956a13436952e4f6e93cb1004133baa8543acdca458727379d88878b87604051808581526020018473ffffffffffffffffffffffffffffffffffffffff1673ffffffffffffffffffffffffffffffffffffffff1681526020018373ffffffffffffffffffffffffffffffffffffffff1673ffffffffffffffffffffffffffffffffffffffff1681526020018273ffffffffffffffffffffffffffffffffffffffff1673ffffffffffffffffffffffffffffffffffffffff16815260200194505050505060405180910390a18396508060088190555050505050505092915050565b6000806000600281111561281a57fe5b6000809054906101000a900460ff16600281111561283457fe5b1415151561284157600080fd5b612849612995565b9050600e54811180156128615750611c20600e548203115b156129175760008060006101000a81548160ff0219169083600281111561288457fe5b02179055507f44fcf9907c8fe8dae7a5cf8375058f72ed449c8674224bf6e896879374925b73600960019054906101000a900473ffffffffffffffffffffffffffffffffffffffff16604051808273ffffffffffffffffffffffffffffffffffffffff1673ffffffffffffffffffffffffffffffffffffffff16815260200191505060405180910390a16001915061291c565b600091505b5090565b600080600380549050600580549050915091509091565b6000806001600081548110151561294a57fe5b906000526020600020018054905060018081548110151561296757fe5b9060005260206000200180549050915091509091565b60026020528060005260406000206000915090505481565b600042905090565b606060006001848154811015156129b057fe5b90600052602060002001805480602002602001604051908101604052809291908181526020018280548015612a3a57602002820191906000526020600020905b8160009054906101000a900473ffffffffffffffffffffffffffffffffffffffff1673ffffffffffffffffffffffffffffffffffffffff16815260200190600101908083116129f0575b50505050509150600090505b8151811015612ab6578273ffffffffffffffffffffffffffffffffffffffff168282815181101515612a7457fe5b9060200190602002015173ffffffffffffffffffffffffffffffffffffffff161415612aa957612aa48482613115565b612ab6565b8080600101915050612a46565b50505050565b6000806000600380549050111515612ad357600080fd5b612b1f60006003600160038054905003815481101515612aef57fe5b9060005260206000200160009054906101000a900473ffffffffffffffffffffffffffffffffffffffff16612df1565b9150600060019054906101000a900473ffffffffffffffffffffffffffffffffffffffff16905060016000815481101515612b5657fe5b9060005260206000200182815481101515612b6d57fe5b9060005260206000200160009054906101000a900473ffffffffffffffffffffffffffffffffffffffff16600060016101000a81548173ffffffffffffffffffffffffffffffffffffffff021916908373ffffffffffffffffffffffffffffffffffffffff1602179055507f7cbd1169ed70e5b24e3bb1fae1ece2bd8cc4124bff096d880b33e8fbe2191ce381600060019054906101000a900473ffffffffffffffffffffffffffffffffffffffff16604051808373ffffffffffffffffffffffffffffffffffffffff1673ffffffffffffffffffffffffffffffffffffffff1681526020018273ffffffffffffffffffffffffffffffffffffffff1673ffffffffffffffffffffffffffffffffffffffff1681526020019250505060405180910390a1612c9c600083613115565b5050565b6060600060016000815481101515612cb457fe5b90600052602060002001805480602002602001604051908101604052809291908181526020018280548015612d3e57602002820191906000526020600020905b8160009054906101000a900473ffffffffffffffffffffffffffffffffffffffff1673ffffffffffffffffffffffffffffffffffffffff1681526020019060010190808311612cf4575b50505050509150600090505b8151811015612dcf576000600b60008484815181101515612d6757fe5b9060200190602002015173ffffffffffffffffffffffffffffffffffffffff1673ffffffffffffffffffffffffffffffffffffffff16815260200190815260200160002060006101000a81548160ff0219169083151502179055508080600101915050612d4a565b6000600c819055506000600d81905550612de7612995565b600e819055505050565b600080600080600060014303406040516020018082600019166000191681526020019150506040516020818303038152906040526040518082805190602001908083835b602083101515612e5a5780518252602082019150602081019050602083039250612e35565b6001836020036101000a03801982511681845116808217855250505050505090500191505060405180910390206001900493508592508273ffffffffffffffffffffffffffffffffffffffff1663bff1f9e16040518163ffffffff167c0100000000000000000000000000000000000000000000000000000000028152600401602060405180830381600087803b158015612ef457600080fd5b505af1158015612f08573d6000803e3d6000fd5b505050506040513d6020811015612f1e57600080fd5b8101908080519060200190929190505050915060ff8211156130e0578273ffffffffffffffffffffffffffffffffffffffff1663365b98b28386811515612f6157fe5b066040518263ffffffff167c010000000000000000000000000000000000000000000000000000000002815260040180828152602001915050602060405180830381600087803b158015612fb457600080fd5b505af1158015612fc8573d6000803e3d6000fd5b505050506040513d6020811015612fde57600080fd5b8101908080519060200190929190505050905060018781548110151561300057fe5b906000526020600020018054905081604051602001808273ffffffffffffffffffffffffffffffffffffffff1673ffffffffffffffffffffffffffffffffffffffff166c010000000000000000000000000281526014019150506040516020818303038152906040526040518082805190602001908083835b60208310151561309e5780518252602082019150602081019050602083039250613079565b6001836020036101000a0380198251168184511680821785525050505050509050019150506040518091039020600190048115156130d857fe5b06945061310b565b6001878154811015156130ef57fe5b90600052602060002001805490508481151561310757fe5b0694505b5050505092915050565b606060018381548110151561312657fe5b906000526020600020018054806020026020016040519081016040528092919081815260200182805480156131b057602002820191906000526020600020905b8160009054906101000a900473ffffffffffffffffffffffffffffffffffffffff1673ffffffffffffffffffffffffffffffffffffffff1681526020019060010190808311613166575b5050505050905060036002600083858151811015156131cb57fe5b9060200190602002015173ffffffffffffffffffffffffffffffffffffffff1673ffffffffffffffffffffffffffffffffffffffff1681526020019081526020016000208190555060018151038210156132e35760018381548110151561322e57fe5b90600052602060002001600182510381548110151561324957fe5b9060005260206000200160009054906101000a900473ffffffffffffffffffffffffffffffffffffffff1660018481548110151561328357fe5b906000526020600020018381548110151561329a57fe5b9060005260206000200160006101000a81548173ffffffffffffffffffffffffffffffffffffffff021916908373ffffffffffffffffffffffffffffffffffffffff1602179055505b6001838154811015156132f257fe5b90600052602060002001600182510381548110151561330d57fe5b9060005260206000200160006101000a81549073ffffffffffffffffffffffffffffffffffffffff021916905560018381548110151561334957fe5b90600052602060002001805480919060019003613366919061336c565b50505050565b815481835581811115613393578183600052602060002091820191016133929190613398565b5b505050565b6133ba91905b808211156133b657600081600090555060010161339e565b5090565b905600a165627a7a723058202228d9792c5471059911be4996d2a514f82f6e9525403f6ff9208856afe8ef5f0029",
  "source": "pragma solidity ^0.4.24;\nimport { ICustodian } from \"../interfaces/ICustodian.sol\";\n\n\n/// @title Esplanade - coordinate multiple custodians, oracles and other contracts.\n/// @author duo.network\ncontract Esplanade {\n\n\t/*\n     * Constants\n     */\n\tuint constant WEI_DENOMINATOR = 1000000000000000000;\n\tuint constant BP_DENOMINATOR = 10000;\n\tuint constant MIN_POOL_SIZE = 5;\n\tuint constant VOTE_TIME_OUT = 2 hours;\n\tuint constant COLD_POOL_IDX = 0;\n\tuint constant HOT_POOL_IDX = 1;\n\tuint constant NEW_STATUS = 0;\n\tuint constant IN_COLD_POOL_STATUS = 1;\n\tuint constant IN_HOT_POOL_STATUS = 2;\n\tuint constant USED_STATUS = 3;\n\tenum VotingStage {\n        NotStarted,\n\t\tModerator,\n\t\tContract\n    }\n\t/*\n     * Storage\n     */\n\tVotingStage public votingStage;\n\taddress public moderator;\n\t// 0 is cold\n\t// 1 is hot\n\taddress[][] public addrPool =[   \n\t\t[\n\t\t\t0x415DE7Edfe2c9bBF8449e33Ff88c9be698483CC0,\n\t\t\t0xd066FbAc54838c1d3c3113fc4390B9F99fEb7678,\n\t\t\t0xB0f396d1fba9a5C699695B69337635Fad6547B13,\n\t\t\t0x290FC07db2BF4b385987059E919B78898941102e,\n\t\t\t0x06C59e1aD2299EA99631850291021eda772715eb,\n\t\t\t0xd34d743B5bfDF21e0D8829f0eEA52cC493628610,\n\t\t\t0x2B6D101F5e6b4a577e7d053C168AF2AFc883EB9c,\n\t\t\t0x0A4b6c73CA03762bdA89292A498d231837997F56,\n\t\t\t0xb2518E8d6F0601696F1BA3a826951bc3Cf6d7ef8,\n\t\t\t0x48da82056f5c6A1276258dDcd97E4C89640DD9e2\n\t\t],\n\t\t[\n\t\t\t0xF4463762f1F00E91Bd58619dB6C9EAC470182886,\n\t\t\t0x9A5510a050f6148391F7Df357506A929723e74cE,\n\t\t\t0xEbaBD24F323dCE0B94E094A43b698ED1F43A618D,\n\t\t\t0x4871c7A6bD3545762c4b1b9edefE40Cf3901DC67,\n\t\t\t0x7640CeD84F07FAF1C1b972Ea4bb7caCBa0bC7D1f,\n\t\t\t0xbC71F5Fb6434b18ED98FBbEdd4FE34658775ccC9,\n\t\t\t0x534758D6F76C7f8994f31fc921353B0c568B1f3a,\n\t\t\t0x7Ac3E29C0b18c8D93121ab15742228cBaF333Ff0,\n\t\t\t0x889615F5acFc9627e3D6508d835a0C7CaC3d2BC4,\n\t\t\t0x2db57203e8B6df80A15ba5df41e236a20C6Baeb8\n\t\t]\n\t];\n\t// 0 is new address\n\t// 1 in cold pool\n\t// 2 in hot pool\n\t// 3 is used\n\tmapping(address => uint) public addrStatus; \n\taddress[] public custodianPool;\n\tmapping(address => bool) public existingCustodians;\n\taddress[] public otherContractPool;\n\tmapping(address => bool) public existingOtherContracts;\n\tuint public operatorCoolDown = 1 hours;\n\tuint public lastOperationTime;\n\tbool public started;\n\n\taddress public candidate;\n\tmapping(address => bool) public passedContract;\n\tmapping(address => bool) public voted;\n\tuint public votedFor;\n\tuint public votedAgainst;\n\tuint public voteStartTimestamp;\n\n\t/*\n     *  Modifiers\n     */\n\tmodifier only(address addr) {\n\t\trequire(msg.sender == addr);\n\t\t_;\n\t}\n\n\tmodifier inColdAddrPool() {\n\t\trequire(addrStatus[msg.sender] == IN_COLD_POOL_STATUS);\n\t\t_;\n\t}\n\n\tmodifier inHotAddrPool() {\n\t\trequire(addrStatus[msg.sender] == IN_HOT_POOL_STATUS);\n\t\t_;\n\t}\n\n\tmodifier isValidRequestor(address origin) {\n\t\taddress requestorAddr = msg.sender;\n\t\trequire((existingCustodians[requestorAddr] \n\t\t|| existingOtherContracts[requestorAddr]) \n\t\t&& addrStatus[origin] == IN_COLD_POOL_STATUS);\n\t\t_;\n\t}\n\n\tmodifier inUpdateWindow() {\n\t\tuint currentTime = getNowTimestamp();\n\t\tif (started)\n\t\t\trequire(currentTime - lastOperationTime >= operatorCoolDown);\n\t\t_;\n\t\tlastOperationTime = currentTime;\n\t}\n\n\tmodifier inVotingStage(VotingStage _stage) {\n\t\trequire(votingStage == _stage);\n\t\t_;\n\t}\n\n\tmodifier allowedToVote() {\n\t\taddress voterAddr = msg.sender;\n\t\trequire(!voted[voterAddr] && addrStatus[voterAddr] == 1);\n\t\t_;\n\t}\n\n\t/*\n     *  Events\n     */\n\tevent AddAddress(uint poolIndex, address added1, address added2);\n\tevent RemoveAddress(uint poolIndex, address addr);\n\tevent ProvideAddress(uint poolIndex, address requestor, address origin, address addr);\n\tevent AddCustodian(address newCustodianAddr);\n\tevent AddOtherContract(address newContractAddr);\n\tevent StartContractVoting(address proposer, address newContractAddr);\n\tevent TerminateContractVoting(address terminator, address currentCandidate);\n\tevent StartModeratorVoting(address proposer);\n\tevent TerminateByTimeOut(address candidate);\n\tevent Vote(address voter, address candidate, bool voteFor, uint votedFor, uint votedAgainst);\n\tevent CompleteVoting(bool isContractVoting, address newAddress);\n\tevent ReplaceModerator(address oldModerator, address newModerator);\n\n\t/*\n     * Constructor\n     */\n\t/// @dev Contract constructor sets operation cool down and set address pool status.\n\t/// @param optCoolDown operation cool down time.\n\tconstructor(uint optCoolDown) public \n\t{\t\n\t\tvotingStage = VotingStage.NotStarted;\n\t\tmoderator = msg.sender;\n\t\taddrStatus[moderator] = USED_STATUS;\n\t\tfor (uint i = 0; i < addrPool[COLD_POOL_IDX].length; i++) \n\t\t\taddrStatus[addrPool[COLD_POOL_IDX][i]] = IN_COLD_POOL_STATUS;\n\t\tfor (i = 0; i < addrPool[HOT_POOL_IDX].length; i++) \n\t\t\taddrStatus[addrPool[HOT_POOL_IDX][i]] = IN_HOT_POOL_STATUS;\n\t\toperatorCoolDown = optCoolDown;\n\t}\n\n\t/*\n     * MultiSig Management\n     */\n\t/// @dev proposeNewManagerContract function.\n\t/// @param addr new manager contract address proposed.\n\tfunction startContractVoting(address addr) \n\t\tpublic \n\t\tonly(moderator) \n\t\tinVotingStage(VotingStage.NotStarted) \n\treturns (bool) {\n\t\trequire(addrStatus[addr] == NEW_STATUS);\n\t\tcandidate = addr;\n\t\taddrStatus[addr] = USED_STATUS;\n\t\tvotingStage = VotingStage.Contract;\n\t\treplaceModerator();\n\t\tstartVoting();\n\t\temit StartContractVoting(moderator, addr);\n\t\treturn true;\n\t}\n\n\t/// @dev terminateVoting function.\n\tfunction terminateContractVoting() \n\t\tpublic \n\t\tonly(moderator) \n\t\tinVotingStage(VotingStage.Contract) \n\treturns (bool) {\n\t\tvotingStage = VotingStage.NotStarted;\n\t\temit TerminateContractVoting(moderator, candidate);\n\t\treplaceModerator();\n\t\treturn true;\n\t}\n\n\t/// @dev terminateVoting voting if timeout\n\tfunction terminateByTimeout() public returns (bool) {\n\t\trequire(votingStage != VotingStage.NotStarted);\n\t\tuint nowTimestamp = getNowTimestamp();\n\t\tif (nowTimestamp > voteStartTimestamp && nowTimestamp - voteStartTimestamp > VOTE_TIME_OUT) {\n\t\t\tvotingStage = VotingStage.NotStarted;\n\t\t\temit TerminateByTimeOut(candidate);\n\t\t\treturn true;\n\t\t} else\n\t\t\treturn false;\n\t}\n\n\t/// @dev proposeNewModerator function.\n\tfunction startModeratorVoting() public inColdAddrPool() returns (bool) {\n\t\tcandidate = msg.sender;\n\t\tvotingStage = VotingStage.Moderator;\n\t\tremoveFromPoolByAddr(COLD_POOL_IDX, candidate);\n\t\tstartVoting();\n\t\temit StartModeratorVoting(candidate);\n\t\treturn true;\n\t}\n\n\t/// @dev proposeNewModerator function.\n\tfunction vote(bool voteFor) \n\t\tpublic \n\t\tallowedToVote() \n\treturns (bool) {\n\t\taddress voter = msg.sender;\n\t\tif (voteFor)\n\t\t\tvotedFor = votedFor + 1;\n\t\telse\n\t\t\tvotedAgainst += 1;\n\t\tvoted[voter] = true;\n\t\tuint threshold = addrPool[COLD_POOL_IDX].length / 2;\n\t\temit Vote(voter, candidate, voteFor, votedFor, votedAgainst);\n\t\tif (votedFor > threshold || votedAgainst > threshold) {\n\t\t\tif (votingStage == VotingStage.Contract) {\n\t\t\t\tpassedContract[candidate] = true;\n\t\t\t\temit CompleteVoting(true, candidate);\n\t\t\t}\n\t\t\telse {\n\t\t\t\temit CompleteVoting(false, candidate);\n\t\t\t\tmoderator = candidate;\n\t\t\t}\n\t\t\tvotingStage = VotingStage.NotStarted;\n\t\t}\n\t\treturn true;\n\t}\n\n\t/*\n     * Moderator Public functions\n     */\n\t/// @dev start roleManagerContract.\n\tfunction startManager() public only(moderator) returns (bool) {\n\t\trequire(!started && custodianPool.length > 0);\n\t\tstarted = true;\n\t\treturn true;\n\t}\n\n\t/// @dev addCustodian function.\n\t/// @param custodianAddr custodian address to add.\n\tfunction addCustodian(address custodianAddr) \n\t\tpublic \n\t\tonly(moderator) \n\t\tinUpdateWindow() \n\treturns (bool success) {\n\t\trequire(!existingCustodians[custodianAddr] && !existingOtherContracts[custodianAddr]);\n\t\tICustodian custodian = ICustodian(custodianAddr);\n\t\trequire(custodian.totalUsers() >= 0);\n\t\t// custodian.users(0);\n\t\tuint custodianLength = custodianPool.length;\n\t\tif (custodianLength > 0) \n\t\t\treplaceModerator();\n\t\telse if (!started) {\n\t\t\tuint index = getNextAddrIndex(COLD_POOL_IDX, custodianAddr);\n\t\t\taddress oldModerator = moderator;\n\t\t\tmoderator = addrPool[COLD_POOL_IDX][index];\n\t\t\temit ReplaceModerator(oldModerator, moderator);\n\t\t\tremoveFromPool(COLD_POOL_IDX, index);\n\t\t}\n\t\texistingCustodians[custodianAddr] = true;\n\t\tcustodianPool.push(custodianAddr);\n\t\taddrStatus[custodianAddr] = USED_STATUS;\n\t\temit AddCustodian(custodianAddr);\n\t\treturn true;\n\t}\n\n\t/// @dev addOtherContracts function.\n\t/// @param contractAddr other contract address to add.\n\tfunction addOtherContracts(address contractAddr) \n\t\tpublic \n\t\tonly(moderator) \n\t\tinUpdateWindow() \n\treturns (bool success) {\n\t\trequire(!existingCustodians[contractAddr] && !existingOtherContracts[contractAddr]);\t\t\n\t\texistingOtherContracts[contractAddr] = true;\n\t\totherContractPool.push(contractAddr);\n\t\taddrStatus[contractAddr] = USED_STATUS;\n\t\treplaceModerator();\n\t\temit AddOtherContract(contractAddr);\n\t\treturn true;\n\t}\n\n\t/// @dev add two addreess into pool function.\n\t/// @param addr1 the first address\n\t/// @param addr2 the second address.\n\t/// @param poolIndex indicate adding to hot or cold.\n\tfunction addAddress(address addr1, address addr2, uint poolIndex) \n\t\tpublic \n\t\tonly(moderator) \n\t\tinUpdateWindow() \n\treturns (bool success) {\n\t\trequire(addrStatus[addr1] == NEW_STATUS \n\t\t\t&& addrStatus[addr2] == NEW_STATUS \n\t\t\t&& addr1 != addr2 \n\t\t\t&& poolIndex < 2);\n\t\treplaceModerator();\n\t\taddrPool[poolIndex].push(addr1);\n\t\taddrStatus[addr1] = poolIndex + 1;\n\t\taddrPool[poolIndex].push(addr2);\n\t\taddrStatus[addr2] = poolIndex + 1;\n\t\temit AddAddress(poolIndex, addr1, addr2);\n\t\treturn true;\n\t}\n\n\t/// @dev removeAddress function.\n\t/// @param addr the address to remove from\n\t/// @param poolIndex the pool to remove from.\n\tfunction removeAddress(address addr, uint poolIndex) \n\t\tpublic \n\t\tonly(moderator) \n\t\tinUpdateWindow() \n\treturns (bool success) {\n\t\trequire(addrPool[poolIndex].length > MIN_POOL_SIZE \n\t\t\t&& addrStatus[addr] == poolIndex + 1 \n\t\t\t&& poolIndex < 2);\n\t\tremoveFromPoolByAddr(poolIndex, addr);\n\t\treplaceModerator();\n\t\temit RemoveAddress(poolIndex, addr);\n\t\treturn true;\n\t}\n\n\t/// @dev provide address to other contracts, such as custodian, oracle and others.\n\t/// @param origin the origin who makes request\n\t/// @param poolIndex the pool to request address from.\n\tfunction provideAddress(address origin, uint poolIndex) \n\t\tpublic \n\t\tisValidRequestor(origin) \n\t\tinUpdateWindow() \n\treturns (address) {\n\t\trequire(addrPool[poolIndex].length > MIN_POOL_SIZE \n\t\t\t&& poolIndex < 2 \n\t\t\t&& custodianPool.length > 0);\n\t\tremoveFromPoolByAddr(COLD_POOL_IDX, origin);\n\t\taddress requestor = msg.sender;\n\t\tuint index = 0;\n\t\t// is custodian\n\t\tif (existingCustodians[requestor])\n\t\t\tindex = getNextAddrIndex(poolIndex, requestor);\n\t\telse // is other contract;\n\t\t\tindex = getNextAddrIndex(poolIndex, custodianPool[custodianPool.length - 1]);\n\t\taddress addr = addrPool[poolIndex][index];\n\t\tremoveFromPool(poolIndex, index);\n\n\t\temit ProvideAddress(poolIndex, requestor, origin, addr);\n\t\treturn addr;\n\t}\n\n\t/*\n     * Internal functions\n     */\n\t \n\tfunction startVoting() internal {\n\t\taddress[] memory coldPool = addrPool[COLD_POOL_IDX];\n\t\tfor (uint i = 0; i < coldPool.length; i++) \n\t\t\tvoted[coldPool[i]] = false;\n\t\tvotedFor = 0;\n\t\tvotedAgainst = 0;\n\t\tvoteStartTimestamp = getNowTimestamp();\n\t}\n\t\n\tfunction replaceModerator() internal {\n\t\trequire(custodianPool.length > 0);\n\t\tuint index = getNextAddrIndex(COLD_POOL_IDX, custodianPool[custodianPool.length - 1]);\n\t\taddress oldModerator = moderator;\n\t\tmoderator = addrPool[COLD_POOL_IDX][index];\n\t\temit ReplaceModerator(oldModerator, moderator);\n\t\tremoveFromPool(COLD_POOL_IDX, index);\n\t}\n\n\t/// @dev removeFromPool Function.\n\t/// @param poolIndex the pool to request from removal.\n\t/// @param addr the address to remove\n\tfunction removeFromPoolByAddr(uint poolIndex, address addr) internal {\n\t \taddress[] memory subPool = addrPool[poolIndex];\n\t\tfor (uint i = 0; i < subPool.length; i++) {\n\t\t\tif (subPool[i] == addr) {\n\t\t\t\tremoveFromPool(poolIndex, i);\n\t\t\t\tbreak;\n            }\n\t\t}\n\t}\n\n\t/// @dev removeFromPool Function.\n\t/// @param poolIndex the pool to request from removal.\n\t/// @param idx the index of address to remove\n\tfunction removeFromPool(uint poolIndex, uint idx) internal {\n\t \taddress[] memory subPool = addrPool[poolIndex];\n\t\taddrStatus[subPool[idx]] = USED_STATUS;\n\t\tif (idx < subPool.length - 1)\n\t\t\taddrPool[poolIndex][idx] = addrPool[poolIndex][subPool.length-1];\n\t\tdelete addrPool[poolIndex][subPool.length - 1];\n\t\t// emit RemoveFromPool(poolIndex, addrPool[poolIndex][idx]);\n\t\taddrPool[poolIndex].length--;\n\t}\n\n\t/// @dev getNextAddrIndex Function.\n\t/// @param poolIndex the pool to request address from.\n\t/// @param custodianAddr the index of custodian contract address for randomeness generation\n\tfunction getNextAddrIndex(uint poolIndex, address custodianAddr) internal returns (uint) {\n\t\tuint prevHashNumber = uint256(keccak256(abi.encodePacked(blockhash(block.number - 1))));\n\t\tICustodian custodian = ICustodian(custodianAddr);\n\t\tuint userLength = custodian.totalUsers();\n\t\tif(userLength > 255) {\n\t\t\taddress randomUserAddress = custodian.users(prevHashNumber % userLength);\n\t\t\treturn uint256(keccak256(abi.encodePacked(randomUserAddress))) % addrPool[poolIndex].length;\n\t\t} else \n\t\t\treturn prevHashNumber % addrPool[poolIndex].length;\n\t}\n\n\t/// @dev get Ethereum blockchain current timestamp\n\tfunction getNowTimestamp() internal view returns (uint) {\n\t\treturn now;\n\t}\n\n\t/// @dev get addressPool size\n\tfunction getAddressPoolSizes() public view returns (uint, uint) {\n\t\treturn (addrPool[COLD_POOL_IDX].length, addrPool[HOT_POOL_IDX].length);\n\t}\n\n\t/// @dev get contract pool size\n\tfunction getContractPoolSizes() public view returns (uint, uint) {\n\t\treturn (custodianPool.length, otherContractPool.length);\n\t}\n}",
  "sourcePath": "C:\\dev\\coinFront\\duo-contract\\contracts\\common\\Esplanade.sol",
  "compiler": {
    "name": "solc",
    "version": "0.4.24+commit.e67f0147.Emscripten.clang"
  },
  "schemaVersion": "3.0.0-beta.0",
  "updatedAt": "2018-11-12T09:14:29.427Z"
}