{
  "contractName": "Magi",
  "abi": [
    {
      "constant": true,
      "inputs": [],
      "name": "lastPrice",
      "outputs": [
        {
          "name": "priceInWei",
          "type": "uint256"
        },
        {
          "name": "timeInSecond",
          "type": "uint256"
        },
        {
          "name": "source",
          "type": "address"
        }
      ],
      "payable": false,
      "stateMutability": "view",
      "type": "function",
      "signature": "0x053f14da"
    },
    {
      "constant": false,
      "inputs": [
        {
          "name": "newManagerAddr",
          "type": "address"
        }
      ],
      "name": "updateRoleManager",
      "outputs": [
        {
          "name": "",
          "type": "bool"
        }
      ],
      "payable": false,
      "stateMutability": "nonpayable",
      "type": "function",
      "signature": "0x0f36a16d"
    },
    {
      "constant": true,
      "inputs": [],
      "name": "lastOperationTime",
      "outputs": [
        {
          "name": "",
          "type": "uint256"
        }
      ],
      "payable": false,
      "stateMutability": "view",
      "type": "function",
      "signature": "0x16d43a97"
    },
    {
      "constant": true,
      "inputs": [],
      "name": "started",
      "outputs": [
        {
          "name": "",
          "type": "bool"
        }
      ],
      "payable": false,
      "stateMutability": "view",
      "type": "function",
      "signature": "0x1f2698ab"
    },
    {
      "constant": true,
      "inputs": [],
      "name": "firstPrice",
      "outputs": [
        {
          "name": "priceInWei",
          "type": "uint256"
        },
        {
          "name": "timeInSecond",
          "type": "uint256"
        },
        {
          "name": "source",
          "type": "address"
        }
      ],
      "payable": false,
      "stateMutability": "view",
      "type": "function",
      "signature": "0x39a3da4a"
    },
    {
      "constant": true,
      "inputs": [],
      "name": "priceFeed3",
      "outputs": [
        {
          "name": "",
          "type": "address"
        }
      ],
      "payable": false,
      "stateMutability": "view",
      "type": "function",
      "signature": "0x427cb6fe"
    },
    {
      "constant": true,
      "inputs": [],
      "name": "priceFeedTolInBP",
      "outputs": [
        {
          "name": "",
          "type": "uint256"
        }
      ],
      "payable": false,
      "stateMutability": "view",
      "type": "function",
      "signature": "0x537f5373"
    },
    {
      "constant": true,
      "inputs": [],
      "name": "operationCoolDown",
      "outputs": [
        {
          "name": "",
          "type": "uint256"
        }
      ],
      "payable": false,
      "stateMutability": "view",
      "type": "function",
      "signature": "0x5623732e"
    },
    {
      "constant": true,
      "inputs": [],
      "name": "operator",
      "outputs": [
        {
          "name": "",
          "type": "address"
        }
      ],
      "payable": false,
      "stateMutability": "view",
      "type": "function",
      "signature": "0x570ca735"
    },
    {
      "constant": true,
      "inputs": [],
      "name": "priceFeedTimeTol",
      "outputs": [
        {
          "name": "",
          "type": "uint256"
        }
      ],
      "payable": false,
      "stateMutability": "view",
      "type": "function",
      "signature": "0x57ef7f57"
    },
    {
      "constant": true,
      "inputs": [],
      "name": "priceTolInBP",
      "outputs": [
        {
          "name": "",
          "type": "uint256"
        }
      ],
      "payable": false,
      "stateMutability": "view",
      "type": "function",
      "signature": "0x61efd490"
    },
    {
      "constant": true,
      "inputs": [],
      "name": "numOfPrices",
      "outputs": [
        {
          "name": "",
          "type": "uint256"
        }
      ],
      "payable": false,
      "stateMutability": "view",
      "type": "function",
      "signature": "0x77680bb5"
    },
    {
      "constant": true,
      "inputs": [],
      "name": "priceFeed1",
      "outputs": [
        {
          "name": "",
          "type": "address"
        }
      ],
      "payable": false,
      "stateMutability": "view",
      "type": "function",
      "signature": "0xab0ca0e1"
    },
    {
      "constant": true,
      "inputs": [],
      "name": "secondPrice",
      "outputs": [
        {
          "name": "priceInWei",
          "type": "uint256"
        },
        {
          "name": "timeInSecond",
          "type": "uint256"
        },
        {
          "name": "source",
          "type": "address"
        }
      ],
      "payable": false,
      "stateMutability": "view",
      "type": "function",
      "signature": "0xd1e61e24"
    },
    {
      "constant": true,
      "inputs": [],
      "name": "roleManagerAddress",
      "outputs": [
        {
          "name": "",
          "type": "address"
        }
      ],
      "payable": false,
      "stateMutability": "view",
      "type": "function",
      "signature": "0xd33b8d23"
    },
    {
      "constant": false,
      "inputs": [],
      "name": "updateOperator",
      "outputs": [
        {
          "name": "",
          "type": "bool"
        }
      ],
      "payable": false,
      "stateMutability": "nonpayable",
      "type": "function",
      "signature": "0xd5934b76"
    },
    {
      "constant": true,
      "inputs": [],
      "name": "priceUpdateCoolDown",
      "outputs": [
        {
          "name": "",
          "type": "uint256"
        }
      ],
      "payable": false,
      "stateMutability": "view",
      "type": "function",
      "signature": "0xdcfe4c53"
    },
    {
      "constant": true,
      "inputs": [],
      "name": "priceFeed2",
      "outputs": [
        {
          "name": "",
          "type": "address"
        }
      ],
      "payable": false,
      "stateMutability": "view",
      "type": "function",
      "signature": "0xe5693f41"
    },
    {
      "inputs": [
        {
          "name": "opt",
          "type": "address"
        },
        {
          "name": "pf1",
          "type": "address"
        },
        {
          "name": "pf2",
          "type": "address"
        },
        {
          "name": "pf3",
          "type": "address"
        },
        {
          "name": "roleManagerAddr",
          "type": "address"
        },
        {
          "name": "pxCoolDown",
          "type": "uint256"
        },
        {
          "name": "optCoolDown",
          "type": "uint256"
        }
      ],
      "payable": false,
      "stateMutability": "nonpayable",
      "type": "constructor",
      "signature": "constructor"
    },
    {
      "anonymous": false,
      "inputs": [
        {
          "indexed": true,
          "name": "priceInWei",
          "type": "uint256"
        },
        {
          "indexed": true,
          "name": "timeInSecond",
          "type": "uint256"
        },
        {
          "indexed": false,
          "name": "sender",
          "type": "address"
        },
        {
          "indexed": false,
          "name": "index",
          "type": "uint256"
        }
      ],
      "name": "CommitPrice",
      "type": "event",
      "signature": "0xe95a7bb58ff5f75fa581ca00ff98b7a825caba174942abffb75a1d2b12d90dd9"
    },
    {
      "anonymous": false,
      "inputs": [
        {
          "indexed": true,
          "name": "priceInWei",
          "type": "uint256"
        },
        {
          "indexed": true,
          "name": "timeInSecond",
          "type": "uint256"
        },
        {
          "indexed": false,
          "name": "sender",
          "type": "address"
        }
      ],
      "name": "AcceptPrice",
      "type": "event",
      "signature": "0x60a26741549361639cff0096d0c4599ee53831ec6dec262b89d7fb1ddde1726e"
    },
    {
      "anonymous": false,
      "inputs": [
        {
          "indexed": false,
          "name": "index",
          "type": "uint256"
        },
        {
          "indexed": false,
          "name": "oldValue",
          "type": "uint256"
        },
        {
          "indexed": false,
          "name": "newValue",
          "type": "uint256"
        }
      ],
      "name": "SetValue",
      "type": "event",
      "signature": "0xabd08d77cf1eed600c8ba851f4210365f6695aa58b9500aa52a83db7d8b534ba"
    },
    {
      "anonymous": false,
      "inputs": [
        {
          "indexed": false,
          "name": "updater",
          "type": "address"
        },
        {
          "indexed": false,
          "name": "newPriceFeed",
          "type": "address"
        }
      ],
      "name": "UpdatePriceFeed",
      "type": "event",
      "signature": "0x0c19c511fd3cdf7b4524c00cd2176627ee9fdd2644d68683e6cc04b79280f316"
    },
    {
      "anonymous": false,
      "inputs": [
        {
          "indexed": false,
          "name": "newManagerAddress",
          "type": "address"
        }
      ],
      "name": "UpdateRoleManager",
      "type": "event",
      "signature": "0xce93baa0b608a7d420822b6b90cfcccb70574363ba4fd26ef5ac17dd465016c4"
    },
    {
      "anonymous": false,
      "inputs": [
        {
          "indexed": false,
          "name": "updater",
          "type": "address"
        },
        {
          "indexed": false,
          "name": "newOperator",
          "type": "address"
        }
      ],
      "name": "UpdateOperator",
      "type": "event",
      "signature": "0xf7fa3b6184cd955c4d8db1b118f541d29ad3cde98ac41ffac1864077b27acc5b"
    },
    {
      "constant": false,
      "inputs": [
        {
          "name": "priceInWei",
          "type": "uint256"
        },
        {
          "name": "timeInSecond",
          "type": "uint256"
        }
      ],
      "name": "startOracle",
      "outputs": [
        {
          "name": "success",
          "type": "bool"
        }
      ],
      "payable": false,
      "stateMutability": "nonpayable",
      "type": "function",
      "signature": "0x660d6eaf"
    },
    {
      "constant": true,
      "inputs": [],
      "name": "getLastPrice",
      "outputs": [
        {
          "name": "",
          "type": "uint256"
        },
        {
          "name": "",
          "type": "uint256"
        }
      ],
      "payable": false,
      "stateMutability": "view",
      "type": "function",
      "signature": "0xd8cf24fd"
    },
    {
      "constant": false,
      "inputs": [
        {
          "name": "priceInWei",
          "type": "uint256"
        },
        {
          "name": "timeInSecond",
          "type": "uint256"
        }
      ],
      "name": "commitPrice",
      "outputs": [
        {
          "name": "success",
          "type": "bool"
        }
      ],
      "payable": false,
      "stateMutability": "nonpayable",
      "type": "function",
      "signature": "0x03ee06f4"
    },
    {
      "constant": false,
      "inputs": [
        {
          "name": "index",
          "type": "uint256"
        }
      ],
      "name": "updatePriceFeed",
      "outputs": [
        {
          "name": "",
          "type": "bool"
        }
      ],
      "payable": false,
      "stateMutability": "nonpayable",
      "type": "function",
      "signature": "0xf5b2aa75"
    },
    {
      "constant": false,
      "inputs": [
        {
          "name": "idx",
          "type": "uint256"
        },
        {
          "name": "newValue",
          "type": "uint256"
        }
      ],
      "name": "setValue",
      "outputs": [
        {
          "name": "success",
          "type": "bool"
        }
      ],
      "payable": false,
      "stateMutability": "nonpayable",
      "type": "function",
      "signature": "0x7b8d56e3"
    }
  ],
  "bytecode": "0x60806040526101f46011556064601255603c60135560006015556000601660006101000a81548160ff02191690831515021790555034801561004057600080fd5b5060405160e0806123f08339810180604052810190808051906020019092919080519060200190929190805190602001909291908051906020019092919080519060200190929190805190602001909291908051906020019092919050505082878282600160006101000a81548173ffffffffffffffffffffffffffffffffffffffff021916908373ffffffffffffffffffffffffffffffffffffffff160217905550826000806101000a81548173ffffffffffffffffffffffffffffffffffffffff021916908373ffffffffffffffffffffffffffffffffffffffff16021790555081600260006101000a81548173ffffffffffffffffffffffffffffffffffffffff021916908373ffffffffffffffffffffffffffffffffffffffff1602179055508060048190555050505085600e60006101000a81548173ffffffffffffffffffffffffffffffffffffffff021916908373ffffffffffffffffffffffffffffffffffffffff16021790555084600f60006101000a81548173ffffffffffffffffffffffffffffffffffffffff021916908373ffffffffffffffffffffffffffffffffffffffff16021790555083601060006101000a81548173ffffffffffffffffffffffffffffffffffffffff021916908373ffffffffffffffffffffffffffffffffffffffff1602179055508160148190555082600160006101000a81548173ffffffffffffffffffffffffffffffffffffffff021916908373ffffffffffffffffffffffffffffffffffffffff160217905550826000806101000a81548173ffffffffffffffffffffffffffffffffffffffff021916908373ffffffffffffffffffffffffffffffffffffffff1602179055507fce93baa0b608a7d420822b6b90cfcccb70574363ba4fd26ef5ac17dd465016c4600160009054906101000a900473ffffffffffffffffffffffffffffffffffffffff16604051808273ffffffffffffffffffffffffffffffffffffffff1673ffffffffffffffffffffffffffffffffffffffff16815260200191505060405180910390a15050505050505061209c806103546000396000f300608060405260043610610133576000357c0100000000000000000000000000000000000000000000000000000000900463ffffffff16806303ee06f414610138578063053f14da146101875780630f36a16d146101ec57806316d43a97146102475780631f2698ab1461027257806339a3da4a146102a1578063427cb6fe14610306578063537f53731461035d5780635623732e14610388578063570ca735146103b357806357ef7f571461040a57806361efd49014610435578063660d6eaf1461046057806377680bb5146104af5780637b8d56e3146104da578063ab0ca0e114610529578063d1e61e2414610580578063d33b8d23146105e5578063d5934b761461063c578063d8cf24fd1461066b578063dcfe4c531461069d578063e5693f41146106c8578063f5b2aa751461071f575b600080fd5b34801561014457600080fd5b5061016d6004803603810190808035906020019092919080359060200190929190505050610764565b604051808215151515815260200191505060405180910390f35b34801561019357600080fd5b5061019c611051565b604051808481526020018381526020018273ffffffffffffffffffffffffffffffffffffffff1673ffffffffffffffffffffffffffffffffffffffff168152602001935050505060405180910390f35b3480156101f857600080fd5b5061022d600480360381019080803573ffffffffffffffffffffffffffffffffffffffff169060200190929190505050611089565b604051808215151515815260200191505060405180910390f35b34801561025357600080fd5b5061025c6113a9565b6040518082815260200191505060405180910390f35b34801561027e57600080fd5b506102876113af565b604051808215151515815260200191505060405180910390f35b3480156102ad57600080fd5b506102b66113c2565b604051808481526020018381526020018273ffffffffffffffffffffffffffffffffffffffff1673ffffffffffffffffffffffffffffffffffffffff168152602001935050505060405180910390f35b34801561031257600080fd5b5061031b6113fa565b604051808273ffffffffffffffffffffffffffffffffffffffff1673ffffffffffffffffffffffffffffffffffffffff16815260200191505060405180910390f35b34801561036957600080fd5b50610372611420565b6040518082815260200191505060405180910390f35b34801561039457600080fd5b5061039d611426565b6040518082815260200191505060405180910390f35b3480156103bf57600080fd5b506103c861142c565b604051808273ffffffffffffffffffffffffffffffffffffffff1673ffffffffffffffffffffffffffffffffffffffff16815260200191505060405180910390f35b34801561041657600080fd5b5061041f611452565b6040518082815260200191505060405180910390f35b34801561044157600080fd5b5061044a611458565b6040518082815260200191505060405180910390f35b34801561046c57600080fd5b50610495600480360381019080803590602001909291908035906020019092919050505061145e565b604051808215151515815260200191505060405180910390f35b3480156104bb57600080fd5b506104c461167d565b6040518082815260200191505060405180910390f35b3480156104e657600080fd5b5061050f6004803603810190808035906020019092919080359060200190929190505050611683565b604051808215151515815260200191505060405180910390f35b34801561053557600080fd5b5061053e6117cf565b604051808273ffffffffffffffffffffffffffffffffffffffff1673ffffffffffffffffffffffffffffffffffffffff16815260200191505060405180910390f35b34801561058c57600080fd5b506105956117f5565b604051808481526020018381526020018273ffffffffffffffffffffffffffffffffffffffff1673ffffffffffffffffffffffffffffffffffffffff168152602001935050505060405180910390f35b3480156105f157600080fd5b506105fa61182d565b604051808273ffffffffffffffffffffffffffffffffffffffff1673ffffffffffffffffffffffffffffffffffffffff16815260200191505060405180910390f35b34801561064857600080fd5b50610651611853565b604051808215151515815260200191505060405180910390f35b34801561067757600080fd5b50610680611a83565b604051808381526020018281526020019250505060405180910390f35b3480156106a957600080fd5b506106b2611a9a565b6040518082815260200191505060405180910390f35b3480156106d457600080fd5b506106dd611aa0565b604051808273ffffffffffffffffffffffffffffffffffffffff1673ffffffffffffffffffffffffffffffffffffffff16815260200191505060405180910390f35b34801561072b57600080fd5b5061074a60048036038101908080359060200190929190505050611ac6565b604051808215151515815260200191505060405180910390f35b6000806000600e60009054906101000a900473ffffffffffffffffffffffffffffffffffffffff1673ffffffffffffffffffffffffffffffffffffffff163373ffffffffffffffffffffffffffffffffffffffff1614806108125750600f60009054906101000a900473ffffffffffffffffffffffffffffffffffffffff1673ffffffffffffffffffffffffffffffffffffffff163373ffffffffffffffffffffffffffffffffffffffff16145b8061086a5750601060009054906101000a900473ffffffffffffffffffffffffffffffffffffffff1673ffffffffffffffffffffffffffffffffffffffff163373ffffffffffffffffffffffffffffffffffffffff16145b151561087557600080fd5b601660009054906101000a900460ff1680156108985750610894611d8a565b8411155b80156108bd57506108b9601454600b60010154611d9290919063ffffffff16565b8410155b15156108c857600080fd5b60006015541415610a4b576108eb600b6000015486611db090919063ffffffff16565b915060115461091c600b6000015461090e61271086611ddb90919063ffffffff16565b611e0e90919063ffffffff16565b1115156109335761092e858533611e29565b610a46565b6060604051908101604052808681526020018581526020013373ffffffffffffffffffffffffffffffffffffffff168152506005600082015181600001556020820151816001015560408201518160020160006101000a81548173ffffffffffffffffffffffffffffffffffffffff021916908373ffffffffffffffffffffffffffffffffffffffff16021790555090505083857fe95a7bb58ff5f75fa581ca00ff98b7a825caba174942abffb75a1d2b12d90dd9336000604051808373ffffffffffffffffffffffffffffffffffffffff1673ffffffffffffffffffffffffffffffffffffffff1681526020018281526020019250505060405180910390a36015600081548092919060010191905055505b611044565b60016015541415610da757610a70601454600560010154611d9290919063ffffffff16565b841115610b1b573373ffffffffffffffffffffffffffffffffffffffff16600560020160009054906101000a900473ffffffffffffffffffffffffffffffffffffffff1673ffffffffffffffffffffffffffffffffffffffff161415610ae057610adb858533611e29565b610b16565b610b1560056000015485600560020160009054906101000a900473ffffffffffffffffffffffffffffffffffffffff16611e29565b5b610da2565b3373ffffffffffffffffffffffffffffffffffffffff16600560020160009054906101000a900473ffffffffffffffffffffffffffffffffffffffff1673ffffffffffffffffffffffffffffffffffffffff1614151515610b7b57600080fd5b83610b96601354600560010154611d9290919063ffffffff16565b1080610bba575083610bb8601354600560010154611ef390919063ffffffff16565b115b15610bfe57610bf9600560000154600560010154600560020160009054906101000a900473ffffffffffffffffffffffffffffffffffffffff16611e29565b610da1565b610c1660056000015486611db090919063ffffffff16565b9150601154610c47600560000154610c3961271086611ddb90919063ffffffff16565b611e0e90919063ffffffff16565b111515610c8d57610c88600560000154600560010154600560020160009054906101000a900473ffffffffffffffffffffffffffffffffffffffff16611e29565b610da0565b6060604051908101604052808681526020018581526020013373ffffffffffffffffffffffffffffffffffffffff168152506008600082015181600001556020820151816001015560408201518160020160006101000a81548173ffffffffffffffffffffffffffffffffffffffff021916908373ffffffffffffffffffffffffffffffffffffffff16021790555090505083857fe95a7bb58ff5f75fa581ca00ff98b7a825caba174942abffb75a1d2b12d90dd9336001604051808373ffffffffffffffffffffffffffffffffffffffff1673ffffffffffffffffffffffffffffffffffffffff1681526020018281526020019250505060405180910390a36015600081548092919060010191905055505b5b5b611043565b600260155414156110395760145460056001015401841115610ec2573373ffffffffffffffffffffffffffffffffffffffff16600560020160009054906101000a900473ffffffffffffffffffffffffffffffffffffffff1673ffffffffffffffffffffffffffffffffffffffff161480610e7257503373ffffffffffffffffffffffffffffffffffffffff16600860020160009054906101000a900473ffffffffffffffffffffffffffffffffffffffff1673ffffffffffffffffffffffffffffffffffffffff16145b15610e8757610e82858533611e29565b610ebd565b610ebc60086000015485600860020160009054906101000a900473ffffffffffffffffffffffffffffffffffffffff16611e29565b5b611034565b3373ffffffffffffffffffffffffffffffffffffffff16600560020160009054906101000a900473ffffffffffffffffffffffffffffffffffffffff1673ffffffffffffffffffffffffffffffffffffffff1614158015610f7457503373ffffffffffffffffffffffffffffffffffffffff16600860020160009054906101000a900473ffffffffffffffffffffffffffffffffffffffff1673ffffffffffffffffffffffffffffffffffffffff1614155b1515610f7f57600080fd5b83610f9a601354600560010154611d9290919063ffffffff16565b1080610fbe575083610fbc601354600560010154611ef390919063ffffffff16565b115b15610fd0576005600001549050610ffe565b846008600001541415610fe557849050610ffd565b610ffa60056000015460086000015487611f0c565b90505b5b61103381600560010154600560020160009054906101000a900473ffffffffffffffffffffffffffffffffffffffff16611e29565b5b611042565b60009250611049565b5b5b600192505b505092915050565b600b8060000154908060010154908060020160009054906101000a900473ffffffffffffffffffffffffffffffffffffffff16905083565b600080611094611d8a565b90506004546003548203101515156110ab57600080fd5b6000809054906101000a900473ffffffffffffffffffffffffffffffffffffffff1673ffffffffffffffffffffffffffffffffffffffff1663b0a93414846040518263ffffffff167c0100000000000000000000000000000000000000000000000000000000028152600401808273ffffffffffffffffffffffffffffffffffffffff1673ffffffffffffffffffffffffffffffffffffffff168152602001915050602060405180830381600087803b15801561116757600080fd5b505af115801561117b573d6000803e3d6000fd5b505050506040513d602081101561119157600080fd5b810190808051906020019092919050505015156111ad57600080fd5b82600160006101000a81548173ffffffffffffffffffffffffffffffffffffffff021916908373ffffffffffffffffffffffffffffffffffffffff160217905550600160009054906101000a900473ffffffffffffffffffffffffffffffffffffffff166000806101000a81548173ffffffffffffffffffffffffffffffffffffffff021916908373ffffffffffffffffffffffffffffffffffffffff16021790555060008060009054906101000a900473ffffffffffffffffffffffffffffffffffffffff1673ffffffffffffffffffffffffffffffffffffffff1663387439046040518163ffffffff167c0100000000000000000000000000000000000000000000000000000000028152600401602060405180830381600087803b1580156112d757600080fd5b505af11580156112eb573d6000803e3d6000fd5b505050506040513d602081101561130157600080fd5b810190808051906020019092919050505073ffffffffffffffffffffffffffffffffffffffff161415151561133557600080fd5b7fce93baa0b608a7d420822b6b90cfcccb70574363ba4fd26ef5ac17dd465016c483604051808273ffffffffffffffffffffffffffffffffffffffff1673ffffffffffffffffffffffffffffffffffffffff16815260200191505060405180910390a1600191508060038190555050919050565b60035481565b601660009054906101000a900460ff1681565b60058060000154908060010154908060020160009054906101000a900473ffffffffffffffffffffffffffffffffffffffff16905083565b601060009054906101000a900473ffffffffffffffffffffffffffffffffffffffff1681565b60125481565b60045481565b600260009054906101000a900473ffffffffffffffffffffffffffffffffffffffff1681565b60135481565b60115481565b6000600e60009054906101000a900473ffffffffffffffffffffffffffffffffffffffff1673ffffffffffffffffffffffffffffffffffffffff163373ffffffffffffffffffffffffffffffffffffffff1614806115095750600f60009054906101000a900473ffffffffffffffffffffffffffffffffffffffff1673ffffffffffffffffffffffffffffffffffffffff163373ffffffffffffffffffffffffffffffffffffffff16145b806115615750601060009054906101000a900473ffffffffffffffffffffffffffffffffffffffff1673ffffffffffffffffffffffffffffffffffffffff163373ffffffffffffffffffffffffffffffffffffffff16145b151561156c57600080fd5b601660009054906101000a900460ff16158015611590575061158c611d8a565b8211155b151561159b57600080fd5b81600b6001018190555082600b6000018190555033600b60020160006101000a81548173ffffffffffffffffffffffffffffffffffffffff021916908373ffffffffffffffffffffffffffffffffffffffff1602179055506001601660006101000a81548160ff02191690831515021790555081837f60a26741549361639cff0096d0c4599ee53831ec6dec262b89d7fb1ddde1726e33604051808273ffffffffffffffffffffffffffffffffffffffff1673ffffffffffffffffffffffffffffffffffffffff16815260200191505060405180910390a36001905092915050565b60155481565b600080600260009054906101000a900473ffffffffffffffffffffffffffffffffffffffff168073ffffffffffffffffffffffffffffffffffffffff163373ffffffffffffffffffffffffffffffffffffffff161415156116e357600080fd5b60006116ed611d8a565b905060045460035482031015151561170457600080fd5b600086141561171e57601154925084601181905550611774565b600186141561173857601254925084601281905550611773565b600286141561175257601354925084601381905550611772565b600386141561176c57601454925084601481905550611771565b600080fd5b5b5b5b7fabd08d77cf1eed600c8ba851f4210365f6695aa58b9500aa52a83db7d8b534ba86848760405180848152602001838152602001828152602001935050505060405180910390a1600193508060038190555050505092915050565b600e60009054906101000a900473ffffffffffffffffffffffffffffffffffffffff1681565b60088060000154908060010154908060020160009054906101000a900473ffffffffffffffffffffffffffffffffffffffff16905083565b600160009054906101000a900473ffffffffffffffffffffffffffffffffffffffff1681565b6000806000611860611d8a565b905060045460035482031015151561187757600080fd5b3391506000809054906101000a900473ffffffffffffffffffffffffffffffffffffffff1673ffffffffffffffffffffffffffffffffffffffff1663d04787a78360006040518363ffffffff167c0100000000000000000000000000000000000000000000000000000000028152600401808373ffffffffffffffffffffffffffffffffffffffff1673ffffffffffffffffffffffffffffffffffffffff16815260200182815260200192505050602060405180830381600087803b15801561193f57600080fd5b505af1158015611953573d6000803e3d6000fd5b505050506040513d602081101561196957600080fd5b8101908080519060200190929190505050600260006101000a81548173ffffffffffffffffffffffffffffffffffffffff021916908373ffffffffffffffffffffffffffffffffffffffff1602179055507ff7fa3b6184cd955c4d8db1b118f541d29ad3cde98ac41ffac1864077b27acc5b82600260009054906101000a900473ffffffffffffffffffffffffffffffffffffffff16604051808373ffffffffffffffffffffffffffffffffffffffff1673ffffffffffffffffffffffffffffffffffffffff1681526020018273ffffffffffffffffffffffffffffffffffffffff1673ffffffffffffffffffffffffffffffffffffffff1681526020019250505060405180910390a16001925080600381905550505090565b600080600b60000154600b60010154915091509091565b60145481565b600f60009054906101000a900473ffffffffffffffffffffffffffffffffffffffff1681565b600080600080611ad4611d8a565b9050600454600354820310151515611aeb57600080fd5b600385101515611afa57600080fd5b3392506000809054906101000a900473ffffffffffffffffffffffffffffffffffffffff1673ffffffffffffffffffffffffffffffffffffffff1663d04787a78460016040518363ffffffff167c0100000000000000000000000000000000000000000000000000000000028152600401808373ffffffffffffffffffffffffffffffffffffffff1673ffffffffffffffffffffffffffffffffffffffff16815260200182815260200192505050602060405180830381600087803b158015611bc257600080fd5b505af1158015611bd6573d6000803e3d6000fd5b505050506040513d6020811015611bec57600080fd5b810190808051906020019092919050505091506000851415611c4e5781600e60006101000a81548173ffffffffffffffffffffffffffffffffffffffff021916908373ffffffffffffffffffffffffffffffffffffffff160217905550611ce0565b6001851415611c9d5781600f60006101000a81548173ffffffffffffffffffffffffffffffffffffffff021916908373ffffffffffffffffffffffffffffffffffffffff160217905550611cdf565b81601060006101000a81548173ffffffffffffffffffffffffffffffffffffffff021916908373ffffffffffffffffffffffffffffffffffffffff1602179055505b5b7f0c19c511fd3cdf7b4524c00cd2176627ee9fdd2644d68683e6cc04b79280f3168383604051808373ffffffffffffffffffffffffffffffffffffffff1673ffffffffffffffffffffffffffffffffffffffff1681526020018273ffffffffffffffffffffffffffffffffffffffff1673ffffffffffffffffffffffffffffffffffffffff1681526020019250505060405180910390a16001935080600381905550505050919050565b600042905090565b6000808284019050838110151515611da657fe5b8091505092915050565b6000818311611dc857611dc38284611ef3565b611dd3565b611dd28383611ef3565b5b905092915050565b60008082840290506000841480611dfc5750828482811515611df957fe5b04145b1515611e0457fe5b8091505092915050565b6000808284811515611e1c57fe5b0490508091505092915050565b82600b6000018190555081600b6001018190555080600b60020160006101000a81548173ffffffffffffffffffffffffffffffffffffffff021916908373ffffffffffffffffffffffffffffffffffffffff160217905550600060158190555081837f60a26741549361639cff0096d0c4599ee53831ec6dec262b89d7fb1ddde1726e83604051808273ffffffffffffffffffffffffffffffffffffffff1673ffffffffffffffffffffffffffffffffffffffff16815260200191505060405180910390a3505050565b6000828211151515611f0157fe5b818303905092915050565b6000807f010000000000000000000000000000000000000000000000000000000000000002611f44858461200e90919063ffffffff16565b611f57858761200e90919063ffffffff16565b187effffffffffffffffffffffffffffffffffffffffffffffffffffffffffffff19161415611f8857839050612007565b60007f010000000000000000000000000000000000000000000000000000000000000002611fbf848461200e90919063ffffffff16565b611fd2868661200e90919063ffffffff16565b187effffffffffffffffffffffffffffffffffffffffffffffffffffffffffffff1916141561200357829050612007565b8190505b9392505050565b60008060007f0100000000000000000000000000000000000000000000000000000000000000029050828411156120665760017f01000000000000000000000000000000000000000000000000000000000000000290505b80915050929150505600a165627a7a723058204484d0e1572c3d6db1b71a37a130266de8fb375b4b618350c08094c8a3beccd10029",
  "source": "pragma solidity ^0.4.24;\nimport { SafeMath } from \"../common/SafeMath.sol\";\nimport { Managed } from \"../common/Managed.sol\";\nimport { IMultiSigManager } from \"../interfaces/IMultiSigManager.sol\";\n\n/// @title Magi - oracle contract accepts price commit\n/// @author duo.network\ncontract Magi is Managed {\n\tusing SafeMath for uint;\n\n\t/*\n     * Storage\n     */\n\tstruct Price {\n\t\tuint priceInWei;\n\t\tuint timeInSecond;\n\t\taddress source;\n\t}\n\tPrice public firstPrice;\n\tPrice public secondPrice;\n\tPrice public lastPrice;\n\taddress public priceFeed1; \n\taddress public priceFeed2; \n\taddress public priceFeed3;\n\tuint public priceTolInBP = 500; \n\tuint public priceFeedTolInBP = 100;\n\tuint public priceFeedTimeTol = 1 minutes;\n\tuint public priceUpdateCoolDown;\n\tuint public numOfPrices = 0;\n\tbool public started = false;\n\n\t/*\n     * Modifier\n     */\n\tmodifier isPriceFeed() {\n\t\trequire(msg.sender == priceFeed1 || msg.sender == priceFeed2 || msg.sender == priceFeed3);\n\t\t_;\n\t}\n\n\t/*\n     * Events\n     */\n\tevent CommitPrice(uint indexed priceInWei, uint indexed timeInSecond, address sender, uint index);\n\tevent AcceptPrice(uint indexed priceInWei, uint indexed timeInSecond, address sender);\n\tevent SetValue(uint index, uint oldValue, uint newValue);\n\tevent UpdatePriceFeed(address updater, address newPriceFeed);\n\n\t/*\n     * Constructor\n     */\n\tconstructor(\n\t\taddress opt,\n\t\taddress pf1,\n\t\taddress pf2,\n\t\taddress pf3,\n\t\taddress roleManagerAddr,\n\t\tuint pxCoolDown,\n\t\tuint optCoolDown\n\t\t) \n\t\tpublic\n\t\tManaged(roleManagerAddr, opt, optCoolDown) \n\t{\n\t\tpriceFeed1 = pf1;\n\t\tpriceFeed2 = pf2;\n\t\tpriceFeed3 = pf3;\n\t\tpriceUpdateCoolDown = pxCoolDown;\n\t\troleManagerAddress = roleManagerAddr;\n\t\troleManager = IMultiSigManager(roleManagerAddr);\n\t\temit UpdateRoleManager(roleManagerAddress);\n\t}\n\n\n\t/*\n     * Public Functions\n     */\n\tfunction startOracle(\n\t\tuint priceInWei, \n\t\tuint timeInSecond\n\t)\n\t\tpublic \n\t\tisPriceFeed() \n\t\treturns (bool success) \n\t{\n\t\trequire(!started && timeInSecond <= getNowTimestamp());\n\t\tlastPrice.timeInSecond = timeInSecond;\n\t\tlastPrice.priceInWei = priceInWei;\n\t\tlastPrice.source = msg.sender;\n\t\tstarted = true;\n\t\temit AcceptPrice(priceInWei, timeInSecond, msg.sender);\n\t\treturn true;\n\t}\n\n\n\tfunction getLastPrice() public view returns(uint, uint) {\n\t\treturn (lastPrice.priceInWei, lastPrice.timeInSecond);\n\t}\n\n\t// start of oracle\n\tfunction commitPrice(uint priceInWei, uint timeInSecond) \n\t\tpublic \n\t\tisPriceFeed()\n\t\treturns (bool success)\n\t{\t\n\t\trequire(started && timeInSecond <= getNowTimestamp() && timeInSecond >= lastPrice.timeInSecond.add(priceUpdateCoolDown));\n\t\tuint priceDiff;\n\t\tif (numOfPrices == 0) {\n\t\t\tpriceDiff = priceInWei.diff(lastPrice.priceInWei);\n\t\t\tif (priceDiff.mul(BP_DENOMINATOR).div(lastPrice.priceInWei) <= priceTolInBP) {\n\t\t\t\tacceptPrice(priceInWei, timeInSecond, msg.sender);\n\t\t\t} else {\n\t\t\t\t// wait for the second price\n\t\t\t\tfirstPrice = Price(priceInWei, timeInSecond, msg.sender);\n\t\t\t\temit CommitPrice(priceInWei, timeInSecond, msg.sender, 0);\n\t\t\t\tnumOfPrices++;\n\t\t\t}\n\t\t} else if (numOfPrices == 1) {\n\t\t\tif (timeInSecond > firstPrice.timeInSecond.add(priceUpdateCoolDown)) {\n\t\t\t\tif (firstPrice.source == msg.sender)\n\t\t\t\t\tacceptPrice(priceInWei, timeInSecond, msg.sender);\n\t\t\t\telse\n\t\t\t\t\tacceptPrice(firstPrice.priceInWei, timeInSecond, firstPrice.source);\n\t\t\t} else {\n\t\t\t\trequire(firstPrice.source != msg.sender);\n\t\t\t\t// if second price times out, use first one\n\t\t\t\tif (firstPrice.timeInSecond.add(priceFeedTimeTol) < timeInSecond || \n\t\t\t\t\tfirstPrice.timeInSecond.sub(priceFeedTimeTol) > timeInSecond) {\n\t\t\t\t\tacceptPrice(firstPrice.priceInWei, firstPrice.timeInSecond, firstPrice.source);\n\t\t\t\t} else {\n\t\t\t\t\tpriceDiff = priceInWei.diff(firstPrice.priceInWei);\n\t\t\t\t\tif (priceDiff.mul(BP_DENOMINATOR).div(firstPrice.priceInWei) <= priceTolInBP) {\n\t\t\t\t\t\tacceptPrice(firstPrice.priceInWei, firstPrice.timeInSecond, firstPrice.source);\n\t\t\t\t\t} else {\n\t\t\t\t\t\t// wait for the third price\n\t\t\t\t\t\tsecondPrice = Price(priceInWei, timeInSecond, msg.sender);\n\t\t\t\t\t\temit CommitPrice(priceInWei, timeInSecond, msg.sender, 1);\n\t\t\t\t\t\tnumOfPrices++;\n\t\t\t\t\t} \n\t\t\t\t}\n\t\t\t}\n\t\t} else if (numOfPrices == 2) {\n\t\t\tif (timeInSecond > firstPrice.timeInSecond + priceUpdateCoolDown) {\n\t\t\t\tif ((firstPrice.source == msg.sender || secondPrice.source == msg.sender))\n\t\t\t\t\tacceptPrice(priceInWei, timeInSecond, msg.sender);\n\t\t\t\telse\n\t\t\t\t\tacceptPrice(secondPrice.priceInWei, timeInSecond, secondPrice.source);\n\t\t\t} else {\n\t\t\t\trequire(firstPrice.source != msg.sender && secondPrice.source != msg.sender);\n\t\t\t\tuint acceptedPriceInWei;\n\t\t\t\t// if third price times out, use first one\n\t\t\t\tif (firstPrice.timeInSecond.add(priceFeedTimeTol) < timeInSecond || \n\t\t\t\t\tfirstPrice.timeInSecond.sub(priceFeedTimeTol) > timeInSecond) {\n\t\t\t\t\tacceptedPriceInWei = firstPrice.priceInWei;\n\t\t\t\t} else {\n\t\t\t\t\t// take median and proceed\n\t\t\t\t\t// first and second price will never be equal in this part\n\t\t\t\t\t// if second and third price are the same, they are median\n\t\t\t\t\tif (secondPrice.priceInWei == priceInWei) {\n\t\t\t\t\t\tacceptedPriceInWei = priceInWei;\n\t\t\t\t\t} else {\n\t\t\t\t\t\tacceptedPriceInWei = getMedian(firstPrice.priceInWei, secondPrice.priceInWei, priceInWei);\n\t\t\t\t\t}\n\t\t\t\t}\n\t\t\t\tacceptPrice(acceptedPriceInWei, firstPrice.timeInSecond, firstPrice.source);\n\t\t\t}\n\t\t} else {\n\t\t\treturn false;\n\t\t}\n\n\t\treturn true;\n\t}\n\n\t/*Internal Functions\n     */\n\tfunction acceptPrice(uint priceInWei, uint timeInSecond, address source) internal {\n\t\tlastPrice.priceInWei = priceInWei;\n\t\tlastPrice.timeInSecond = timeInSecond;\n\t\tlastPrice.source = source;\n\t\tnumOfPrices = 0;\n\t\temit AcceptPrice(priceInWei, timeInSecond, source);\n\t}\n\n\tfunction getMedian(uint a, uint b, uint c) internal pure returns (uint) {\n\t\tif (a.gt(b) ^ c.gt(a) == 0x0) {\n\t\t\treturn a;\n\t\t} else if(b.gt(a) ^ c.gt(b) == 0x0) {\n\t\t\treturn b;\n\t\t} else {\n\t\t\treturn c;\n\t\t}\n\t}\n\t// end of oracle\n\n\t// start of operator function\n\tfunction updatePriceFeed(uint index) \n\t\tinUpdateWindow() \n\t\tpublic \n\treturns (bool) {\n\t\trequire(index < 3);\n\t\taddress updater = msg.sender;\n\t\taddress newAddr = roleManager.provideAddress(updater, 1);\n\t\tif(index == 0) \n\t\t\tpriceFeed1 = newAddr;\n\t\telse if (index == 1)\n\t\t\tpriceFeed2 = newAddr;\n\t\telse // index == 2\n\t\t\tpriceFeed3 = newAddr;\n\t\t\n\t\temit UpdatePriceFeed(updater, newAddr);\n\t\treturn true;\n\t}\n\n\tfunction setValue(\n\t\tuint idx, \n\t\tuint newValue\n\t) \n\t\tpublic \n\t\tonly(operator) \n\t\tinUpdateWindow() \n\treturns (bool success) {\n\t\tuint oldValue;\n\t\tif (idx == 0) {\n\t\t\toldValue = priceTolInBP;\n\t\t\tpriceTolInBP = newValue;\n\t\t} else if (idx == 1) {\n\t\t\toldValue = priceFeedTolInBP;\n\t\t\tpriceFeedTolInBP = newValue;\n\t\t} else if (idx == 2) {\n\t\t\toldValue = priceFeedTimeTol;\n\t\t\tpriceFeedTimeTol = newValue;\n\t\t} else if (idx == 3) {\n\t\t\toldValue = priceUpdateCoolDown;\n\t\t\tpriceUpdateCoolDown = newValue;\n\t\t} else {\n\t\t\trevert();\n\t\t}\n\n\t\temit SetValue(idx, oldValue, newValue);\n\t\treturn true;\n\t}\n\t// end of operator function\n\n}\n",
  "sourcePath": "C:\\dev\\coinFront\\duo-contract\\contracts\\oracles\\Magi.sol",
  "compiler": {
    "name": "solc",
    "version": "0.4.24+commit.e67f0147.Emscripten.clang"
  },
  "schemaVersion": "3.0.0-beta.0",
  "updatedAt": "2018-11-12T09:14:29.397Z"
}